{
  "transactions": [
    {
      "hash": "0xf23a59f516da36b8d78df7f239576d3c4bf0fff1ccb23fc9950711ab432d6f28",
      "transactionType": "CALL",
      "contractName": null,
      "contractAddress": "0xe03a1074c86cfedd5c142c4f04f1a1536e203543",
      "function": "initialize((address,address,uint24,int24,address),uint160)",
      "arguments": [
        "(0x1c7D4B196Cb0C7B01d743Fbc6116a902379C7238, 0xfFf9976782d46CC05630D1f6eBAb18b2324d6B14, 3000, 60, 0x1846217Bae61BF26612BD8d9a64b970d525B4080)",
        "177184581270090251791587338698559852200"
      ],
      "transaction": {
        "from": "0x89feeba43b294425c0d7b482770eefbcc1359f8d",
        "to": "0xe03a1074c86cfedd5c142c4f04f1a1536e203543",
        "gas": "0x11a1a",
        "value": "0x0",
        "input": "0x6276cbbe0000000000000000000000001c7d4b196cb0c7b01d743fbc6116a902379c7238000000000000000000000000fff9976782d46cc05630d1f6ebab18b2324d6b140000000000000000000000000000000000000000000000000000000000000bb8000000000000000000000000000000000000000000000000000000000000003c0000000000000000000000001846217bae61bf26612bd8d9a64b970d525b408000000000000000000000000000000000854c8252c038f801a4763535415c0ea8",
        "nonce": "0xdc",
        "chainId": "0xaa36a7"
      },
      "additionalContracts": [],
      "isFixedGasLimit": false
    }
  ],
  "receipts": [
    {
      "status": "0x1",
      "cumulativeGasUsed": "0xd52995",
      "logs": [
        {
          "address": "0xe03a1074c86cfedd5c142c4f04f1a1536e203543",
          "topics": [
            "0xdd466e674ea557f56295e2d0218a125ea4b4f0f6f3307b95f85e6110838d6438",
            "0xad7c5db0b7c27da403980dfbd32bfa826fb086f590bdf6a49641f59a1eef8367",
            "0x0000000000000000000000001c7d4b196cb0c7b01d743fbc6116a902379c7238",
            "0x000000000000000000000000fff9976782d46cc05630d1f6ebab18b2324d6b14"
          ],
          "data": "0x0000000000000000000000000000000000000000000000000000000000000bb8000000000000000000000000000000000000000000000000000000000000003c0000000000000000000000001846217bae61bf26612bd8d9a64b970d525b408000000000000000000000000000000000854c8252c038f801a4763535415c0ea800000000000000000000000000000000000000000000000000000000000691f8",
          "blockHash": "0x932ce148230cbb55851f771122584699d41593c4304549c8cb60522d4b54e719",
          "blockNumber": "0x9bb4c0",
          "blockTimestamp": "0x69860838",
          "transactionHash": "0xf23a59f516da36b8d78df7f239576d3c4bf0fff1ccb23fc9950711ab432d6f28",
          "transactionIndex": "0x45",
          "logIndex": "0x8c",
          "removed": false
        }
      ],
      "logsBloom": "0x00000000001000000000000000000000000000000000000000000000000000000000000000000000000000008000000000000900000004000000000000000000100000000000000000000000000000000000000000040000000000000000000000000000000000000000000000000000000000000000100200000000000000000000000000000008000000000000000000000001000000000000000000200000000000000000000000000000000000000000008000000000000000000000000000000000000000000000000001000000000000000000000000000000000000001000000000000000000000000000000000000000000000000000000000000000",
      "type": "0x2",
      "transactionHash": "0xf23a59f516da36b8d78df7f239576d3c4bf0fff1ccb23fc9950711ab432d6f28",
      "transactionIndex": "0x45",
      "blockHash": "0x932ce148230cbb55851f771122584699d41593c4304549c8cb60522d4b54e719",
      "blockNumber": "0x9bb4c0",
      "gasUsed": "0xcc3e",
      "effectiveGasPrice": "0x3d4396b6",
      "from": "0x89feeba43b294425c0d7b482770eefbcc1359f8d",
      "to": "0xe03a1074c86cfedd5c142c4f04f1a1536e203543",
      "contractAddress": null
    }
  ],
  "libraries": [],
  "pending": [],
  "returns": {},
  "timestamp": 1770391609416,
  "chain": 11155111,
  "commit": "58e7602"
}