{
  "transactions": [
    {
      "hash": "0xe720b5112ae9d2a5d3d3d67bbca283258719041e244e91f21c994ce484522c69",
      "transactionType": "CALL",
      "contractName": null,
      "contractAddress": "0x1c7d4b196cb0c7b01d743fbc6116a902379c7238",
      "function": "approve(address,uint256)",
      "arguments": [
        "0x000000000022D473030F116dDEE9F6B43aC78BA3",
        "115792089237316195423570985008687907853269984665640564039457584007913129639935"
      ],
      "transaction": {
        "from": "0x89feeba43b294425c0d7b482770eefbcc1359f8d",
        "to": "0x1c7d4b196cb0c7b01d743fbc6116a902379c7238",
        "gas": "0xdca8",
        "value": "0x0",
        "input": "0x095ea7b3000000000000000000000000000000000022d473030f116ddee9f6b43ac78ba3ffffffffffffffffffffffffffffffffffffffffffffffffffffffffffffffff",
        "nonce": "0x74",
        "chainId": "0xaa36a7"
      },
      "additionalContracts": [],
      "isFixedGasLimit": false
    },
    {
      "hash": "0x5cd9beeb99797e8959ee24a541a036ff205988bf2f0d24eec27d5675702c14fe",
      "transactionType": "CALL",
      "contractName": null,
      "contractAddress": "0x000000000022d473030f116ddee9f6b43ac78ba3",
      "function": "approve(address,address,uint160,uint48)",
      "arguments": [
        "0x1c7D4B196Cb0C7B01d743Fbc6116a902379C7238",
        "0x429ba70129df741B2Ca2a85BC3A2a3328e5c09b4",
        "1461501637330902918203684832716283019655932542975",
        "1770397572"
      ],
      "transaction": {
        "from": "0x89feeba43b294425c0d7b482770eefbcc1359f8d",
        "to": "0x000000000022d473030f116ddee9f6b43ac78ba3",
        "gas": "0xa59b",
        "value": "0x0",
        "input": "0x87517c450000000000000000000000001c7d4b196cb0c7b01d743fbc6116a902379c7238000000000000000000000000429ba70129df741b2ca2a85bc3a2a3328e5c09b4000000000000000000000000ffffffffffffffffffffffffffffffffffffffff0000000000000000000000000000000000000000000000000000000069861f84",
        "nonce": "0x75",
        "chainId": "0xaa36a7"
      },
      "additionalContracts": [],
      "isFixedGasLimit": false
    },
    {
      "hash": "0x2f2e79198c1d1bfdfabaf6bf183e40a969be0dc4c45d204f970154c6d1fb92de",
      "transactionType": "CALL",
      "contractName": null,
      "contractAddress": "0x429ba70129df741b2ca2a85bc3a2a3328e5c09b4",
      "function": "modifyLiquidities(bytes,uint256)",
      "arguments": [
        "0x000000000000000000000000000000000000000000000000000000000000004000000000000000000000000000000000000000000000000000000000000000800000000000000000000000000000000000000000000000000000000000000002020d00000000000000000000000000000000000000000000000000000000000000000000000000000000000000000000000000000000000000000000000000020000000000000000000000000000000000000000000000000000000000000040000000000000000000000000000000000000000000000000000000000000020000000000000000000000000000000000000000000000000000000000000001a000000000000000000000000000000000000000000000000000000000000000000000000000000000000000001c7d4b196cb0c7b01d743fbc6116a902379c72380000000000000000000000000000000000000000000000000000000000000bb8000000000000000000000000000000000000000000000000000000000000003c000000000000000000000000ca3656933c53642bceebfd40f0b5d5d3abcfc3e5fffffffffffffffffffffffffffffffffffffffffffffffffffffffffff2764c00000000000000000000000000000000000000000000000000000000000d89b400000000000000000000000000000000000000000000000000000000000027100000000000000000000000000000000000000000000000000000000000002710000000000000000000000000000000000000000000000000002386f26fc1000000000000000000000000000089feeba43b294425c0d7b482770eefbcc1359f8d00000000000000000000000000000000000000000000000000000000000001800000000000000000000000000000000000000000000000000000000000000000000000000000000000000000000000000000000000000000000000000000004000000000000000000000000000000000000000000000000000000000000000000000000000000000000000001c7d4b196cb0c7b01d743fbc6116a902379c7238",
        "1770311772"
      ],
      "transaction": {
        "from": "0x89feeba43b294425c0d7b482770eefbcc1359f8d",
        "to": "0x429ba70129df741b2ca2a85bc3a2a3328e5c09b4",
        "gas": "0x84038",
        "value": "0x2386f26fc10000",
        "input": "0xdd46508f0000000000000000000000000000000000000000000000000000000000000040000000000000000000000000000000000000000000000000000000006984d05c0000000000000000000000000000000000000000000000000000000000000300000000000000000000000000000000000000000000000000000000000000004000000000000000000000000000000000000000000000000000000000000000800000000000000000000000000000000000000000000000000000000000000002020d00000000000000000000000000000000000000000000000000000000000000000000000000000000000000000000000000000000000000000000000000020000000000000000000000000000000000000000000000000000000000000040000000000000000000000000000000000000000000000000000000000000020000000000000000000000000000000000000000000000000000000000000001a000000000000000000000000000000000000000000000000000000000000000000000000000000000000000001c7d4b196cb0c7b01d743fbc6116a902379c72380000000000000000000000000000000000000000000000000000000000000bb8000000000000000000000000000000000000000000000000000000000000003c000000000000000000000000ca3656933c53642bceebfd40f0b5d5d3abcfc3e5fffffffffffffffffffffffffffffffffffffffffffffffffffffffffff2764c00000000000000000000000000000000000000000000000000000000000d89b400000000000000000000000000000000000000000000000000000000000027100000000000000000000000000000000000000000000000000000000000002710000000000000000000000000000000000000000000000000002386f26fc1000000000000000000000000000089feeba43b294425c0d7b482770eefbcc1359f8d00000000000000000000000000000000000000000000000000000000000001800000000000000000000000000000000000000000000000000000000000000000000000000000000000000000000000000000000000000000000000000000004000000000000000000000000000000000000000000000000000000000000000000000000000000000000000001c7d4b196cb0c7b01d743fbc6116a902379c7238",
        "nonce": "0x76",
        "chainId": "0xaa36a7"
      },
      "additionalContracts": [],
      "isFixedGasLimit": false
    }
  ],
  "receipts": [
    {
      "status": "0x1",
      "cumulativeGasUsed": "0x38a31aa",
      "logs": [
        {
          "address": "0x1c7d4b196cb0c7b01d743fbc6116a902379c7238",
          "topics": [
            "0x8c5be1e5ebec7d5bd14f71427d1e84f3dd0314c0f7b2291e5b200ac8c7c3b925",
            "0x00000000000000000000000089feeba43b294425c0d7b482770eefbcc1359f8d",
            "0x000000000000000000000000000000000022d473030f116ddee9f6b43ac78ba3"
          ],
          "data": "0xffffffffffffffffffffffffffffffffffffffffffffffffffffffffffffffff",
          "blockHash": "0x67dc233efabd4ec2c9a15a3a29a5f7388d5ec7b5853e6a3a268b6c5c99d9a417",
          "blockNumber": "0x9b9b67",
          "blockTimestamp": "0x6984ce1c",
          "transactionHash": "0x5cd9beeb99797e8959ee24a541a036ff205988bf2f0d24eec27d5675702c14fe",
          "transactionIndex": "0x7a",
          "logIndex": "0x96",
          "removed": false
        }
      ],
      "logsBloom": "0x00000000000000000000000000000000000000000000000000000000000200000000000000000000000000000000000000000000800000000000000000200000000000000000000000004000000040000000000000000800000000000000000000000000000000000000000010000000000000000000000000000000000000000000000000100000000000000000000000000000000000000000000000000000020000000000000000000000000000000000000000000000000000000000000000100000000000000000000000000000000000000000000000000000000000000010000000000000000010000000000000000000000000000000000000000000",
      "type": "0x2",
      "transactionHash": "0x5cd9beeb99797e8959ee24a541a036ff205988bf2f0d24eec27d5675702c14fe",
      "transactionIndex": "0x7a",
      "blockHash": "0x67dc233efabd4ec2c9a15a3a29a5f7388d5ec7b5853e6a3a268b6c5c99d9a417",
      "blockNumber": "0x9b9b67",
      "gasUsed": "0x96e1",
      "effectiveGasPrice": "0x39587f54",
      "from": "0x89feeba43b294425c0d7b482770eefbcc1359f8d",
      "to": "0x1c7d4b196cb0c7b01d743fbc6116a902379c7238",
      "contractAddress": null
    },
    {
      "status": "0x1",
      "cumulativeGasUsed": "0x72276a",
      "logs": [
        {
          "address": "0x000000000022d473030f116ddee9f6b43ac78ba3",
          "topics": [
            "0xda9fa7c1b00402c17d0161b249b1ab8bbec047c5a52207b9c112deffd817036b",
            "0x00000000000000000000000089feeba43b294425c0d7b482770eefbcc1359f8d",
            "0x0000000000000000000000001c7d4b196cb0c7b01d743fbc6116a902379c7238",
            "0x000000000000000000000000429ba70129df741b2ca2a85bc3a2a3328e5c09b4"
          ],
          "data": "0x000000000000000000000000ffffffffffffffffffffffffffffffffffffffff0000000000000000000000000000000000000000000000000000000069861f84",
          "blockHash": "0xb8ea46c209f5d2dad24e7bcc22b395ddb71c75e693ac9a3a45e844d99205920c",
          "blockNumber": "0x9b9b6a",
          "blockTimestamp": "0x6984ce40",
          "transactionHash": "0xe720b5112ae9d2a5d3d3d67bbca283258719041e244e91f21c994ce484522c69",
          "transactionIndex": "0x5d",
          "logIndex": "0x67",
          "removed": false
        }
      ],
      "logsBloom": "0x00010000000000000000000000000000000000000000000000000000000000000000000000000040080000000000000000000000000004000000000000080000100000000000000000000000000040000000000000000000000000000000000000000000000000000000000010000000000000000000000000000800000000000020000000000000000000000000000000000000000000000000000000000000000000000000000000000000000000000000008000000000000000080000000000100000000000000000000000000000000000000000000040000000000000000000000000000000000000000000000000000000000000000000000000000400",
      "type": "0x2",
      "transactionHash": "0xe720b5112ae9d2a5d3d3d67bbca283258719041e244e91f21c994ce484522c69",
      "transactionIndex": "0x5d",
      "blockHash": "0xb8ea46c209f5d2dad24e7bcc22b395ddb71c75e693ac9a3a45e844d99205920c",
      "blockNumber": "0x9b9b6a",
      "gasUsed": "0x77e6",
      "effectiveGasPrice": "0x4240f1ca",
      "from": "0x89feeba43b294425c0d7b482770eefbcc1359f8d",
      "to": "0x000000000022d473030f116ddee9f6b43ac78ba3",
      "contractAddress": null
    },
    {
      "status": "0x1",
      "cumulativeGasUsed": "0x77cbab",
      "logs": [
        {
          "address": "0x429ba70129df741b2ca2a85bc3a2a3328e5c09b4",
          "topics": [
            "0xddf252ad1be2c89b69c2b068fc378daa952ba7f163c4a11628f55a4df523b3ef",
            "0x0000000000000000000000000000000000000000000000000000000000000000",
            "0x00000000000000000000000089feeba43b294425c0d7b482770eefbcc1359f8d",
            "0x00000000000000000000000000000000000000000000000000000000000059e5"
          ],
          "data": "0x",
          "blockHash": "0xb8ea46c209f5d2dad24e7bcc22b395ddb71c75e693ac9a3a45e844d99205920c",
          "blockNumber": "0x9b9b6a",
          "blockTimestamp": "0x6984ce40",
          "transactionHash": "0x2f2e79198c1d1bfdfabaf6bf183e40a969be0dc4c45d204f970154c6d1fb92de",
          "transactionIndex": "0x5e",
          "logIndex": "0x68",
          "removed": false
        },
        {
          "address": "0xe03a1074c86cfedd5c142c4f04f1a1536e203543",
          "topics": [
            "0xf208f4912782fd25c7f114ca3723a2d5dd6f3bcc3ac8db5af63baa85f711d5ec",
            "0x86d326e3667f45da7d98b55a4312da2a46e7e8a9854f68efe5f7e9d8d0897e86",
            "0x000000000000000000000000429ba70129df741b2ca2a85bc3a2a3328e5c09b4"
          ],
          "data": "0xfffffffffffffffffffffffffffffffffffffffffffffffffffffffffff2764c00000000000000000000000000000000000000000000000000000000000d89b4000000000000000000000000000000000000000000000000000000000000271000000000000000000000000000000000000000000000000000000000000059e5",
          "blockHash": "0xb8ea46c209f5d2dad24e7bcc22b395ddb71c75e693ac9a3a45e844d99205920c",
          "blockNumber": "0x9b9b6a",
          "blockTimestamp": "0x6984ce40",
          "transactionHash": "0x2f2e79198c1d1bfdfabaf6bf183e40a969be0dc4c45d204f970154c6d1fb92de",
          "transactionIndex": "0x5e",
          "logIndex": "0x69",
          "removed": false
        },
        {
          "address": "0x1c7d4b196cb0c7b01d743fbc6116a902379c7238",
          "topics": [
            "0xddf252ad1be2c89b69c2b068fc378daa952ba7f163c4a11628f55a4df523b3ef",
            "0x00000000000000000000000089feeba43b294425c0d7b482770eefbcc1359f8d",
            "0x000000000000000000000000e03a1074c86cfedd5c142c4f04f1a1536e203543"
          ],
          "data": "0x0000000000000000000000000000000000000000000000000000000000002710",
          "blockHash": "0xb8ea46c209f5d2dad24e7bcc22b395ddb71c75e693ac9a3a45e844d99205920c",
          "blockNumber": "0x9b9b6a",
          "blockTimestamp": "0x6984ce40",
          "transactionHash": "0x2f2e79198c1d1bfdfabaf6bf183e40a969be0dc4c45d204f970154c6d1fb92de",
          "transactionIndex": "0x5e",
          "logIndex": "0x6a",
          "removed": false
        }
      ],
      "logsBloom": "0x00000000000000000000001000000000000000000000000000000000080200000000000000000040080000000000000000400100000000060000000000000000000000000000000000000008000040000000000000000000000000000000000000000000020000000000000090000800000000000000100000008810000000000000000001100000000010000000000000000000000000000000000000000000000004000000000000000000000000000000000000400000000000000000000000100002000000000000000000000000000000000000000000001000000020001000000000000000000010000000000004000000000000000100000000000020",
      "type": "0x2",
      "transactionHash": "0x2f2e79198c1d1bfdfabaf6bf183e40a969be0dc4c45d204f970154c6d1fb92de",
      "transactionIndex": "0x5e",
      "blockHash": "0xb8ea46c209f5d2dad24e7bcc22b395ddb71c75e693ac9a3a45e844d99205920c",
      "blockNumber": "0x9b9b6a",
      "gasUsed": "0x5a441",
      "effectiveGasPrice": "0x4240f1ca",
      "from": "0x89feeba43b294425c0d7b482770eefbcc1359f8d",
      "to": "0x429ba70129df741b2ca2a85bc3a2a3328e5c09b4",
      "contractAddress": null
    }
  ],
  "libraries": [],
  "pending": [],
  "returns": {},
  "timestamp": 1770311230720,
  "chain": 11155111,
  "commit": "cc2e3ff"
}