{
  "transactions": [
    {
      "hash": "0xa7eebccdfda6165ceef93f16a00d323047ea72d3da631398d7f2c4646c24bf4e",
      "transactionType": "CALL",
      "contractName": null,
      "contractAddress": "0xdc81d28a1721fcde86d79ce26ba3b0bef24c116c",
      "function": "commit(bytes32,bytes32)",
      "arguments": [
        "0x7d8aa253229cf1f4cdeafb788c184f1ed2a147c28185c55aefe79773e515640c",
        "0x7c51ee74480ea2642fbd5756415baf2bf2ef93a4da01860a021011d060e1ca93"
      ],
      "transaction": {
        "from": "0x89feeba43b294425c0d7b482770eefbcc1359f8d",
        "to": "0xdc81d28a1721fcde86d79ce26ba3b0bef24c116c",
        "gas": "0x23b9d",
        "value": "0x0",
        "input": "0xe3ce094d7d8aa253229cf1f4cdeafb788c184f1ed2a147c28185c55aefe79773e515640c7c51ee74480ea2642fbd5756415baf2bf2ef93a4da01860a021011d060e1ca93",
        "nonce": "0x144",
        "chainId": "0xaa36a7"
      },
      "additionalContracts": [],
      "isFixedGasLimit": false
    }
  ],
  "receipts": [
    {
      "status": "0x1",
      "cumulativeGasUsed": "0x5f7594",
      "logs": [
        {
          "address": "0xdc81d28a1721fcde86d79ce26ba3b0bef24c116c",
          "topics": [
            "0xc9fb417ce9ee10a86bc8046a24ff15c2c00460856852864cf2bfae9e0b12185a",
            "0x7d8aa253229cf1f4cdeafb788c184f1ed2a147c28185c55aefe79773e515640c",
            "0x7c51ee74480ea2642fbd5756415baf2bf2ef93a4da01860a021011d060e1ca93",
            "0x00000000000000000000000089feeba43b294425c0d7b482770eefbcc1359f8d"
          ],
          "data": "0x0000000000000000000000000000000000000000000000000000000000000000000000000000000000000000000000000000000000000000000000000000000000000000000000000000000000000000000000000000000000000000009bbf35",
          "blockHash": "0xff3c7396cc5b89b7439d02f6bd8ae1866f0a8b7c81f0ce743870623173600d77",
          "blockNumber": "0x9bbf2b",
          "blockTimestamp": "0x698688c0",
          "transactionHash": "0xa7eebccdfda6165ceef93f16a00d323047ea72d3da631398d7f2c4646c24bf4e",
          "transactionIndex": "0x38",
          "logIndex": "0x37",
          "removed": false
        }
      ],
      "logsBloom": "0x00000000000000000000010000000000000000000000000000000000000000000000000000000000000000000000000000000000000000000000000000000000000002000000000000000000000040000000000000000000000000000000000000400000200000000000000010000000000000000000000000000000000000000000000000000000000400000000000000000000000000000000000800000000000040000000000000000000000000000000000000400000000000000000000000100000002000000000000000000000000000000000000000000000000000000008000000400000000000000001000000000000000000000000000000000000",
      "type": "0x2",
      "transactionHash": "0xa7eebccdfda6165ceef93f16a00d323047ea72d3da631398d7f2c4646c24bf4e",
      "transactionIndex": "0x38",
      "blockHash": "0xff3c7396cc5b89b7439d02f6bd8ae1866f0a8b7c81f0ce743870623173600d77",
      "blockNumber": "0x9bbf2b",
      "gasUsed": "0x186d9",
      "effectiveGasPrice": "0x3e562fb9",
      "from": "0x89feeba43b294425c0d7b482770eefbcc1359f8d",
      "to": "0xdc81d28a1721fcde86d79ce26ba3b0bef24c116c",
      "contractAddress": null
    }
  ],
  "libraries": [],
  "pending": [],
  "returns": {},
  "timestamp": 1770424511611,
  "chain": 11155111,
  "commit": "7d255af"
}