{
  "transactions": [
    {
      "hash": "0xa292afc30eb7a4eda9eaad781065be2c19f2af28326923fd461097d94d1db6d4",
      "transactionType": "CALL",
      "contractName": null,
      "contractAddress": "0x1c7d4b196cb0c7b01d743fbc6116a902379c7238",
      "function": "approve(address,uint256)",
      "arguments": [
        "0x36b42E07273CD8ECfF1125bF15771AE356F085B1",
        "1000000"
      ],
      "transaction": {
        "from": "0x89feeba43b294425c0d7b482770eefbcc1359f8d",
        "to": "0x1c7d4b196cb0c7b01d743fbc6116a902379c7238",
        "gas": "0xcb04",
        "value": "0x0",
        "input": "0x095ea7b300000000000000000000000036b42e07273cd8ecff1125bf15771ae356f085b100000000000000000000000000000000000000000000000000000000000f4240",
        "nonce": "0x145",
        "chainId": "0xaa36a7"
      },
      "additionalContracts": [],
      "isFixedGasLimit": false
    },
    {
      "hash": "0xff4614e281d34e2a852b79eac661273aebbcfcdf93d7d897ae30a7289141ce27",
      "transactionType": "CALL",
      "contractName": null,
      "contractAddress": "0x36b42e07273cd8ecff1125bf15771ae356f085b1",
      "function": "swap((address,address,uint24,int24,address),(bool,int256,uint160),bytes)",
      "arguments": [
        "(0x1c7D4B196Cb0C7B01d743Fbc6116a902379C7238, 0xfFf9976782d46CC05630D1f6eBAb18b2324d6B14, 3000, 60, 0x1846217Bae61BF26612BD8d9a64b970d525B4080)",
        "(true, 1000000, 4295128740)",
        "0x7d8aa253229cf1f4cdeafb788c184f1ed2a147c28185c55aefe79773e515640c6a94dfeb410d3a3157c81ceae04508ac77245f637f39f342191fa6fd5336f1130000000000000000000000000000000000000000000000000000000000000000"
      ],
      "transaction": {
        "from": "0x89feeba43b294425c0d7b482770eefbcc1359f8d",
        "to": "0x36b42e07273cd8ecff1125bf15771ae356f085b1",
        "gas": "0xf536e",
        "value": "0x0",
        "input": "0xf3cd914c0000000000000000000000001c7d4b196cb0c7b01d743fbc6116a902379c7238000000000000000000000000fff9976782d46cc05630d1f6ebab18b2324d6b140000000000000000000000000000000000000000000000000000000000000bb8000000000000000000000000000000000000000000000000000000000000003c0000000000000000000000001846217bae61bf26612bd8d9a64b970d525b4080000000000000000000000000000000000000000000000000000000000000000100000000000000000000000000000000000000000000000000000000000f424000000000000000000000000000000000000000000000000000000001000276a4000000000000000000000000000000000000000000000000000000000000012000000000000000000000000000000000000000000000000000000000000000607d8aa253229cf1f4cdeafb788c184f1ed2a147c28185c55aefe79773e515640c6a94dfeb410d3a3157c81ceae04508ac77245f637f39f342191fa6fd5336f1130000000000000000000000000000000000000000000000000000000000000000",
        "nonce": "0x146",
        "chainId": "0xaa36a7"
      },
      "additionalContracts": [],
      "isFixedGasLimit": false
    }
  ],
  "receipts": [
    {
      "status": "0x1",
      "cumulativeGasUsed": "0x4f595a",
      "logs": [
        {
          "address": "0x1c7d4b196cb0c7b01d743fbc6116a902379c7238",
          "topics": [
            "0x8c5be1e5ebec7d5bd14f71427d1e84f3dd0314c0f7b2291e5b200ac8c7c3b925",
            "0x00000000000000000000000089feeba43b294425c0d7b482770eefbcc1359f8d",
            "0x00000000000000000000000036b42e07273cd8ecff1125bf15771ae356f085b1"
          ],
          "data": "0x00000000000000000000000000000000000000000000000000000000000f4240",
          "blockHash": "0xcc13e503584fc040bfc93115a972e4cb513d61946082c619c66b87f46840c95a",
          "blockNumber": "0x9bbf38",
          "blockTimestamp": "0x69868968",
          "transactionHash": "0xa292afc30eb7a4eda9eaad781065be2c19f2af28326923fd461097d94d1db6d4",
          "transactionIndex": "0x27",
          "logIndex": "0x4d",
          "removed": false
        }
      ],
      "logsBloom": "0x00000000000000000000000000000000000004000000000000000000000200000000000000000000000000040000000000000000000000000000000000200000000000000000000000000000000040000000000000000000000000000000000000000000000000000000000010000000000000000000000000000000000000000000000000100000000000000000000000000000000000000000000000000000020000000000000000000000000000000000000000000000000000000000000000100008000000000000000000000000000000000000000000000000000000000010000000000000000010000000000000000000000000000000000000000000",
      "type": "0x2",
      "transactionHash": "0xa292afc30eb7a4eda9eaad781065be2c19f2af28326923fd461097d94d1db6d4",
      "transactionIndex": "0x27",
      "blockHash": "0xcc13e503584fc040bfc93115a972e4cb513d61946082c619c66b87f46840c95a",
      "blockNumber": "0x9bbf38",
      "gasUsed": "0x8ad1",
      "effectiveGasPrice": "0x40ee3a37",
      "from": "0x89feeba43b294425c0d7b482770eefbcc1359f8d",
      "to": "0x1c7d4b196cb0c7b01d743fbc6116a902379c7238",
      "contractAddress": null
    },
    {
      "status": "0x1",
      "cumulativeGasUsed": "0x5a71d9",
      "logs": [
        {
          "address": "0xdc81d28a1721fcde86d79ce26ba3b0bef24c116c",
          "topics": [
            "0x7b385b5200328cf45dc066799088049ff05a3e927e69ae5bb7174fc03f2c3ea9",
            "0x7d8aa253229cf1f4cdeafb788c184f1ed2a147c28185c55aefe79773e515640c",
            "0x0000000000000000000000000000000000000000000000000000000000000000"
          ],
          "data": "0x00000000000000000000000000000000000000000000000000000000000f42400000000000000000000000000000000000000000000000000000000000000000",
          "blockHash": "0xcc13e503584fc040bfc93115a972e4cb513d61946082c619c66b87f46840c95a",
          "blockNumber": "0x9bbf38",
          "blockTimestamp": "0x69868968",
          "transactionHash": "0xff4614e281d34e2a852b79eac661273aebbcfcdf93d7d897ae30a7289141ce27",
          "transactionIndex": "0x28",
          "logIndex": "0x4e",
          "removed": false
        },
        {
          "address": "0x1846217bae61bf26612bd8d9a64b970d525b4080",
          "topics": [
            "0x598946b72864d354c0c2446db5ce069b2e08419b77363d83941ca20ec62487d7",
            "0x7d8aa253229cf1f4cdeafb788c184f1ed2a147c28185c55aefe79773e515640c"
          ],
          "data": "0x00000000000000000000000000000000000000000000000000000000000f42400000000000000000000000000000000000000000000000000000000000000000",
          "blockHash": "0xcc13e503584fc040bfc93115a972e4cb513d61946082c619c66b87f46840c95a",
          "blockNumber": "0x9bbf38",
          "blockTimestamp": "0x69868968",
          "transactionHash": "0xff4614e281d34e2a852b79eac661273aebbcfcdf93d7d897ae30a7289141ce27",
          "transactionIndex": "0x28",
          "logIndex": "0x4f",
          "removed": false
        },
        {
          "address": "0xe03a1074c86cfedd5c142c4f04f1a1536e203543",
          "topics": [
            "0x40e9cecb9f5f1f1c5b9c97dec2917b7ee92e57ba5563708daca94dd84ad7112f",
            "0xad7c5db0b7c27da403980dfbd32bfa826fb086f590bdf6a49641f59a1eef8367",
            "0x00000000000000000000000036b42e07273cd8ecff1125bf15771ae356f085b1"
          ],
          "data": "0x0000000000000000000000000000000000000000000000000000000000000000000000000000000000000000000000000000000000000000000000000000000000000000000000000000000000000000000000000000000000000001000276a40000000000000000000000000000000000000000000000000000000000000000fffffffffffffffffffffffffffffffffffffffffffffffffffffffffff276180000000000000000000000000000000000000000000000000000000000000bb8",
          "blockHash": "0xcc13e503584fc040bfc93115a972e4cb513d61946082c619c66b87f46840c95a",
          "blockNumber": "0x9bbf38",
          "blockTimestamp": "0x69868968",
          "transactionHash": "0xff4614e281d34e2a852b79eac661273aebbcfcdf93d7d897ae30a7289141ce27",
          "transactionIndex": "0x28",
          "logIndex": "0x50",
          "removed": false
        },
        {
          "address": "0x36b42e07273cd8ecff1125bf15771ae356f085b1",
          "topics": [
            "0x8107d3c00048e48dab2cb830fd6a855aa1933995a5cd6bebf6b7de2e9732d1e8",
            "0x00000000000000000000000089feeba43b294425c0d7b482770eefbcc1359f8d"
          ],
          "data": "0x00000000000000000000000000000000000000000000000000000000000000000000000000000000000000000000000000000000000000000000000000000000",
          "blockHash": "0xcc13e503584fc040bfc93115a972e4cb513d61946082c619c66b87f46840c95a",
          "blockNumber": "0x9bbf38",
          "blockTimestamp": "0x69868968",
          "transactionHash": "0xff4614e281d34e2a852b79eac661273aebbcfcdf93d7d897ae30a7289141ce27",
          "transactionIndex": "0x28",
          "logIndex": "0x51",
          "removed": false
        }
      ],
      "logsBloom": "0x00000000000000000100010000000000000004000000000000000000000000000000000000000000000000048000000000000100040000000000000000000000000000000000000000000000002040000000000000040030000000000000000000400000020000400000000010000800020000000000100200000000000000010000000000000000000000000001000000000000100000000000000000000000000040000000000000000000000000000000000000400000000000000000000000100008002000000000000000000020000000000000000000000000000028001000000000400000004000100000404000000004000000000000000000000000",
      "type": "0x2",
      "transactionHash": "0xff4614e281d34e2a852b79eac661273aebbcfcdf93d7d897ae30a7289141ce27",
      "transactionIndex": "0x28",
      "blockHash": "0xcc13e503584fc040bfc93115a972e4cb513d61946082c619c66b87f46840c95a",
      "blockNumber": "0x9bbf38",
      "gasUsed": "0xb187f",
      "effectiveGasPrice": "0x40ee3a37",
      "from": "0x89feeba43b294425c0d7b482770eefbcc1359f8d",
      "to": "0x36b42e07273cd8ecff1125bf15771ae356f085b1",
      "contractAddress": null
    }
  ],
  "libraries": [],
  "pending": [],
  "returns": {},
  "timestamp": 1770424679978,
  "chain": 11155111,
  "commit": "7d255af"
}