{
  "transactions": [
    {
      "hash": "0xda6256a9a3fdf153f4144875a5f365a9e9a971796daf1280201f74bdc4caffd8",
      "transactionType": "CALL",
      "contractName": null,
      "contractAddress": "0x1c7d4b196cb0c7b01d743fbc6116a902379c7238",
      "function": "approve(address,uint256)",
      "arguments": [
        "0x000000000022D473030F116dDEE9F6B43aC78BA3",
        "115792089237316195423570985008687907853269984665640564039457584007913129639935"
      ],
      "transaction": {
        "from": "0x89feeba43b294425c0d7b482770eefbcc1359f8d",
        "to": "0x1c7d4b196cb0c7b01d743fbc6116a902379c7238",
        "gas": "0xcca9",
        "value": "0x0",
        "input": "0x095ea7b3000000000000000000000000000000000022d473030f116ddee9f6b43ac78ba3ffffffffffffffffffffffffffffffffffffffffffffffffffffffffffffffff",
        "nonce": "0xe4",
        "chainId": "0xaa36a7"
      },
      "additionalContracts": [],
      "isFixedGasLimit": false
    },
    {
      "hash": "0xa1bc2ac6e0d8d996257c9b67fb74f182cda94e124af53f506237d5eff6b20539",
      "transactionType": "CALL",
      "contractName": null,
      "contractAddress": "0xfff9976782d46cc05630d1f6ebab18b2324d6b14",
      "function": "approve(address,uint256)",
      "arguments": [
        "0x000000000022D473030F116dDEE9F6B43aC78BA3",
        "115792089237316195423570985008687907853269984665640564039457584007913129639935"
      ],
      "transaction": {
        "from": "0x89feeba43b294425c0d7b482770eefbcc1359f8d",
        "to": "0xfff9976782d46cc05630d1f6ebab18b2324d6b14",
        "gas": "0x8e76",
        "value": "0x0",
        "input": "0x095ea7b3000000000000000000000000000000000022d473030f116ddee9f6b43ac78ba3ffffffffffffffffffffffffffffffffffffffffffffffffffffffffffffffff",
        "nonce": "0xe5",
        "chainId": "0xaa36a7"
      },
      "additionalContracts": [],
      "isFixedGasLimit": false
    },
    {
      "hash": "0x8eab806895f1165330e17f3c8787eed9d460740fabf6ffa62b5dfe78f2b75132",
      "transactionType": "CALL",
      "contractName": null,
      "contractAddress": "0x000000000022d473030f116ddee9f6b43ac78ba3",
      "function": "approve(address,address,uint160,uint48)",
      "arguments": [
        "0x1c7D4B196Cb0C7B01d743Fbc6116a902379C7238",
        "0x429ba70129df741B2Ca2a85BC3A2a3328e5c09b4",
        "100000000",
        "1770397092"
      ],
      "transaction": {
        "from": "0x89feeba43b294425c0d7b482770eefbcc1359f8d",
        "to": "0x000000000022d473030f116ddee9f6b43ac78ba3",
        "gas": "0xae2f",
        "value": "0x0",
        "input": "0x87517c450000000000000000000000001c7d4b196cb0c7b01d743fbc6116a902379c7238000000000000000000000000429ba70129df741b2ca2a85bc3a2a3328e5c09b40000000000000000000000000000000000000000000000000000000005f5e1000000000000000000000000000000000000000000000000000000000069861da4",
        "nonce": "0xe6",
        "chainId": "0xaa36a7"
      },
      "additionalContracts": [],
      "isFixedGasLimit": false
    },
    {
      "hash": "0x1a11b1f62223016ff4b5e9a517fc2674d72a6cc0fc60fdc396ac1bc0a9bf5231",
      "transactionType": "CALL",
      "contractName": null,
      "contractAddress": "0x000000000022d473030f116ddee9f6b43ac78ba3",
      "function": "approve(address,address,uint160,uint48)",
      "arguments": [
        "0xfFf9976782d46CC05630D1f6eBAb18b2324d6B14",
        "0x429ba70129df741B2Ca2a85BC3A2a3328e5c09b4",
        "500000000000000000",
        "1770397092"
      ],
      "transaction": {
        "from": "0x89feeba43b294425c0d7b482770eefbcc1359f8d",
        "to": "0x000000000022d473030f116ddee9f6b43ac78ba3",
        "gas": "0xa4b2",
        "value": "0x0",
        "input": "0x87517c45000000000000000000000000fff9976782d46cc05630d1f6ebab18b2324d6b14000000000000000000000000429ba70129df741b2ca2a85bc3a2a3328e5c09b400000000000000000000000000000000000000000000000006f05b59d3b200000000000000000000000000000000000000000000000000000000000069861da4",
        "nonce": "0xe7",
        "chainId": "0xaa36a7"
      },
      "additionalContracts": [],
      "isFixedGasLimit": false
    }
  ],
  "receipts": [
    {
      "status": "0x1",
      "cumulativeGasUsed": "0x9f3701",
      "logs": [
        {
          "address": "0x1c7d4b196cb0c7b01d743fbc6116a902379c7238",
          "topics": [
            "0x8c5be1e5ebec7d5bd14f71427d1e84f3dd0314c0f7b2291e5b200ac8c7c3b925",
            "0x00000000000000000000000089feeba43b294425c0d7b482770eefbcc1359f8d",
            "0x000000000000000000000000000000000022d473030f116ddee9f6b43ac78ba3"
          ],
          "data": "0xffffffffffffffffffffffffffffffffffffffffffffffffffffffffffffffff",
          "blockHash": "0x9ac50eae9c486facbd048f760e5e7acdbe055ea3ba03e6c3ca1ac62613290f8a",
          "blockNumber": "0x9bb557",
          "blockTimestamp": "0x69860fa0",
          "transactionHash": "0xda6256a9a3fdf153f4144875a5f365a9e9a971796daf1280201f74bdc4caffd8",
          "transactionIndex": "0x53",
          "logIndex": "0xa4",
          "removed": false
        }
      ],
      "logsBloom": "0x00000000000000000000000000000000000000000000000000000000000200000000000000000000000000000000000000000000800000000000000000200000000000000000000000004000000040000000000000000800000000000000000000000000000000000000000010000000000000000000000000000000000000000000000000100000000000000000000000000000000000000000000000000000020000000000000000000000000000000000000000000000000000000000000000100000000000000000000000000000000000000000000000000000000000000010000000000000000010000000000000000000000000000000000000000000",
      "type": "0x2",
      "transactionHash": "0xda6256a9a3fdf153f4144875a5f365a9e9a971796daf1280201f74bdc4caffd8",
      "transactionIndex": "0x53",
      "blockHash": "0x9ac50eae9c486facbd048f760e5e7acdbe055ea3ba03e6c3ca1ac62613290f8a",
      "blockNumber": "0x9bb557",
      "gasUsed": "0x8bf1",
      "effectiveGasPrice": "0x3e4926e4",
      "from": "0x89feeba43b294425c0d7b482770eefbcc1359f8d",
      "to": "0x1c7d4b196cb0c7b01d743fbc6116a902379c7238",
      "contractAddress": null
    },
    {
      "status": "0x1",
      "cumulativeGasUsed": "0x9f9e25",
      "logs": [
        {
          "address": "0xfff9976782d46cc05630d1f6ebab18b2324d6b14",
          "topics": [
            "0x8c5be1e5ebec7d5bd14f71427d1e84f3dd0314c0f7b2291e5b200ac8c7c3b925",
            "0x00000000000000000000000089feeba43b294425c0d7b482770eefbcc1359f8d",
            "0x000000000000000000000000000000000022d473030f116ddee9f6b43ac78ba3"
          ],
          "data": "0xffffffffffffffffffffffffffffffffffffffffffffffffffffffffffffffff",
          "blockHash": "0x9ac50eae9c486facbd048f760e5e7acdbe055ea3ba03e6c3ca1ac62613290f8a",
          "blockNumber": "0x9bb557",
          "blockTimestamp": "0x69860fa0",
          "transactionHash": "0xa1bc2ac6e0d8d996257c9b67fb74f182cda94e124af53f506237d5eff6b20539",
          "transactionIndex": "0x54",
          "logIndex": "0xa5",
          "removed": false
        }
      ],
      "logsBloom": "0x00000000000000000000000000000000000000000000000000000000000000000000000000000000000000000000000000000000800000000000000000200000000000000000000000004000000040000000000000000800000000000000000000000000000000000000000010000000000000000000000000000000000000000040000000000000000000000000000000000000000000000000000000000000020020000000000000000000000000000000000000000000000000000000000000100000000000000002000000000000000000000000000000000000000000000010000000000000000000000000000000000000000000000000000000000000",
      "type": "0x2",
      "transactionHash": "0xa1bc2ac6e0d8d996257c9b67fb74f182cda94e124af53f506237d5eff6b20539",
      "transactionIndex": "0x54",
      "blockHash": "0x9ac50eae9c486facbd048f760e5e7acdbe055ea3ba03e6c3ca1ac62613290f8a",
      "blockNumber": "0x9bb557",
      "gasUsed": "0x6724",
      "effectiveGasPrice": "0x3e4926e4",
      "from": "0x89feeba43b294425c0d7b482770eefbcc1359f8d",
      "to": "0xfff9976782d46cc05630d1f6ebab18b2324d6b14",
      "contractAddress": null
    },
    {
      "status": "0x1",
      "cumulativeGasUsed": "0xa0153f",
      "logs": [
        {
          "address": "0x000000000022d473030f116ddee9f6b43ac78ba3",
          "topics": [
            "0xda9fa7c1b00402c17d0161b249b1ab8bbec047c5a52207b9c112deffd817036b",
            "0x00000000000000000000000089feeba43b294425c0d7b482770eefbcc1359f8d",
            "0x0000000000000000000000001c7d4b196cb0c7b01d743fbc6116a902379c7238",
            "0x000000000000000000000000429ba70129df741b2ca2a85bc3a2a3328e5c09b4"
          ],
          "data": "0x0000000000000000000000000000000000000000000000000000000005f5e1000000000000000000000000000000000000000000000000000000000069861da4",
          "blockHash": "0x9ac50eae9c486facbd048f760e5e7acdbe055ea3ba03e6c3ca1ac62613290f8a",
          "blockNumber": "0x9bb557",
          "blockTimestamp": "0x69860fa0",
          "transactionHash": "0x8eab806895f1165330e17f3c8787eed9d460740fabf6ffa62b5dfe78f2b75132",
          "transactionIndex": "0x55",
          "logIndex": "0xa6",
          "removed": false
        }
      ],
      "logsBloom": "0x00010000000000000000000000000000000000000000000000000000000000000000000000000040080000000000000000000000000004000000000000080000100000000000000000000000000040000000000000000000000000000000000000000000000000000000000010000000000000000000000000000800000000000020000000000000000000000000000000000000000000000000000000000000000000000000000000000000000000000000008000000000000000080000000000100000000000000000000000000000000000000000000040000000000000000000000000000000000000000000000000000000000000000000000000000400",
      "type": "0x2",
      "transactionHash": "0x8eab806895f1165330e17f3c8787eed9d460740fabf6ffa62b5dfe78f2b75132",
      "transactionIndex": "0x55",
      "blockHash": "0x9ac50eae9c486facbd048f760e5e7acdbe055ea3ba03e6c3ca1ac62613290f8a",
      "blockNumber": "0x9bb557",
      "gasUsed": "0x771a",
      "effectiveGasPrice": "0x3e4926e4",
      "from": "0x89feeba43b294425c0d7b482770eefbcc1359f8d",
      "to": "0x000000000022d473030f116ddee9f6b43ac78ba3",
      "contractAddress": null
    },
    {
      "status": "0x1",
      "cumulativeGasUsed": "0xa08c7d",
      "logs": [
        {
          "address": "0x000000000022d473030f116ddee9f6b43ac78ba3",
          "topics": [
            "0xda9fa7c1b00402c17d0161b249b1ab8bbec047c5a52207b9c112deffd817036b",
            "0x00000000000000000000000089feeba43b294425c0d7b482770eefbcc1359f8d",
            "0x000000000000000000000000fff9976782d46cc05630d1f6ebab18b2324d6b14",
            "0x000000000000000000000000429ba70129df741b2ca2a85bc3a2a3328e5c09b4"
          ],
          "data": "0x00000000000000000000000000000000000000000000000006f05b59d3b200000000000000000000000000000000000000000000000000000000000069861da4",
          "blockHash": "0x9ac50eae9c486facbd048f760e5e7acdbe055ea3ba03e6c3ca1ac62613290f8a",
          "blockNumber": "0x9bb557",
          "blockTimestamp": "0x69860fa0",
          "transactionHash": "0x1a11b1f62223016ff4b5e9a517fc2674d72a6cc0fc60fdc396ac1bc0a9bf5231",
          "transactionIndex": "0x56",
          "logIndex": "0xa7",
          "removed": false
        }
      ],
      "logsBloom": "0x00010000001000000000000000000000000000000000000000000000000000000000000000000040080000000000000000000800000000000000000000080000000000000000000000000000000040000000000000000000000000000000000000000000000000000000000010000000000000000000000000000800000000000020000000000000000000000000000000000000000000000000000000000000000000000000000000000000000000000000000000000000000000080000000000100000000000000000000001000000000000000000000040000000000000000000000000000000000000000000000000000000000000000000000000000400",
      "type": "0x2",
      "transactionHash": "0x1a11b1f62223016ff4b5e9a517fc2674d72a6cc0fc60fdc396ac1bc0a9bf5231",
      "transactionIndex": "0x56",
      "blockHash": "0x9ac50eae9c486facbd048f760e5e7acdbe055ea3ba03e6c3ca1ac62613290f8a",
      "blockNumber": "0x9bb557",
      "gasUsed": "0x773e",
      "effectiveGasPrice": "0x3e4926e4",
      "from": "0x89feeba43b294425c0d7b482770eefbcc1359f8d",
      "to": "0x000000000022d473030f116ddee9f6b43ac78ba3",
      "contractAddress": null
    }
  ],
  "libraries": [],
  "pending": [],
  "returns": {},
  "timestamp": 1770393506419,
  "chain": 11155111,
  "commit": "58e7602"
}