{
  "transactions": [
    {
      "hash": "0xf9fe660151c8c271dbe6ffd46cb66a8e23b56196307aab8e48ad6934450b2d08",
      "transactionType": "CALL",
      "contractName": null,
      "contractAddress": "0x1c7d4b196cb0c7b01d743fbc6116a902379c7238",
      "function": "approve(address,uint256)",
      "arguments": [
        "0x000000000022D473030F116dDEE9F6B43aC78BA3",
        "115792089237316195423570985008687907853269984665640564039457584007913129639935"
      ],
      "transaction": {
        "from": "0x89feeba43b294425c0d7b482770eefbcc1359f8d",
        "to": "0x1c7d4b196cb0c7b01d743fbc6116a902379c7238",
        "gas": "0xdca8",
        "value": "0x0",
        "input": "0x095ea7b3000000000000000000000000000000000022d473030f116ddee9f6b43ac78ba3ffffffffffffffffffffffffffffffffffffffffffffffffffffffffffffffff",
        "nonce": "0xb4",
        "chainId": "0xaa36a7"
      },
      "additionalContracts": [],
      "isFixedGasLimit": false
    },
    {
      "hash": "0x32671b4d54ae817f675e04932e183e87bd041b45e679874fbc9e3d124267eed9",
      "transactionType": "CALL",
      "contractName": null,
      "contractAddress": "0x000000000022d473030f116ddee9f6b43ac78ba3",
      "function": "approve(address,address,uint160,uint48)",
      "arguments": [
        "0x1c7D4B196Cb0C7B01d743Fbc6116a902379C7238",
        "0x429ba70129df741B2Ca2a85BC3A2a3328e5c09b4",
        "340282366920938463463374607431768211455",
        "1770345240"
      ],
      "transaction": {
        "from": "0x89feeba43b294425c0d7b482770eefbcc1359f8d",
        "to": "0x000000000022d473030f116ddee9f6b43ac78ba3",
        "gas": "0xa559",
        "value": "0x0",
        "input": "0x87517c450000000000000000000000001c7d4b196cb0c7b01d743fbc6116a902379c7238000000000000000000000000429ba70129df741b2ca2a85bc3a2a3328e5c09b400000000000000000000000000000000ffffffffffffffffffffffffffffffff0000000000000000000000000000000000000000000000000000000069855318",
        "nonce": "0xb5",
        "chainId": "0xaa36a7"
      },
      "additionalContracts": [],
      "isFixedGasLimit": false
    },
    {
      "hash": "0x6a62bc7c31ae581faafceba91c25cc951dabc8fd142e2373a34a76a72c09a093",
      "transactionType": "CALL",
      "contractName": "PositionManager",
      "contractAddress": "0x429ba70129df741b2ca2a85bc3a2a3328e5c09b4",
      "function": "modifyLiquidities(bytes,uint256)",
      "arguments": [
        "0x000000000000000000000000000000000000000000000000000000000000004000000000000000000000000000000000000000000000000000000000000000800000000000000000000000000000000000000000000000000000000000000002020d00000000000000000000000000000000000000000000000000000000000000000000000000000000000000000000000000000000000000000000000000020000000000000000000000000000000000000000000000000000000000000040000000000000000000000000000000000000000000000000000000000000020000000000000000000000000000000000000000000000000000000000000001a000000000000000000000000000000000000000000000000000000000000000000000000000000000000000001c7d4b196cb0c7b01d743fbc6116a902379c72380000000000000000000000000000000000000000000000000000000000000bb8000000000000000000000000000000000000000000000000000000000000003c00000000000000000000000067870c6e95c0c66f9d02ce73dd7850784abde080fffffffffffffffffffffffffffffffffffffffffffffffffffffffffff2764c00000000000000000000000000000000000000000000000000000000000d89b400000000000000000000000000000000000000000000000000000000000003e800000000000000000000000000000000000000000000000000038d7ea4c6800000000000000000000000000000000000000000000000000000000000000f424000000000000000000000000089feeba43b294425c0d7b482770eefbcc1359f8d00000000000000000000000000000000000000000000000000000000000001800000000000000000000000000000000000000000000000000000000000000000000000000000000000000000000000000000000000000000000000000000004000000000000000000000000000000000000000000000000000000000000000000000000000000000000000001c7d4b196cb0c7b01d743fbc6116a902379c7238",
        "1770345240"
      ],
      "transaction": {
        "from": "0x89feeba43b294425c0d7b482770eefbcc1359f8d",
        "to": "0x429ba70129df741b2ca2a85bc3a2a3328e5c09b4",
        "gas": "0x85169",
        "value": "0x9184e72a000",
        "input": "0xdd46508f000000000000000000000000000000000000000000000000000000000000004000000000000000000000000000000000000000000000000000000000698553180000000000000000000000000000000000000000000000000000000000000300000000000000000000000000000000000000000000000000000000000000004000000000000000000000000000000000000000000000000000000000000000800000000000000000000000000000000000000000000000000000000000000002020d00000000000000000000000000000000000000000000000000000000000000000000000000000000000000000000000000000000000000000000000000020000000000000000000000000000000000000000000000000000000000000040000000000000000000000000000000000000000000000000000000000000020000000000000000000000000000000000000000000000000000000000000001a000000000000000000000000000000000000000000000000000000000000000000000000000000000000000001c7d4b196cb0c7b01d743fbc6116a902379c72380000000000000000000000000000000000000000000000000000000000000bb8000000000000000000000000000000000000000000000000000000000000003c00000000000000000000000067870c6e95c0c66f9d02ce73dd7850784abde080fffffffffffffffffffffffffffffffffffffffffffffffffffffffffff2764c00000000000000000000000000000000000000000000000000000000000d89b400000000000000000000000000000000000000000000000000000000000003e800000000000000000000000000000000000000000000000000038d7ea4c6800000000000000000000000000000000000000000000000000000000000000f424000000000000000000000000089feeba43b294425c0d7b482770eefbcc1359f8d00000000000000000000000000000000000000000000000000000000000001800000000000000000000000000000000000000000000000000000000000000000000000000000000000000000000000000000000000000000000000000000004000000000000000000000000000000000000000000000000000000000000000000000000000000000000000001c7d4b196cb0c7b01d743fbc6116a902379c7238",
        "nonce": "0xb6",
        "chainId": "0xaa36a7"
      },
      "additionalContracts": [],
      "isFixedGasLimit": false
    }
  ],
  "receipts": [
    {
      "status": "0x1",
      "cumulativeGasUsed": "0x6c85d0",
      "logs": [
        {
          "address": "0x1c7d4b196cb0c7b01d743fbc6116a902379c7238",
          "topics": [
            "0x8c5be1e5ebec7d5bd14f71427d1e84f3dd0314c0f7b2291e5b200ac8c7c3b925",
            "0x00000000000000000000000089feeba43b294425c0d7b482770eefbcc1359f8d",
            "0x000000000000000000000000000000000022d473030f116ddee9f6b43ac78ba3"
          ],
          "data": "0xffffffffffffffffffffffffffffffffffffffffffffffffffffffffffffffff",
          "blockHash": "0xf49c3fb6d45ed5fe3ccb4abdaf351cc20c5f9bcbabfd0b6f8d72b67d1b5e9d01",
          "blockNumber": "0x9ba501",
          "blockTimestamp": "0x69854520",
          "transactionHash": "0xf9fe660151c8c271dbe6ffd46cb66a8e23b56196307aab8e48ad6934450b2d08",
          "transactionIndex": "0x54",
          "logIndex": "0x6e",
          "removed": false
        }
      ],
      "logsBloom": "0x00000000000000000000000000000000000000000000000000000000000200000000000000000000000000000000000000000000800000000000000000200000000000000000000000004000000040000000000000000800000000000000000000000000000000000000000010000000000000000000000000000000000000000000000000100000000000000000000000000000000000000000000000000000020000000000000000000000000000000000000000000000000000000000000000100000000000000000000000000000000000000000000000000000000000000010000000000000000010000000000000000000000000000000000000000000",
      "type": "0x2",
      "transactionHash": "0xf9fe660151c8c271dbe6ffd46cb66a8e23b56196307aab8e48ad6934450b2d08",
      "transactionIndex": "0x54",
      "blockHash": "0xf49c3fb6d45ed5fe3ccb4abdaf351cc20c5f9bcbabfd0b6f8d72b67d1b5e9d01",
      "blockNumber": "0x9ba501",
      "gasUsed": "0x96e1",
      "effectiveGasPrice": "0x3f4425cb",
      "from": "0x89feeba43b294425c0d7b482770eefbcc1359f8d",
      "to": "0x1c7d4b196cb0c7b01d743fbc6116a902379c7238",
      "contractAddress": null
    },
    {
      "status": "0x1",
      "cumulativeGasUsed": "0x6cfd86",
      "logs": [
        {
          "address": "0x000000000022d473030f116ddee9f6b43ac78ba3",
          "topics": [
            "0xda9fa7c1b00402c17d0161b249b1ab8bbec047c5a52207b9c112deffd817036b",
            "0x00000000000000000000000089feeba43b294425c0d7b482770eefbcc1359f8d",
            "0x0000000000000000000000001c7d4b196cb0c7b01d743fbc6116a902379c7238",
            "0x000000000000000000000000429ba70129df741b2ca2a85bc3a2a3328e5c09b4"
          ],
          "data": "0x00000000000000000000000000000000ffffffffffffffffffffffffffffffff0000000000000000000000000000000000000000000000000000000069855318",
          "blockHash": "0xf49c3fb6d45ed5fe3ccb4abdaf351cc20c5f9bcbabfd0b6f8d72b67d1b5e9d01",
          "blockNumber": "0x9ba501",
          "blockTimestamp": "0x69854520",
          "transactionHash": "0x32671b4d54ae817f675e04932e183e87bd041b45e679874fbc9e3d124267eed9",
          "transactionIndex": "0x55",
          "logIndex": "0x6f",
          "removed": false
        }
      ],
      "logsBloom": "0x00010000000000000000000000000000000000000000000000000000000000000000000000000040080000000000000000000000000004000000000000080000100000000000000000000000000040000000000000000000000000000000000000000000000000000000000010000000000000000000000000000800000000000020000000000000000000000000000000000000000000000000000000000000000000000000000000000000000000000000008000000000000000080000000000100000000000000000000000000000000000000000000040000000000000000000000000000000000000000000000000000000000000000000000000000400",
      "type": "0x2",
      "transactionHash": "0x32671b4d54ae817f675e04932e183e87bd041b45e679874fbc9e3d124267eed9",
      "transactionIndex": "0x55",
      "blockHash": "0xf49c3fb6d45ed5fe3ccb4abdaf351cc20c5f9bcbabfd0b6f8d72b67d1b5e9d01",
      "blockNumber": "0x9ba501",
      "gasUsed": "0x77b6",
      "effectiveGasPrice": "0x3f4425cb",
      "from": "0x89feeba43b294425c0d7b482770eefbcc1359f8d",
      "to": "0x000000000022d473030f116ddee9f6b43ac78ba3",
      "contractAddress": null
    },
    {
      "status": "0x1",
      "cumulativeGasUsed": "0x72ad88",
      "logs": [
        {
          "address": "0x429ba70129df741b2ca2a85bc3a2a3328e5c09b4",
          "topics": [
            "0xddf252ad1be2c89b69c2b068fc378daa952ba7f163c4a11628f55a4df523b3ef",
            "0x0000000000000000000000000000000000000000000000000000000000000000",
            "0x00000000000000000000000089feeba43b294425c0d7b482770eefbcc1359f8d",
            "0x00000000000000000000000000000000000000000000000000000000000059f6"
          ],
          "data": "0x",
          "blockHash": "0xf49c3fb6d45ed5fe3ccb4abdaf351cc20c5f9bcbabfd0b6f8d72b67d1b5e9d01",
          "blockNumber": "0x9ba501",
          "blockTimestamp": "0x69854520",
          "transactionHash": "0x6a62bc7c31ae581faafceba91c25cc951dabc8fd142e2373a34a76a72c09a093",
          "transactionIndex": "0x56",
          "logIndex": "0x70",
          "removed": false
        },
        {
          "address": "0xe03a1074c86cfedd5c142c4f04f1a1536e203543",
          "topics": [
            "0xf208f4912782fd25c7f114ca3723a2d5dd6f3bcc3ac8db5af63baa85f711d5ec",
            "0x19fc06831962f003f45d52b333baba33f40629c72df6e0cd3d833983c602e296",
            "0x000000000000000000000000429ba70129df741b2ca2a85bc3a2a3328e5c09b4"
          ],
          "data": "0xfffffffffffffffffffffffffffffffffffffffffffffffffffffffffff2764c00000000000000000000000000000000000000000000000000000000000d89b400000000000000000000000000000000000000000000000000000000000003e800000000000000000000000000000000000000000000000000000000000059f6",
          "blockHash": "0xf49c3fb6d45ed5fe3ccb4abdaf351cc20c5f9bcbabfd0b6f8d72b67d1b5e9d01",
          "blockNumber": "0x9ba501",
          "blockTimestamp": "0x69854520",
          "transactionHash": "0x6a62bc7c31ae581faafceba91c25cc951dabc8fd142e2373a34a76a72c09a093",
          "transactionIndex": "0x56",
          "logIndex": "0x71",
          "removed": false
        },
        {
          "address": "0x1c7d4b196cb0c7b01d743fbc6116a902379c7238",
          "topics": [
            "0xddf252ad1be2c89b69c2b068fc378daa952ba7f163c4a11628f55a4df523b3ef",
            "0x00000000000000000000000089feeba43b294425c0d7b482770eefbcc1359f8d",
            "0x000000000000000000000000e03a1074c86cfedd5c142c4f04f1a1536e203543"
          ],
          "data": "0x0000000000000000000000000000000000000000000000000000000000005759",
          "blockHash": "0xf49c3fb6d45ed5fe3ccb4abdaf351cc20c5f9bcbabfd0b6f8d72b67d1b5e9d01",
          "blockNumber": "0x9ba501",
          "blockTimestamp": "0x69854520",
          "transactionHash": "0x6a62bc7c31ae581faafceba91c25cc951dabc8fd142e2373a34a76a72c09a093",
          "transactionIndex": "0x56",
          "logIndex": "0x72",
          "removed": false
        }
      ],
      "logsBloom": "0x000000000000000000000010000080000000000000000000200000000c0200000000000000000040080000000000000000000100000000000000000000000000000000000000000000008008000040000000000000000000100000000000000000000000020000000000000090000800000000000000100000000810000000000000040001100000000010000000000000000000000000000000000000000000000004000000000000000000000000000000000000400000000000000000000000100002000000000000000000000000000000000000000000001000000020001000000000000000000010000000000004000000000000000000000000000000",
      "type": "0x2",
      "transactionHash": "0x6a62bc7c31ae581faafceba91c25cc951dabc8fd142e2373a34a76a72c09a093",
      "transactionIndex": "0x56",
      "blockHash": "0xf49c3fb6d45ed5fe3ccb4abdaf351cc20c5f9bcbabfd0b6f8d72b67d1b5e9d01",
      "blockNumber": "0x9ba501",
      "gasUsed": "0x5b002",
      "effectiveGasPrice": "0x3f4425cb",
      "from": "0x89feeba43b294425c0d7b482770eefbcc1359f8d",
      "to": "0x429ba70129df741b2ca2a85bc3a2a3328e5c09b4",
      "contractAddress": null
    }
  ],
  "libraries": [],
  "pending": [],
  "returns": {},
  "timestamp": 1770341661920,
  "chain": 11155111,
  "commit": "cdca4d8"
}