{
  "transactions": [
    {
      "hash": "0xbf6912cd0711b3191595be5835831a2fa2b1580881fd19da03f13815c8336e1c",
      "transactionType": "CALL",
      "contractName": null,
      "contractAddress": "0x1c7d4b196cb0c7b01d743fbc6116a902379c7238",
      "function": "approve(address,uint256)",
      "arguments": [
        "0x000000000022D473030F116dDEE9F6B43aC78BA3",
        "115792089237316195423570985008687907853269984665640564039457584007913129639935"
      ],
      "transaction": {
        "from": "0x89feeba43b294425c0d7b482770eefbcc1359f8d",
        "to": "0x1c7d4b196cb0c7b01d743fbc6116a902379c7238",
        "gas": "0xdca8",
        "value": "0x0",
        "input": "0x095ea7b3000000000000000000000000000000000022d473030f116ddee9f6b43ac78ba3ffffffffffffffffffffffffffffffffffffffffffffffffffffffffffffffff",
        "nonce": "0xbd",
        "chainId": "0xaa36a7"
      },
      "additionalContracts": [],
      "isFixedGasLimit": false
    },
    {
      "hash": "0xf06e9f42001e515ecbc22e4199a3eca30349f91a8fac3447e7d5a25cbff7da1f",
      "transactionType": "CALL",
      "contractName": null,
      "contractAddress": "0x000000000022d473030f116ddee9f6b43ac78ba3",
      "function": "approve(address,address,uint160,uint48)",
      "arguments": [
        "0x1c7D4B196Cb0C7B01d743Fbc6116a902379C7238",
        "0x429ba70129df741B2Ca2a85BC3A2a3328e5c09b4",
        "340282366920938463463374607431768211455",
        "1770380304"
      ],
      "transaction": {
        "from": "0x89feeba43b294425c0d7b482770eefbcc1359f8d",
        "to": "0x000000000022d473030f116ddee9f6b43ac78ba3",
        "gas": "0xa559",
        "value": "0x0",
        "input": "0x87517c450000000000000000000000001c7d4b196cb0c7b01d743fbc6116a902379c7238000000000000000000000000429ba70129df741b2ca2a85bc3a2a3328e5c09b400000000000000000000000000000000ffffffffffffffffffffffffffffffff000000000000000000000000000000000000000000000000000000006985dc10",
        "nonce": "0xbe",
        "chainId": "0xaa36a7"
      },
      "additionalContracts": [],
      "isFixedGasLimit": false
    },
    {
      "hash": "0xc3b62f90c9b10ac950c42dd69aebd72ba20bbbfdb35013f6e6cac6af661a2668",
      "transactionType": "CALL",
      "contractName": "PositionManager",
      "contractAddress": "0x429ba70129df741b2ca2a85bc3a2a3328e5c09b4",
      "function": "modifyLiquidities(bytes,uint256)",
      "arguments": [
        "0x000000000000000000000000000000000000000000000000000000000000004000000000000000000000000000000000000000000000000000000000000000800000000000000000000000000000000000000000000000000000000000000002020d00000000000000000000000000000000000000000000000000000000000000000000000000000000000000000000000000000000000000000000000000020000000000000000000000000000000000000000000000000000000000000040000000000000000000000000000000000000000000000000000000000000020000000000000000000000000000000000000000000000000000000000000001a000000000000000000000000000000000000000000000000000000000000000000000000000000000000000001c7d4b196cb0c7b01d743fbc6116a902379c72380000000000000000000000000000000000000000000000000000000000000bb8000000000000000000000000000000000000000000000000000000000000003c0000000000000000000000005d39bea27003bda62b9ef3428ce22d62e9d26080fffffffffffffffffffffffffffffffffffffffffffffffffffffffffff2764c00000000000000000000000000000000000000000000000000000000000d89b400000000000000000000000000000000000000000000000000000000000003e800000000000000000000000000000000000000000000000000038d7ea4c6800000000000000000000000000000000000000000000000000000000000000f424000000000000000000000000089feeba43b294425c0d7b482770eefbcc1359f8d00000000000000000000000000000000000000000000000000000000000001800000000000000000000000000000000000000000000000000000000000000000000000000000000000000000000000000000000000000000000000000000004000000000000000000000000000000000000000000000000000000000000000000000000000000000000000001c7d4b196cb0c7b01d743fbc6116a902379c7238",
        "1770380304"
      ],
      "transaction": {
        "from": "0x89feeba43b294425c0d7b482770eefbcc1359f8d",
        "to": "0x429ba70129df741b2ca2a85bc3a2a3328e5c09b4",
        "gas": "0x85169",
        "value": "0x9184e72a000",
        "input": "0xdd46508f0000000000000000000000000000000000000000000000000000000000000040000000000000000000000000000000000000000000000000000000006985dc100000000000000000000000000000000000000000000000000000000000000300000000000000000000000000000000000000000000000000000000000000004000000000000000000000000000000000000000000000000000000000000000800000000000000000000000000000000000000000000000000000000000000002020d00000000000000000000000000000000000000000000000000000000000000000000000000000000000000000000000000000000000000000000000000020000000000000000000000000000000000000000000000000000000000000040000000000000000000000000000000000000000000000000000000000000020000000000000000000000000000000000000000000000000000000000000001a000000000000000000000000000000000000000000000000000000000000000000000000000000000000000001c7d4b196cb0c7b01d743fbc6116a902379c72380000000000000000000000000000000000000000000000000000000000000bb8000000000000000000000000000000000000000000000000000000000000003c0000000000000000000000005d39bea27003bda62b9ef3428ce22d62e9d26080fffffffffffffffffffffffffffffffffffffffffffffffffffffffffff2764c00000000000000000000000000000000000000000000000000000000000d89b400000000000000000000000000000000000000000000000000000000000003e800000000000000000000000000000000000000000000000000038d7ea4c6800000000000000000000000000000000000000000000000000000000000000f424000000000000000000000000089feeba43b294425c0d7b482770eefbcc1359f8d00000000000000000000000000000000000000000000000000000000000001800000000000000000000000000000000000000000000000000000000000000000000000000000000000000000000000000000000000000000000000000000004000000000000000000000000000000000000000000000000000000000000000000000000000000000000000001c7d4b196cb0c7b01d743fbc6116a902379c7238",
        "nonce": "0xbf",
        "chainId": "0xaa36a7"
      },
      "additionalContracts": [],
      "isFixedGasLimit": false
    }
  ],
  "receipts": [
    {
      "status": "0x1",
      "cumulativeGasUsed": "0x13595eb",
      "logs": [
        {
          "address": "0x1c7d4b196cb0c7b01d743fbc6116a902379c7238",
          "topics": [
            "0x8c5be1e5ebec7d5bd14f71427d1e84f3dd0314c0f7b2291e5b200ac8c7c3b925",
            "0x00000000000000000000000089feeba43b294425c0d7b482770eefbcc1359f8d",
            "0x000000000000000000000000000000000022d473030f116ddee9f6b43ac78ba3"
          ],
          "data": "0xffffffffffffffffffffffffffffffffffffffffffffffffffffffffffffffff",
          "blockHash": "0x17adc538d6f0ad0d72eed382e0d027c4c12c1d7cbc8769867edbf1520618fc9e",
          "blockNumber": "0x9bb00c",
          "blockTimestamp": "0x6985ce0c",
          "transactionHash": "0xbf6912cd0711b3191595be5835831a2fa2b1580881fd19da03f13815c8336e1c",
          "transactionIndex": "0x69",
          "logIndex": "0x150",
          "removed": false
        }
      ],
      "logsBloom": "0x00000000000000000000000000000000000000000000000000000000000200000000000000000000000000000000000000000000800000000000000000200000000000000000000000004000000040000000000000000800000000000000000000000000000000000000000010000000000000000000000000000000000000000000000000100000000000000000000000000000000000000000000000000000020000000000000000000000000000000000000000000000000000000000000000100000000000000000000000000000000000000000000000000000000000000010000000000000000010000000000000000000000000000000000000000000",
      "type": "0x2",
      "transactionHash": "0xbf6912cd0711b3191595be5835831a2fa2b1580881fd19da03f13815c8336e1c",
      "transactionIndex": "0x69",
      "blockHash": "0x17adc538d6f0ad0d72eed382e0d027c4c12c1d7cbc8769867edbf1520618fc9e",
      "blockNumber": "0x9bb00c",
      "gasUsed": "0x96e1",
      "effectiveGasPrice": "0x3cc0f938",
      "from": "0x89feeba43b294425c0d7b482770eefbcc1359f8d",
      "to": "0x1c7d4b196cb0c7b01d743fbc6116a902379c7238",
      "contractAddress": null
    },
    {
      "status": "0x1",
      "cumulativeGasUsed": "0x1360da1",
      "logs": [
        {
          "address": "0x000000000022d473030f116ddee9f6b43ac78ba3",
          "topics": [
            "0xda9fa7c1b00402c17d0161b249b1ab8bbec047c5a52207b9c112deffd817036b",
            "0x00000000000000000000000089feeba43b294425c0d7b482770eefbcc1359f8d",
            "0x0000000000000000000000001c7d4b196cb0c7b01d743fbc6116a902379c7238",
            "0x000000000000000000000000429ba70129df741b2ca2a85bc3a2a3328e5c09b4"
          ],
          "data": "0x00000000000000000000000000000000ffffffffffffffffffffffffffffffff000000000000000000000000000000000000000000000000000000006985dc10",
          "blockHash": "0x17adc538d6f0ad0d72eed382e0d027c4c12c1d7cbc8769867edbf1520618fc9e",
          "blockNumber": "0x9bb00c",
          "blockTimestamp": "0x6985ce0c",
          "transactionHash": "0xc3b62f90c9b10ac950c42dd69aebd72ba20bbbfdb35013f6e6cac6af661a2668",
          "transactionIndex": "0x6a",
          "logIndex": "0x151",
          "removed": false
        }
      ],
      "logsBloom": "0x00010000000000000000000000000000000000000000000000000000000000000000000000000040080000000000000000000000000004000000000000080000100000000000000000000000000040000000000000000000000000000000000000000000000000000000000010000000000000000000000000000800000000000020000000000000000000000000000000000000000000000000000000000000000000000000000000000000000000000000008000000000000000080000000000100000000000000000000000000000000000000000000040000000000000000000000000000000000000000000000000000000000000000000000000000400",
      "type": "0x2",
      "transactionHash": "0xc3b62f90c9b10ac950c42dd69aebd72ba20bbbfdb35013f6e6cac6af661a2668",
      "transactionIndex": "0x6a",
      "blockHash": "0x17adc538d6f0ad0d72eed382e0d027c4c12c1d7cbc8769867edbf1520618fc9e",
      "blockNumber": "0x9bb00c",
      "gasUsed": "0x77b6",
      "effectiveGasPrice": "0x3cc0f938",
      "from": "0x89feeba43b294425c0d7b482770eefbcc1359f8d",
      "to": "0x000000000022d473030f116ddee9f6b43ac78ba3",
      "contractAddress": null
    },
    {
      "status": "0x1",
      "cumulativeGasUsed": "0x13bbda3",
      "logs": [
        {
          "address": "0x429ba70129df741b2ca2a85bc3a2a3328e5c09b4",
          "topics": [
            "0xddf252ad1be2c89b69c2b068fc378daa952ba7f163c4a11628f55a4df523b3ef",
            "0x0000000000000000000000000000000000000000000000000000000000000000",
            "0x00000000000000000000000089feeba43b294425c0d7b482770eefbcc1359f8d",
            "0x00000000000000000000000000000000000000000000000000000000000059ff"
          ],
          "data": "0x",
          "blockHash": "0x17adc538d6f0ad0d72eed382e0d027c4c12c1d7cbc8769867edbf1520618fc9e",
          "blockNumber": "0x9bb00c",
          "blockTimestamp": "0x6985ce0c",
          "transactionHash": "0xf06e9f42001e515ecbc22e4199a3eca30349f91a8fac3447e7d5a25cbff7da1f",
          "transactionIndex": "0x6b",
          "logIndex": "0x152",
          "removed": false
        },
        {
          "address": "0xe03a1074c86cfedd5c142c4f04f1a1536e203543",
          "topics": [
            "0xf208f4912782fd25c7f114ca3723a2d5dd6f3bcc3ac8db5af63baa85f711d5ec",
            "0xd9663759573f69031c6f88d08c883110172408ab1cac01f825ec42489f90824a",
            "0x000000000000000000000000429ba70129df741b2ca2a85bc3a2a3328e5c09b4"
          ],
          "data": "0xfffffffffffffffffffffffffffffffffffffffffffffffffffffffffff2764c00000000000000000000000000000000000000000000000000000000000d89b400000000000000000000000000000000000000000000000000000000000003e800000000000000000000000000000000000000000000000000000000000059ff",
          "blockHash": "0x17adc538d6f0ad0d72eed382e0d027c4c12c1d7cbc8769867edbf1520618fc9e",
          "blockNumber": "0x9bb00c",
          "blockTimestamp": "0x6985ce0c",
          "transactionHash": "0xf06e9f42001e515ecbc22e4199a3eca30349f91a8fac3447e7d5a25cbff7da1f",
          "transactionIndex": "0x6b",
          "logIndex": "0x153",
          "removed": false
        },
        {
          "address": "0x1c7d4b196cb0c7b01d743fbc6116a902379c7238",
          "topics": [
            "0xddf252ad1be2c89b69c2b068fc378daa952ba7f163c4a11628f55a4df523b3ef",
            "0x00000000000000000000000089feeba43b294425c0d7b482770eefbcc1359f8d",
            "0x000000000000000000000000e03a1074c86cfedd5c142c4f04f1a1536e203543"
          ],
          "data": "0x0000000000000000000000000000000000000000000000000000000000005759",
          "blockHash": "0x17adc538d6f0ad0d72eed382e0d027c4c12c1d7cbc8769867edbf1520618fc9e",
          "blockNumber": "0x9bb00c",
          "blockTimestamp": "0x6985ce0c",
          "transactionHash": "0xf06e9f42001e515ecbc22e4199a3eca30349f91a8fac3447e7d5a25cbff7da1f",
          "transactionIndex": "0x6b",
          "logIndex": "0x154",
          "removed": false
        }
      ],
      "logsBloom": "0x00000000000000000000001000000001000000000000000000000000080200000000000000000040080000000000000000000100000000000000000000000000000000000000000000000008000040000000000000000000000000000000000000000004020000000000008090000800000000000000100000000810000000000000000001100000000010000000000000000000200000000000000000000000000004000000000400000000000000000000000000400000000000000000000000100002000001000000000000000000000000000000000000001000000020001000000000000000000010000000000004000000000000000000000000000000",
      "type": "0x2",
      "transactionHash": "0xf06e9f42001e515ecbc22e4199a3eca30349f91a8fac3447e7d5a25cbff7da1f",
      "transactionIndex": "0x6b",
      "blockHash": "0x17adc538d6f0ad0d72eed382e0d027c4c12c1d7cbc8769867edbf1520618fc9e",
      "blockNumber": "0x9bb00c",
      "gasUsed": "0x5b002",
      "effectiveGasPrice": "0x3cc0f938",
      "from": "0x89feeba43b294425c0d7b482770eefbcc1359f8d",
      "to": "0x429ba70129df741b2ca2a85bc3a2a3328e5c09b4",
      "contractAddress": null
    }
  ],
  "libraries": [],
  "pending": [],
  "returns": {},
  "timestamp": 1770376716670,
  "chain": 11155111,
  "commit": "cdca4d8"
}