{
  "transactions": [
    {
      "hash": "0x09142bf7e5f88eb387ef76401f4efddab4d872f7caa9bbc9c8a4bf26808c95ee",
      "transactionType": "CALL",
      "contractName": null,
      "contractAddress": "0x1c7d4b196cb0c7b01d743fbc6116a902379c7238",
      "function": "approve(address,uint256)",
      "arguments": [
        "0x000000000022D473030F116dDEE9F6B43aC78BA3",
        "115792089237316195423570985008687907853269984665640564039457584007913129639935"
      ],
      "transaction": {
        "from": "0x89feeba43b294425c0d7b482770eefbcc1359f8d",
        "to": "0x1c7d4b196cb0c7b01d743fbc6116a902379c7238",
        "gas": "0xdca8",
        "value": "0x0",
        "input": "0x095ea7b3000000000000000000000000000000000022d473030f116ddee9f6b43ac78ba3ffffffffffffffffffffffffffffffffffffffffffffffffffffffffffffffff",
        "nonce": "0x9c",
        "chainId": "0xaa36a7"
      },
      "additionalContracts": [],
      "isFixedGasLimit": false
    },
    {
      "hash": "0x3c2c6657e96e40c44b34d3dc025f9fe0eb1d774fce7a4d54b877de396043b7b6",
      "transactionType": "CALL",
      "contractName": null,
      "contractAddress": "0x000000000022d473030f116ddee9f6b43ac78ba3",
      "function": "approve(address,address,uint160,uint48)",
      "arguments": [
        "0x1c7D4B196Cb0C7B01d743Fbc6116a902379C7238",
        "0x429ba70129df741B2Ca2a85BC3A2a3328e5c09b4",
        "340282366920938463463374607431768211455",
        "1770341484"
      ],
      "transaction": {
        "from": "0x89feeba43b294425c0d7b482770eefbcc1359f8d",
        "to": "0x000000000022d473030f116ddee9f6b43ac78ba3",
        "gas": "0xa559",
        "value": "0x0",
        "input": "0x87517c450000000000000000000000001c7d4b196cb0c7b01d743fbc6116a902379c7238000000000000000000000000429ba70129df741b2ca2a85bc3a2a3328e5c09b400000000000000000000000000000000ffffffffffffffffffffffffffffffff000000000000000000000000000000000000000000000000000000006985446c",
        "nonce": "0x9d",
        "chainId": "0xaa36a7"
      },
      "additionalContracts": [],
      "isFixedGasLimit": false
    },
    {
      "hash": "0xa6279fe21e9b4bac7ecaa09b7b44140f92d0ff68ad22474cf9878978b37cd7bd",
      "transactionType": "CALL",
      "contractName": "PositionManager",
      "contractAddress": "0x429ba70129df741b2ca2a85bc3a2a3328e5c09b4",
      "function": "modifyLiquidities(bytes,uint256)",
      "arguments": [
        "0x000000000000000000000000000000000000000000000000000000000000004000000000000000000000000000000000000000000000000000000000000000800000000000000000000000000000000000000000000000000000000000000002020d00000000000000000000000000000000000000000000000000000000000000000000000000000000000000000000000000000000000000000000000000020000000000000000000000000000000000000000000000000000000000000040000000000000000000000000000000000000000000000000000000000000020000000000000000000000000000000000000000000000000000000000000001a000000000000000000000000000000000000000000000000000000000000000000000000000000000000000001c7d4b196cb0c7b01d743fbc6116a902379c72380000000000000000000000000000000000000000000000000000000000000bb8000000000000000000000000000000000000000000000000000000000000003c000000000000000000000000d2528a51f7589c11490f3dea7fe1a21f9739e080fffffffffffffffffffffffffffffffffffffffffffffffffffffffffff2764c00000000000000000000000000000000000000000000000000000000000d89b400000000000000000000000000000000000000000000000000000000000003e800000000000000000000000000000000000000000000000000038d7ea4c6800000000000000000000000000000000000000000000000000000000000000f424000000000000000000000000089feeba43b294425c0d7b482770eefbcc1359f8d00000000000000000000000000000000000000000000000000000000000001800000000000000000000000000000000000000000000000000000000000000000000000000000000000000000000000000000000000000000000000000000004000000000000000000000000000000000000000000000000000000000000000000000000000000000000000001c7d4b196cb0c7b01d743fbc6116a902379c7238",
        "1770341484"
      ],
      "transaction": {
        "from": "0x89feeba43b294425c0d7b482770eefbcc1359f8d",
        "to": "0x429ba70129df741b2ca2a85bc3a2a3328e5c09b4",
        "gas": "0x85169",
        "value": "0x9184e72a000",
        "input": "0xdd46508f0000000000000000000000000000000000000000000000000000000000000040000000000000000000000000000000000000000000000000000000006985446c0000000000000000000000000000000000000000000000000000000000000300000000000000000000000000000000000000000000000000000000000000004000000000000000000000000000000000000000000000000000000000000000800000000000000000000000000000000000000000000000000000000000000002020d00000000000000000000000000000000000000000000000000000000000000000000000000000000000000000000000000000000000000000000000000020000000000000000000000000000000000000000000000000000000000000040000000000000000000000000000000000000000000000000000000000000020000000000000000000000000000000000000000000000000000000000000001a000000000000000000000000000000000000000000000000000000000000000000000000000000000000000001c7d4b196cb0c7b01d743fbc6116a902379c72380000000000000000000000000000000000000000000000000000000000000bb8000000000000000000000000000000000000000000000000000000000000003c000000000000000000000000d2528a51f7589c11490f3dea7fe1a21f9739e080fffffffffffffffffffffffffffffffffffffffffffffffffffffffffff2764c00000000000000000000000000000000000000000000000000000000000d89b400000000000000000000000000000000000000000000000000000000000003e800000000000000000000000000000000000000000000000000038d7ea4c6800000000000000000000000000000000000000000000000000000000000000f424000000000000000000000000089feeba43b294425c0d7b482770eefbcc1359f8d00000000000000000000000000000000000000000000000000000000000001800000000000000000000000000000000000000000000000000000000000000000000000000000000000000000000000000000000000000000000000000000004000000000000000000000000000000000000000000000000000000000000000000000000000000000000000001c7d4b196cb0c7b01d743fbc6116a902379c7238",
        "nonce": "0x9e",
        "chainId": "0xaa36a7"
      },
      "additionalContracts": [],
      "isFixedGasLimit": false
    }
  ],
  "receipts": [
    {
      "status": "0x1",
      "cumulativeGasUsed": "0x38c3cea",
      "logs": [
        {
          "address": "0x1c7d4b196cb0c7b01d743fbc6116a902379c7238",
          "topics": [
            "0x8c5be1e5ebec7d5bd14f71427d1e84f3dd0314c0f7b2291e5b200ac8c7c3b925",
            "0x00000000000000000000000089feeba43b294425c0d7b482770eefbcc1359f8d",
            "0x000000000000000000000000000000000022d473030f116ddee9f6b43ac78ba3"
          ],
          "data": "0xffffffffffffffffffffffffffffffffffffffffffffffffffffffffffffffff",
          "blockHash": "0x5d1ab5332a877f1c26d72e79a433b260f614abf57286f45d737ff6d5ecb03ce6",
          "blockNumber": "0x9ba3d1",
          "blockTimestamp": "0x69853674",
          "transactionHash": "0x3c2c6657e96e40c44b34d3dc025f9fe0eb1d774fce7a4d54b877de396043b7b6",
          "transactionIndex": "0x69",
          "logIndex": "0xaa",
          "removed": false
        }
      ],
      "logsBloom": "0x00000000000000000000000000000000000000000000000000000000000200000000000000000000000000000000000000000000800000000000000000200000000000000000000000004000000040000000000000000800000000000000000000000000000000000000000010000000000000000000000000000000000000000000000000100000000000000000000000000000000000000000000000000000020000000000000000000000000000000000000000000000000000000000000000100000000000000000000000000000000000000000000000000000000000000010000000000000000010000000000000000000000000000000000000000000",
      "type": "0x2",
      "transactionHash": "0x3c2c6657e96e40c44b34d3dc025f9fe0eb1d774fce7a4d54b877de396043b7b6",
      "transactionIndex": "0x69",
      "blockHash": "0x5d1ab5332a877f1c26d72e79a433b260f614abf57286f45d737ff6d5ecb03ce6",
      "blockNumber": "0x9ba3d1",
      "gasUsed": "0x96e1",
      "effectiveGasPrice": "0x3979376b",
      "from": "0x89feeba43b294425c0d7b482770eefbcc1359f8d",
      "to": "0x1c7d4b196cb0c7b01d743fbc6116a902379c7238",
      "contractAddress": null
    },
    {
      "status": "0x1",
      "cumulativeGasUsed": "0x38cb4a0",
      "logs": [
        {
          "address": "0x000000000022d473030f116ddee9f6b43ac78ba3",
          "topics": [
            "0xda9fa7c1b00402c17d0161b249b1ab8bbec047c5a52207b9c112deffd817036b",
            "0x00000000000000000000000089feeba43b294425c0d7b482770eefbcc1359f8d",
            "0x0000000000000000000000001c7d4b196cb0c7b01d743fbc6116a902379c7238",
            "0x000000000000000000000000429ba70129df741b2ca2a85bc3a2a3328e5c09b4"
          ],
          "data": "0x00000000000000000000000000000000ffffffffffffffffffffffffffffffff000000000000000000000000000000000000000000000000000000006985446c",
          "blockHash": "0x5d1ab5332a877f1c26d72e79a433b260f614abf57286f45d737ff6d5ecb03ce6",
          "blockNumber": "0x9ba3d1",
          "blockTimestamp": "0x69853674",
          "transactionHash": "0x09142bf7e5f88eb387ef76401f4efddab4d872f7caa9bbc9c8a4bf26808c95ee",
          "transactionIndex": "0x6a",
          "logIndex": "0xab",
          "removed": false
        }
      ],
      "logsBloom": "0x00010000000000000000000000000000000000000000000000000000000000000000000000000040080000000000000000000000000004000000000000080000100000000000000000000000000040000000000000000000000000000000000000000000000000000000000010000000000000000000000000000800000000000020000000000000000000000000000000000000000000000000000000000000000000000000000000000000000000000000008000000000000000080000000000100000000000000000000000000000000000000000000040000000000000000000000000000000000000000000000000000000000000000000000000000400",
      "type": "0x2",
      "transactionHash": "0x09142bf7e5f88eb387ef76401f4efddab4d872f7caa9bbc9c8a4bf26808c95ee",
      "transactionIndex": "0x6a",
      "blockHash": "0x5d1ab5332a877f1c26d72e79a433b260f614abf57286f45d737ff6d5ecb03ce6",
      "blockNumber": "0x9ba3d1",
      "gasUsed": "0x77b6",
      "effectiveGasPrice": "0x3979376b",
      "from": "0x89feeba43b294425c0d7b482770eefbcc1359f8d",
      "to": "0x000000000022d473030f116ddee9f6b43ac78ba3",
      "contractAddress": null
    },
    {
      "status": "0x1",
      "cumulativeGasUsed": "0x87b754",
      "logs": [
        {
          "address": "0x429ba70129df741b2ca2a85bc3a2a3328e5c09b4",
          "topics": [
            "0xddf252ad1be2c89b69c2b068fc378daa952ba7f163c4a11628f55a4df523b3ef",
            "0x0000000000000000000000000000000000000000000000000000000000000000",
            "0x00000000000000000000000089feeba43b294425c0d7b482770eefbcc1359f8d",
            "0x00000000000000000000000000000000000000000000000000000000000059f3"
          ],
          "data": "0x",
          "blockHash": "0xced5a1dc91817633f26eb2827cd492c5867e9929a8405a167a20c8723d57403b",
          "blockNumber": "0x9ba3d2",
          "blockTimestamp": "0x69853680",
          "transactionHash": "0xa6279fe21e9b4bac7ecaa09b7b44140f92d0ff68ad22474cf9878978b37cd7bd",
          "transactionIndex": "0x42",
          "logIndex": "0x70",
          "removed": false
        },
        {
          "address": "0xe03a1074c86cfedd5c142c4f04f1a1536e203543",
          "topics": [
            "0xf208f4912782fd25c7f114ca3723a2d5dd6f3bcc3ac8db5af63baa85f711d5ec",
            "0x48e73843bf2cb2241fd76c96f9b868ec8f1c677218e20b719e85ef4d60032062",
            "0x000000000000000000000000429ba70129df741b2ca2a85bc3a2a3328e5c09b4"
          ],
          "data": "0xfffffffffffffffffffffffffffffffffffffffffffffffffffffffffff2764c00000000000000000000000000000000000000000000000000000000000d89b400000000000000000000000000000000000000000000000000000000000003e800000000000000000000000000000000000000000000000000000000000059f3",
          "blockHash": "0xced5a1dc91817633f26eb2827cd492c5867e9929a8405a167a20c8723d57403b",
          "blockNumber": "0x9ba3d2",
          "blockTimestamp": "0x69853680",
          "transactionHash": "0xa6279fe21e9b4bac7ecaa09b7b44140f92d0ff68ad22474cf9878978b37cd7bd",
          "transactionIndex": "0x42",
          "logIndex": "0x71",
          "removed": false
        },
        {
          "address": "0x1c7d4b196cb0c7b01d743fbc6116a902379c7238",
          "topics": [
            "0xddf252ad1be2c89b69c2b068fc378daa952ba7f163c4a11628f55a4df523b3ef",
            "0x00000000000000000000000089feeba43b294425c0d7b482770eefbcc1359f8d",
            "0x000000000000000000000000e03a1074c86cfedd5c142c4f04f1a1536e203543"
          ],
          "data": "0x0000000000000000000000000000000000000000000000000000000000005759",
          "blockHash": "0xced5a1dc91817633f26eb2827cd492c5867e9929a8405a167a20c8723d57403b",
          "blockNumber": "0x9ba3d2",
          "blockTimestamp": "0x69853680",
          "transactionHash": "0xa6279fe21e9b4bac7ecaa09b7b44140f92d0ff68ad22474cf9878978b37cd7bd",
          "transactionIndex": "0x42",
          "logIndex": "0x72",
          "removed": false
        }
      ],
      "logsBloom": "0x00000000000000000000001400000000000000000000000000800000080200000000000000000040080000000000000000000100000000000000000000000000000000000000000000000008000040000000000000000000010000000000000000000000020000400000000090000800000000000000140000000810000000000000000001100000000010000000000000000000000000000000000000000000000004000000000000000000000000000000000000400000000000000000000000100002000000000000000000000000000000000000000000001000000020001000000000000000000010000000000004000000000000000002000000000000",
      "type": "0x2",
      "transactionHash": "0xa6279fe21e9b4bac7ecaa09b7b44140f92d0ff68ad22474cf9878978b37cd7bd",
      "transactionIndex": "0x42",
      "blockHash": "0xced5a1dc91817633f26eb2827cd492c5867e9929a8405a167a20c8723d57403b",
      "blockNumber": "0x9ba3d2",
      "gasUsed": "0x5b002",
      "effectiveGasPrice": "0x40a376f6",
      "from": "0x89feeba43b294425c0d7b482770eefbcc1359f8d",
      "to": "0x429ba70129df741b2ca2a85bc3a2a3328e5c09b4",
      "contractAddress": null
    }
  ],
  "libraries": [],
  "pending": [],
  "returns": {},
  "timestamp": 1770337915586,
  "chain": 11155111,
  "commit": "3d35e9d"
}