{
  "transactions": [
    {
      "hash": "0xdb4160be842eb3830ce716f0ae690384d0a58966c923ac277d9b54c48dc4f73e",
      "transactionType": "CALL",
      "contractName": null,
      "contractAddress": "0x1c7d4b196cb0c7b01d743fbc6116a902379c7238",
      "function": "approve(address,uint256)",
      "arguments": [
        "0x000000000022D473030F116dDEE9F6B43aC78BA3",
        "115792089237316195423570985008687907853269984665640564039457584007913129639935"
      ],
      "transaction": {
        "from": "0x89feeba43b294425c0d7b482770eefbcc1359f8d",
        "to": "0x1c7d4b196cb0c7b01d743fbc6116a902379c7238",
        "gas": "0xdca8",
        "value": "0x0",
        "input": "0x095ea7b3000000000000000000000000000000000022d473030f116ddee9f6b43ac78ba3ffffffffffffffffffffffffffffffffffffffffffffffffffffffffffffffff",
        "nonce": "0xa3",
        "chainId": "0xaa36a7"
      },
      "additionalContracts": [],
      "isFixedGasLimit": false
    },
    {
      "hash": "0x586ae2a5c37536c7b2c82eb2fe8b0f3a7cd8e2b29485b51cbf2b4ae68a9a9949",
      "transactionType": "CALL",
      "contractName": null,
      "contractAddress": "0x000000000022d473030f116ddee9f6b43ac78ba3",
      "function": "approve(address,address,uint160,uint48)",
      "arguments": [
        "0x1c7D4B196Cb0C7B01d743Fbc6116a902379C7238",
        "0x429ba70129df741B2Ca2a85BC3A2a3328e5c09b4",
        "340282366920938463463374607431768211455",
        "1770341976"
      ],
      "transaction": {
        "from": "0x89feeba43b294425c0d7b482770eefbcc1359f8d",
        "to": "0x000000000022d473030f116ddee9f6b43ac78ba3",
        "gas": "0xa559",
        "value": "0x0",
        "input": "0x87517c450000000000000000000000001c7d4b196cb0c7b01d743fbc6116a902379c7238000000000000000000000000429ba70129df741b2ca2a85bc3a2a3328e5c09b400000000000000000000000000000000ffffffffffffffffffffffffffffffff0000000000000000000000000000000000000000000000000000000069854658",
        "nonce": "0xa4",
        "chainId": "0xaa36a7"
      },
      "additionalContracts": [],
      "isFixedGasLimit": false
    },
    {
      "hash": "0xf1d1330c9f5475c3556429cc918b4cddd1841299606da33d0dd0d30f9f5eedf7",
      "transactionType": "CALL",
      "contractName": "PositionManager",
      "contractAddress": "0x429ba70129df741b2ca2a85bc3a2a3328e5c09b4",
      "function": "modifyLiquidities(bytes,uint256)",
      "arguments": [
        "0x000000000000000000000000000000000000000000000000000000000000004000000000000000000000000000000000000000000000000000000000000000800000000000000000000000000000000000000000000000000000000000000002020d00000000000000000000000000000000000000000000000000000000000000000000000000000000000000000000000000000000000000000000000000020000000000000000000000000000000000000000000000000000000000000040000000000000000000000000000000000000000000000000000000000000020000000000000000000000000000000000000000000000000000000000000001a000000000000000000000000000000000000000000000000000000000000000000000000000000000000000001c7d4b196cb0c7b01d743fbc6116a902379c72380000000000000000000000000000000000000000000000000000000000000bb8000000000000000000000000000000000000000000000000000000000000003c000000000000000000000000e06e50d4fda51e43d042cab33901df92d481a080fffffffffffffffffffffffffffffffffffffffffffffffffffffffffff2764c00000000000000000000000000000000000000000000000000000000000d89b400000000000000000000000000000000000000000000000000000000000003e800000000000000000000000000000000000000000000000000038d7ea4c6800000000000000000000000000000000000000000000000000000000000000f424000000000000000000000000089feeba43b294425c0d7b482770eefbcc1359f8d00000000000000000000000000000000000000000000000000000000000001800000000000000000000000000000000000000000000000000000000000000000000000000000000000000000000000000000000000000000000000000000004000000000000000000000000000000000000000000000000000000000000000000000000000000000000000001c7d4b196cb0c7b01d743fbc6116a902379c7238",
        "1770341976"
      ],
      "transaction": {
        "from": "0x89feeba43b294425c0d7b482770eefbcc1359f8d",
        "to": "0x429ba70129df741b2ca2a85bc3a2a3328e5c09b4",
        "gas": "0x85169",
        "value": "0x9184e72a000",
        "input": "0xdd46508f000000000000000000000000000000000000000000000000000000000000004000000000000000000000000000000000000000000000000000000000698546580000000000000000000000000000000000000000000000000000000000000300000000000000000000000000000000000000000000000000000000000000004000000000000000000000000000000000000000000000000000000000000000800000000000000000000000000000000000000000000000000000000000000002020d00000000000000000000000000000000000000000000000000000000000000000000000000000000000000000000000000000000000000000000000000020000000000000000000000000000000000000000000000000000000000000040000000000000000000000000000000000000000000000000000000000000020000000000000000000000000000000000000000000000000000000000000001a000000000000000000000000000000000000000000000000000000000000000000000000000000000000000001c7d4b196cb0c7b01d743fbc6116a902379c72380000000000000000000000000000000000000000000000000000000000000bb8000000000000000000000000000000000000000000000000000000000000003c000000000000000000000000e06e50d4fda51e43d042cab33901df92d481a080fffffffffffffffffffffffffffffffffffffffffffffffffffffffffff2764c00000000000000000000000000000000000000000000000000000000000d89b400000000000000000000000000000000000000000000000000000000000003e800000000000000000000000000000000000000000000000000038d7ea4c6800000000000000000000000000000000000000000000000000000000000000f424000000000000000000000000089feeba43b294425c0d7b482770eefbcc1359f8d00000000000000000000000000000000000000000000000000000000000001800000000000000000000000000000000000000000000000000000000000000000000000000000000000000000000000000000000000000000000000000000004000000000000000000000000000000000000000000000000000000000000000000000000000000000000000001c7d4b196cb0c7b01d743fbc6116a902379c7238",
        "nonce": "0xa5",
        "chainId": "0xaa36a7"
      },
      "additionalContracts": [],
      "isFixedGasLimit": false
    }
  ],
  "receipts": [
    {
      "status": "0x1",
      "cumulativeGasUsed": "0x66f8d6",
      "logs": [
        {
          "address": "0x1c7d4b196cb0c7b01d743fbc6116a902379c7238",
          "topics": [
            "0x8c5be1e5ebec7d5bd14f71427d1e84f3dd0314c0f7b2291e5b200ac8c7c3b925",
            "0x00000000000000000000000089feeba43b294425c0d7b482770eefbcc1359f8d",
            "0x000000000000000000000000000000000022d473030f116ddee9f6b43ac78ba3"
          ],
          "data": "0xffffffffffffffffffffffffffffffffffffffffffffffffffffffffffffffff",
          "blockHash": "0x7cc4d6e81be367ae93b477b2269acdaad7d9a2e8c885bafc0f2ff208d2610d49",
          "blockNumber": "0x9ba3f7",
          "blockTimestamp": "0x69853860",
          "transactionHash": "0xdb4160be842eb3830ce716f0ae690384d0a58966c923ac277d9b54c48dc4f73e",
          "transactionIndex": "0x60",
          "logIndex": "0x4c",
          "removed": false
        }
      ],
      "logsBloom": "0x00000000000000000000000000000000000000000000000000000000000200000000000000000000000000000000000000000000800000000000000000200000000000000000000000004000000040000000000000000800000000000000000000000000000000000000000010000000000000000000000000000000000000000000000000100000000000000000000000000000000000000000000000000000020000000000000000000000000000000000000000000000000000000000000000100000000000000000000000000000000000000000000000000000000000000010000000000000000010000000000000000000000000000000000000000000",
      "type": "0x2",
      "transactionHash": "0xdb4160be842eb3830ce716f0ae690384d0a58966c923ac277d9b54c48dc4f73e",
      "transactionIndex": "0x60",
      "blockHash": "0x7cc4d6e81be367ae93b477b2269acdaad7d9a2e8c885bafc0f2ff208d2610d49",
      "blockNumber": "0x9ba3f7",
      "gasUsed": "0x96e1",
      "effectiveGasPrice": "0x42f7c7a9",
      "from": "0x89feeba43b294425c0d7b482770eefbcc1359f8d",
      "to": "0x1c7d4b196cb0c7b01d743fbc6116a902379c7238",
      "contractAddress": null
    },
    {
      "status": "0x1",
      "cumulativeGasUsed": "0x67708c",
      "logs": [
        {
          "address": "0x000000000022d473030f116ddee9f6b43ac78ba3",
          "topics": [
            "0xda9fa7c1b00402c17d0161b249b1ab8bbec047c5a52207b9c112deffd817036b",
            "0x00000000000000000000000089feeba43b294425c0d7b482770eefbcc1359f8d",
            "0x0000000000000000000000001c7d4b196cb0c7b01d743fbc6116a902379c7238",
            "0x000000000000000000000000429ba70129df741b2ca2a85bc3a2a3328e5c09b4"
          ],
          "data": "0x00000000000000000000000000000000ffffffffffffffffffffffffffffffff0000000000000000000000000000000000000000000000000000000069854658",
          "blockHash": "0x7cc4d6e81be367ae93b477b2269acdaad7d9a2e8c885bafc0f2ff208d2610d49",
          "blockNumber": "0x9ba3f7",
          "blockTimestamp": "0x69853860",
          "transactionHash": "0x586ae2a5c37536c7b2c82eb2fe8b0f3a7cd8e2b29485b51cbf2b4ae68a9a9949",
          "transactionIndex": "0x61",
          "logIndex": "0x4d",
          "removed": false
        }
      ],
      "logsBloom": "0x00010000000000000000000000000000000000000000000000000000000000000000000000000040080000000000000000000000000004000000000000080000100000000000000000000000000040000000000000000000000000000000000000000000000000000000000010000000000000000000000000000800000000000020000000000000000000000000000000000000000000000000000000000000000000000000000000000000000000000000008000000000000000080000000000100000000000000000000000000000000000000000000040000000000000000000000000000000000000000000000000000000000000000000000000000400",
      "type": "0x2",
      "transactionHash": "0x586ae2a5c37536c7b2c82eb2fe8b0f3a7cd8e2b29485b51cbf2b4ae68a9a9949",
      "transactionIndex": "0x61",
      "blockHash": "0x7cc4d6e81be367ae93b477b2269acdaad7d9a2e8c885bafc0f2ff208d2610d49",
      "blockNumber": "0x9ba3f7",
      "gasUsed": "0x77b6",
      "effectiveGasPrice": "0x42f7c7a9",
      "from": "0x89feeba43b294425c0d7b482770eefbcc1359f8d",
      "to": "0x000000000022d473030f116ddee9f6b43ac78ba3",
      "contractAddress": null
    },
    {
      "status": "0x1",
      "cumulativeGasUsed": "0x6d208e",
      "logs": [
        {
          "address": "0x429ba70129df741b2ca2a85bc3a2a3328e5c09b4",
          "topics": [
            "0xddf252ad1be2c89b69c2b068fc378daa952ba7f163c4a11628f55a4df523b3ef",
            "0x0000000000000000000000000000000000000000000000000000000000000000",
            "0x00000000000000000000000089feeba43b294425c0d7b482770eefbcc1359f8d",
            "0x00000000000000000000000000000000000000000000000000000000000059f4"
          ],
          "data": "0x",
          "blockHash": "0x7cc4d6e81be367ae93b477b2269acdaad7d9a2e8c885bafc0f2ff208d2610d49",
          "blockNumber": "0x9ba3f7",
          "blockTimestamp": "0x69853860",
          "transactionHash": "0xf1d1330c9f5475c3556429cc918b4cddd1841299606da33d0dd0d30f9f5eedf7",
          "transactionIndex": "0x62",
          "logIndex": "0x4e",
          "removed": false
        },
        {
          "address": "0xe03a1074c86cfedd5c142c4f04f1a1536e203543",
          "topics": [
            "0xf208f4912782fd25c7f114ca3723a2d5dd6f3bcc3ac8db5af63baa85f711d5ec",
            "0xe2b8330ab54200f6c44fd5fb8bc49735a3581c8f865d95b52daae49d3f40be3e",
            "0x000000000000000000000000429ba70129df741b2ca2a85bc3a2a3328e5c09b4"
          ],
          "data": "0xfffffffffffffffffffffffffffffffffffffffffffffffffffffffffff2764c00000000000000000000000000000000000000000000000000000000000d89b400000000000000000000000000000000000000000000000000000000000003e800000000000000000000000000000000000000000000000000000000000059f4",
          "blockHash": "0x7cc4d6e81be367ae93b477b2269acdaad7d9a2e8c885bafc0f2ff208d2610d49",
          "blockNumber": "0x9ba3f7",
          "blockTimestamp": "0x69853860",
          "transactionHash": "0xf1d1330c9f5475c3556429cc918b4cddd1841299606da33d0dd0d30f9f5eedf7",
          "transactionIndex": "0x62",
          "logIndex": "0x4f",
          "removed": false
        },
        {
          "address": "0x1c7d4b196cb0c7b01d743fbc6116a902379c7238",
          "topics": [
            "0xddf252ad1be2c89b69c2b068fc378daa952ba7f163c4a11628f55a4df523b3ef",
            "0x00000000000000000000000089feeba43b294425c0d7b482770eefbcc1359f8d",
            "0x000000000000000000000000e03a1074c86cfedd5c142c4f04f1a1536e203543"
          ],
          "data": "0x0000000000000000000000000000000000000000000000000000000000005759",
          "blockHash": "0x7cc4d6e81be367ae93b477b2269acdaad7d9a2e8c885bafc0f2ff208d2610d49",
          "blockNumber": "0x9ba3f7",
          "blockTimestamp": "0x69853860",
          "transactionHash": "0xf1d1330c9f5475c3556429cc918b4cddd1841299606da33d0dd0d30f9f5eedf7",
          "transactionIndex": "0x62",
          "logIndex": "0x50",
          "removed": false
        }
      ],
      "logsBloom": "0x00000000000000080000001000000000000000000000000000000000080200000000000000000040080000000000000000000100000000000000000000001000020000000000000000000008000040000000000000000000000000000400400000000000020000000000000090000800000000000000100000000810000000000000000001100000000010000000000000000000000000000000000000000000000004000000000000000000000000000000000000400000000000000000000000100102000000000000000000000000000000000000000000001000000020001000000000000000000010000000000004000000000000000000000000000000",
      "type": "0x2",
      "transactionHash": "0xf1d1330c9f5475c3556429cc918b4cddd1841299606da33d0dd0d30f9f5eedf7",
      "transactionIndex": "0x62",
      "blockHash": "0x7cc4d6e81be367ae93b477b2269acdaad7d9a2e8c885bafc0f2ff208d2610d49",
      "blockNumber": "0x9ba3f7",
      "gasUsed": "0x5b002",
      "effectiveGasPrice": "0x42f7c7a9",
      "from": "0x89feeba43b294425c0d7b482770eefbcc1359f8d",
      "to": "0x429ba70129df741b2ca2a85bc3a2a3328e5c09b4",
      "contractAddress": null
    }
  ],
  "libraries": [],
  "pending": [],
  "returns": {},
  "timestamp": 1770338398061,
  "chain": 11155111,
  "commit": "cdca4d8"
}