{
  "transactions": [
    {
      "hash": "0x62b403d206a2b09ad7d971bce80fa8e23a871a6005f771ea788eb5ce8c947fd2",
      "transactionType": "CREATE",
      "contractName": "CommitStore",
      "contractAddress": "0x82f7ec315e7f56f1b50b9b0620a380365ca22f00",
      "function": null,
      "arguments": null,
      "transaction": {
        "from": "0x89feeba43b294425c0d7b482770eefbcc1359f8d",
        "gas": "0xf99a0",
        "value": "0x0",
        "input": "0x6080604052348015600e575f80fd5b50610d528061001c5f395ff3fe608060405234801561000f575f80fd5b5060043610610060575f3560e01c80632f5697e41461006457806338c8691114610082578063839df945146100b2578063899d84d3146100e6578063dc6fac7b14610102578063e3ce094d14610132575b5f80fd5b61006c61014e565b60405161007991906106d0565b60405180910390f35b61009c60048036038101906100979190610720565b610153565b6040516100a99190610765565b60405180910390f35b6100cc60048036038101906100c79190610720565b610170565b6040516100dd9594939291906107bd565b60405180910390f35b61010060048036038101906100fb9190610838565b6101cc565b005b61011c60048036038101906101179190610838565b6103ac565b6040516101299190610765565b60405180910390f35b61014c6004803603810190610147919061089c565b610462565b005b600a81565b6001602052805f5260405f205f915054906101000a900460ff1681565b5f602052805f5260405f205f91509050805f015f9054906101000a900473ffffffffffffffffffffffffffffffffffffffff1690806001015490806002015490806003015490806004015f9054906101000a900460ff16905085565b5f805f8681526020019081526020015f2090505f816003015411610225576040517f08c379a000000000000000000000000000000000000000000000000000000000815260040161021c90610934565b60405180910390fd5b806004015f9054906101000a900460ff1615610276576040517f08c379a000000000000000000000000000000000000000000000000000000000815260040161026d9061099c565b60405180910390fd5b600a816003015461028791906109e7565b4310156102c9576040517f08c379a00000000000000000000000000000000000000000000000000000000081526004016102c090610a64565b60405180910390fd5b5f8484846040516020016102df93929190610aa2565b604051602081830303815290604052805190602001209050858114610339576040517f08c379a000000000000000000000000000000000000000000000000000000000815260040161033090610b28565b60405180910390fd5b6001826004015f6101000a81548160ff0219169083151502179055508482600101819055508382600201819055505f801b867f7b385b5200328cf45dc066799088049ff05a3e927e69ae5bb7174fc03f2c3ea9878760405161039c929190610b46565b60405180910390a3505050505050565b5f805f808781526020019081526020015f2090505f8160030154036103d4575f91505061045a565b806004015f9054906101000a900460ff16156103f3575f91505061045a565b600a816003015461040491906109e7565b431015610414575f91505061045a565b5f85858560405160200161042a93929190610aa2565b604051602081830303815290604052805190602001209050868114610453575f9250505061045a565b6001925050505b949350505050565b5f801b82036104a6576040517f08c379a000000000000000000000000000000000000000000000000000000000815260040161049d90610bb7565b60405180910390fd5b60015f8281526020019081526020015f205f9054906101000a900460ff1615610504576040517f08c379a00000000000000000000000000000000000000000000000000000000081526004016104fb90610c1f565b60405180910390fd5b5f805f8481526020019081526020015f206003015414610559576040517f08c379a000000000000000000000000000000000000000000000000000000000815260040161055090610c87565b60405180910390fd5b6040518060a001604052803373ffffffffffffffffffffffffffffffffffffffff1681526020015f81526020015f81526020014381526020015f15158152505f808481526020019081526020015f205f820151815f015f6101000a81548173ffffffffffffffffffffffffffffffffffffffff021916908373ffffffffffffffffffffffffffffffffffffffff1602179055506020820151816001015560408201518160020155606082015181600301556080820151816004015f6101000a81548160ff0219169083151502179055509050506001805f8381526020019081526020015f205f6101000a81548160ff0219169083151502179055503373ffffffffffffffffffffffffffffffffffffffff1681837fc9fb417ce9ee10a86bc8046a24ff15c2c00460856852864cf2bfae9e0b12185a5f80600a4361069d91906109e7565b6040516106ac93929190610ce7565b60405180910390a45050565b5f819050919050565b6106ca816106b8565b82525050565b5f6020820190506106e35f8301846106c1565b92915050565b5f80fd5b5f819050919050565b6106ff816106ed565b8114610709575f80fd5b50565b5f8135905061071a816106f6565b92915050565b5f60208284031215610735576107346106e9565b5b5f6107428482850161070c565b91505092915050565b5f8115159050919050565b61075f8161074b565b82525050565b5f6020820190506107785f830184610756565b92915050565b5f73ffffffffffffffffffffffffffffffffffffffff82169050919050565b5f6107a78261077e565b9050919050565b6107b78161079d565b82525050565b5f60a0820190506107d05f8301886107ae565b6107dd60208301876106c1565b6107ea60408301866106c1565b6107f760608301856106c1565b6108046080830184610756565b9695505050505050565b610817816106b8565b8114610821575f80fd5b50565b5f813590506108328161080e565b92915050565b5f805f80608085870312156108505761084f6106e9565b5b5f61085d8782880161070c565b945050602061086e87828801610824565b935050604061087f87828801610824565b925050606061089087828801610824565b91505092959194509250565b5f80604083850312156108b2576108b16106e9565b5b5f6108bf8582860161070c565b92505060206108d08582860161070c565b9150509250929050565b5f82825260208201905092915050565b7f556e6b6e6f776e20636f6d6d69746d656e7400000000000000000000000000005f82015250565b5f61091e6012836108da565b9150610929826108ea565b602082019050919050565b5f6020820190508181035f83015261094b81610912565b9050919050565b7f416c72656164792072657665616c6564000000000000000000000000000000005f82015250565b5f6109866010836108da565b915061099182610952565b602082019050919050565b5f6020820190508181035f8301526109b38161097a565b9050919050565b7f4e487b71000000000000000000000000000000000000000000000000000000005f52601160045260245ffd5b5f6109f1826106b8565b91506109fc836106b8565b9250828201905080821115610a1457610a136109ba565b5b92915050565b7f546f6f206561726c7900000000000000000000000000000000000000000000005f82015250565b5f610a4e6009836108da565b9150610a5982610a1a565b602082019050919050565b5f6020820190508181035f830152610a7b81610a42565b9050919050565b5f819050919050565b610a9c610a97826106b8565b610a82565b82525050565b5f610aad8286610a8b565b602082019150610abd8285610a8b565b602082019150610acd8284610a8b565b602082019150819050949350505050565b7f496e76616c69642072657665616c0000000000000000000000000000000000005f82015250565b5f610b12600e836108da565b9150610b1d82610ade565b602082019050919050565b5f6020820190508181035f830152610b3f81610b06565b9050919050565b5f604082019050610b595f8301856106c1565b610b6660208301846106c1565b9392505050565b7f456d70747920636f6d6d69746d656e74000000000000000000000000000000005f82015250565b5f610ba16010836108da565b9150610bac82610b6d565b602082019050919050565b5f6020820190508181035f830152610bce81610b95565b9050919050565b7f4e756c6c6966696572207370656e7400000000000000000000000000000000005f82015250565b5f610c09600f836108da565b9150610c1482610bd5565b602082019050919050565b5f6020820190508181035f830152610c3681610bfd565b9050919050565b7f436f6d6d69746d656e74206578697374730000000000000000000000000000005f82015250565b5f610c716011836108da565b9150610c7c82610c3d565b602082019050919050565b5f6020820190508181035f830152610c9e81610c65565b9050919050565b5f819050919050565b5f819050919050565b5f610cd1610ccc610cc784610ca5565b610cae565b6106b8565b9050919050565b610ce181610cb7565b82525050565b5f606082019050610cfa5f830186610cd8565b610d076020830185610cd8565b610d1460408301846106c1565b94935050505056fea2646970667358221220b36ded3aeeca03c1b75c3dbe8fcb3ba10a6bcf86e4b88a999e4446dca92dcd6064736f6c634300081a0033",
        "nonce": "0xd4",
        "chainId": "0xaa36a7"
      },
      "additionalContracts": [],
      "isFixedGasLimit": false
    },
    {
      "hash": "0x6ec61f061d19efbcb798c73a617af9aaea524a087041d0e7add1a930a883d44c",
      "transactionType": "CALL",
      "contractName": "CommitStore",
      "contractAddress": "0x82f7ec315e7f56f1b50b9b0620a380365ca22f00",
      "function": "commit(bytes32,bytes32)",
      "arguments": [
        "0x2329b6e5db60796855be6844675a6d269d8dd085a29c9b77c8eac43f72655cfb",
        "0x4d27c41727f15e90635b140e81230ef0779a0c8245680e77437713ff8440a05f"
      ],
      "transaction": {
        "from": "0x89feeba43b294425c0d7b482770eefbcc1359f8d",
        "to": "0x82f7ec315e7f56f1b50b9b0620a380365ca22f00",
        "gas": "0x23b9d",
        "value": "0x0",
        "input": "0xe3ce094d2329b6e5db60796855be6844675a6d269d8dd085a29c9b77c8eac43f72655cfb4d27c41727f15e90635b140e81230ef0779a0c8245680e77437713ff8440a05f",
        "nonce": "0xd5",
        "chainId": "0xaa36a7"
      },
      "additionalContracts": [],
      "isFixedGasLimit": false
    },
    {
      "hash": "0x8178614e240db613da66fbb1d32d3e36d34c67cd51ad2c7e7cb1c567835c93f6",
      "transactionType": "CALL",
      "contractName": null,
      "contractAddress": "0xfff9976782d46cc05630d1f6ebab18b2324d6b14",
      "function": "approve(address,uint256)",
      "arguments": [
        "0x36b42E07273CD8ECfF1125bF15771AE356F085B1",
        "1000000000000000"
      ],
      "transaction": {
        "from": "0x89feeba43b294425c0d7b482770eefbcc1359f8d",
        "to": "0xfff9976782d46cc05630d1f6ebab18b2324d6b14",
        "gas": "0xf879",
        "value": "0x0",
        "input": "0x095ea7b300000000000000000000000036b42e07273cd8ecff1125bf15771ae356f085b100000000000000000000000000000000000000000000000000038d7ea4c68000",
        "nonce": "0xd6",
        "chainId": "0xaa36a7"
      },
      "additionalContracts": [],
      "isFixedGasLimit": false
    },
    {
      "hash": "0x0d4495630c8ae9bb1100a7bbf9aaa34b163c14150b3237450de66e670c4afd5d",
      "transactionType": "CALL",
      "contractName": null,
      "contractAddress": "0x36b42e07273cd8ecff1125bf15771ae356f085b1",
      "function": "swap((address,address,uint24,int24,address),(bool,int256,uint160),bytes)",
      "arguments": [
        "(0x1c7D4B196Cb0C7B01d743Fbc6116a902379C7238, 0xfFf9976782d46CC05630D1f6eBAb18b2324d6B14, 3000, 60, 0x0000000000000000000000000000000000000000)",
        "(false, 1000000000000000, 1461446703485210103287273052203988822378723970341)",
        "0x"
      ],
      "transaction": {
        "from": "0x89feeba43b294425c0d7b482770eefbcc1359f8d",
        "to": "0x36b42e07273cd8ecff1125bf15771ae356f085b1",
        "gas": "0xc67ba",
        "value": "0x0",
        "input": "0xf3cd914c0000000000000000000000001c7d4b196cb0c7b01d743fbc6116a902379c7238000000000000000000000000fff9976782d46cc05630d1f6ebab18b2324d6b140000000000000000000000000000000000000000000000000000000000000bb8000000000000000000000000000000000000000000000000000000000000003c0000000000000000000000000000000000000000000000000000000000000000000000000000000000000000000000000000000000000000000000000000000000000000000000000000000000000000000000000000000000038d7ea4c68000000000000000000000000000fffd8963efd1fc6a506488495d951d5263988d2500000000000000000000000000000000000000000000000000000000000001200000000000000000000000000000000000000000000000000000000000000000",
        "nonce": "0xd7",
        "chainId": "0xaa36a7"
      },
      "additionalContracts": [],
      "isFixedGasLimit": false
    }
  ],
  "receipts": [
    {
      "status": "0x1",
      "cumulativeGasUsed": "0x6a0d4d",
      "logs": [],
      "logsBloom": "0x00000000000000000000000000000000000000000000000000000000000000000000000000000000000000000000000000000000000000000000000000000000000000000000000000000000000000000000000000000000000000000000000000000000000000000000000000000000000000000000000000000000000000000000000000000000000000000000000000000000000000000000000000000000000000000000000000000000000000000000000000000000000000000000000000000000000000000000000000000000000000000000000000000000000000000000000000000000000000000000000000000000000000000000000000000000",
      "type": "0x2",
      "transactionHash": "0x6ec61f061d19efbcb798c73a617af9aaea524a087041d0e7add1a930a883d44c",
      "transactionIndex": "0x39",
      "blockHash": "0x9b474c47f5df51ec3d6c99d7aafca1bba91d1ac27518db2e0df53f7e7cbfd395",
      "blockNumber": "0x9bb43a",
      "gasUsed": "0xc0005",
      "effectiveGasPrice": "0x3ec9f376",
      "from": "0x89feeba43b294425c0d7b482770eefbcc1359f8d",
      "to": null,
      "contractAddress": "0x82f7ec315e7f56f1b50b9b0620a380365ca22f00"
    },
    {
      "status": "0x1",
      "cumulativeGasUsed": "0x6b9426",
      "logs": [
        {
          "address": "0x82f7ec315e7f56f1b50b9b0620a380365ca22f00",
          "topics": [
            "0xc9fb417ce9ee10a86bc8046a24ff15c2c00460856852864cf2bfae9e0b12185a",
            "0x2329b6e5db60796855be6844675a6d269d8dd085a29c9b77c8eac43f72655cfb",
            "0x4d27c41727f15e90635b140e81230ef0779a0c8245680e77437713ff8440a05f",
            "0x00000000000000000000000089feeba43b294425c0d7b482770eefbcc1359f8d"
          ],
          "data": "0x0000000000000000000000000000000000000000000000000000000000000000000000000000000000000000000000000000000000000000000000000000000000000000000000000000000000000000000000000000000000000000009bb444",
          "blockHash": "0x9b474c47f5df51ec3d6c99d7aafca1bba91d1ac27518db2e0df53f7e7cbfd395",
          "blockNumber": "0x9bb43a",
          "blockTimestamp": "0x6986019c",
          "transactionHash": "0x62b403d206a2b09ad7d971bce80fa8e23a871a6005f771ea788eb5ce8c947fd2",
          "transactionIndex": "0x3a",
          "logIndex": "0x5c",
          "removed": false
        }
      ],
      "logsBloom": "0x08000002000000000000000000000000000000000000000000000000000000000000000000000000100000000000000000000000000000000000000000000000000000000000000000200000000040020000000000000000000000000000000002000000200000000000000010000000000000000000000000000000000000000000000000000000000000000000000000000000000000000000000800000000000000000000000000000000000000200000000000000000000000000000000000100000200000000000000000000000000000000000000000000000000000000000000000000000002000000001000000000000000000000000000000000000",
      "type": "0x2",
      "transactionHash": "0x62b403d206a2b09ad7d971bce80fa8e23a871a6005f771ea788eb5ce8c947fd2",
      "transactionIndex": "0x3a",
      "blockHash": "0x9b474c47f5df51ec3d6c99d7aafca1bba91d1ac27518db2e0df53f7e7cbfd395",
      "blockNumber": "0x9bb43a",
      "gasUsed": "0x186d9",
      "effectiveGasPrice": "0x3ec9f376",
      "from": "0x89feeba43b294425c0d7b482770eefbcc1359f8d",
      "to": "0x82f7ec315e7f56f1b50b9b0620a380365ca22f00",
      "contractAddress": null
    },
    {
      "status": "0x1",
      "cumulativeGasUsed": "0x6c480a",
      "logs": [
        {
          "address": "0xfff9976782d46cc05630d1f6ebab18b2324d6b14",
          "topics": [
            "0x8c5be1e5ebec7d5bd14f71427d1e84f3dd0314c0f7b2291e5b200ac8c7c3b925",
            "0x00000000000000000000000089feeba43b294425c0d7b482770eefbcc1359f8d",
            "0x00000000000000000000000036b42e07273cd8ecff1125bf15771ae356f085b1"
          ],
          "data": "0x00000000000000000000000000000000000000000000000000038d7ea4c68000",
          "blockHash": "0x9b474c47f5df51ec3d6c99d7aafca1bba91d1ac27518db2e0df53f7e7cbfd395",
          "blockNumber": "0x9bb43a",
          "blockTimestamp": "0x6986019c",
          "transactionHash": "0x8178614e240db613da66fbb1d32d3e36d34c67cd51ad2c7e7cb1c567835c93f6",
          "transactionIndex": "0x3b",
          "logIndex": "0x5d",
          "removed": false
        }
      ],
      "logsBloom": "0x00000000000000000000000000000000000004000000000000000000000000000000000000000000000000040000000000000000000000000000000000200000000000000000000000000000000040000000000000000000000000000000000000000000000000000000000010000000000000000000000000000000000000000040000000000000000000000000000000000000000000000000000000000000020020000000000000000000000000000000000000000000000000000000000000100008000000000002000000000000000000000000000000000000000000000010000000000000000000000000000000000000000000000000000000000000",
      "type": "0x2",
      "transactionHash": "0x8178614e240db613da66fbb1d32d3e36d34c67cd51ad2c7e7cb1c567835c93f6",
      "transactionIndex": "0x3b",
      "blockHash": "0x9b474c47f5df51ec3d6c99d7aafca1bba91d1ac27518db2e0df53f7e7cbfd395",
      "blockNumber": "0x9bb43a",
      "gasUsed": "0xb3e4",
      "effectiveGasPrice": "0x3ec9f376",
      "from": "0x89feeba43b294425c0d7b482770eefbcc1359f8d",
      "to": "0xfff9976782d46cc05630d1f6ebab18b2324d6b14",
      "contractAddress": null
    },
    {
      "status": "0x1",
      "cumulativeGasUsed": "0x754336",
      "logs": [
        {
          "address": "0xe03a1074c86cfedd5c142c4f04f1a1536e203543",
          "topics": [
            "0x40e9cecb9f5f1f1c5b9c97dec2917b7ee92e57ba5563708daca94dd84ad7112f",
            "0x0c5089eb2863310ecab41eb94f2705ce37ce455a0f64a9ee627c7470b43161e8",
            "0x00000000000000000000000036b42e07273cd8ecff1125bf15771ae356f085b1"
          ],
          "data": "0x0000000000000000000000000000000000000000000000000000000000b29f15ffffffffffffffffffffffffffffffffffffffffffffffffffffffffff3689cc000000000000000000000000fffd8963efd1fc6a506488495d951d5263988d25000000000000000000000000000000000000000000000000000000000000000000000000000000000000000000000000000000000000000000000000000d89e70000000000000000000000000000000000000000000000000000000000000bb8",
          "blockHash": "0x9b474c47f5df51ec3d6c99d7aafca1bba91d1ac27518db2e0df53f7e7cbfd395",
          "blockNumber": "0x9bb43a",
          "blockTimestamp": "0x6986019c",
          "transactionHash": "0x0d4495630c8ae9bb1100a7bbf9aaa34b163c14150b3237450de66e670c4afd5d",
          "transactionIndex": "0x3c",
          "logIndex": "0x5e",
          "removed": false
        },
        {
          "address": "0x1c7d4b196cb0c7b01d743fbc6116a902379c7238",
          "topics": [
            "0xddf252ad1be2c89b69c2b068fc378daa952ba7f163c4a11628f55a4df523b3ef",
            "0x000000000000000000000000e03a1074c86cfedd5c142c4f04f1a1536e203543",
            "0x00000000000000000000000089feeba43b294425c0d7b482770eefbcc1359f8d"
          ],
          "data": "0x0000000000000000000000000000000000000000000000000000000000b29f15",
          "blockHash": "0x9b474c47f5df51ec3d6c99d7aafca1bba91d1ac27518db2e0df53f7e7cbfd395",
          "blockNumber": "0x9bb43a",
          "blockTimestamp": "0x6986019c",
          "transactionHash": "0x0d4495630c8ae9bb1100a7bbf9aaa34b163c14150b3237450de66e670c4afd5d",
          "transactionIndex": "0x3c",
          "logIndex": "0x5f",
          "removed": false
        },
        {
          "address": "0xfff9976782d46cc05630d1f6ebab18b2324d6b14",
          "topics": [
            "0xddf252ad1be2c89b69c2b068fc378daa952ba7f163c4a11628f55a4df523b3ef",
            "0x00000000000000000000000089feeba43b294425c0d7b482770eefbcc1359f8d",
            "0x000000000000000000000000e03a1074c86cfedd5c142c4f04f1a1536e203543"
          ],
          "data": "0x0000000000000000000000000000000000000000000000000000000000c97634",
          "blockHash": "0x9b474c47f5df51ec3d6c99d7aafca1bba91d1ac27518db2e0df53f7e7cbfd395",
          "blockNumber": "0x9bb43a",
          "blockTimestamp": "0x6986019c",
          "transactionHash": "0x0d4495630c8ae9bb1100a7bbf9aaa34b163c14150b3237450de66e670c4afd5d",
          "transactionIndex": "0x3c",
          "logIndex": "0x60",
          "removed": false
        },
        {
          "address": "0x36b42e07273cd8ecff1125bf15771ae356f085b1",
          "topics": [
            "0x8107d3c00048e48dab2cb830fd6a855aa1933995a5cd6bebf6b7de2e9732d1e8",
            "0x00000000000000000000000089feeba43b294425c0d7b482770eefbcc1359f8d"
          ],
          "data": "0x0000000000000000000000000000000000000000000000000000000000b29f15ffffffffffffffffffffffffffffffffffffffffffffffffffffffffff3689cc",
          "blockHash": "0x9b474c47f5df51ec3d6c99d7aafca1bba91d1ac27518db2e0df53f7e7cbfd395",
          "blockNumber": "0x9bb43a",
          "blockTimestamp": "0x6986019c",
          "transactionHash": "0x0d4495630c8ae9bb1100a7bbf9aaa34b163c14150b3237450de66e670c4afd5d",
          "transactionIndex": "0x3c",
          "logIndex": "0x61",
          "removed": false
        }
      ],
      "logsBloom": "0x0080000000000000010000000000000000000400000000000000000000020000000000000000000001000004000000000000010004000000000000000000000000000000000000000000000800204000000000000000003000000000000000000000000000000000004000009000000000000000000010000000001000000000004000000010000000001000000100000000000000000000000000000000000000002000000000000000000000000000000000000000000000000000000000000010000a000000000002000000000020000000000000000000001000000000001000000000000000004010000000000000000000000000000000000000000000",
      "type": "0x2",
      "transactionHash": "0x0d4495630c8ae9bb1100a7bbf9aaa34b163c14150b3237450de66e670c4afd5d",
      "transactionIndex": "0x3c",
      "blockHash": "0x9b474c47f5df51ec3d6c99d7aafca1bba91d1ac27518db2e0df53f7e7cbfd395",
      "blockNumber": "0x9bb43a",
      "gasUsed": "0x8fb2c",
      "effectiveGasPrice": "0x3ec9f376",
      "from": "0x89feeba43b294425c0d7b482770eefbcc1359f8d",
      "to": "0x36b42e07273cd8ecff1125bf15771ae356f085b1",
      "contractAddress": null
    }
  ],
  "libraries": [],
  "pending": [],
  "returns": {},
  "timestamp": 1770389916712,
  "chain": 11155111,
  "commit": "58e7602"
}