{
  "transactions": [
    {
      "hash": "0xb9d934d173eaa18ffb2e898cd839ac2f91136969a071849323be2cb564efcded",
      "transactionType": "CALL",
      "contractName": null,
      "contractAddress": "0xe03a1074c86cfedd5c142c4f04f1a1536e203543",
      "function": "initialize((address,address,uint24,int24,address),uint160)",
      "arguments": [
        "(0x1c7D4B196Cb0C7B01d743Fbc6116a902379C7238, 0xfFf9976782d46CC05630D1f6eBAb18b2324d6B14, 3000, 60, 0xca3656933c53642BcEEBfD40F0b5D5D3ABCFc3E5)",
        "79228162514264337593543950336"
      ],
      "transaction": {
        "from": "0x89feeba43b294425c0d7b482770eefbcc1359f8d",
        "to": "0xe03a1074c86cfedd5c142c4f04f1a1536e203543",
        "gas": "0x12762",
        "value": "0x0",
        "input": "0x6276cbbe0000000000000000000000001c7d4b196cb0c7b01d743fbc6116a902379c7238000000000000000000000000fff9976782d46cc05630d1f6ebab18b2324d6b140000000000000000000000000000000000000000000000000000000000000bb8000000000000000000000000000000000000000000000000000000000000003c000000000000000000000000ca3656933c53642bceebfd40f0b5d5d3abcfc3e50000000000000000000000000000000000000001000000000000000000000000",
        "nonce": "0x6d",
        "chainId": "0xaa36a7"
      },
      "additionalContracts": [],
      "isFixedGasLimit": false
    }
  ],
  "receipts": [
    {
      "status": "0x1",
      "cumulativeGasUsed": "0x78064f",
      "logs": [
        {
          "address": "0xe03a1074c86cfedd5c142c4f04f1a1536e203543",
          "topics": [
            "0xdd466e674ea557f56295e2d0218a125ea4b4f0f6f3307b95f85e6110838d6438",
            "0x38fef023edd387c534a53dc22e6ece95b2885bee4cb1d1cb90ad0174f2cb1c90",
            "0x0000000000000000000000001c7d4b196cb0c7b01d743fbc6116a902379c7238",
            "0x000000000000000000000000fff9976782d46cc05630d1f6ebab18b2324d6b14"
          ],
          "data": "0x0000000000000000000000000000000000000000000000000000000000000bb8000000000000000000000000000000000000000000000000000000000000003c000000000000000000000000ca3656933c53642bceebfd40f0b5d5d3abcfc3e500000000000000000000000000000000000000010000000000000000000000000000000000000000000000000000000000000000000000000000000000000000",
          "blockHash": "0x15406b36c191c0e4758fde4e533a1609b62047c2eb3ddac677dff04ff2d6bed6",
          "blockNumber": "0x9b9b38",
          "blockTimestamp": "0x6984cbb8",
          "transactionHash": "0xb9d934d173eaa18ffb2e898cd839ac2f91136969a071849323be2cb564efcded",
          "transactionIndex": "0x5b",
          "logIndex": "0x53",
          "removed": false
        }
      ],
      "logsBloom": "0x00000000001000000000000000000000000000000000000000000000000000000000000000000000000000000000000000000900000004000000000000000000100000000000000000000000000000000000000000000000000000000000000000000000000000000000000000000000000000000000100000000000000000000000000000000008000000000000000000000001000000000000000000200000000000000000000000000000000000000000008800000000000000000000000000000000000000000000000021000000000000000000000000000000000000001000000000000000000000000000000000000000000100000000000000000000",
      "type": "0x2",
      "transactionHash": "0xb9d934d173eaa18ffb2e898cd839ac2f91136969a071849323be2cb564efcded",
      "transactionIndex": "0x5b",
      "blockHash": "0x15406b36c191c0e4758fde4e533a1609b62047c2eb3ddac677dff04ff2d6bed6",
      "blockNumber": "0x9b9b38",
      "gasUsed": "0xc9f9",
      "effectiveGasPrice": "0x3f55c76a",
      "from": "0x89feeba43b294425c0d7b482770eefbcc1359f8d",
      "to": "0xe03a1074c86cfedd5c142c4f04f1a1536e203543",
      "contractAddress": null
    }
  ],
  "libraries": [],
  "pending": [],
  "returns": {},
  "timestamp": 1770310583286,
  "chain": 11155111,
  "commit": "cc2e3ff"
}