{
  "transactions": [
    {
      "hash": "0xf5c9aa5581fdee686ba12be211096082a70584e556e060038534cf2e44dc66b4",
      "transactionType": "CALL",
      "contractName": null,
      "contractAddress": "0xe03a1074c86cfedd5c142c4f04f1a1536e203543",
      "function": "initialize((address,address,uint24,int24,address),uint160)",
      "arguments": [
        "(0x0000000000000000000000000000000000000000, 0x1c7D4B196Cb0C7B01d743Fbc6116a902379C7238, 3000, 60, 0x30646e72c91705fff997af0FDe5b2f1fbFfB0080)",
        "1771573796002276971027735586023"
      ],
      "transaction": {
        "from": "0x89feeba43b294425c0d7b482770eefbcc1359f8d",
        "to": "0xe03a1074c86cfedd5c142c4f04f1a1536e203543",
        "gas": "0x11836",
        "value": "0x0",
        "input": "0x6276cbbe00000000000000000000000000000000000000000000000000000000000000000000000000000000000000001c7d4b196cb0c7b01d743fbc6116a902379c72380000000000000000000000000000000000000000000000000000000000000bb8000000000000000000000000000000000000000000000000000000000000003c00000000000000000000000030646e72c91705fff997af0fde5b2f1fbffb008000000000000000000000000000000000000000165c437f6d33f99590868924e7",
        "nonce": "0xc5",
        "chainId": "0xaa36a7"
      },
      "additionalContracts": [],
      "isFixedGasLimit": false
    }
  ],
  "receipts": [
    {
      "status": "0x1",
      "cumulativeGasUsed": "0xb86834",
      "logs": [
        {
          "address": "0xe03a1074c86cfedd5c142c4f04f1a1536e203543",
          "topics": [
            "0xdd466e674ea557f56295e2d0218a125ea4b4f0f6f3307b95f85e6110838d6438",
            "0x5d541a8ec87e666be2091bfc1a4eada4ee5a37f10f64785c8a73b5b29cd6017d",
            "0x0000000000000000000000000000000000000000000000000000000000000000",
            "0x0000000000000000000000001c7d4b196cb0c7b01d743fbc6116a902379c7238"
          ],
          "data": "0x0000000000000000000000000000000000000000000000000000000000000bb8000000000000000000000000000000000000000000000000000000000000003c00000000000000000000000030646e72c91705fff997af0fde5b2f1fbffb008000000000000000000000000000000000000000165c437f6d33f99590868924e7000000000000000000000000000000000000000000000000000000000000f2c4",
          "blockHash": "0x18d8dfd14704a327d895a726df69792c6db50573638ec39ac21e844b6d9a6115",
          "blockNumber": "0x9bb0c4",
          "blockTimestamp": "0x6985d6dc",
          "transactionHash": "0xf5c9aa5581fdee686ba12be211096082a70584e556e060038534cf2e44dc66b4",
          "transactionIndex": "0x65",
          "logIndex": "0xc7",
          "removed": false
        }
      ],
      "logsBloom": "0x00000000000000000000000000000000000000000000000000000000000800000000000000000000000000000000000000000100000004000000000000000000100000200000000000000000000000000000000000000000000000000000000000000000020000000000000000000800000000000000100000000000000000000000000000000008000000000000000000000001000000000000000000200004000000000000000000000000000000000000008000000000000000000000000000000000000000000000000000000000000000000000000000000000000020001000000000000000000000000000000000000000000000000000000000000000",
      "type": "0x2",
      "transactionHash": "0xf5c9aa5581fdee686ba12be211096082a70584e556e060038534cf2e44dc66b4",
      "transactionIndex": "0x65",
      "blockHash": "0x18d8dfd14704a327d895a726df69792c6db50573638ec39ac21e844b6d9a6115",
      "blockNumber": "0x9bb0c4",
      "gasUsed": "0xcadf",
      "effectiveGasPrice": "0x41c6e9ba",
      "from": "0x89feeba43b294425c0d7b482770eefbcc1359f8d",
      "to": "0xe03a1074c86cfedd5c142c4f04f1a1536e203543",
      "contractAddress": null
    }
  ],
  "libraries": [],
  "pending": [],
  "returns": {},
  "timestamp": 1770378973660,
  "chain": 11155111,
  "commit": "7dbcf2f"
}