{
  "transactions": [
    {
      "hash": "0xf42eac494f32ab528d397b4a0e15ff4dfabf4092a4ccd720ae0c0ce8edf96a7e",
      "transactionType": "CALL",
      "contractName": null,
      "contractAddress": "0xe03a1074c86cfedd5c142c4f04f1a1536e203543",
      "function": "initialize((address,address,uint24,int24,address),uint160)",
      "arguments": [
        "(0x1c7D4B196Cb0C7B01d743Fbc6116a902379C7238, 0xfFf9976782d46CC05630D1f6eBAb18b2324d6B14, 500, 10, 0x0000000000000000000000000000000000000000)",
        "2505413461900723139654726429188"
      ],
      "transaction": {
        "from": "0x89feeba43b294425c0d7b482770eefbcc1359f8d",
        "to": "0xe03a1074c86cfedd5c142c4f04f1a1536e203543",
        "gas": "0x11853",
        "value": "0x0",
        "input": "0x6276cbbe0000000000000000000000001c7d4b196cb0c7b01d743fbc6116a902379c7238000000000000000000000000fff9976782d46cc05630d1f6ebab18b2324d6b1400000000000000000000000000000000000000000000000000000000000001f4000000000000000000000000000000000000000000000000000000000000000a0000000000000000000000000000000000000000000000000000000000000000000000000000000000000000000000000000001f9f6d712e5c10c7f089a7aa04",
        "nonce": "0x1bc",
        "chainId": "0xaa36a7"
      },
      "additionalContracts": [],
      "isFixedGasLimit": false
    }
  ],
  "receipts": [
    {
      "status": "0x1",
      "cumulativeGasUsed": "0xbfda48",
      "logs": [
        {
          "address": "0xe03a1074c86cfedd5c142c4f04f1a1536e203543",
          "topics": [
            "0xdd466e674ea557f56295e2d0218a125ea4b4f0f6f3307b95f85e6110838d6438",
            "0xabdb9820d36431e092c155f7151c4c781f09fb4e1b7894fa918a0aadcac87e16",
            "0x0000000000000000000000001c7d4b196cb0c7b01d743fbc6116a902379c7238",
            "0x000000000000000000000000fff9976782d46cc05630d1f6ebab18b2324d6b14"
          ],
          "data": "0x00000000000000000000000000000000000000000000000000000000000001f4000000000000000000000000000000000000000000000000000000000000000a0000000000000000000000000000000000000000000000000000000000000000000000000000000000000000000000000000001f9f6d712e5c10c7f089a7aa040000000000000000000000000000000000000000000000000000000000010dd8",
          "blockHash": "0x56fdede196edd02a0a640c50ee648e2810e9d79bd4402dea7231d56d591ac831",
          "blockNumber": "0x9bd70f",
          "blockTimestamp": "0x6987b028",
          "transactionHash": "0xf42eac494f32ab528d397b4a0e15ff4dfabf4092a4ccd720ae0c0ce8edf96a7e",
          "transactionIndex": "0x63",
          "logIndex": "0xaa",
          "removed": false
        }
      ],
      "logsBloom": "0x00000000001000000000000000000000000000000000000000000000000000000000000000000000000000000000000000000900000004000000000000000000100000000000000000000000000000000000000000000000000000000000000000000000000000000000000000000000000000000000100000000000000000000000000000000008000000000000000000000001000000000000000100200000000000000000000000000000000000000000008000000000000000000000000000000000000000000000000001000100000000000000000000000000000000001000000000000000000000000000000000000000000000000200000000000000",
      "type": "0x2",
      "transactionHash": "0xf42eac494f32ab528d397b4a0e15ff4dfabf4092a4ccd720ae0c0ce8edf96a7e",
      "transactionIndex": "0x63",
      "blockHash": "0x56fdede196edd02a0a640c50ee648e2810e9d79bd4402dea7231d56d591ac831",
      "blockNumber": "0x9bd70f",
      "gasUsed": "0xcaf4",
      "effectiveGasPrice": "0x3f59e903",
      "from": "0x89feeba43b294425c0d7b482770eefbcc1359f8d",
      "to": "0xe03a1074c86cfedd5c142c4f04f1a1536e203543",
      "contractAddress": null
    }
  ],
  "libraries": [],
  "pending": [],
  "returns": {},
  "timestamp": 1770500134155,
  "chain": 11155111,
  "commit": "0679686"
}