{
  "transactions": [
    {
      "hash": null,
      "transactionType": "CALL",
      "contractName": null,
      "contractAddress": "0xe16fbb04858ad41b07a88aad2d2e697186865917",
      "function": "addLiquidity((address,address,uint24,int24,address),int24,int24,int256,address)",
      "arguments": [
        "(0x1c7D4B196Cb0C7B01d743Fbc6116a902379C7238, 0xfFf9976782d46CC05630D1f6eBAb18b2324d6B14, 3000, 60, 0x1846217Bae61BF26612BD8d9a64b970d525B4080)",
        "429540",
        "430740",
        "500000000",
        "0x89feEbA43b294425C0d7B482770eefbcc1359f8d"
      ],
      "transaction": {
        "from": "0x89feeba43b294425c0d7b482770eefbcc1359f8d",
        "to": "0xe16fbb04858ad41b07a88aad2d2e697186865917",
        "value": "0x0",
        "input": "0x09c93b1e0000000000000000000000001c7d4b196cb0c7b01d743fbc6116a902379c7238000000000000000000000000fff9976782d46cc05630d1f6ebab18b2324d6b140000000000000000000000000000000000000000000000000000000000000bb8000000000000000000000000000000000000000000000000000000000000003c0000000000000000000000001846217bae61bf26612bd8d9a64b970d525b40800000000000000000000000000000000000000000000000000000000000068de40000000000000000000000000000000000000000000000000000000000069294000000000000000000000000000000000000000000000000000000001dcd650000000000000000000000000089feeba43b294425c0d7b482770eefbcc1359f8d",
        "nonce": "0xf6",
        "chainId": "0xaa36a7"
      },
      "additionalContracts": [],
      "isFixedGasLimit": false
    }
  ],
  "receipts": [],
  "libraries": [],
  "pending": [],
  "returns": {},
  "timestamp": 1770394417941,
  "chain": 11155111,
  "commit": "58e7602"
}