{
  "transactions": [
    {
      "hash": "0x51d9f8cc572b772dc08e5b0c8f9c6f3f8aeb6ff454134cb105da47c43f28524a",
      "transactionType": "CALL",
      "contractName": "CommitStore",
      "contractAddress": "0xdc81d28a1721fcde86d79ce26ba3b0bef24c116c",
      "function": "commit(bytes32,bytes32)",
      "arguments": [
        "0xcc28a83325528d3505c03146bd7144bef17930e896ed19c206b78dafeadc3abc",
        "0x71f2e29d5688fb960449267915ad44084270cc9e31d40d0758f55453b4d8ceee"
      ],
      "transaction": {
        "from": "0x89feeba43b294425c0d7b482770eefbcc1359f8d",
        "to": "0xdc81d28a1721fcde86d79ce26ba3b0bef24c116c",
        "gas": "0x23b9d",
        "value": "0x0",
        "input": "0xe3ce094dcc28a83325528d3505c03146bd7144bef17930e896ed19c206b78dafeadc3abc71f2e29d5688fb960449267915ad44084270cc9e31d40d0758f55453b4d8ceee",
        "nonce": "0x1bf",
        "chainId": "0xaa36a7"
      },
      "additionalContracts": [],
      "isFixedGasLimit": false
    }
  ],
  "receipts": [
    {
      "status": "0x1",
      "cumulativeGasUsed": "0x3879469",
      "logs": [
        {
          "address": "0xdc81d28a1721fcde86d79ce26ba3b0bef24c116c",
          "topics": [
            "0xc9fb417ce9ee10a86bc8046a24ff15c2c00460856852864cf2bfae9e0b12185a",
            "0xcc28a83325528d3505c03146bd7144bef17930e896ed19c206b78dafeadc3abc",
            "0x71f2e29d5688fb960449267915ad44084270cc9e31d40d0758f55453b4d8ceee",
            "0x00000000000000000000000089feeba43b294425c0d7b482770eefbcc1359f8d"
          ],
          "data": "0x0000000000000000000000000000000000000000000000000000000000000000000000000000000000000000000000000000000000000000000000000000000000000000000000000000000000000000000000000000000000000000009bd81b",
          "blockHash": "0xec5c3b4fb98dc7b6eed1b9702cd34a6d60a26650ec4cc2068430c2e0a27ad227",
          "blockNumber": "0x9bd811",
          "blockTimestamp": "0x6987bcc4",
          "transactionHash": "0x51d9f8cc572b772dc08e5b0c8f9c6f3f8aeb6ff454134cb105da47c43f28524a",
          "transactionIndex": "0x52",
          "logIndex": "0x53",
          "removed": false
        }
      ],
      "logsBloom": "0x00000000000000000000010000000000000080000000000000000000000000000400000000000000000000000000000000000000000000000000000000000000000000000000000000000000000040000000000000000000000000000200080000400000200000000000000010000000000000000000000000000000000000000000000000000000000000000000000000000000000000000000000800000000000000000000000000000000000000000000000000400000000000000000000000100000000000200008000000000000000000000000000000000000000000000000000000000000000000000001000000000000000000000000000000000000",
      "type": "0x2",
      "transactionHash": "0x51d9f8cc572b772dc08e5b0c8f9c6f3f8aeb6ff454134cb105da47c43f28524a",
      "transactionIndex": "0x52",
      "blockHash": "0xec5c3b4fb98dc7b6eed1b9702cd34a6d60a26650ec4cc2068430c2e0a27ad227",
      "blockNumber": "0x9bd811",
      "gasUsed": "0x186d9",
      "effectiveGasPrice": "0x38e6d272",
      "from": "0x89feeba43b294425c0d7b482770eefbcc1359f8d",
      "to": "0xdc81d28a1721fcde86d79ce26ba3b0bef24c116c",
      "contractAddress": null
    }
  ],
  "libraries": [],
  "pending": [],
  "returns": {},
  "timestamp": 1770503363370,
  "chain": 11155111,
  "commit": "0679686"
}