{
  "transactions": [
    {
      "hash": "0x8ceb8b9e2a83d306a6a116488ba2f30a417189e4fa987bf17c2928748fca2cb6",
      "transactionType": "CALL",
      "contractName": "CommitStore",
      "contractAddress": "0xdc81d28a1721fcde86d79ce26ba3b0bef24c116c",
      "function": "commit(bytes32,bytes32)",
      "arguments": [
        "0x4d72cc3ee2c0431cdeab5f4b7ec191f428cd6cb01b216daa37a419684638737a",
        "0x087ed3febb834b77d6c6498b8b733058f5422eaf388590bc7c7ebb335208d33c"
      ],
      "transaction": {
        "from": "0x89feeba43b294425c0d7b482770eefbcc1359f8d",
        "to": "0xdc81d28a1721fcde86d79ce26ba3b0bef24c116c",
        "gas": "0x23b9d",
        "value": "0x0",
        "input": "0xe3ce094d4d72cc3ee2c0431cdeab5f4b7ec191f428cd6cb01b216daa37a419684638737a087ed3febb834b77d6c6498b8b733058f5422eaf388590bc7c7ebb335208d33c",
        "nonce": "0x1ce",
        "chainId": "0xaa36a7"
      },
      "additionalContracts": [],
      "isFixedGasLimit": false
    }
  ],
  "receipts": [
    {
      "status": "0x1",
      "cumulativeGasUsed": "0x38fe48a",
      "logs": [
        {
          "address": "0xdc81d28a1721fcde86d79ce26ba3b0bef24c116c",
          "topics": [
            "0xc9fb417ce9ee10a86bc8046a24ff15c2c00460856852864cf2bfae9e0b12185a",
            "0x4d72cc3ee2c0431cdeab5f4b7ec191f428cd6cb01b216daa37a419684638737a",
            "0x087ed3febb834b77d6c6498b8b733058f5422eaf388590bc7c7ebb335208d33c",
            "0x00000000000000000000000089feeba43b294425c0d7b482770eefbcc1359f8d"
          ],
          "data": "0x0000000000000000000000000000000000000000000000000000000000000000000000000000000000000000000000000000000000000000000000000000000000000000000000000000000000000000000000000000000000000000009bd8c3",
          "blockHash": "0xb493f04f7a243ba99fc69e0e6fec864c9d25bcb779fb89b0d602c3ba9f7fddd7",
          "blockNumber": "0x9bd8b9",
          "blockTimestamp": "0x6987c4d4",
          "transactionHash": "0x8ceb8b9e2a83d306a6a116488ba2f30a417189e4fa987bf17c2928748fca2cb6",
          "transactionIndex": "0x42",
          "logIndex": "0x49",
          "removed": false
        }
      ],
      "logsBloom": "0x00000000000000000000010000000000000000000000000000000000000000000000000000000000000000000010000000000000000000000000000000000000000000000000000000000000000040000000004001000000000000000000000000400000200000000000000010000000000000000000000000000000000000000000000000000000000000000000000000000000000000000000000800000000000000000000000000001000000000000000000000400000000000000000000000100100000000000000000000000000000000000000000000000000000000000000200000000000000000000001000000000000000000000000000000000000",
      "type": "0x2",
      "transactionHash": "0x8ceb8b9e2a83d306a6a116488ba2f30a417189e4fa987bf17c2928748fca2cb6",
      "transactionIndex": "0x42",
      "blockHash": "0xb493f04f7a243ba99fc69e0e6fec864c9d25bcb779fb89b0d602c3ba9f7fddd7",
      "blockNumber": "0x9bd8b9",
      "gasUsed": "0x186d9",
      "effectiveGasPrice": "0x398fddfd",
      "from": "0x89feeba43b294425c0d7b482770eefbcc1359f8d",
      "to": "0xdc81d28a1721fcde86d79ce26ba3b0bef24c116c",
      "contractAddress": null
    }
  ],
  "libraries": [],
  "pending": [],
  "returns": {},
  "timestamp": 1770505427986,
  "chain": 11155111,
  "commit": "0679686"
}