{
  "transactions": [
    {
      "hash": "0x05a127437fab431c43a6a51ded4a85a25378950e1d4f860bd394ae680809f7e7",
      "transactionType": "CALL",
      "contractName": "CommitStore",
      "contractAddress": "0xdc81d28a1721fcde86d79ce26ba3b0bef24c116c",
      "function": "commit(bytes32,bytes32)",
      "arguments": [
        "0x509fae04e0b8f143ad78fed1d55d5c05cc9e59805e69b7c4baad6e7197b22cd2",
        "0x8962114c65b9df03861188f7fba872f92b92e3bdc6c63fa1087b327c8314ac98"
      ],
      "transaction": {
        "from": "0x89feeba43b294425c0d7b482770eefbcc1359f8d",
        "to": "0xdc81d28a1721fcde86d79ce26ba3b0bef24c116c",
        "gas": "0x23b9d",
        "value": "0x0",
        "input": "0xe3ce094d509fae04e0b8f143ad78fed1d55d5c05cc9e59805e69b7c4baad6e7197b22cd28962114c65b9df03861188f7fba872f92b92e3bdc6c63fa1087b327c8314ac98",
        "nonce": "0x1be",
        "chainId": "0xaa36a7"
      },
      "additionalContracts": [],
      "isFixedGasLimit": false
    }
  ],
  "receipts": [
    {
      "status": "0x1",
      "cumulativeGasUsed": "0x838e4d",
      "logs": [
        {
          "address": "0xdc81d28a1721fcde86d79ce26ba3b0bef24c116c",
          "topics": [
            "0xc9fb417ce9ee10a86bc8046a24ff15c2c00460856852864cf2bfae9e0b12185a",
            "0x509fae04e0b8f143ad78fed1d55d5c05cc9e59805e69b7c4baad6e7197b22cd2",
            "0x8962114c65b9df03861188f7fba872f92b92e3bdc6c63fa1087b327c8314ac98",
            "0x00000000000000000000000089feeba43b294425c0d7b482770eefbcc1359f8d"
          ],
          "data": "0x0000000000000000000000000000000000000000000000000000000000000000000000000000000000000000000000000000000000000000000000000000000000000000000000000000000000000000000000000000000000000000009bd80e",
          "blockHash": "0x54a21139668f1f43d8005bff4991fb7f31584bbe647b3ea461f69a2ca1acdf9e",
          "blockNumber": "0x9bd804",
          "blockTimestamp": "0x6987bc28",
          "transactionHash": "0x05a127437fab431c43a6a51ded4a85a25378950e1d4f860bd394ae680809f7e7",
          "transactionIndex": "0x44",
          "logIndex": "0x78",
          "removed": false
        }
      ],
      "logsBloom": "0x00000000000000000000018000000000000000000000000000000000000000000000000000000000000000000000000000000000000000004000000000000000000000000000000000000000000040000000000000000000000000000000000000400000200000000000000010000000000000000000000000000000000000000000000004000000000000000000000000000000000000000000000800000000000000000000000000000000100000000000000000400000000000000000000000100010000000000000000000000000000000000000000000000000000000000000000000000000000000000001000004000000000000000000000000000000",
      "type": "0x2",
      "transactionHash": "0x05a127437fab431c43a6a51ded4a85a25378950e1d4f860bd394ae680809f7e7",
      "transactionIndex": "0x44",
      "blockHash": "0x54a21139668f1f43d8005bff4991fb7f31584bbe647b3ea461f69a2ca1acdf9e",
      "blockNumber": "0x9bd804",
      "gasUsed": "0x186d9",
      "effectiveGasPrice": "0x41accfa1",
      "from": "0x89feeba43b294425c0d7b482770eefbcc1359f8d",
      "to": "0xdc81d28a1721fcde86d79ce26ba3b0bef24c116c",
      "contractAddress": null
    }
  ],
  "libraries": [],
  "pending": [],
  "returns": {},
  "timestamp": 1770503207903,
  "chain": 11155111,
  "commit": "0679686"
}