{
  "transactions": [
    {
      "hash": "0x4dd8cf3d7d95405d857388b85136a047a7da33a0030050a2cdd37183b82eaddb",
      "transactionType": "CALL",
      "contractName": "CommitStore",
      "contractAddress": "0xdc81d28a1721fcde86d79ce26ba3b0bef24c116c",
      "function": "commit(bytes32,bytes32)",
      "arguments": [
        "0xa4156ce6679fbcc43833e220d1183c652030cd662021f99664e85ba03985a70c",
        "0xef6080fe1389dc18a9080ef3724f6e944e5c32b9fff99cb68d84e39d88de2ec2"
      ],
      "transaction": {
        "from": "0x89feeba43b294425c0d7b482770eefbcc1359f8d",
        "to": "0xdc81d28a1721fcde86d79ce26ba3b0bef24c116c",
        "gas": "0x23b9d",
        "value": "0x0",
        "input": "0xe3ce094da4156ce6679fbcc43833e220d1183c652030cd662021f99664e85ba03985a70cef6080fe1389dc18a9080ef3724f6e944e5c32b9fff99cb68d84e39d88de2ec2",
        "nonce": "0x1cf",
        "chainId": "0xaa36a7"
      },
      "additionalContracts": [],
      "isFixedGasLimit": false
    }
  ],
  "receipts": [
    {
      "status": "0x1",
      "cumulativeGasUsed": "0x37c0151",
      "logs": [
        {
          "address": "0xdc81d28a1721fcde86d79ce26ba3b0bef24c116c",
          "topics": [
            "0xc9fb417ce9ee10a86bc8046a24ff15c2c00460856852864cf2bfae9e0b12185a",
            "0xa4156ce6679fbcc43833e220d1183c652030cd662021f99664e85ba03985a70c",
            "0xef6080fe1389dc18a9080ef3724f6e944e5c32b9fff99cb68d84e39d88de2ec2",
            "0x00000000000000000000000089feeba43b294425c0d7b482770eefbcc1359f8d"
          ],
          "data": "0x0000000000000000000000000000000000000000000000000000000000000000000000000000000000000000000000000000000000000000000000000000000000000000000000000000000000000000000000000000000000000000009bd90b",
          "blockHash": "0x1215670290805b8a3ba8f41509ff921f2b57d5ddfcf9446ef865fe110b0bf34e",
          "blockNumber": "0x9bd901",
          "blockTimestamp": "0x6987c840",
          "transactionHash": "0x4dd8cf3d7d95405d857388b85136a047a7da33a0030050a2cdd37183b82eaddb",
          "transactionIndex": "0x57",
          "logIndex": "0x6b",
          "removed": false
        }
      ],
      "logsBloom": "0x00000000000000000000010000000000000000000000000000000000000000000000000000000000000000000000000000000000000000000000000000000000000000000000000000000200000040000000000000000000000000000000000000400000200000000000000010000000000000000000000000000000000000000000000000000040008000000000000000000000000000000000000800000000000000000000000000000000000000020000000000400000000000000000000000100000000000000000000000000000000000000000000000000000000000000000000000000008000000000001000000000010000000000000000000000000",
      "type": "0x2",
      "transactionHash": "0x4dd8cf3d7d95405d857388b85136a047a7da33a0030050a2cdd37183b82eaddb",
      "transactionIndex": "0x57",
      "blockHash": "0x1215670290805b8a3ba8f41509ff921f2b57d5ddfcf9446ef865fe110b0bf34e",
      "blockNumber": "0x9bd901",
      "gasUsed": "0x186d9",
      "effectiveGasPrice": "0x38001e4a",
      "from": "0x89feeba43b294425c0d7b482770eefbcc1359f8d",
      "to": "0xdc81d28a1721fcde86d79ce26ba3b0bef24c116c",
      "contractAddress": null
    }
  ],
  "libraries": [],
  "pending": [],
  "returns": {},
  "timestamp": 1770506304349,
  "chain": 11155111,
  "commit": "0679686"
}