{
  "transactions": [
    {
      "hash": "0xd6fdf1c752132e8975e2ec362c512fbaff22ff3e6a33f24533f9034e78127620",
      "transactionType": "CALL",
      "contractName": "CommitStore",
      "contractAddress": "0xdc81d28a1721fcde86d79ce26ba3b0bef24c116c",
      "function": "commit(bytes32,bytes32)",
      "arguments": [
        "0x43d9a2d884011fbcb7dc99841b3a396519a55d9dc17422e82f2826a6fbbd7d82",
        "0x236bfbcb1cf8832fe40f173884fb2082ee6b2d8d077f0636df77b779a016fc0c"
      ],
      "transaction": {
        "from": "0x89feeba43b294425c0d7b482770eefbcc1359f8d",
        "to": "0xdc81d28a1721fcde86d79ce26ba3b0bef24c116c",
        "gas": "0x23b9d",
        "value": "0x0",
        "input": "0xe3ce094d43d9a2d884011fbcb7dc99841b3a396519a55d9dc17422e82f2826a6fbbd7d82236bfbcb1cf8832fe40f173884fb2082ee6b2d8d077f0636df77b779a016fc0c",
        "nonce": "0x1cd",
        "chainId": "0xaa36a7"
      },
      "additionalContracts": [],
      "isFixedGasLimit": false
    }
  ],
  "receipts": [
    {
      "status": "0x1",
      "cumulativeGasUsed": "0x5e2063",
      "logs": [
        {
          "address": "0xdc81d28a1721fcde86d79ce26ba3b0bef24c116c",
          "topics": [
            "0xc9fb417ce9ee10a86bc8046a24ff15c2c00460856852864cf2bfae9e0b12185a",
            "0x43d9a2d884011fbcb7dc99841b3a396519a55d9dc17422e82f2826a6fbbd7d82",
            "0x236bfbcb1cf8832fe40f173884fb2082ee6b2d8d077f0636df77b779a016fc0c",
            "0x00000000000000000000000089feeba43b294425c0d7b482770eefbcc1359f8d"
          ],
          "data": "0x0000000000000000000000000000000000000000000000000000000000000000000000000000000000000000000000000000000000000000000000000000000000000000000000000000000000000000000000000000000000000000009bd8be",
          "blockHash": "0xeb5f7e11da7359681503f87b9bd98b6f8454fec6d1dcf5220fbd518d1f54fa5b",
          "blockNumber": "0x9bd8b4",
          "blockTimestamp": "0x6987c498",
          "transactionHash": "0xd6fdf1c752132e8975e2ec362c512fbaff22ff3e6a33f24533f9034e78127620",
          "transactionIndex": "0x31",
          "logIndex": "0x50",
          "removed": false
        }
      ],
      "logsBloom": "0x00000000000000000000010000000000000000000000000000000000000000001000000000000000000000000000000000000000000000000000000000000000000000000000000000000000000040000000000000000000000000000000000000400000200000000000000050000000000000400000000000000000000000000000000000000000000000000000000000000000000000000000000800000000000000000000000000000000000000000000000000400000020000000000000000100000000000000000000000020010000000000000000000000000000000000000000000000000000000000001000000000000000000000000000000000000",
      "type": "0x2",
      "transactionHash": "0xd6fdf1c752132e8975e2ec362c512fbaff22ff3e6a33f24533f9034e78127620",
      "transactionIndex": "0x31",
      "blockHash": "0xeb5f7e11da7359681503f87b9bd98b6f8454fec6d1dcf5220fbd518d1f54fa5b",
      "blockNumber": "0x9bd8b4",
      "gasUsed": "0x186d9",
      "effectiveGasPrice": "0x41563f1b",
      "from": "0x89feeba43b294425c0d7b482770eefbcc1359f8d",
      "to": "0xdc81d28a1721fcde86d79ce26ba3b0bef24c116c",
      "contractAddress": null
    }
  ],
  "libraries": [],
  "pending": [],
  "returns": {},
  "timestamp": 1770505367587,
  "chain": 11155111,
  "commit": "0679686"
}