{
  "transactions": [
    {
      "hash": "0xce5347734c3aae046cec3b6a464e1a16698ff7e65f8265bebf61e2417f4859c9",
      "transactionType": "CALL",
      "contractName": null,
      "contractAddress": "0x1c7d4b196cb0c7b01d743fbc6116a902379c7238",
      "function": "approve(address,uint256)",
      "arguments": [
        "0xB276FA545ed8848EC49b2a925c970313253B90Ba",
        "10000000"
      ],
      "transaction": {
        "from": "0x89feeba43b294425c0d7b482770eefbcc1359f8d",
        "to": "0x1c7d4b196cb0c7b01d743fbc6116a902379c7238",
        "gas": "0xdb03",
        "value": "0x0",
        "input": "0x095ea7b3000000000000000000000000b276fa545ed8848ec49b2a925c970313253b90ba0000000000000000000000000000000000000000000000000000000000989680",
        "nonce": "0x1d1",
        "chainId": "0xaa36a7"
      },
      "additionalContracts": [],
      "isFixedGasLimit": false
    },
    {
      "hash": "0xee5faf89cd3ddae664b1bb62a350bb7bc2a3cda990775d3ea205748b8ffe164e",
      "transactionType": "CALL",
      "contractName": null,
      "contractAddress": "0xb276fa545ed8848ec49b2a925c970313253b90ba",
      "function": "swap((address,address,uint24,int24,address),(bool,int256,uint160),bytes)",
      "arguments": [
        "(0x0000000000000000000000000000000000000000, 0x1c7D4B196Cb0C7B01d743Fbc6116a902379C7238, 500, 10, 0x77853497C9dEC9460fb305cbcD80C7DAF4EcDC54)",
        "(false, -10000000, 1461446703485210103287273052203988822378723970341)",
        "0xb685906c748486fdec0fa29303a35ef6658bf5795f70143823c739e222a2c48200000000000000000000000000000000000000000000000000000000427e0988000000000000000000000000000000000000000000000000000e35fa931a0000"
      ],
      "transaction": {
        "from": "0x89feeba43b294425c0d7b482770eefbcc1359f8d",
        "to": "0xb276fa545ed8848ec49b2a925c970313253b90ba",
        "gas": "0x3dbd5",
        "value": "0x0",
        "input": "0xf3cd914c00000000000000000000000000000000000000000000000000000000000000000000000000000000000000001c7d4b196cb0c7b01d743fbc6116a902379c723800000000000000000000000000000000000000000000000000000000000001f4000000000000000000000000000000000000000000000000000000000000000a00000000000000000000000077853497c9dec9460fb305cbcd80c7daf4ecdc540000000000000000000000000000000000000000000000000000000000000000ffffffffffffffffffffffffffffffffffffffffffffffffffffffffff676980000000000000000000000000fffd8963efd1fc6a506488495d951d5263988d2500000000000000000000000000000000000000000000000000000000000001200000000000000000000000000000000000000000000000000000000000000060b685906c748486fdec0fa29303a35ef6658bf5795f70143823c739e222a2c48200000000000000000000000000000000000000000000000000000000427e0988000000000000000000000000000000000000000000000000000e35fa931a0000",
        "nonce": "0x1d2",
        "chainId": "0xaa36a7"
      },
      "additionalContracts": [],
      "isFixedGasLimit": false
    }
  ],
  "receipts": [
    {
      "status": "0x1",
      "cumulativeGasUsed": "0x4db647",
      "logs": [
        {
          "address": "0x1c7d4b196cb0c7b01d743fbc6116a902379c7238",
          "topics": [
            "0x8c5be1e5ebec7d5bd14f71427d1e84f3dd0314c0f7b2291e5b200ac8c7c3b925",
            "0x00000000000000000000000089feeba43b294425c0d7b482770eefbcc1359f8d",
            "0x000000000000000000000000b276fa545ed8848ec49b2a925c970313253b90ba"
          ],
          "data": "0x0000000000000000000000000000000000000000000000000000000000989680",
          "blockHash": "0xb4f3fd1497242afe8125af0e68ffa254eb2f68dc2a3a4e23d7d2373381e1788b",
          "blockNumber": "0x9bd92b",
          "blockTimestamp": "0x6987ca5c",
          "transactionHash": "0xee5faf89cd3ddae664b1bb62a350bb7bc2a3cda990775d3ea205748b8ffe164e",
          "transactionIndex": "0x28",
          "logIndex": "0x79",
          "removed": false
        }
      ],
      "logsBloom": "0x00000000000000000000000000000000000000000000000000010000000200000000000000000000000004000000000000004000000000000000000000200000000000000000000000000000000040000000000000000000000000000000000000000000000000000000000010000000000000000000000000000000000000000000000000100000000000000000000000000000000000000000000000000000020000000000000000000000000000000000000000000000000000000000000000100000000000000000000000000000000000000000000000000000000000000010000000000000000010000000000000000000000000000000000000000000",
      "type": "0x2",
      "transactionHash": "0xee5faf89cd3ddae664b1bb62a350bb7bc2a3cda990775d3ea205748b8ffe164e",
      "transactionIndex": "0x28",
      "blockHash": "0xb4f3fd1497242afe8125af0e68ffa254eb2f68dc2a3a4e23d7d2373381e1788b",
      "blockNumber": "0x9bd92b",
      "gasUsed": "0x95c1",
      "effectiveGasPrice": "0x4407734d",
      "from": "0x89feeba43b294425c0d7b482770eefbcc1359f8d",
      "to": "0x1c7d4b196cb0c7b01d743fbc6116a902379c7238",
      "contractAddress": null
    },
    {
      "status": "0x1",
      "cumulativeGasUsed": "0x508174",
      "logs": [
        {
          "address": "0xe03a1074c86cfedd5c142c4f04f1a1536e203543",
          "topics": [
            "0x40e9cecb9f5f1f1c5b9c97dec2917b7ee92e57ba5563708daca94dd84ad7112f",
            "0x40e90c1cd6b4fdf40e41ea9f3b540d10008fae40f3a33c1f129efb2654471130",
            "0x000000000000000000000000b276fa545ed8848ec49b2a925c970313253b90ba"
          ],
          "data": "0x0000000000000000000000000000000000000000000000000010dc4fa03b2077ffffffffffffffffffffffffffffffffffffffffffffffffffffffffff6769800000000000000000000000000000000000000000000303130474685d9d598b4100000000000000000000000000000000000000000000000000004314f2495a17fffffffffffffffffffffffffffffffffffffffffffffffffffffffffffcf3ab00000000000000000000000000000000000000000000000000000000000001f4",
          "blockHash": "0xb4f3fd1497242afe8125af0e68ffa254eb2f68dc2a3a4e23d7d2373381e1788b",
          "blockNumber": "0x9bd92b",
          "blockTimestamp": "0x6987ca5c",
          "transactionHash": "0xce5347734c3aae046cec3b6a464e1a16698ff7e65f8265bebf61e2417f4859c9",
          "transactionIndex": "0x29",
          "logIndex": "0x7a",
          "removed": false
        },
        {
          "address": "0xb276fa545ed8848ec49b2a925c970313253b90ba",
          "topics": [
            "0x48345aeccf2365d0390103e35a5a06623d269cb0d4d8474f14a7766653c1d82b",
            "0x0000000000000000000000000000000000000000000000000000000000000000"
          ],
          "data": "0x0000000000000000000000000000000000000000000000000010dc4fa03b2077",
          "blockHash": "0xb4f3fd1497242afe8125af0e68ffa254eb2f68dc2a3a4e23d7d2373381e1788b",
          "blockNumber": "0x9bd92b",
          "blockTimestamp": "0x6987ca5c",
          "transactionHash": "0xce5347734c3aae046cec3b6a464e1a16698ff7e65f8265bebf61e2417f4859c9",
          "transactionIndex": "0x29",
          "logIndex": "0x7b",
          "removed": false
        },
        {
          "address": "0x1c7d4b196cb0c7b01d743fbc6116a902379c7238",
          "topics": [
            "0xddf252ad1be2c89b69c2b068fc378daa952ba7f163c4a11628f55a4df523b3ef",
            "0x00000000000000000000000089feeba43b294425c0d7b482770eefbcc1359f8d",
            "0x000000000000000000000000b276fa545ed8848ec49b2a925c970313253b90ba"
          ],
          "data": "0x0000000000000000000000000000000000000000000000000000000000989680",
          "blockHash": "0xb4f3fd1497242afe8125af0e68ffa254eb2f68dc2a3a4e23d7d2373381e1788b",
          "blockNumber": "0x9bd92b",
          "blockTimestamp": "0x6987ca5c",
          "transactionHash": "0xce5347734c3aae046cec3b6a464e1a16698ff7e65f8265bebf61e2417f4859c9",
          "transactionIndex": "0x29",
          "logIndex": "0x7c",
          "removed": false
        },
        {
          "address": "0x1c7d4b196cb0c7b01d743fbc6116a902379c7238",
          "topics": [
            "0xddf252ad1be2c89b69c2b068fc378daa952ba7f163c4a11628f55a4df523b3ef",
            "0x000000000000000000000000b276fa545ed8848ec49b2a925c970313253b90ba",
            "0x000000000000000000000000e03a1074c86cfedd5c142c4f04f1a1536e203543"
          ],
          "data": "0x0000000000000000000000000000000000000000000000000000000000989680",
          "blockHash": "0xb4f3fd1497242afe8125af0e68ffa254eb2f68dc2a3a4e23d7d2373381e1788b",
          "blockNumber": "0x9bd92b",
          "blockTimestamp": "0x6987ca5c",
          "transactionHash": "0xce5347734c3aae046cec3b6a464e1a16698ff7e65f8265bebf61e2417f4859c9",
          "transactionIndex": "0x29",
          "logIndex": "0x7d",
          "removed": false
        },
        {
          "address": "0xb276fa545ed8848ec49b2a925c970313253b90ba",
          "topics": [
            "0x7823e479a1a4ebe2418874847436f8a1680c5ee5b17f38bb59dbff28e1b45552",
            "0x0000000000000000000000001c7d4b196cb0c7b01d743fbc6116a902379c7238"
          ],
          "data": "0x0000000000000000000000000000000000000000000000000000000000989680",
          "blockHash": "0xb4f3fd1497242afe8125af0e68ffa254eb2f68dc2a3a4e23d7d2373381e1788b",
          "blockNumber": "0x9bd92b",
          "blockTimestamp": "0x6987ca5c",
          "transactionHash": "0xce5347734c3aae046cec3b6a464e1a16698ff7e65f8265bebf61e2417f4859c9",
          "transactionIndex": "0x29",
          "logIndex": "0x7e",
          "removed": false
        },
        {
          "address": "0xb276fa545ed8848ec49b2a925c970313253b90ba",
          "topics": [
            "0x764f0dc063c06f32d89a3f3af80c0db4be8a090901f589a478b447e0a51f09f1",
            "0x00000000000000000000000089feeba43b294425c0d7b482770eefbcc1359f8d",
            "0x0000000000000000000000001c7d4b196cb0c7b01d743fbc6116a902379c7238",
            "0x0000000000000000000000000000000000000000000000000000000000000000"
          ],
          "data": "0x00000000000000000000000000000000000000000000000000000000009896800000000000000000000000000000000000000000000000000010dc4fa03b2077",
          "blockHash": "0xb4f3fd1497242afe8125af0e68ffa254eb2f68dc2a3a4e23d7d2373381e1788b",
          "blockNumber": "0x9bd92b",
          "blockTimestamp": "0x6987ca5c",
          "transactionHash": "0xce5347734c3aae046cec3b6a464e1a16698ff7e65f8265bebf61e2417f4859c9",
          "transactionIndex": "0x29",
          "logIndex": "0x7f",
          "removed": false
        }
      ],
      "logsBloom": "0x00008000000000020000004000000000000000001004000000010000010200000000000000000000000004000000000000004100040004000000000000000000100000000000004000000008000440000000000000000020000000000000000000000000020000000000000290000800000000000000100000000010000000010000000000100000000010000000000000000000000000000000000000000000000000000000000000000000000000000000008000000000000000000004000000100002000020000000000000000000000000000000000000001000000020001000000000000000004010000400000000800000000000040000000000000000",
      "type": "0x2",
      "transactionHash": "0xce5347734c3aae046cec3b6a464e1a16698ff7e65f8265bebf61e2417f4859c9",
      "transactionIndex": "0x29",
      "blockHash": "0xb4f3fd1497242afe8125af0e68ffa254eb2f68dc2a3a4e23d7d2373381e1788b",
      "blockNumber": "0x9bd92b",
      "gasUsed": "0x2cb2d",
      "effectiveGasPrice": "0x4407734d",
      "from": "0x89feeba43b294425c0d7b482770eefbcc1359f8d",
      "to": "0xb276fa545ed8848ec49b2a925c970313253b90ba",
      "contractAddress": null
    }
  ],
  "libraries": [],
  "pending": [],
  "returns": {},
  "timestamp": 1770506844530,
  "chain": 11155111,
  "commit": "0679686"
}