{
  "transactions": [
    {
      "hash": "0x29ee66eb3350eb3731198225160cb6a661937735860069fbb8769b40c0460c60",
      "transactionType": "CALL",
      "contractName": "CommitStore",
      "contractAddress": "0xdc81d28a1721fcde86d79ce26ba3b0bef24c116c",
      "function": "commit(bytes32,bytes32)",
      "arguments": [
        "0x762d15c527a78bd42e322a5244df60d118e2ed9db8f3d739ddaf75cf29ddd299",
        "0x790b977aa99974a2b7594afbba2fbd4606576ea0c151ea18c724cfe770e33110"
      ],
      "transaction": {
        "from": "0x89feeba43b294425c0d7b482770eefbcc1359f8d",
        "to": "0xdc81d28a1721fcde86d79ce26ba3b0bef24c116c",
        "gas": "0x23b9d",
        "value": "0x0",
        "input": "0xe3ce094d762d15c527a78bd42e322a5244df60d118e2ed9db8f3d739ddaf75cf29ddd299790b977aa99974a2b7594afbba2fbd4606576ea0c151ea18c724cfe770e33110",
        "nonce": "0x1cc",
        "chainId": "0xaa36a7"
      },
      "additionalContracts": [],
      "isFixedGasLimit": false
    }
  ],
  "receipts": [
    {
      "status": "0x1",
      "cumulativeGasUsed": "0x361ebb4",
      "logs": [
        {
          "address": "0xdc81d28a1721fcde86d79ce26ba3b0bef24c116c",
          "topics": [
            "0xc9fb417ce9ee10a86bc8046a24ff15c2c00460856852864cf2bfae9e0b12185a",
            "0x762d15c527a78bd42e322a5244df60d118e2ed9db8f3d739ddaf75cf29ddd299",
            "0x790b977aa99974a2b7594afbba2fbd4606576ea0c151ea18c724cfe770e33110",
            "0x00000000000000000000000089feeba43b294425c0d7b482770eefbcc1359f8d"
          ],
          "data": "0x0000000000000000000000000000000000000000000000000000000000000000000000000000000000000000000000000000000000000000000000000000000000000000000000000000000000000000000000000000000000000000009bd8af",
          "blockHash": "0x321793c2fe8647836e1de21426acb4bed88f1aa1b15e265dc412a318c4614f22",
          "blockNumber": "0x9bd8a5",
          "blockTimestamp": "0x6987c3e4",
          "transactionHash": "0x29ee66eb3350eb3731198225160cb6a661937735860069fbb8769b40c0460c60",
          "transactionIndex": "0x82",
          "logIndex": "0xcc",
          "removed": false
        }
      ],
      "logsBloom": "0x00000000000000100000010000000000000000000000000000000000000000000004000000000000000000000000000000000000000000000000000000000000000000000000000000000000000040000000000000000000000000000000000000400000200000000000000018000000000000000000000000000000000000000000000000000000000000000000000000000000000000000000000800000000000000000800000000000000000000000000000000400000000000000000000000100000000000000000000000000008000000000000000000000000000000400000000000000000000000000001000000000000000000000000000000000000",
      "type": "0x2",
      "transactionHash": "0x29ee66eb3350eb3731198225160cb6a661937735860069fbb8769b40c0460c60",
      "transactionIndex": "0x82",
      "blockHash": "0x321793c2fe8647836e1de21426acb4bed88f1aa1b15e265dc412a318c4614f22",
      "blockNumber": "0x9bd8a5",
      "gasUsed": "0x186d9",
      "effectiveGasPrice": "0x39b6882e",
      "from": "0x89feeba43b294425c0d7b482770eefbcc1359f8d",
      "to": "0xdc81d28a1721fcde86d79ce26ba3b0bef24c116c",
      "contractAddress": null
    }
  ],
  "libraries": [],
  "pending": [],
  "returns": {},
  "timestamp": 1770505187823,
  "chain": 11155111,
  "commit": "0679686"
}