{
  "transactions": [
    {
      "hash": "0xe718f1949bbe1c99dac00c5b6264116508fb38c056f72078e558f25d06c77bcf",
      "transactionType": "CALL",
      "contractName": "CommitStore",
      "contractAddress": "0xdc81d28a1721fcde86d79ce26ba3b0bef24c116c",
      "function": "commit(bytes32,bytes32)",
      "arguments": [
        "0xb685906c748486fdec0fa29303a35ef6658bf5795f70143823c739e222a2c482",
        "0x926f21dc0efe7fd7fc2f21c20bd5c96687c72e1dc7739687ca9cbdddb1681e44"
      ],
      "transaction": {
        "from": "0x89feeba43b294425c0d7b482770eefbcc1359f8d",
        "to": "0xdc81d28a1721fcde86d79ce26ba3b0bef24c116c",
        "gas": "0x23b9d",
        "value": "0x0",
        "input": "0xe3ce094db685906c748486fdec0fa29303a35ef6658bf5795f70143823c739e222a2c482926f21dc0efe7fd7fc2f21c20bd5c96687c72e1dc7739687ca9cbdddb1681e44",
        "nonce": "0x1d0",
        "chainId": "0xaa36a7"
      },
      "additionalContracts": [],
      "isFixedGasLimit": false
    }
  ],
  "receipts": [
    {
      "status": "0x1",
      "cumulativeGasUsed": "0x3914b75",
      "logs": [
        {
          "address": "0xdc81d28a1721fcde86d79ce26ba3b0bef24c116c",
          "topics": [
            "0xc9fb417ce9ee10a86bc8046a24ff15c2c00460856852864cf2bfae9e0b12185a",
            "0xb685906c748486fdec0fa29303a35ef6658bf5795f70143823c739e222a2c482",
            "0x926f21dc0efe7fd7fc2f21c20bd5c96687c72e1dc7739687ca9cbdddb1681e44",
            "0x00000000000000000000000089feeba43b294425c0d7b482770eefbcc1359f8d"
          ],
          "data": "0x0000000000000000000000000000000000000000000000000000000000000000000000000000000000000000000000000000000000000000000000000000000000000000000000000000000000000000000000000000000000000000009bd929",
          "blockHash": "0xfdcd7d577eaab94b26610817992310bca39ebc454d5264879800d4b8a4a7d40a",
          "blockNumber": "0x9bd91f",
          "blockTimestamp": "0x6987c9cc",
          "transactionHash": "0xe718f1949bbe1c99dac00c5b6264116508fb38c056f72078e558f25d06c77bcf",
          "transactionIndex": "0x5a",
          "logIndex": "0x75",
          "removed": false
        }
      ],
      "logsBloom": "0x20000000000000000000010000000000000000000000000000000000000000000000100000000000000000000000000000000000000000000000000000000000000000000000000000000040000040000800000000000000000010000000000000400000200000002000000010000000000000000000000000000000000000000000000000000000000000000000000000000000000000000000000800000000000000000000000000000000000000000000000000400000000000000000000000100000000000000000000000000000000000000000000000000000000000000000000000000000000000000001000000000000000000000000000000000000",
      "type": "0x2",
      "transactionHash": "0xe718f1949bbe1c99dac00c5b6264116508fb38c056f72078e558f25d06c77bcf",
      "transactionIndex": "0x5a",
      "blockHash": "0xfdcd7d577eaab94b26610817992310bca39ebc454d5264879800d4b8a4a7d40a",
      "blockNumber": "0x9bd91f",
      "gasUsed": "0x186d9",
      "effectiveGasPrice": "0x3757cf2e",
      "from": "0x89feeba43b294425c0d7b482770eefbcc1359f8d",
      "to": "0xdc81d28a1721fcde86d79ce26ba3b0bef24c116c",
      "contractAddress": null
    }
  ],
  "libraries": [],
  "pending": [],
  "returns": {},
  "timestamp": 1770506700066,
  "chain": 11155111,
  "commit": "0679686"
}