{
  "transactions": [
    {
      "hash": "0x9b0f7351bae59076c26b36f9939c1955014ae9feaff4030bea02d65a44303357",
      "transactionType": "CALL",
      "contractName": null,
      "contractAddress": "0xdc81d28a1721fcde86d79ce26ba3b0bef24c116c",
      "function": "commit(bytes32,bytes32)",
      "arguments": [
        "0x20f4a36a3194db03028df13975624a34e68b6fd854afbe73c6683ebcf1b9492f",
        "0x3527e8fad0d5f0710b3f60d39d36e9dd0fc8012d7a033664b7cdbd6247e5d029"
      ],
      "transaction": {
        "from": "0x89feeba43b294425c0d7b482770eefbcc1359f8d",
        "to": "0xdc81d28a1721fcde86d79ce26ba3b0bef24c116c",
        "gas": "0x23b9d",
        "value": "0x0",
        "input": "0xe3ce094d20f4a36a3194db03028df13975624a34e68b6fd854afbe73c6683ebcf1b9492f3527e8fad0d5f0710b3f60d39d36e9dd0fc8012d7a033664b7cdbd6247e5d029",
        "nonce": "0x12b",
        "chainId": "0xaa36a7"
      },
      "additionalContracts": [],
      "isFixedGasLimit": false
    }
  ],
  "receipts": [
    {
      "status": "0x1",
      "cumulativeGasUsed": "0x87376d",
      "logs": [
        {
          "address": "0xdc81d28a1721fcde86d79ce26ba3b0bef24c116c",
          "topics": [
            "0xc9fb417ce9ee10a86bc8046a24ff15c2c00460856852864cf2bfae9e0b12185a",
            "0x20f4a36a3194db03028df13975624a34e68b6fd854afbe73c6683ebcf1b9492f",
            "0x3527e8fad0d5f0710b3f60d39d36e9dd0fc8012d7a033664b7cdbd6247e5d029",
            "0x00000000000000000000000089feeba43b294425c0d7b482770eefbcc1359f8d"
          ],
          "data": "0x0000000000000000000000000000000000000000000000000000000000000000000000000000000000000000000000000000000000000000000000000000000000000000000000000000000000000000000000000000000000000000009bbd95",
          "blockHash": "0x8f2dd631fa6c28329e73110a01af8f79834fae1be0823606d4320b0c47d5ebf7",
          "blockNumber": "0x9bbd8b",
          "blockTimestamp": "0x698674d4",
          "transactionHash": "0x9b0f7351bae59076c26b36f9939c1955014ae9feaff4030bea02d65a44303357",
          "transactionIndex": "0x3b",
          "logIndex": "0x51",
          "removed": false
        }
      ],
      "logsBloom": "0x00000000000000000000010000000000000000000000000000000000000000000000000000000000000000000000000000000000000000000020000000000000000000000000000000000000000040000000000000000000000000000000000000400000200000000000002010000000000000000000000000000000000000000000000000000000000040000000000000000000000000000000000800020000000000000000000000000000000000000000000000400010000000000000000000100000000000000000000000000000000000000000000000000000000000000000000000000000000000000001000000000000000000000000000000000000",
      "type": "0x2",
      "transactionHash": "0x9b0f7351bae59076c26b36f9939c1955014ae9feaff4030bea02d65a44303357",
      "transactionIndex": "0x3b",
      "blockHash": "0x8f2dd631fa6c28329e73110a01af8f79834fae1be0823606d4320b0c47d5ebf7",
      "blockNumber": "0x9bbd8b",
      "gasUsed": "0x186d9",
      "effectiveGasPrice": "0x3ed14a43",
      "from": "0x89feeba43b294425c0d7b482770eefbcc1359f8d",
      "to": "0xdc81d28a1721fcde86d79ce26ba3b0bef24c116c",
      "contractAddress": null
    }
  ],
  "libraries": [],
  "pending": [],
  "returns": {},
  "timestamp": 1770419405169,
  "chain": 11155111,
  "commit": "7d255af"
}