{
  "transactions": [
    {
      "hash": "0x77c316304246595b6ba0157cc010d0f917b60a25dd74de4fed3ebb16288d4313",
      "transactionType": "CALL",
      "contractName": null,
      "contractAddress": "0x1c7d4b196cb0c7b01d743fbc6116a902379c7238",
      "function": "approve(address,uint256)",
      "arguments": [
        "0x000000000022D473030F116dDEE9F6B43aC78BA3",
        "115792089237316195423570985008687907853269984665640564039457584007913129639935"
      ],
      "transaction": {
        "from": "0x89feeba43b294425c0d7b482770eefbcc1359f8d",
        "to": "0x1c7d4b196cb0c7b01d743fbc6116a902379c7238",
        "gas": "0xdca8",
        "value": "0x0",
        "input": "0x095ea7b3000000000000000000000000000000000022d473030f116ddee9f6b43ac78ba3ffffffffffffffffffffffffffffffffffffffffffffffffffffffffffffffff",
        "nonce": "0xc6",
        "chainId": "0xaa36a7"
      },
      "additionalContracts": [],
      "isFixedGasLimit": false
    },
    {
      "hash": "0x79eccda884f1b031acf79e81c96680c69fe8942204efcf2e57938891fdebf9c5",
      "transactionType": "CALL",
      "contractName": null,
      "contractAddress": "0x000000000022d473030f116ddee9f6b43ac78ba3",
      "function": "approve(address,address,uint160,uint48)",
      "arguments": [
        "0x1c7D4B196Cb0C7B01d743Fbc6116a902379C7238",
        "0x429ba70129df741B2Ca2a85BC3A2a3328e5c09b4",
        "340282366920938463463374607431768211455",
        "1770382704"
      ],
      "transaction": {
        "from": "0x89feeba43b294425c0d7b482770eefbcc1359f8d",
        "to": "0x000000000022d473030f116ddee9f6b43ac78ba3",
        "gas": "0xa559",
        "value": "0x0",
        "input": "0x87517c450000000000000000000000001c7d4b196cb0c7b01d743fbc6116a902379c7238000000000000000000000000429ba70129df741b2ca2a85bc3a2a3328e5c09b400000000000000000000000000000000ffffffffffffffffffffffffffffffff000000000000000000000000000000000000000000000000000000006985e570",
        "nonce": "0xc7",
        "chainId": "0xaa36a7"
      },
      "additionalContracts": [],
      "isFixedGasLimit": false
    },
    {
      "hash": "0xe07c7cc6d8fc564f663f8e3396d0de94db3ebcd6e150730642e5aa808fb26b30",
      "transactionType": "CALL",
      "contractName": "PositionManager",
      "contractAddress": "0x429ba70129df741b2ca2a85bc3a2a3328e5c09b4",
      "function": "modifyLiquidities(bytes,uint256)",
      "arguments": [
        "0x000000000000000000000000000000000000000000000000000000000000004000000000000000000000000000000000000000000000000000000000000000800000000000000000000000000000000000000000000000000000000000000002020d00000000000000000000000000000000000000000000000000000000000000000000000000000000000000000000000000000000000000000000000000020000000000000000000000000000000000000000000000000000000000000040000000000000000000000000000000000000000000000000000000000000020000000000000000000000000000000000000000000000000000000000000001a000000000000000000000000000000000000000000000000000000000000000000000000000000000000000001c7d4b196cb0c7b01d743fbc6116a902379c72380000000000000000000000000000000000000000000000000000000000000bb8000000000000000000000000000000000000000000000000000000000000003c00000000000000000000000030646e72c91705fff997af0fde5b2f1fbffb0080fffffffffffffffffffffffffffffffffffffffffffffffffffffffffff2764c00000000000000000000000000000000000000000000000000000000000d89b400000000000000000000000000000000000000000000000000000000000003e800000000000000000000000000000000000000000000000000038d7ea4c6800000000000000000000000000000000000000000000000000000000000000f424000000000000000000000000089feeba43b294425c0d7b482770eefbcc1359f8d00000000000000000000000000000000000000000000000000000000000001800000000000000000000000000000000000000000000000000000000000000000000000000000000000000000000000000000000000000000000000000000004000000000000000000000000000000000000000000000000000000000000000000000000000000000000000001c7d4b196cb0c7b01d743fbc6116a902379c7238",
        "1770382704"
      ],
      "transaction": {
        "from": "0x89feeba43b294425c0d7b482770eefbcc1359f8d",
        "to": "0x429ba70129df741b2ca2a85bc3a2a3328e5c09b4",
        "gas": "0x7db0b",
        "value": "0x9184e72a000",
        "input": "0xdd46508f0000000000000000000000000000000000000000000000000000000000000040000000000000000000000000000000000000000000000000000000006985e5700000000000000000000000000000000000000000000000000000000000000300000000000000000000000000000000000000000000000000000000000000004000000000000000000000000000000000000000000000000000000000000000800000000000000000000000000000000000000000000000000000000000000002020d00000000000000000000000000000000000000000000000000000000000000000000000000000000000000000000000000000000000000000000000000020000000000000000000000000000000000000000000000000000000000000040000000000000000000000000000000000000000000000000000000000000020000000000000000000000000000000000000000000000000000000000000001a000000000000000000000000000000000000000000000000000000000000000000000000000000000000000001c7d4b196cb0c7b01d743fbc6116a902379c72380000000000000000000000000000000000000000000000000000000000000bb8000000000000000000000000000000000000000000000000000000000000003c00000000000000000000000030646e72c91705fff997af0fde5b2f1fbffb0080fffffffffffffffffffffffffffffffffffffffffffffffffffffffffff2764c00000000000000000000000000000000000000000000000000000000000d89b400000000000000000000000000000000000000000000000000000000000003e800000000000000000000000000000000000000000000000000038d7ea4c6800000000000000000000000000000000000000000000000000000000000000f424000000000000000000000000089feeba43b294425c0d7b482770eefbcc1359f8d00000000000000000000000000000000000000000000000000000000000001800000000000000000000000000000000000000000000000000000000000000000000000000000000000000000000000000000000000000000000000000000004000000000000000000000000000000000000000000000000000000000000000000000000000000000000000001c7d4b196cb0c7b01d743fbc6116a902379c7238",
        "nonce": "0xc8",
        "chainId": "0xaa36a7"
      },
      "additionalContracts": [],
      "isFixedGasLimit": false
    }
  ],
  "receipts": [
    {
      "status": "0x1",
      "cumulativeGasUsed": "0xbc40c9",
      "logs": [
        {
          "address": "0x1c7d4b196cb0c7b01d743fbc6116a902379c7238",
          "topics": [
            "0x8c5be1e5ebec7d5bd14f71427d1e84f3dd0314c0f7b2291e5b200ac8c7c3b925",
            "0x00000000000000000000000089feeba43b294425c0d7b482770eefbcc1359f8d",
            "0x000000000000000000000000000000000022d473030f116ddee9f6b43ac78ba3"
          ],
          "data": "0xffffffffffffffffffffffffffffffffffffffffffffffffffffffffffffffff",
          "blockHash": "0x233e9dacf94debfdf3fdd75970ab40edeee0dbdff70362854eaf2a43c7923262",
          "blockNumber": "0x9bb0d1",
          "blockTimestamp": "0x6985d778",
          "transactionHash": "0x79eccda884f1b031acf79e81c96680c69fe8942204efcf2e57938891fdebf9c5",
          "transactionIndex": "0x45",
          "logIndex": "0xb6",
          "removed": false
        }
      ],
      "logsBloom": "0x00000000000000000000000000000000000000000000000000000000000200000000000000000000000000000000000000000000800000000000000000200000000000000000000000004000000040000000000000000800000000000000000000000000000000000000000010000000000000000000000000000000000000000000000000100000000000000000000000000000000000000000000000000000020000000000000000000000000000000000000000000000000000000000000000100000000000000000000000000000000000000000000000000000000000000010000000000000000010000000000000000000000000000000000000000000",
      "type": "0x2",
      "transactionHash": "0x79eccda884f1b031acf79e81c96680c69fe8942204efcf2e57938891fdebf9c5",
      "transactionIndex": "0x45",
      "blockHash": "0x233e9dacf94debfdf3fdd75970ab40edeee0dbdff70362854eaf2a43c7923262",
      "blockNumber": "0x9bb0d1",
      "gasUsed": "0x96e1",
      "effectiveGasPrice": "0x42f29521",
      "from": "0x89feeba43b294425c0d7b482770eefbcc1359f8d",
      "to": "0x1c7d4b196cb0c7b01d743fbc6116a902379c7238",
      "contractAddress": null
    },
    {
      "status": "0x1",
      "cumulativeGasUsed": "0xbcb87f",
      "logs": [
        {
          "address": "0x000000000022d473030f116ddee9f6b43ac78ba3",
          "topics": [
            "0xda9fa7c1b00402c17d0161b249b1ab8bbec047c5a52207b9c112deffd817036b",
            "0x00000000000000000000000089feeba43b294425c0d7b482770eefbcc1359f8d",
            "0x0000000000000000000000001c7d4b196cb0c7b01d743fbc6116a902379c7238",
            "0x000000000000000000000000429ba70129df741b2ca2a85bc3a2a3328e5c09b4"
          ],
          "data": "0x00000000000000000000000000000000ffffffffffffffffffffffffffffffff000000000000000000000000000000000000000000000000000000006985e570",
          "blockHash": "0x233e9dacf94debfdf3fdd75970ab40edeee0dbdff70362854eaf2a43c7923262",
          "blockNumber": "0x9bb0d1",
          "blockTimestamp": "0x6985d778",
          "transactionHash": "0xe07c7cc6d8fc564f663f8e3396d0de94db3ebcd6e150730642e5aa808fb26b30",
          "transactionIndex": "0x46",
          "logIndex": "0xb7",
          "removed": false
        }
      ],
      "logsBloom": "0x00010000000000000000000000000000000000000000000000000000000000000000000000000040080000000000000000000000000004000000000000080000100000000000000000000000000040000000000000000000000000000000000000000000000000000000000010000000000000000000000000000800000000000020000000000000000000000000000000000000000000000000000000000000000000000000000000000000000000000000008000000000000000080000000000100000000000000000000000000000000000000000000040000000000000000000000000000000000000000000000000000000000000000000000000000400",
      "type": "0x2",
      "transactionHash": "0xe07c7cc6d8fc564f663f8e3396d0de94db3ebcd6e150730642e5aa808fb26b30",
      "transactionIndex": "0x46",
      "blockHash": "0x233e9dacf94debfdf3fdd75970ab40edeee0dbdff70362854eaf2a43c7923262",
      "blockNumber": "0x9bb0d1",
      "gasUsed": "0x77b6",
      "effectiveGasPrice": "0x42f29521",
      "from": "0x89feeba43b294425c0d7b482770eefbcc1359f8d",
      "to": "0x000000000022d473030f116ddee9f6b43ac78ba3",
      "contractAddress": null
    },
    {
      "status": "0x1",
      "cumulativeGasUsed": "0xc26875",
      "logs": [
        {
          "address": "0x429ba70129df741b2ca2a85bc3a2a3328e5c09b4",
          "topics": [
            "0xddf252ad1be2c89b69c2b068fc378daa952ba7f163c4a11628f55a4df523b3ef",
            "0x0000000000000000000000000000000000000000000000000000000000000000",
            "0x00000000000000000000000089feeba43b294425c0d7b482770eefbcc1359f8d",
            "0x0000000000000000000000000000000000000000000000000000000000005a05"
          ],
          "data": "0x",
          "blockHash": "0x233e9dacf94debfdf3fdd75970ab40edeee0dbdff70362854eaf2a43c7923262",
          "blockNumber": "0x9bb0d1",
          "blockTimestamp": "0x6985d778",
          "transactionHash": "0x77c316304246595b6ba0157cc010d0f917b60a25dd74de4fed3ebb16288d4313",
          "transactionIndex": "0x47",
          "logIndex": "0xb8",
          "removed": false
        },
        {
          "address": "0xe03a1074c86cfedd5c142c4f04f1a1536e203543",
          "topics": [
            "0xf208f4912782fd25c7f114ca3723a2d5dd6f3bcc3ac8db5af63baa85f711d5ec",
            "0x5d541a8ec87e666be2091bfc1a4eada4ee5a37f10f64785c8a73b5b29cd6017d",
            "0x000000000000000000000000429ba70129df741b2ca2a85bc3a2a3328e5c09b4"
          ],
          "data": "0xfffffffffffffffffffffffffffffffffffffffffffffffffffffffffff2764c00000000000000000000000000000000000000000000000000000000000d89b400000000000000000000000000000000000000000000000000000000000003e80000000000000000000000000000000000000000000000000000000000005a05",
          "blockHash": "0x233e9dacf94debfdf3fdd75970ab40edeee0dbdff70362854eaf2a43c7923262",
          "blockNumber": "0x9bb0d1",
          "blockTimestamp": "0x6985d778",
          "transactionHash": "0x77c316304246595b6ba0157cc010d0f917b60a25dd74de4fed3ebb16288d4313",
          "transactionIndex": "0x47",
          "logIndex": "0xb9",
          "removed": false
        },
        {
          "address": "0x1c7d4b196cb0c7b01d743fbc6116a902379c7238",
          "topics": [
            "0xddf252ad1be2c89b69c2b068fc378daa952ba7f163c4a11628f55a4df523b3ef",
            "0x00000000000000000000000089feeba43b294425c0d7b482770eefbcc1359f8d",
            "0x000000000000000000000000e03a1074c86cfedd5c142c4f04f1a1536e203543"
          ],
          "data": "0x0000000000000000000000000000000000000000000000000000000000005759",
          "blockHash": "0x233e9dacf94debfdf3fdd75970ab40edeee0dbdff70362854eaf2a43c7923262",
          "blockNumber": "0x9bb0d1",
          "blockTimestamp": "0x6985d778",
          "transactionHash": "0x77c316304246595b6ba0157cc010d0f917b60a25dd74de4fed3ebb16288d4313",
          "transactionIndex": "0x47",
          "logIndex": "0xba",
          "removed": false
        }
      ],
      "logsBloom": "0x00000000000000000000001000000000000000000000000000000000080a00000000000000000040080000000000000000000100000000000000000000000000000000200000000000000008000040000000000000000000000000000000000000020000020000000000000090000800000000000000100000000810000000000000000001100000000010000000000000000000000000000000000000000004000004000000000000000000000000000000000000400000000000000000004080100002000000000000000000000000000000000000000000001000000020001000000000000000000010000000000004000000000000000000000000000000",
      "type": "0x2",
      "transactionHash": "0x77c316304246595b6ba0157cc010d0f917b60a25dd74de4fed3ebb16288d4313",
      "transactionIndex": "0x47",
      "blockHash": "0x233e9dacf94debfdf3fdd75970ab40edeee0dbdff70362854eaf2a43c7923262",
      "blockNumber": "0x9bb0d1",
      "gasUsed": "0x5aff6",
      "effectiveGasPrice": "0x42f29521",
      "from": "0x89feeba43b294425c0d7b482770eefbcc1359f8d",
      "to": "0x429ba70129df741b2ca2a85bc3a2a3328e5c09b4",
      "contractAddress": null
    }
  ],
  "libraries": [],
  "pending": [],
  "returns": {},
  "timestamp": 1770379128999,
  "chain": 11155111,
  "commit": "7dbcf2f"
}