{
  "transactions": [
    {
      "hash": "0xfdfc0bdd761275ca1a28208f59916e2b12d2cdd612030ca20297390b7147be03",
      "transactionType": "CALL",
      "contractName": null,
      "contractAddress": "0xdc81d28a1721fcde86d79ce26ba3b0bef24c116c",
      "function": "commit(bytes32,bytes32)",
      "arguments": [
        "0xb7cf83426931f0b6bc1695598d8f83320a6b1ee826b727e862e0ecafcf18acd2",
        "0xf68ec6a00db316e1439da4c464d7b2ebf20cdffd679d7fe52d613a1316750b72"
      ],
      "transaction": {
        "from": "0x89feeba43b294425c0d7b482770eefbcc1359f8d",
        "to": "0xdc81d28a1721fcde86d79ce26ba3b0bef24c116c",
        "value": "0x0",
        "input": "0xe3ce094db7cf83426931f0b6bc1695598d8f83320a6b1ee826b727e862e0ecafcf18acd2f68ec6a00db316e1439da4c464d7b2ebf20cdffd679d7fe52d613a1316750b72",
        "nonce": "0xf9",
        "chainId": "0xaa36a7"
      },
      "additionalContracts": [],
      "isFixedGasLimit": false
    }
  ],
  "receipts": [
    {
      "status": "0x1",
      "cumulativeGasUsed": "0x357a13b",
      "logs": [
        {
          "address": "0xdc81d28a1721fcde86d79ce26ba3b0bef24c116c",
          "topics": [
            "0xc9fb417ce9ee10a86bc8046a24ff15c2c00460856852864cf2bfae9e0b12185a",
            "0xb7cf83426931f0b6bc1695598d8f83320a6b1ee826b727e862e0ecafcf18acd2",
            "0xf68ec6a00db316e1439da4c464d7b2ebf20cdffd679d7fe52d613a1316750b72",
            "0x00000000000000000000000089feeba43b294425c0d7b482770eefbcc1359f8d"
          ],
          "data": "0x0000000000000000000000000000000000000000000000000000000000000000000000000000000000000000000000000000000000000000000000000000000000000000000000000000000000000000000000000000000000000000009bb5df",
          "blockHash": "0xf9f7e89689a02225af9ffe60d04508044c017ebad1bd2e23641a5fa3475f947a",
          "blockNumber": "0x9bb5d5",
          "blockTimestamp": "0x698615ac",
          "transactionHash": "0xfdfc0bdd761275ca1a28208f59916e2b12d2cdd612030ca20297390b7147be03",
          "transactionIndex": "0x65",
          "logIndex": "0x118",
          "removed": false
        }
      ],
      "logsBloom": "0x00000000000000000000010000000000000000000000000000000000000000000000000000000000000000000000000000000000000000000000000000000000000000000004000000000000000040000000000002000000000000000000000000480200200000000000000010000000000000000000000000000000000000000000000000000000000000000000000000000000000000000000000800000000000000000000000000000000000000000000000000400000000000000000000000100000000000000400000000000000000000000000000000000000000000000000000000000000000000000001000000000000000000000000000000000000",
      "type": "0x2",
      "transactionHash": "0xfdfc0bdd761275ca1a28208f59916e2b12d2cdd612030ca20297390b7147be03",
      "transactionIndex": "0x65",
      "blockHash": "0xf9f7e89689a02225af9ffe60d04508044c017ebad1bd2e23641a5fa3475f947a",
      "blockNumber": "0x9bb5d5",
      "gasUsed": "0x186d9",
      "effectiveGasPrice": "0x3b0cbeea",
      "from": "0x89feeba43b294425c0d7b482770eefbcc1359f8d",
      "to": "0xdc81d28a1721fcde86d79ce26ba3b0bef24c116c",
      "contractAddress": null
    }
  ],
  "libraries": [],
  "pending": [],
  "returns": {},
  "timestamp": 1770395053634,
  "chain": 11155111,
  "commit": "58e7602"
}