{
  "transactions": [
    {
      "hash": "0xd3dbcdae9e2f72ad7350ace2d3085ef096f578d27c85bc310e59ff7faaa7b84a",
      "transactionType": "CALL",
      "contractName": null,
      "contractAddress": "0xdc81d28a1721fcde86d79ce26ba3b0bef24c116c",
      "function": "commit(bytes32,bytes32)",
      "arguments": [
        "0x9e2fdafe643a0ae4e1c86bc10a749973597bea3826284b097dfbb87d7a906895",
        "0x0724c73f2fbd42026d9dd4ddbf863681dd1c52ac89a45348fe837468d4787674"
      ],
      "transaction": {
        "from": "0x89feeba43b294425c0d7b482770eefbcc1359f8d",
        "to": "0xdc81d28a1721fcde86d79ce26ba3b0bef24c116c",
        "gas": "0x23b9d",
        "value": "0x0",
        "input": "0xe3ce094d9e2fdafe643a0ae4e1c86bc10a749973597bea3826284b097dfbb87d7a9068950724c73f2fbd42026d9dd4ddbf863681dd1c52ac89a45348fe837468d4787674",
        "nonce": "0x129",
        "chainId": "0xaa36a7"
      },
      "additionalContracts": [],
      "isFixedGasLimit": false
    }
  ],
  "receipts": [
    {
      "status": "0x1",
      "cumulativeGasUsed": "0x428bfa",
      "logs": [
        {
          "address": "0xdc81d28a1721fcde86d79ce26ba3b0bef24c116c",
          "topics": [
            "0xc9fb417ce9ee10a86bc8046a24ff15c2c00460856852864cf2bfae9e0b12185a",
            "0x9e2fdafe643a0ae4e1c86bc10a749973597bea3826284b097dfbb87d7a906895",
            "0x0724c73f2fbd42026d9dd4ddbf863681dd1c52ac89a45348fe837468d4787674",
            "0x00000000000000000000000089feeba43b294425c0d7b482770eefbcc1359f8d"
          ],
          "data": "0x0000000000000000000000000000000000000000000000000000000000000000000000000000000000000000000000000000000000000000000000000000000000000000000000000000000000000000000000000000000000000000009bbd3d",
          "blockHash": "0x63ee4de467934d8a9985d8a7060414da21ca166a235e91009270a40891a47f35",
          "blockNumber": "0x9bbd33",
          "blockTimestamp": "0x69867090",
          "transactionHash": "0xd3dbcdae9e2f72ad7350ace2d3085ef096f578d27c85bc310e59ff7faaa7b84a",
          "transactionIndex": "0x2a",
          "logIndex": "0x3a",
          "removed": false
        }
      ],
      "logsBloom": "0x00000000000000000000010000000000000000000000000000000000000000000000000000000000000000000000000000000000000000000000000000000000000000000000000000000000010040000000000000000000000000000000001000400000200000000000000010000008000000000000000000000000000000000000000000000000000000000000000000000000000000000000000840000000000000000000000000000000000000000000000000400000000000020000000000100000000000000000000000000000000000000000000000000000000000000000000000000000000000000001000000000000000000000000000000000000",
      "type": "0x2",
      "transactionHash": "0xd3dbcdae9e2f72ad7350ace2d3085ef096f578d27c85bc310e59ff7faaa7b84a",
      "transactionIndex": "0x2a",
      "blockHash": "0x63ee4de467934d8a9985d8a7060414da21ca166a235e91009270a40891a47f35",
      "blockNumber": "0x9bbd33",
      "gasUsed": "0x186d9",
      "effectiveGasPrice": "0x438ba0a8",
      "from": "0x89feeba43b294425c0d7b482770eefbcc1359f8d",
      "to": "0xdc81d28a1721fcde86d79ce26ba3b0bef24c116c",
      "contractAddress": null
    }
  ],
  "libraries": [],
  "pending": [],
  "returns": {},
  "timestamp": 1770418314438,
  "chain": 11155111,
  "commit": "7d255af"
}