{
  "transactions": [
    {
      "hash": "0xf318c423c51253a3f9a65b21b7ba831b7be0ae91539d6f828b2839c855314554",
      "transactionType": "CALL",
      "contractName": null,
      "contractAddress": "0xdc81d28a1721fcde86d79ce26ba3b0bef24c116c",
      "function": "commit(bytes32,bytes32)",
      "arguments": [
        "0x12002a11ee876a0c1ff89b762d30512fd14d553813cb87af280caf6e879dbee7",
        "0xa998a0f793848fa0a91598320550124479b2a89d51eef9b8caaaf0d674326d30"
      ],
      "transaction": {
        "from": "0x89feeba43b294425c0d7b482770eefbcc1359f8d",
        "to": "0xdc81d28a1721fcde86d79ce26ba3b0bef24c116c",
        "gas": "0x21bca",
        "value": "0x0",
        "input": "0xe3ce094d12002a11ee876a0c1ff89b762d30512fd14d553813cb87af280caf6e879dbee7a998a0f793848fa0a91598320550124479b2a89d51eef9b8caaaf0d674326d30",
        "nonce": "0x120",
        "chainId": "0xaa36a7"
      },
      "additionalContracts": [],
      "isFixedGasLimit": false
    }
  ],
  "receipts": [
    {
      "status": "0x1",
      "cumulativeGasUsed": "0x98c061",
      "logs": [
        {
          "address": "0xdc81d28a1721fcde86d79ce26ba3b0bef24c116c",
          "topics": [
            "0xc9fb417ce9ee10a86bc8046a24ff15c2c00460856852864cf2bfae9e0b12185a",
            "0x12002a11ee876a0c1ff89b762d30512fd14d553813cb87af280caf6e879dbee7",
            "0xa998a0f793848fa0a91598320550124479b2a89d51eef9b8caaaf0d674326d30",
            "0x00000000000000000000000089feeba43b294425c0d7b482770eefbcc1359f8d"
          ],
          "data": "0x0000000000000000000000000000000000000000000000000000000000000000000000000000000000000000000000000000000000000000000000000000000000000000000000000000000000000000000000000000000000000000009bb9df",
          "blockHash": "0x19c559ce85edaaff1c6390d81976118e4fc618f0a38a26fb04f042be760c4f8a",
          "blockNumber": "0x9bb9d5",
          "blockTimestamp": "0x6986472c",
          "transactionHash": "0xf318c423c51253a3f9a65b21b7ba831b7be0ae91539d6f828b2839c855314554",
          "transactionIndex": "0x3d",
          "logIndex": "0x57",
          "removed": false
        }
      ],
      "logsBloom": "0x00000000000000000000010000000000000000000000000000000000000000000000000000000000000000000000000000000000000000000000000000000000000000000000000000000000000040000000000000000000000000000000000002400000200000000000000010000000000000000000000000000000000000000000000000000000000000000000000000000000000000000000000800000000000000002000080000000000000000000000100000400000000000000000000020100000010000000000000000000000000000000000000000000000000000000000000000000000000000000001000000000000000000000000000000000000",
      "type": "0x2",
      "transactionHash": "0xf318c423c51253a3f9a65b21b7ba831b7be0ae91539d6f828b2839c855314554",
      "transactionIndex": "0x3d",
      "blockHash": "0x19c559ce85edaaff1c6390d81976118e4fc618f0a38a26fb04f042be760c4f8a",
      "blockNumber": "0x9bb9d5",
      "gasUsed": "0x186cd",
      "effectiveGasPrice": "0x3fb65398",
      "from": "0x89feeba43b294425c0d7b482770eefbcc1359f8d",
      "to": "0xdc81d28a1721fcde86d79ce26ba3b0bef24c116c",
      "contractAddress": null
    }
  ],
  "libraries": [],
  "pending": [],
  "returns": {},
  "timestamp": 1770407725753,
  "chain": 11155111,
  "commit": "58e7602"
}