{
  "transactions": [
    {
      "hash": "0xdd13def8d145888beeebe5fc1e1ca2edf9e2926a95f1b7271257d7160167f7f7",
      "transactionType": "CALL",
      "contractName": null,
      "contractAddress": "0xdc81d28a1721fcde86d79ce26ba3b0bef24c116c",
      "function": "commit(bytes32,bytes32)",
      "arguments": [
        "0x6dd7f75fd6a5673ab83b45540918b28dca7c13e48530a6ac8473d96f3ec9f687",
        "0x8e4e5c7ad01db15a3979777918a5951b7085359eaff1074488a217af961750e6"
      ],
      "transaction": {
        "from": "0x89feeba43b294425c0d7b482770eefbcc1359f8d",
        "to": "0xdc81d28a1721fcde86d79ce26ba3b0bef24c116c",
        "gas": "0x23b9d",
        "value": "0x0",
        "input": "0xe3ce094d6dd7f75fd6a5673ab83b45540918b28dca7c13e48530a6ac8473d96f3ec9f6878e4e5c7ad01db15a3979777918a5951b7085359eaff1074488a217af961750e6",
        "nonce": "0x11f",
        "chainId": "0xaa36a7"
      },
      "additionalContracts": [],
      "isFixedGasLimit": false
    }
  ],
  "receipts": [
    {
      "status": "0x1",
      "cumulativeGasUsed": "0xd68314",
      "logs": [
        {
          "address": "0xdc81d28a1721fcde86d79ce26ba3b0bef24c116c",
          "topics": [
            "0xc9fb417ce9ee10a86bc8046a24ff15c2c00460856852864cf2bfae9e0b12185a",
            "0x6dd7f75fd6a5673ab83b45540918b28dca7c13e48530a6ac8473d96f3ec9f687",
            "0x8e4e5c7ad01db15a3979777918a5951b7085359eaff1074488a217af961750e6",
            "0x00000000000000000000000089feeba43b294425c0d7b482770eefbcc1359f8d"
          ],
          "data": "0x0000000000000000000000000000000000000000000000000000000000000000000000000000000000000000000000000000000000000000000000000000000000000000000000000000000000000000000000000000000000000000009bb9dc",
          "blockHash": "0x31c097fe66f0187d362ebd8b2c1304bdba06e7c0e8a19d92da06d8cf5a09582a",
          "blockNumber": "0x9bb9d2",
          "blockTimestamp": "0x698646fc",
          "transactionHash": "0xdd13def8d145888beeebe5fc1e1ca2edf9e2926a95f1b7271257d7160167f7f7",
          "transactionIndex": "0x3a",
          "logIndex": "0x4b",
          "removed": false
        }
      ],
      "logsBloom": "0x00000010000000000000010000000000000000000000000000000000000000000000000000000000000000000000000000000000000000000000000000000000000000000000000000000000000040000000000000000000000000000000000000400000200000000000000010000000000000000000000000000000000000000000000000000000000000000000000000000000000000000000000800000000000000000000000000010000000000000000000000400000000000000000000400100000000008000000000000000000000000000000000000000000001000000000000000000000000000000009000000000000000000000000000000000000",
      "type": "0x2",
      "transactionHash": "0xdd13def8d145888beeebe5fc1e1ca2edf9e2926a95f1b7271257d7160167f7f7",
      "transactionIndex": "0x3a",
      "blockHash": "0x31c097fe66f0187d362ebd8b2c1304bdba06e7c0e8a19d92da06d8cf5a09582a",
      "blockNumber": "0x9bb9d2",
      "gasUsed": "0x186d9",
      "effectiveGasPrice": "0x3f5ac081",
      "from": "0x89feeba43b294425c0d7b482770eefbcc1359f8d",
      "to": "0xdc81d28a1721fcde86d79ce26ba3b0bef24c116c",
      "contractAddress": null
    }
  ],
  "libraries": [],
  "pending": [],
  "returns": {},
  "timestamp": 1770407674976,
  "chain": 11155111,
  "commit": "58e7602"
}