{
  "transactions": [
    {
      "hash": "0x4263d05513814471f7750fc84269f8f8cde0645ea4d76ca17310f6c10a648d9d",
      "transactionType": "CALL",
      "contractName": null,
      "contractAddress": "0xdc81d28a1721fcde86d79ce26ba3b0bef24c116c",
      "function": "commit(bytes32,bytes32)",
      "arguments": [
        "0xbef89317aa1e557025105dc95910968d14ab1b6c301ddcb54f81c91dd9e3e5c4",
        "0xeac9bced356457dbe5d036e4f5b1e32622f09b4e58051aae5408994f1cc362e9"
      ],
      "transaction": {
        "from": "0x89feeba43b294425c0d7b482770eefbcc1359f8d",
        "to": "0xdc81d28a1721fcde86d79ce26ba3b0bef24c116c",
        "gas": "0x23b9d",
        "value": "0x0",
        "input": "0xe3ce094dbef89317aa1e557025105dc95910968d14ab1b6c301ddcb54f81c91dd9e3e5c4eac9bced356457dbe5d036e4f5b1e32622f09b4e58051aae5408994f1cc362e9",
        "nonce": "0x11e",
        "chainId": "0xaa36a7"
      },
      "additionalContracts": [],
      "isFixedGasLimit": false
    }
  ],
  "receipts": [
    {
      "status": "0x1",
      "cumulativeGasUsed": "0x93b8c2",
      "logs": [
        {
          "address": "0xdc81d28a1721fcde86d79ce26ba3b0bef24c116c",
          "topics": [
            "0xc9fb417ce9ee10a86bc8046a24ff15c2c00460856852864cf2bfae9e0b12185a",
            "0xbef89317aa1e557025105dc95910968d14ab1b6c301ddcb54f81c91dd9e3e5c4",
            "0xeac9bced356457dbe5d036e4f5b1e32622f09b4e58051aae5408994f1cc362e9",
            "0x00000000000000000000000089feeba43b294425c0d7b482770eefbcc1359f8d"
          ],
          "data": "0x0000000000000000000000000000000000000000000000000000000000000000000000000000000000000000000000000000000000000000000000000000000000000000000000000000000000000000000000000000000000000000009bb954",
          "blockHash": "0x765379c985a457400a99c600dd97ddb78aff431b2c45527ac3f7c3c2daf946ea",
          "blockNumber": "0x9bb94a",
          "blockTimestamp": "0x69864084",
          "transactionHash": "0x4263d05513814471f7750fc84269f8f8cde0645ea4d76ca17310f6c10a648d9d",
          "transactionIndex": "0x44",
          "logIndex": "0x58",
          "removed": false
        }
      ],
      "logsBloom": "0x00000000000000000000010000000000000000000000000000000000000000000000000000000000000000000000000000000000000000000000000000000000000000000000000000020000000040000000000020000040000000000000000000400000200000000000000010000000000000000000000000000000000000000000000000000000000000000000000200000000000000000000000900000000000000000000000000000000000000002000000000400000000000000000000000100000000000000000000000000000000000000000000000000000000000000000000000000000000000000001000000000000000000000000000000000000",
      "type": "0x2",
      "transactionHash": "0x4263d05513814471f7750fc84269f8f8cde0645ea4d76ca17310f6c10a648d9d",
      "transactionIndex": "0x44",
      "blockHash": "0x765379c985a457400a99c600dd97ddb78aff431b2c45527ac3f7c3c2daf946ea",
      "blockNumber": "0x9bb94a",
      "gasUsed": "0x186d9",
      "effectiveGasPrice": "0x3bb0d1f5",
      "from": "0x89feeba43b294425c0d7b482770eefbcc1359f8d",
      "to": "0xdc81d28a1721fcde86d79ce26ba3b0bef24c116c",
      "contractAddress": null
    }
  ],
  "libraries": [],
  "pending": [],
  "returns": {},
  "timestamp": 1770406019305,
  "chain": 11155111,
  "commit": "58e7602"
}