{
  "transactions": [
    {
      "hash": "0x93c31fe9d289a1758747c8f9338c9dcf3fae60411e08f2344f08cb1621c8b86b",
      "transactionType": "CALL",
      "contractName": null,
      "contractAddress": "0x1c7d4b196cb0c7b01d743fbc6116a902379c7238",
      "function": "approve(address,uint256)",
      "arguments": [
        "0x36b42E07273CD8ECfF1125bF15771AE356F085B1",
        "100000"
      ],
      "transaction": {
        "from": "0x89feeba43b294425c0d7b482770eefbcc1359f8d",
        "to": "0x1c7d4b196cb0c7b01d743fbc6116a902379c7238",
        "value": "0x0",
        "input": "0x095ea7b300000000000000000000000036b42e07273cd8ecff1125bf15771ae356f085b100000000000000000000000000000000000000000000000000000000000186a0",
        "nonce": "0x12a",
        "chainId": "0xaa36a7"
      },
      "additionalContracts": [],
      "isFixedGasLimit": false
    },
    {
      "hash": null,
      "transactionType": "CALL",
      "contractName": null,
      "contractAddress": "0x36b42e07273cd8ecff1125bf15771ae356f085b1",
      "function": "swap((address,address,uint24,int24,address),(bool,int256,uint160),bytes)",
      "arguments": [
        "(0x1c7D4B196Cb0C7B01d743Fbc6116a902379C7238, 0xfFf9976782d46CC05630D1f6eBAb18b2324d6B14, 3000, 60, 0x1846217Bae61BF26612BD8d9a64b970d525B4080)",
        "(true, 100000, 0)",
        "0x9e2fdafe643a0ae4e1c86bc10a749973597bea3826284b097dfbb87d7a90689500000000000000000000000000000000000000000000000000064a2cc47ff3010000000000000000000000000000000000000000000000000000000000000000"
      ],
      "transaction": {
        "from": "0x89feeba43b294425c0d7b482770eefbcc1359f8d",
        "to": "0x36b42e07273cd8ecff1125bf15771ae356f085b1",
        "value": "0x0",
        "input": "0xf3cd914c0000000000000000000000001c7d4b196cb0c7b01d743fbc6116a902379c7238000000000000000000000000fff9976782d46cc05630d1f6ebab18b2324d6b140000000000000000000000000000000000000000000000000000000000000bb8000000000000000000000000000000000000000000000000000000000000003c0000000000000000000000001846217bae61bf26612bd8d9a64b970d525b4080000000000000000000000000000000000000000000000000000000000000000100000000000000000000000000000000000000000000000000000000000186a00000000000000000000000000000000000000000000000000000000000000000000000000000000000000000000000000000000000000000000000000000012000000000000000000000000000000000000000000000000000000000000000609e2fdafe643a0ae4e1c86bc10a749973597bea3826284b097dfbb87d7a90689500000000000000000000000000000000000000000000000000064a2cc47ff3010000000000000000000000000000000000000000000000000000000000000000",
        "nonce": "0x12b",
        "chainId": "0xaa36a7"
      },
      "additionalContracts": [],
      "isFixedGasLimit": false
    }
  ],
  "receipts": [
    {
      "status": "0x1",
      "cumulativeGasUsed": "0x10db29b",
      "logs": [
        {
          "address": "0x1c7d4b196cb0c7b01d743fbc6116a902379c7238",
          "topics": [
            "0x8c5be1e5ebec7d5bd14f71427d1e84f3dd0314c0f7b2291e5b200ac8c7c3b925",
            "0x00000000000000000000000089feeba43b294425c0d7b482770eefbcc1359f8d",
            "0x00000000000000000000000036b42e07273cd8ecff1125bf15771ae356f085b1"
          ],
          "data": "0x00000000000000000000000000000000000000000000000000000000000186a0",
          "blockHash": "0x3b4170d439c6d1d9c4d5981bda2fed6963ef230af19fd85b70e9793b0ce6ddc8",
          "blockNumber": "0x9bbd4d",
          "blockTimestamp": "0x698671d4",
          "transactionHash": "0x93c31fe9d289a1758747c8f9338c9dcf3fae60411e08f2344f08cb1621c8b86b",
          "transactionIndex": "0x46",
          "logIndex": "0x7c",
          "removed": false
        }
      ],
      "logsBloom": "0x00000000000000000000000000000000000004000000000000000000000200000000000000000000000000040000000000000000000000000000000000200000000000000000000000000000000040000000000000000000000000000000000000000000000000000000000010000000000000000000000000000000000000000000000000100000000000000000000000000000000000000000000000000000020000000000000000000000000000000000000000000000000000000000000000100008000000000000000000000000000000000000000000000000000000000010000000000000000010000000000000000000000000000000000000000000",
      "type": "0x2",
      "transactionHash": "0x93c31fe9d289a1758747c8f9338c9dcf3fae60411e08f2344f08cb1621c8b86b",
      "transactionIndex": "0x46",
      "blockHash": "0x3b4170d439c6d1d9c4d5981bda2fed6963ef230af19fd85b70e9793b0ce6ddc8",
      "blockNumber": "0x9bbd4d",
      "gasUsed": "0x95c1",
      "effectiveGasPrice": "0x3e90d910",
      "from": "0x89feeba43b294425c0d7b482770eefbcc1359f8d",
      "to": "0x1c7d4b196cb0c7b01d743fbc6116a902379c7238",
      "contractAddress": null
    }
  ],
  "libraries": [],
  "pending": [],
  "returns": {},
  "timestamp": 1770418648710,
  "chain": 11155111,
  "commit": "7d255af"
}