{
  "transactions": [
    {
      "hash": "0x066bd59d7305cec6fb6847812a71f66947f40d105bd187cee91409c1267aeb18",
      "transactionType": "CALL",
      "contractName": null,
      "contractAddress": "0x1c7d4b196cb0c7b01d743fbc6116a902379c7238",
      "function": "approve(address,uint256)",
      "arguments": [
        "0x000000000022D473030F116dDEE9F6B43aC78BA3",
        "115792089237316195423570985008687907853269984665640564039457584007913129639935"
      ],
      "transaction": {
        "from": "0x89feeba43b294425c0d7b482770eefbcc1359f8d",
        "to": "0x1c7d4b196cb0c7b01d743fbc6116a902379c7238",
        "gas": "0xdca8",
        "value": "0x0",
        "input": "0x095ea7b3000000000000000000000000000000000022d473030f116ddee9f6b43ac78ba3ffffffffffffffffffffffffffffffffffffffffffffffffffffffffffffffff",
        "nonce": "0x5b",
        "chainId": "0xaa36a7"
      },
      "additionalContracts": [],
      "isFixedGasLimit": false
    },
    {
      "hash": "0xde22c7993ecbcc18994afb6f79fabdd2a793dae13c46fae8e863640b019cba88",
      "transactionType": "CALL",
      "contractName": null,
      "contractAddress": "0xfff9976782d46cc05630d1f6ebab18b2324d6b14",
      "function": "approve(address,uint256)",
      "arguments": [
        "0x000000000022D473030F116dDEE9F6B43aC78BA3",
        "115792089237316195423570985008687907853269984665640564039457584007913129639935"
      ],
      "transaction": {
        "from": "0x89feeba43b294425c0d7b482770eefbcc1359f8d",
        "to": "0xfff9976782d46cc05630d1f6ebab18b2324d6b14",
        "gas": "0x9d91",
        "value": "0x0",
        "input": "0x095ea7b3000000000000000000000000000000000022d473030f116ddee9f6b43ac78ba3ffffffffffffffffffffffffffffffffffffffffffffffffffffffffffffffff",
        "nonce": "0x5c",
        "chainId": "0xaa36a7"
      },
      "additionalContracts": [],
      "isFixedGasLimit": false
    },
    {
      "hash": "0x2c8ef12a2a73396cc99c11c7851740c3f1440b3602ba044609e4c8e2cd5f6005",
      "transactionType": "CALL",
      "contractName": null,
      "contractAddress": "0x000000000022d473030f116ddee9f6b43ac78ba3",
      "function": "approve(address,address,uint160,uint48)",
      "arguments": [
        "0x1c7D4B196Cb0C7B01d743Fbc6116a902379C7238",
        "0x429ba70129df741B2Ca2a85BC3A2a3328e5c09b4",
        "1461501637330902918203684832716283019655932542975",
        "1770393780"
      ],
      "transaction": {
        "from": "0x89feeba43b294425c0d7b482770eefbcc1359f8d",
        "to": "0x000000000022d473030f116ddee9f6b43ac78ba3",
        "gas": "0xa59b",
        "value": "0x0",
        "input": "0x87517c450000000000000000000000001c7d4b196cb0c7b01d743fbc6116a902379c7238000000000000000000000000429ba70129df741b2ca2a85bc3a2a3328e5c09b4000000000000000000000000ffffffffffffffffffffffffffffffffffffffff00000000000000000000000000000000000000000000000000000000698610b4",
        "nonce": "0x5d",
        "chainId": "0xaa36a7"
      },
      "additionalContracts": [],
      "isFixedGasLimit": false
    },
    {
      "hash": "0xdd89a33c242b75f4a7dbc802a88065181db09fe86cf48b66d74d038b998cb46d",
      "transactionType": "CALL",
      "contractName": null,
      "contractAddress": "0x000000000022d473030f116ddee9f6b43ac78ba3",
      "function": "approve(address,address,uint160,uint48)",
      "arguments": [
        "0xfFf9976782d46CC05630D1f6eBAb18b2324d6B14",
        "0x429ba70129df741B2Ca2a85BC3A2a3328e5c09b4",
        "1461501637330902918203684832716283019655932542975",
        "1770393780"
      ],
      "transaction": {
        "from": "0x89feeba43b294425c0d7b482770eefbcc1359f8d",
        "to": "0x000000000022d473030f116ddee9f6b43ac78ba3",
        "gas": "0xa59b",
        "value": "0x0",
        "input": "0x87517c45000000000000000000000000fff9976782d46cc05630d1f6ebab18b2324d6b14000000000000000000000000429ba70129df741b2ca2a85bc3a2a3328e5c09b4000000000000000000000000ffffffffffffffffffffffffffffffffffffffff00000000000000000000000000000000000000000000000000000000698610b4",
        "nonce": "0x5e",
        "chainId": "0xaa36a7"
      },
      "additionalContracts": [],
      "isFixedGasLimit": false
    },
    {
      "hash": "0x880a8a4992e9e5bcd4f251eb1ba057b9f204213714b73d48eb29ce9dc5e55971",
      "transactionType": "CALL",
      "contractName": null,
      "contractAddress": "0x429ba70129df741b2ca2a85bc3a2a3328e5c09b4",
      "function": "modifyLiquidities(bytes,uint256)",
      "arguments": [
        "0x000000000000000000000000000000000000000000000000000000000000004000000000000000000000000000000000000000000000000000000000000000800000000000000000000000000000000000000000000000000000000000000002020d00000000000000000000000000000000000000000000000000000000000000000000000000000000000000000000000000000000000000000000000000020000000000000000000000000000000000000000000000000000000000000040000000000000000000000000000000000000000000000000000000000000020000000000000000000000000000000000000000000000000000000000000001a00000000000000000000000001c7d4b196cb0c7b01d743fbc6116a902379c7238000000000000000000000000fff9976782d46cc05630d1f6ebab18b2324d6b140000000000000000000000000000000000000000000000000000000000000bb8000000000000000000000000000000000000000000000000000000000000003c000000000000000000000000cac28e99c67b2f54a92f602046136899da296080fffffffffffffffffffffffffffffffffffffffffffffffffffffffffff2764c00000000000000000000000000000000000000000000000000000000000d89b400000000000000000000000000000000000000000000000000000000000f424000000000000000000000000000000000000000000000000000000000001e84800000000000000000000000000000000000000000000000001bc16d674ec8000000000000000000000000000089feeba43b294425c0d7b482770eefbcc1359f8d0000000000000000000000000000000000000000000000000000000000000180000000000000000000000000000000000000000000000000000000000000000000000000000000000000000000000000000000000000000000000000000000400000000000000000000000001c7d4b196cb0c7b01d743fbc6116a902379c7238000000000000000000000000fff9976782d46cc05630d1f6ebab18b2324d6b14",
        "1770307980"
      ],
      "transaction": {
        "from": "0x89feeba43b294425c0d7b482770eefbcc1359f8d",
        "to": "0x429ba70129df741b2ca2a85bc3a2a3328e5c09b4",
        "gas": "0x97782",
        "value": "0x0",
        "input": "0xdd46508f0000000000000000000000000000000000000000000000000000000000000040000000000000000000000000000000000000000000000000000000006984c18c0000000000000000000000000000000000000000000000000000000000000300000000000000000000000000000000000000000000000000000000000000004000000000000000000000000000000000000000000000000000000000000000800000000000000000000000000000000000000000000000000000000000000002020d00000000000000000000000000000000000000000000000000000000000000000000000000000000000000000000000000000000000000000000000000020000000000000000000000000000000000000000000000000000000000000040000000000000000000000000000000000000000000000000000000000000020000000000000000000000000000000000000000000000000000000000000001a00000000000000000000000001c7d4b196cb0c7b01d743fbc6116a902379c7238000000000000000000000000fff9976782d46cc05630d1f6ebab18b2324d6b140000000000000000000000000000000000000000000000000000000000000bb8000000000000000000000000000000000000000000000000000000000000003c000000000000000000000000cac28e99c67b2f54a92f602046136899da296080fffffffffffffffffffffffffffffffffffffffffffffffffffffffffff2764c00000000000000000000000000000000000000000000000000000000000d89b400000000000000000000000000000000000000000000000000000000000f424000000000000000000000000000000000000000000000000000000000001e84800000000000000000000000000000000000000000000000001bc16d674ec8000000000000000000000000000089feeba43b294425c0d7b482770eefbcc1359f8d0000000000000000000000000000000000000000000000000000000000000180000000000000000000000000000000000000000000000000000000000000000000000000000000000000000000000000000000000000000000000000000000400000000000000000000000001c7d4b196cb0c7b01d743fbc6116a902379c7238000000000000000000000000fff9976782d46cc05630d1f6ebab18b2324d6b14",
        "nonce": "0x5f",
        "chainId": "0xaa36a7"
      },
      "additionalContracts": [],
      "isFixedGasLimit": false
    }
  ],
  "receipts": [
    {
      "status": "0x1",
      "cumulativeGasUsed": "0x1c8ace5",
      "logs": [
        {
          "address": "0x1c7d4b196cb0c7b01d743fbc6116a902379c7238",
          "topics": [
            "0x8c5be1e5ebec7d5bd14f71427d1e84f3dd0314c0f7b2291e5b200ac8c7c3b925",
            "0x00000000000000000000000089feeba43b294425c0d7b482770eefbcc1359f8d",
            "0x000000000000000000000000000000000022d473030f116ddee9f6b43ac78ba3"
          ],
          "data": "0xffffffffffffffffffffffffffffffffffffffffffffffffffffffffffffffff",
          "blockHash": "0xbffe986d9ae5e9634acb9dccffc0be62d8452c311f92a1de48e3dfe5c33743a1",
          "blockNumber": "0x9b9a39",
          "blockTimestamp": "0x6984bf58",
          "transactionHash": "0xde22c7993ecbcc18994afb6f79fabdd2a793dae13c46fae8e863640b019cba88",
          "transactionIndex": "0x9f",
          "logIndex": "0xfa",
          "removed": false
        }
      ],
      "logsBloom": "0x00000000000000000000000000000000000000000000000000000000000200000000000000000000000000000000000000000000800000000000000000200000000000000000000000004000000040000000000000000800000000000000000000000000000000000000000010000000000000000000000000000000000000000000000000100000000000000000000000000000000000000000000000000000020000000000000000000000000000000000000000000000000000000000000000100000000000000000000000000000000000000000000000000000000000000010000000000000000010000000000000000000000000000000000000000000",
      "type": "0x2",
      "transactionHash": "0xde22c7993ecbcc18994afb6f79fabdd2a793dae13c46fae8e863640b019cba88",
      "transactionIndex": "0x9f",
      "blockHash": "0xbffe986d9ae5e9634acb9dccffc0be62d8452c311f92a1de48e3dfe5c33743a1",
      "blockNumber": "0x9b9a39",
      "gasUsed": "0x96e1",
      "effectiveGasPrice": "0x40c99fcf",
      "from": "0x89feeba43b294425c0d7b482770eefbcc1359f8d",
      "to": "0x1c7d4b196cb0c7b01d743fbc6116a902379c7238",
      "contractAddress": null
    },
    {
      "status": "0x1",
      "cumulativeGasUsed": "0x1c91ef9",
      "logs": [
        {
          "address": "0xfff9976782d46cc05630d1f6ebab18b2324d6b14",
          "topics": [
            "0x8c5be1e5ebec7d5bd14f71427d1e84f3dd0314c0f7b2291e5b200ac8c7c3b925",
            "0x00000000000000000000000089feeba43b294425c0d7b482770eefbcc1359f8d",
            "0x000000000000000000000000000000000022d473030f116ddee9f6b43ac78ba3"
          ],
          "data": "0xffffffffffffffffffffffffffffffffffffffffffffffffffffffffffffffff",
          "blockHash": "0xbffe986d9ae5e9634acb9dccffc0be62d8452c311f92a1de48e3dfe5c33743a1",
          "blockNumber": "0x9b9a39",
          "blockTimestamp": "0x6984bf58",
          "transactionHash": "0xdd89a33c242b75f4a7dbc802a88065181db09fe86cf48b66d74d038b998cb46d",
          "transactionIndex": "0xa0",
          "logIndex": "0xfb",
          "removed": false
        }
      ],
      "logsBloom": "0x00000000000000000000000000000000000000000000000000000000000000000000000000000000000000000000000000000000800000000000000000200000000000000000000000004000000040000000000000000800000000000000000000000000000000000000000010000000000000000000000000000000000000000040000000000000000000000000000000000000000000000000000000000000020020000000000000000000000000000000000000000000000000000000000000100000000000000002000000000000000000000000000000000000000000000010000000000000000000000000000000000000000000000000000000000000",
      "type": "0x2",
      "transactionHash": "0xdd89a33c242b75f4a7dbc802a88065181db09fe86cf48b66d74d038b998cb46d",
      "transactionIndex": "0xa0",
      "blockHash": "0xbffe986d9ae5e9634acb9dccffc0be62d8452c311f92a1de48e3dfe5c33743a1",
      "blockNumber": "0x9b9a39",
      "gasUsed": "0x7214",
      "effectiveGasPrice": "0x40c99fcf",
      "from": "0x89feeba43b294425c0d7b482770eefbcc1359f8d",
      "to": "0xfff9976782d46cc05630d1f6ebab18b2324d6b14",
      "contractAddress": null
    },
    {
      "status": "0x1",
      "cumulativeGasUsed": "0xac8ab0",
      "logs": [
        {
          "address": "0x000000000022d473030f116ddee9f6b43ac78ba3",
          "topics": [
            "0xda9fa7c1b00402c17d0161b249b1ab8bbec047c5a52207b9c112deffd817036b",
            "0x00000000000000000000000089feeba43b294425c0d7b482770eefbcc1359f8d",
            "0x0000000000000000000000001c7d4b196cb0c7b01d743fbc6116a902379c7238",
            "0x000000000000000000000000429ba70129df741b2ca2a85bc3a2a3328e5c09b4"
          ],
          "data": "0x000000000000000000000000ffffffffffffffffffffffffffffffffffffffff00000000000000000000000000000000000000000000000000000000698610b4",
          "blockHash": "0xf5f2591e88e2490e8c0393bc8f009987f42585d864ea0b2a36b703004159cd49",
          "blockNumber": "0x9b9a3b",
          "blockTimestamp": "0x6984bf70",
          "transactionHash": "0x066bd59d7305cec6fb6847812a71f66947f40d105bd187cee91409c1267aeb18",
          "transactionIndex": "0x3e",
          "logIndex": "0x6d",
          "removed": false
        }
      ],
      "logsBloom": "0x00010000000000000000000000000000000000000000000000000000000000000000000000000040080000000000000000000000000004000000000000080000100000000000000000000000000040000000000000000000000000000000000000000000000000000000000010000000000000000000000000000800000000000020000000000000000000000000000000000000000000000000000000000000000000000000000000000000000000000000008000000000000000080000000000100000000000000000000000000000000000000000000040000000000000000000000000000000000000000000000000000000000000000000000000000400",
      "type": "0x2",
      "transactionHash": "0x066bd59d7305cec6fb6847812a71f66947f40d105bd187cee91409c1267aeb18",
      "transactionIndex": "0x3e",
      "blockHash": "0xf5f2591e88e2490e8c0393bc8f009987f42585d864ea0b2a36b703004159cd49",
      "blockNumber": "0x9b9a3b",
      "gasUsed": "0x77e6",
      "effectiveGasPrice": "0x3ccba9b6",
      "from": "0x89feeba43b294425c0d7b482770eefbcc1359f8d",
      "to": "0x000000000022d473030f116ddee9f6b43ac78ba3",
      "contractAddress": null
    },
    {
      "status": "0x1",
      "cumulativeGasUsed": "0xad0296",
      "logs": [
        {
          "address": "0x000000000022d473030f116ddee9f6b43ac78ba3",
          "topics": [
            "0xda9fa7c1b00402c17d0161b249b1ab8bbec047c5a52207b9c112deffd817036b",
            "0x00000000000000000000000089feeba43b294425c0d7b482770eefbcc1359f8d",
            "0x000000000000000000000000fff9976782d46cc05630d1f6ebab18b2324d6b14",
            "0x000000000000000000000000429ba70129df741b2ca2a85bc3a2a3328e5c09b4"
          ],
          "data": "0x000000000000000000000000ffffffffffffffffffffffffffffffffffffffff00000000000000000000000000000000000000000000000000000000698610b4",
          "blockHash": "0xf5f2591e88e2490e8c0393bc8f009987f42585d864ea0b2a36b703004159cd49",
          "blockNumber": "0x9b9a3b",
          "blockTimestamp": "0x6984bf70",
          "transactionHash": "0x2c8ef12a2a73396cc99c11c7851740c3f1440b3602ba044609e4c8e2cd5f6005",
          "transactionIndex": "0x3f",
          "logIndex": "0x6e",
          "removed": false
        }
      ],
      "logsBloom": "0x00010000001000000000000000000000000000000000000000000000000000000000000000000040080000000000000000000800000000000000000000080000000000000000000000000000000040000000000000000000000000000000000000000000000000000000000010000000000000000000000000000800000000000020000000000000000000000000000000000000000000000000000000000000000000000000000000000000000000000000000000000000000000080000000000100000000000000000000001000000000000000000000040000000000000000000000000000000000000000000000000000000000000000000000000000400",
      "type": "0x2",
      "transactionHash": "0x2c8ef12a2a73396cc99c11c7851740c3f1440b3602ba044609e4c8e2cd5f6005",
      "transactionIndex": "0x3f",
      "blockHash": "0xf5f2591e88e2490e8c0393bc8f009987f42585d864ea0b2a36b703004159cd49",
      "blockNumber": "0x9b9a3b",
      "gasUsed": "0x77e6",
      "effectiveGasPrice": "0x3ccba9b6",
      "from": "0x89feeba43b294425c0d7b482770eefbcc1359f8d",
      "to": "0x000000000022d473030f116ddee9f6b43ac78ba3",
      "contractAddress": null
    },
    {
      "status": "0x1",
      "cumulativeGasUsed": "0xb37bb0",
      "logs": [
        {
          "address": "0x429ba70129df741b2ca2a85bc3a2a3328e5c09b4",
          "topics": [
            "0xddf252ad1be2c89b69c2b068fc378daa952ba7f163c4a11628f55a4df523b3ef",
            "0x0000000000000000000000000000000000000000000000000000000000000000",
            "0x00000000000000000000000089feeba43b294425c0d7b482770eefbcc1359f8d",
            "0x00000000000000000000000000000000000000000000000000000000000059de"
          ],
          "data": "0x",
          "blockHash": "0xf5f2591e88e2490e8c0393bc8f009987f42585d864ea0b2a36b703004159cd49",
          "blockNumber": "0x9b9a3b",
          "blockTimestamp": "0x6984bf70",
          "transactionHash": "0x880a8a4992e9e5bcd4f251eb1ba057b9f204213714b73d48eb29ce9dc5e55971",
          "transactionIndex": "0x40",
          "logIndex": "0x6f",
          "removed": false
        },
        {
          "address": "0xe03a1074c86cfedd5c142c4f04f1a1536e203543",
          "topics": [
            "0xf208f4912782fd25c7f114ca3723a2d5dd6f3bcc3ac8db5af63baa85f711d5ec",
            "0x462f0a6b17ff76073fb7d8fc5e298620fe3f3cb2c907990639ad34e93b5822f8",
            "0x000000000000000000000000429ba70129df741b2ca2a85bc3a2a3328e5c09b4"
          ],
          "data": "0xfffffffffffffffffffffffffffffffffffffffffffffffffffffffffff2764c00000000000000000000000000000000000000000000000000000000000d89b400000000000000000000000000000000000000000000000000000000000f424000000000000000000000000000000000000000000000000000000000000059de",
          "blockHash": "0xf5f2591e88e2490e8c0393bc8f009987f42585d864ea0b2a36b703004159cd49",
          "blockNumber": "0x9b9a3b",
          "blockTimestamp": "0x6984bf70",
          "transactionHash": "0x880a8a4992e9e5bcd4f251eb1ba057b9f204213714b73d48eb29ce9dc5e55971",
          "transactionIndex": "0x40",
          "logIndex": "0x70",
          "removed": false
        },
        {
          "address": "0x1c7d4b196cb0c7b01d743fbc6116a902379c7238",
          "topics": [
            "0xddf252ad1be2c89b69c2b068fc378daa952ba7f163c4a11628f55a4df523b3ef",
            "0x00000000000000000000000089feeba43b294425c0d7b482770eefbcc1359f8d",
            "0x000000000000000000000000e03a1074c86cfedd5c142c4f04f1a1536e203543"
          ],
          "data": "0x00000000000000000000000000000000000000000000000000000000000f4240",
          "blockHash": "0xf5f2591e88e2490e8c0393bc8f009987f42585d864ea0b2a36b703004159cd49",
          "blockNumber": "0x9b9a3b",
          "blockTimestamp": "0x6984bf70",
          "transactionHash": "0x880a8a4992e9e5bcd4f251eb1ba057b9f204213714b73d48eb29ce9dc5e55971",
          "transactionIndex": "0x40",
          "logIndex": "0x71",
          "removed": false
        },
        {
          "address": "0xfff9976782d46cc05630d1f6ebab18b2324d6b14",
          "topics": [
            "0xddf252ad1be2c89b69c2b068fc378daa952ba7f163c4a11628f55a4df523b3ef",
            "0x00000000000000000000000089feeba43b294425c0d7b482770eefbcc1359f8d",
            "0x000000000000000000000000e03a1074c86cfedd5c142c4f04f1a1536e203543"
          ],
          "data": "0x00000000000000000000000000000000000000000000000000000000000f4240",
          "blockHash": "0xf5f2591e88e2490e8c0393bc8f009987f42585d864ea0b2a36b703004159cd49",
          "blockNumber": "0x9b9a3b",
          "blockTimestamp": "0x6984bf70",
          "transactionHash": "0x880a8a4992e9e5bcd4f251eb1ba057b9f204213714b73d48eb29ce9dc5e55971",
          "transactionIndex": "0x40",
          "logIndex": "0x72",
          "removed": false
        }
      ],
      "logsBloom": "0x00000000000000000000001000000000000000000000000400000000080200000800000000000040080000000000004000000100000000000000000000000000000000000000000000000008000040000000000000000000000000000000000000000000020000000000000090000800000000000000100000000810000000000040000001100000000010000000000000000000000000000000000400000000000024000000000000000000000000000000000000400000000000000000000000100002000000000002000000000000000000000000000000001000000020001000800000000000000010000000000004000004000000000000000000000000",
      "type": "0x2",
      "transactionHash": "0x880a8a4992e9e5bcd4f251eb1ba057b9f204213714b73d48eb29ce9dc5e55971",
      "transactionIndex": "0x40",
      "blockHash": "0xf5f2591e88e2490e8c0393bc8f009987f42585d864ea0b2a36b703004159cd49",
      "blockNumber": "0x9b9a3b",
      "gasUsed": "0x6791a",
      "effectiveGasPrice": "0x3ccba9b6",
      "from": "0x89feeba43b294425c0d7b482770eefbcc1359f8d",
      "to": "0x429ba70129df741b2ca2a85bc3a2a3328e5c09b4",
      "contractAddress": null
    }
  ],
  "libraries": [],
  "pending": [],
  "returns": {},
  "timestamp": 1770307439718,
  "chain": 11155111,
  "commit": "4d79c41"
}