{
  "transactions": [
    {
      "hash": "0x0837ab5c7cc4b2e0249f6a3ddd0b33ade5bed26f97d8187dd6cd43980e68cadc",
      "transactionType": "CALL",
      "contractName": null,
      "contractAddress": "0x1c7d4b196cb0c7b01d743fbc6116a902379c7238",
      "function": "approve(address,uint256)",
      "arguments": [
        "0x000000000022D473030F116dDEE9F6B43aC78BA3",
        "115792089237316195423570985008687907853269984665640564039457584007913129639935"
      ],
      "transaction": {
        "from": "0x89feeba43b294425c0d7b482770eefbcc1359f8d",
        "to": "0x1c7d4b196cb0c7b01d743fbc6116a902379c7238",
        "gas": "0xdca8",
        "value": "0x0",
        "input": "0x095ea7b3000000000000000000000000000000000022d473030f116ddee9f6b43ac78ba3ffffffffffffffffffffffffffffffffffffffffffffffffffffffffffffffff",
        "nonce": "0x6e",
        "chainId": "0xaa36a7"
      },
      "additionalContracts": [],
      "isFixedGasLimit": false
    },
    {
      "hash": "0x467e99e55cc96d0f10f821287337e7d17df6ead9c26f7805fc94026331310a08",
      "transactionType": "CALL",
      "contractName": null,
      "contractAddress": "0xfff9976782d46cc05630d1f6ebab18b2324d6b14",
      "function": "approve(address,uint256)",
      "arguments": [
        "0x000000000022D473030F116dDEE9F6B43aC78BA3",
        "115792089237316195423570985008687907853269984665640564039457584007913129639935"
      ],
      "transaction": {
        "from": "0x89feeba43b294425c0d7b482770eefbcc1359f8d",
        "to": "0xfff9976782d46cc05630d1f6ebab18b2324d6b14",
        "gas": "0x8e76",
        "value": "0x0",
        "input": "0x095ea7b3000000000000000000000000000000000022d473030f116ddee9f6b43ac78ba3ffffffffffffffffffffffffffffffffffffffffffffffffffffffffffffffff",
        "nonce": "0x6f",
        "chainId": "0xaa36a7"
      },
      "additionalContracts": [],
      "isFixedGasLimit": false
    },
    {
      "hash": "0x27bf9c15a76053f8d57b218c459e878fd86ce5899ba4fa27211efd2ea9290c3e",
      "transactionType": "CALL",
      "contractName": null,
      "contractAddress": "0x000000000022d473030f116ddee9f6b43ac78ba3",
      "function": "approve(address,address,uint160,uint48)",
      "arguments": [
        "0x1c7D4B196Cb0C7B01d743Fbc6116a902379C7238",
        "0x429ba70129df741B2Ca2a85BC3A2a3328e5c09b4",
        "1461501637330902918203684832716283019655932542975",
        "1770396984"
      ],
      "transaction": {
        "from": "0x89feeba43b294425c0d7b482770eefbcc1359f8d",
        "to": "0x000000000022d473030f116ddee9f6b43ac78ba3",
        "gas": "0xa59b",
        "value": "0x0",
        "input": "0x87517c450000000000000000000000001c7d4b196cb0c7b01d743fbc6116a902379c7238000000000000000000000000429ba70129df741b2ca2a85bc3a2a3328e5c09b4000000000000000000000000ffffffffffffffffffffffffffffffffffffffff0000000000000000000000000000000000000000000000000000000069861d38",
        "nonce": "0x70",
        "chainId": "0xaa36a7"
      },
      "additionalContracts": [],
      "isFixedGasLimit": false
    },
    {
      "hash": "0xee2ab3e6ced3c26a95d4e5295fc6e64ba873868226d62c8b711c980407c4d9bf",
      "transactionType": "CALL",
      "contractName": null,
      "contractAddress": "0x000000000022d473030f116ddee9f6b43ac78ba3",
      "function": "approve(address,address,uint160,uint48)",
      "arguments": [
        "0xfFf9976782d46CC05630D1f6eBAb18b2324d6B14",
        "0x429ba70129df741B2Ca2a85BC3A2a3328e5c09b4",
        "1461501637330902918203684832716283019655932542975",
        "1770396984"
      ],
      "transaction": {
        "from": "0x89feeba43b294425c0d7b482770eefbcc1359f8d",
        "to": "0x000000000022d473030f116ddee9f6b43ac78ba3",
        "gas": "0xa59b",
        "value": "0x0",
        "input": "0x87517c45000000000000000000000000fff9976782d46cc05630d1f6ebab18b2324d6b14000000000000000000000000429ba70129df741b2ca2a85bc3a2a3328e5c09b4000000000000000000000000ffffffffffffffffffffffffffffffffffffffff0000000000000000000000000000000000000000000000000000000069861d38",
        "nonce": "0x71",
        "chainId": "0xaa36a7"
      },
      "additionalContracts": [],
      "isFixedGasLimit": false
    },
    {
      "hash": "0x376f14bff8ba5c071c01e215de6f9c4e37d3887c9469b3ada8feb4e22946aa45",
      "transactionType": "CALL",
      "contractName": null,
      "contractAddress": "0x429ba70129df741b2ca2a85bc3a2a3328e5c09b4",
      "function": "modifyLiquidities(bytes,uint256)",
      "arguments": [
        "0x000000000000000000000000000000000000000000000000000000000000004000000000000000000000000000000000000000000000000000000000000000800000000000000000000000000000000000000000000000000000000000000002020d00000000000000000000000000000000000000000000000000000000000000000000000000000000000000000000000000000000000000000000000000020000000000000000000000000000000000000000000000000000000000000040000000000000000000000000000000000000000000000000000000000000020000000000000000000000000000000000000000000000000000000000000001a00000000000000000000000001c7d4b196cb0c7b01d743fbc6116a902379c7238000000000000000000000000fff9976782d46cc05630d1f6ebab18b2324d6b140000000000000000000000000000000000000000000000000000000000000bb8000000000000000000000000000000000000000000000000000000000000003c000000000000000000000000ca3656933c53642bceebfd40f0b5d5d3abcfc3e5fffffffffffffffffffffffffffffffffffffffffffffffffffffffffff2764c00000000000000000000000000000000000000000000000000000000000d89b400000000000000000000000000000000000000000000000000000000000f424000000000000000000000000000000000000000000000000000000000001e84800000000000000000000000000000000000000000000000001bc16d674ec8000000000000000000000000000089feeba43b294425c0d7b482770eefbcc1359f8d0000000000000000000000000000000000000000000000000000000000000180000000000000000000000000000000000000000000000000000000000000000000000000000000000000000000000000000000000000000000000000000000400000000000000000000000001c7d4b196cb0c7b01d743fbc6116a902379c7238000000000000000000000000fff9976782d46cc05630d1f6ebab18b2324d6b14",
        "1770311184"
      ],
      "transaction": {
        "from": "0x89feeba43b294425c0d7b482770eefbcc1359f8d",
        "to": "0x429ba70129df741b2ca2a85bc3a2a3328e5c09b4",
        "gas": "0x8949a",
        "value": "0x0",
        "input": "0xdd46508f0000000000000000000000000000000000000000000000000000000000000040000000000000000000000000000000000000000000000000000000006984ce100000000000000000000000000000000000000000000000000000000000000300000000000000000000000000000000000000000000000000000000000000004000000000000000000000000000000000000000000000000000000000000000800000000000000000000000000000000000000000000000000000000000000002020d00000000000000000000000000000000000000000000000000000000000000000000000000000000000000000000000000000000000000000000000000020000000000000000000000000000000000000000000000000000000000000040000000000000000000000000000000000000000000000000000000000000020000000000000000000000000000000000000000000000000000000000000001a00000000000000000000000001c7d4b196cb0c7b01d743fbc6116a902379c7238000000000000000000000000fff9976782d46cc05630d1f6ebab18b2324d6b140000000000000000000000000000000000000000000000000000000000000bb8000000000000000000000000000000000000000000000000000000000000003c000000000000000000000000ca3656933c53642bceebfd40f0b5d5d3abcfc3e5fffffffffffffffffffffffffffffffffffffffffffffffffffffffffff2764c00000000000000000000000000000000000000000000000000000000000d89b400000000000000000000000000000000000000000000000000000000000f424000000000000000000000000000000000000000000000000000000000001e84800000000000000000000000000000000000000000000000001bc16d674ec8000000000000000000000000000089feeba43b294425c0d7b482770eefbcc1359f8d0000000000000000000000000000000000000000000000000000000000000180000000000000000000000000000000000000000000000000000000000000000000000000000000000000000000000000000000000000000000000000000000400000000000000000000000001c7d4b196cb0c7b01d743fbc6116a902379c7238000000000000000000000000fff9976782d46cc05630d1f6ebab18b2324d6b14",
        "nonce": "0x72",
        "chainId": "0xaa36a7"
      },
      "additionalContracts": [],
      "isFixedGasLimit": false
    }
  ],
  "receipts": [
    {
      "status": "0x1",
      "cumulativeGasUsed": "0x142cdf4",
      "logs": [
        {
          "address": "0x1c7d4b196cb0c7b01d743fbc6116a902379c7238",
          "topics": [
            "0x8c5be1e5ebec7d5bd14f71427d1e84f3dd0314c0f7b2291e5b200ac8c7c3b925",
            "0x00000000000000000000000089feeba43b294425c0d7b482770eefbcc1359f8d",
            "0x000000000000000000000000000000000022d473030f116ddee9f6b43ac78ba3"
          ],
          "data": "0xffffffffffffffffffffffffffffffffffffffffffffffffffffffffffffffff",
          "blockHash": "0x0fece62cf7ada9bf2355037aae70bc4b6961abd29bc01402a1e997247ca4a992",
          "blockNumber": "0x9b9b3a",
          "blockTimestamp": "0x6984cbdc",
          "transactionHash": "0xee2ab3e6ced3c26a95d4e5295fc6e64ba873868226d62c8b711c980407c4d9bf",
          "transactionIndex": "0x86",
          "logIndex": "0x105",
          "removed": false
        }
      ],
      "logsBloom": "0x00000000000000000000000000000000000000000000000000000000000200000000000000000000000000000000000000000000800000000000000000200000000000000000000000004000000040000000000000000800000000000000000000000000000000000000000010000000000000000000000000000000000000000000000000100000000000000000000000000000000000000000000000000000020000000000000000000000000000000000000000000000000000000000000000100000000000000000000000000000000000000000000000000000000000000010000000000000000010000000000000000000000000000000000000000000",
      "type": "0x2",
      "transactionHash": "0xee2ab3e6ced3c26a95d4e5295fc6e64ba873868226d62c8b711c980407c4d9bf",
      "transactionIndex": "0x86",
      "blockHash": "0x0fece62cf7ada9bf2355037aae70bc4b6961abd29bc01402a1e997247ca4a992",
      "blockNumber": "0x9b9b3a",
      "gasUsed": "0x96e1",
      "effectiveGasPrice": "0x428524c9",
      "from": "0x89feeba43b294425c0d7b482770eefbcc1359f8d",
      "to": "0x1c7d4b196cb0c7b01d743fbc6116a902379c7238",
      "contractAddress": null
    },
    {
      "status": "0x1",
      "cumulativeGasUsed": "0x1433518",
      "logs": [
        {
          "address": "0xfff9976782d46cc05630d1f6ebab18b2324d6b14",
          "topics": [
            "0x8c5be1e5ebec7d5bd14f71427d1e84f3dd0314c0f7b2291e5b200ac8c7c3b925",
            "0x00000000000000000000000089feeba43b294425c0d7b482770eefbcc1359f8d",
            "0x000000000000000000000000000000000022d473030f116ddee9f6b43ac78ba3"
          ],
          "data": "0xffffffffffffffffffffffffffffffffffffffffffffffffffffffffffffffff",
          "blockHash": "0x0fece62cf7ada9bf2355037aae70bc4b6961abd29bc01402a1e997247ca4a992",
          "blockNumber": "0x9b9b3a",
          "blockTimestamp": "0x6984cbdc",
          "transactionHash": "0x27bf9c15a76053f8d57b218c459e878fd86ce5899ba4fa27211efd2ea9290c3e",
          "transactionIndex": "0x87",
          "logIndex": "0x106",
          "removed": false
        }
      ],
      "logsBloom": "0x00000000000000000000000000000000000000000000000000000000000000000000000000000000000000000000000000000000800000000000000000200000000000000000000000004000000040000000000000000800000000000000000000000000000000000000000010000000000000000000000000000000000000000040000000000000000000000000000000000000000000000000000000000000020020000000000000000000000000000000000000000000000000000000000000100000000000000002000000000000000000000000000000000000000000000010000000000000000000000000000000000000000000000000000000000000",
      "type": "0x2",
      "transactionHash": "0x27bf9c15a76053f8d57b218c459e878fd86ce5899ba4fa27211efd2ea9290c3e",
      "transactionIndex": "0x87",
      "blockHash": "0x0fece62cf7ada9bf2355037aae70bc4b6961abd29bc01402a1e997247ca4a992",
      "blockNumber": "0x9b9b3a",
      "gasUsed": "0x6724",
      "effectiveGasPrice": "0x428524c9",
      "from": "0x89feeba43b294425c0d7b482770eefbcc1359f8d",
      "to": "0xfff9976782d46cc05630d1f6ebab18b2324d6b14",
      "contractAddress": null
    },
    {
      "status": "0x1",
      "cumulativeGasUsed": "0x143acfe",
      "logs": [
        {
          "address": "0x000000000022d473030f116ddee9f6b43ac78ba3",
          "topics": [
            "0xda9fa7c1b00402c17d0161b249b1ab8bbec047c5a52207b9c112deffd817036b",
            "0x00000000000000000000000089feeba43b294425c0d7b482770eefbcc1359f8d",
            "0x0000000000000000000000001c7d4b196cb0c7b01d743fbc6116a902379c7238",
            "0x000000000000000000000000429ba70129df741b2ca2a85bc3a2a3328e5c09b4"
          ],
          "data": "0x000000000000000000000000ffffffffffffffffffffffffffffffffffffffff0000000000000000000000000000000000000000000000000000000069861d38",
          "blockHash": "0x0fece62cf7ada9bf2355037aae70bc4b6961abd29bc01402a1e997247ca4a992",
          "blockNumber": "0x9b9b3a",
          "blockTimestamp": "0x6984cbdc",
          "transactionHash": "0x467e99e55cc96d0f10f821287337e7d17df6ead9c26f7805fc94026331310a08",
          "transactionIndex": "0x88",
          "logIndex": "0x107",
          "removed": false
        }
      ],
      "logsBloom": "0x00010000000000000000000000000000000000000000000000000000000000000000000000000040080000000000000000000000000004000000000000080000100000000000000000000000000040000000000000000000000000000000000000000000000000000000000010000000000000000000000000000800000000000020000000000000000000000000000000000000000000000000000000000000000000000000000000000000000000000000008000000000000000080000000000100000000000000000000000000000000000000000000040000000000000000000000000000000000000000000000000000000000000000000000000000400",
      "type": "0x2",
      "transactionHash": "0x467e99e55cc96d0f10f821287337e7d17df6ead9c26f7805fc94026331310a08",
      "transactionIndex": "0x88",
      "blockHash": "0x0fece62cf7ada9bf2355037aae70bc4b6961abd29bc01402a1e997247ca4a992",
      "blockNumber": "0x9b9b3a",
      "gasUsed": "0x77e6",
      "effectiveGasPrice": "0x428524c9",
      "from": "0x89feeba43b294425c0d7b482770eefbcc1359f8d",
      "to": "0x000000000022d473030f116ddee9f6b43ac78ba3",
      "contractAddress": null
    },
    {
      "status": "0x1",
      "cumulativeGasUsed": "0x14424e4",
      "logs": [
        {
          "address": "0x000000000022d473030f116ddee9f6b43ac78ba3",
          "topics": [
            "0xda9fa7c1b00402c17d0161b249b1ab8bbec047c5a52207b9c112deffd817036b",
            "0x00000000000000000000000089feeba43b294425c0d7b482770eefbcc1359f8d",
            "0x000000000000000000000000fff9976782d46cc05630d1f6ebab18b2324d6b14",
            "0x000000000000000000000000429ba70129df741b2ca2a85bc3a2a3328e5c09b4"
          ],
          "data": "0x000000000000000000000000ffffffffffffffffffffffffffffffffffffffff0000000000000000000000000000000000000000000000000000000069861d38",
          "blockHash": "0x0fece62cf7ada9bf2355037aae70bc4b6961abd29bc01402a1e997247ca4a992",
          "blockNumber": "0x9b9b3a",
          "blockTimestamp": "0x6984cbdc",
          "transactionHash": "0x0837ab5c7cc4b2e0249f6a3ddd0b33ade5bed26f97d8187dd6cd43980e68cadc",
          "transactionIndex": "0x89",
          "logIndex": "0x108",
          "removed": false
        }
      ],
      "logsBloom": "0x00010000001000000000000000000000000000000000000000000000000000000000000000000040080000000000000000000800000000000000000000080000000000000000000000000000000040000000000000000000000000000000000000000000000000000000000010000000000000000000000000000800000000000020000000000000000000000000000000000000000000000000000000000000000000000000000000000000000000000000000000000000000000080000000000100000000000000000000001000000000000000000000040000000000000000000000000000000000000000000000000000000000000000000000000000400",
      "type": "0x2",
      "transactionHash": "0x0837ab5c7cc4b2e0249f6a3ddd0b33ade5bed26f97d8187dd6cd43980e68cadc",
      "transactionIndex": "0x89",
      "blockHash": "0x0fece62cf7ada9bf2355037aae70bc4b6961abd29bc01402a1e997247ca4a992",
      "blockNumber": "0x9b9b3a",
      "gasUsed": "0x77e6",
      "effectiveGasPrice": "0x428524c9",
      "from": "0x89feeba43b294425c0d7b482770eefbcc1359f8d",
      "to": "0x000000000022d473030f116ddee9f6b43ac78ba3",
      "contractAddress": null
    },
    {
      "status": "0x1",
      "cumulativeGasUsed": "0x14a5b32",
      "logs": [
        {
          "address": "0x429ba70129df741b2ca2a85bc3a2a3328e5c09b4",
          "topics": [
            "0xddf252ad1be2c89b69c2b068fc378daa952ba7f163c4a11628f55a4df523b3ef",
            "0x0000000000000000000000000000000000000000000000000000000000000000",
            "0x00000000000000000000000089feeba43b294425c0d7b482770eefbcc1359f8d",
            "0x00000000000000000000000000000000000000000000000000000000000059e3"
          ],
          "data": "0x",
          "blockHash": "0x0fece62cf7ada9bf2355037aae70bc4b6961abd29bc01402a1e997247ca4a992",
          "blockNumber": "0x9b9b3a",
          "blockTimestamp": "0x6984cbdc",
          "transactionHash": "0x376f14bff8ba5c071c01e215de6f9c4e37d3887c9469b3ada8feb4e22946aa45",
          "transactionIndex": "0x8a",
          "logIndex": "0x109",
          "removed": false
        },
        {
          "address": "0xe03a1074c86cfedd5c142c4f04f1a1536e203543",
          "topics": [
            "0xf208f4912782fd25c7f114ca3723a2d5dd6f3bcc3ac8db5af63baa85f711d5ec",
            "0x38fef023edd387c534a53dc22e6ece95b2885bee4cb1d1cb90ad0174f2cb1c90",
            "0x000000000000000000000000429ba70129df741b2ca2a85bc3a2a3328e5c09b4"
          ],
          "data": "0xfffffffffffffffffffffffffffffffffffffffffffffffffffffffffff2764c00000000000000000000000000000000000000000000000000000000000d89b400000000000000000000000000000000000000000000000000000000000f424000000000000000000000000000000000000000000000000000000000000059e3",
          "blockHash": "0x0fece62cf7ada9bf2355037aae70bc4b6961abd29bc01402a1e997247ca4a992",
          "blockNumber": "0x9b9b3a",
          "blockTimestamp": "0x6984cbdc",
          "transactionHash": "0x376f14bff8ba5c071c01e215de6f9c4e37d3887c9469b3ada8feb4e22946aa45",
          "transactionIndex": "0x8a",
          "logIndex": "0x10a",
          "removed": false
        },
        {
          "address": "0x1c7d4b196cb0c7b01d743fbc6116a902379c7238",
          "topics": [
            "0xddf252ad1be2c89b69c2b068fc378daa952ba7f163c4a11628f55a4df523b3ef",
            "0x00000000000000000000000089feeba43b294425c0d7b482770eefbcc1359f8d",
            "0x000000000000000000000000e03a1074c86cfedd5c142c4f04f1a1536e203543"
          ],
          "data": "0x00000000000000000000000000000000000000000000000000000000000f4240",
          "blockHash": "0x0fece62cf7ada9bf2355037aae70bc4b6961abd29bc01402a1e997247ca4a992",
          "blockNumber": "0x9b9b3a",
          "blockTimestamp": "0x6984cbdc",
          "transactionHash": "0x376f14bff8ba5c071c01e215de6f9c4e37d3887c9469b3ada8feb4e22946aa45",
          "transactionIndex": "0x8a",
          "logIndex": "0x10b",
          "removed": false
        },
        {
          "address": "0xfff9976782d46cc05630d1f6ebab18b2324d6b14",
          "topics": [
            "0xddf252ad1be2c89b69c2b068fc378daa952ba7f163c4a11628f55a4df523b3ef",
            "0x00000000000000000000000089feeba43b294425c0d7b482770eefbcc1359f8d",
            "0x000000000000000000000000e03a1074c86cfedd5c142c4f04f1a1536e203543"
          ],
          "data": "0x00000000000000000000000000000000000000000000000000000000000f4240",
          "blockHash": "0x0fece62cf7ada9bf2355037aae70bc4b6961abd29bc01402a1e997247ca4a992",
          "blockNumber": "0x9b9b3a",
          "blockTimestamp": "0x6984cbdc",
          "transactionHash": "0x376f14bff8ba5c071c01e215de6f9c4e37d3887c9469b3ada8feb4e22946aa45",
          "transactionIndex": "0x8a",
          "logIndex": "0x10c",
          "removed": false
        }
      ],
      "logsBloom": "0x00000000000000000000001000000000000000000000000000000000080200000000000000000040080000000000000000000100000000000000000000000000000000000000000000000008000040000000200000000000000000000000000000000000020000000000000090000800000000000000100000000810000000000040000001100000000010000000000000000000000000000000000000000100000024000000000000000000000000000000000800400000000000000000000000100002000000000002000020000000000000000000000000001000000020001000000000000000000010000000000004000000001100000000000000000000",
      "type": "0x2",
      "transactionHash": "0x376f14bff8ba5c071c01e215de6f9c4e37d3887c9469b3ada8feb4e22946aa45",
      "transactionIndex": "0x8a",
      "blockHash": "0x0fece62cf7ada9bf2355037aae70bc4b6961abd29bc01402a1e997247ca4a992",
      "blockNumber": "0x9b9b3a",
      "gasUsed": "0x6364e",
      "effectiveGasPrice": "0x428524c9",
      "from": "0x89feeba43b294425c0d7b482770eefbcc1359f8d",
      "to": "0x429ba70129df741b2ca2a85bc3a2a3328e5c09b4",
      "contractAddress": null
    }
  ],
  "libraries": [],
  "pending": [],
  "returns": {},
  "timestamp": 1770310618748,
  "chain": 11155111,
  "commit": "cc2e3ff"
}