{
  "transactions": [
    {
      "hash": "0xd7d41e9ce14a3e7b1803a603887e828754a6ea25527095ddcb04be3fa4a35b65",
      "transactionType": "CALL",
      "contractName": null,
      "contractAddress": "0xdc81d28a1721fcde86d79ce26ba3b0bef24c116c",
      "function": "commit(bytes32,bytes32)",
      "arguments": [
        "0xfba0ee31c01f12969c4632a44d1329e362a8c051f49f0a24523ca943375cd300",
        "0x83c95618d529ed0bfdcc4c11dd981c4e58ed41013f520e39cf6bc878f4a6958a"
      ],
      "transaction": {
        "from": "0x89feeba43b294425c0d7b482770eefbcc1359f8d",
        "to": "0xdc81d28a1721fcde86d79ce26ba3b0bef24c116c",
        "gas": "0x21bca",
        "value": "0x0",
        "input": "0xe3ce094dfba0ee31c01f12969c4632a44d1329e362a8c051f49f0a24523ca943375cd30083c95618d529ed0bfdcc4c11dd981c4e58ed41013f520e39cf6bc878f4a6958a",
        "nonce": "0xdd",
        "chainId": "0xaa36a7"
      },
      "additionalContracts": [],
      "isFixedGasLimit": false
    }
  ],
  "receipts": [
    {
      "status": "0x1",
      "cumulativeGasUsed": "0xe895f1",
      "logs": [
        {
          "address": "0xdc81d28a1721fcde86d79ce26ba3b0bef24c116c",
          "topics": [
            "0xc9fb417ce9ee10a86bc8046a24ff15c2c00460856852864cf2bfae9e0b12185a",
            "0xfba0ee31c01f12969c4632a44d1329e362a8c051f49f0a24523ca943375cd300",
            "0x83c95618d529ed0bfdcc4c11dd981c4e58ed41013f520e39cf6bc878f4a6958a",
            "0x00000000000000000000000089feeba43b294425c0d7b482770eefbcc1359f8d"
          ],
          "data": "0x0000000000000000000000000000000000000000000000000000000000000000000000000000000000000000000000000000000000000000000000000000000000000000000000000000000000000000000000000000000000000000009bb4e0",
          "blockHash": "0x599238acc421d39897a185026c1584e4c509ac7b264ee5df3f0f2eaf74aad28b",
          "blockNumber": "0x9bb4d6",
          "blockTimestamp": "0x69860964",
          "transactionHash": "0xd7d41e9ce14a3e7b1803a603887e828754a6ea25527095ddcb04be3fa4a35b65",
          "transactionIndex": "0x51",
          "logIndex": "0xed",
          "removed": false
        }
      ],
      "logsBloom": "0x00000000000000000000010000000000000000000000000200000000000000000000000000000000000000000000000000000000000000000000000000000000000000000000000000000100000040000000000000000000000000000000000000400000200000000000000010000000000000000000000000000000000000000000000000000000000000000000000000000000000000000000000800000000000000000000000000000000000000000800040000400000000000000000000000100000000000000000000000000000000000000000000000000000000000000200000000004000000000000001000000000000000000000000000000000000",
      "type": "0x2",
      "transactionHash": "0xd7d41e9ce14a3e7b1803a603887e828754a6ea25527095ddcb04be3fa4a35b65",
      "transactionIndex": "0x51",
      "blockHash": "0x599238acc421d39897a185026c1584e4c509ac7b264ee5df3f0f2eaf74aad28b",
      "blockNumber": "0x9bb4d6",
      "gasUsed": "0x186cd",
      "effectiveGasPrice": "0x40457693",
      "from": "0x89feeba43b294425c0d7b482770eefbcc1359f8d",
      "to": "0xdc81d28a1721fcde86d79ce26ba3b0bef24c116c",
      "contractAddress": null
    }
  ],
  "libraries": [],
  "pending": [],
  "returns": {},
  "timestamp": 1770391908823,
  "chain": 11155111,
  "commit": "58e7602"
}