{
  "transactions": [
    {
      "hash": null,
      "transactionType": "CALL",
      "contractName": null,
      "contractAddress": "0xdc81d28a1721fcde86d79ce26ba3b0bef24c116c",
      "function": "commit(bytes32,bytes32)",
      "arguments": [
        "0xdfee1d1f5b99417b72ccc13253755848de73662ede731e8ae53b0ce394dc4b74",
        "0xe0182d186331ada85dd4c7c9716034b994d18f877841df5e1cae87da3ef4717e"
      ],
      "transaction": {
        "from": "0x89feeba43b294425c0d7b482770eefbcc1359f8d",
        "to": "0xdc81d28a1721fcde86d79ce26ba3b0bef24c116c",
        "gas": "0x23b9d",
        "value": "0x0",
        "input": "0xe3ce094ddfee1d1f5b99417b72ccc13253755848de73662ede731e8ae53b0ce394dc4b74e0182d186331ada85dd4c7c9716034b994d18f877841df5e1cae87da3ef4717e",
        "nonce": "0x124",
        "chainId": "0xaa36a7"
      },
      "additionalContracts": [],
      "isFixedGasLimit": false
    }
  ],
  "receipts": [],
  "libraries": [],
  "pending": [],
  "returns": {},
  "timestamp": 1770415695890,
  "chain": 11155111,
  "commit": "7d255af"
}