{
  "transactions": [
    {
      "hash": "0x1d419a38ea2e97d1c9be5c07b874feedb9d94568a194b3bacd3a8806cb5bfb78",
      "transactionType": "CALL",
      "contractName": null,
      "contractAddress": "0xdc81d28a1721fcde86d79ce26ba3b0bef24c116c",
      "function": "commit(bytes32,bytes32)",
      "arguments": [
        "0xc5a72f9d138025ea16957aa2b96a9f1f4450e881a59e7a38af053a2797db1e21",
        "0x7e02e6a5c7a92a49438fb554aeb95488a86871c2be267cbca13fa6fdc789d5ac"
      ],
      "transaction": {
        "from": "0x89feeba43b294425c0d7b482770eefbcc1359f8d",
        "to": "0xdc81d28a1721fcde86d79ce26ba3b0bef24c116c",
        "gas": "0x23b9d",
        "value": "0x0",
        "input": "0xe3ce094dc5a72f9d138025ea16957aa2b96a9f1f4450e881a59e7a38af053a2797db1e217e02e6a5c7a92a49438fb554aeb95488a86871c2be267cbca13fa6fdc789d5ac",
        "nonce": "0x124",
        "chainId": "0xaa36a7"
      },
      "additionalContracts": [],
      "isFixedGasLimit": false
    }
  ],
  "receipts": [],
  "libraries": [],
  "pending": [
    "0x1d419a38ea2e97d1c9be5c07b874feedb9d94568a194b3bacd3a8806cb5bfb78"
  ],
  "returns": {},
  "timestamp": 1770415713560,
  "chain": 11155111,
  "commit": "7d255af"
}