{
  "transactions": [
    {
      "hash": "0xb82443deceac29e8be4fab148cc3010350c3426fd0d22cf79c8c4f00abf28ddf",
      "transactionType": "CALL",
      "contractName": null,
      "contractAddress": "0xe03a1074c86cfedd5c142c4f04f1a1536e203543",
      "function": "initialize((address,address,uint24,int24,address),uint160)",
      "arguments": [
        "(0x0000000000000000000000000000000000000000, 0x1c7D4B196Cb0C7B01d743Fbc6116a902379C7238, 3000, 60, 0xca3656933c53642BcEEBfD40F0b5D5D3ABCFc3E5)",
        "79228162514264337593543950336"
      ],
      "transaction": {
        "from": "0x89feeba43b294425c0d7b482770eefbcc1359f8d",
        "to": "0xe03a1074c86cfedd5c142c4f04f1a1536e203543",
        "gas": "0x12603",
        "value": "0x0",
        "input": "0x6276cbbe00000000000000000000000000000000000000000000000000000000000000000000000000000000000000001c7d4b196cb0c7b01d743fbc6116a902379c72380000000000000000000000000000000000000000000000000000000000000bb8000000000000000000000000000000000000000000000000000000000000003c000000000000000000000000ca3656933c53642bceebfd40f0b5d5d3abcfc3e50000000000000000000000000000000000000001000000000000000000000000",
        "nonce": "0x6b",
        "chainId": "0xaa36a7"
      },
      "additionalContracts": [],
      "isFixedGasLimit": false
    }
  ],
  "receipts": [
    {
      "status": "0x1",
      "cumulativeGasUsed": "0xa77c84",
      "logs": [
        {
          "address": "0xe03a1074c86cfedd5c142c4f04f1a1536e203543",
          "topics": [
            "0xdd466e674ea557f56295e2d0218a125ea4b4f0f6f3307b95f85e6110838d6438",
            "0x86d326e3667f45da7d98b55a4312da2a46e7e8a9854f68efe5f7e9d8d0897e86",
            "0x0000000000000000000000000000000000000000000000000000000000000000",
            "0x0000000000000000000000001c7d4b196cb0c7b01d743fbc6116a902379c7238"
          ],
          "data": "0x0000000000000000000000000000000000000000000000000000000000000bb8000000000000000000000000000000000000000000000000000000000000003c000000000000000000000000ca3656933c53642bceebfd40f0b5d5d3abcfc3e500000000000000000000000000000000000000010000000000000000000000000000000000000000000000000000000000000000000000000000000000000000",
          "blockHash": "0x003c57cc0eb95becd5ac9de9fef3b3eaf03b5604e66e83b764e8676fed5b00c5",
          "blockNumber": "0x9b9b1b",
          "blockTimestamp": "0x6984ca44",
          "transactionHash": "0xb82443deceac29e8be4fab148cc3010350c3426fd0d22cf79c8c4f00abf28ddf",
          "transactionIndex": "0x4a",
          "logIndex": "0x70",
          "removed": false
        }
      ],
      "logsBloom": "0x00000000000000000000000000000000000000000000000000000000000000000000000000000000000000000000000000400100000004000000000000000000100000000000000000000000000000000000000000000000000000000000000000000000020000000000000000000800000000000000100000000000000000000000000000000008000000000000000000000001000000000000000000200000000000000000000000000000000000000000008000000000000000000000000000000000000000000000000000000000000000000000000000000000000020001000000000000000000000000000000000000000000000000100000000000020",
      "type": "0x2",
      "transactionHash": "0xb82443deceac29e8be4fab148cc3010350c3426fd0d22cf79c8c4f00abf28ddf",
      "transactionIndex": "0x4a",
      "blockHash": "0x003c57cc0eb95becd5ac9de9fef3b3eaf03b5604e66e83b764e8676fed5b00c5",
      "blockNumber": "0x9b9b1b",
      "gasUsed": "0xc909",
      "effectiveGasPrice": "0x3ca05d2a",
      "from": "0x89feeba43b294425c0d7b482770eefbcc1359f8d",
      "to": "0xe03a1074c86cfedd5c142c4f04f1a1536e203543",
      "contractAddress": null
    }
  ],
  "libraries": [],
  "pending": [],
  "returns": {},
  "timestamp": 1770310211598,
  "chain": 11155111,
  "commit": "8ffe168"
}