{
  "transactions": [
    {
      "hash": "0x6281c06531ecd55a4f83bafaedba81e747476820384b6b72350d4197bd4e4e42",
      "transactionType": "CALL",
      "contractName": null,
      "contractAddress": "0xe03a1074c86cfedd5c142c4f04f1a1536e203543",
      "function": "initialize((address,address,uint24,int24,address),uint160)",
      "arguments": [
        "(0x0000000000000000000000000000000000000000, 0x1c7D4B196Cb0C7B01d743Fbc6116a902379C7238, 3000, 60, 0x830C433e3493b0B84A430103D95ea94a59A7eea0)",
        "79228162514264337593543950336"
      ],
      "transaction": {
        "from": "0x89feeba43b294425c0d7b482770eefbcc1359f8d",
        "to": "0xe03a1074c86cfedd5c142c4f04f1a1536e203543",
        "gas": "0x12cb6",
        "value": "0x0",
        "input": "0x6276cbbe00000000000000000000000000000000000000000000000000000000000000000000000000000000000000001c7d4b196cb0c7b01d743fbc6116a902379c72380000000000000000000000000000000000000000000000000000000000000bb8000000000000000000000000000000000000000000000000000000000000003c000000000000000000000000830c433e3493b0b84a430103d95ea94a59a7eea00000000000000000000000000000000000000001000000000000000000000000",
        "nonce": "0x21",
        "chainId": "0xaa36a7"
      },
      "additionalContracts": [],
      "isFixedGasLimit": false
    }
  ],
  "receipts": [
    {
      "status": "0x1",
      "cumulativeGasUsed": "0x4c4049",
      "logs": [
        {
          "address": "0xe03a1074c86cfedd5c142c4f04f1a1536e203543",
          "topics": [
            "0xdd466e674ea557f56295e2d0218a125ea4b4f0f6f3307b95f85e6110838d6438",
            "0x23874e0ee682174dca06e1757ab40f3ef4307b9810e18eb5d699b7d5af9063fa",
            "0x0000000000000000000000000000000000000000000000000000000000000000",
            "0x0000000000000000000000001c7d4b196cb0c7b01d743fbc6116a902379c7238"
          ],
          "data": "0x0000000000000000000000000000000000000000000000000000000000000bb8000000000000000000000000000000000000000000000000000000000000003c000000000000000000000000830c433e3493b0b84a430103d95ea94a59a7eea000000000000000000000000000000000000000010000000000000000000000000000000000000000000000000000000000000000000000000000000000000000",
          "blockHash": "0x305eaf03fb5b5583abb51acd96a4716032ebd045c2407a781b6a4cffd0262dd3",
          "blockNumber": "0x9b866f",
          "blockTimestamp": "0x6983c9ac",
          "transactionHash": "0x6281c06531ecd55a4f83bafaedba81e747476820384b6b72350d4197bd4e4e42",
          "transactionIndex": "0x37",
          "logIndex": "0x51",
          "removed": false
        }
      ],
      "logsBloom": "0x00000000000000000000000080000000000000000000000000000000040000000000000000000000000000000000000000000100000004000000000000000000100000000000000000000000000000000000000000000000000000000000000000000000020000000000000000000800000000000000100000000000000000000000000000000008000000000000000000000001000000000000000000200000000000000000000000000000000000000000008000000000000000000000000000000000000000000000000000000000000000000000000000000000000020001000000000000000000000800000000000000000000000000000000000000000",
      "type": "0x2",
      "transactionHash": "0x6281c06531ecd55a4f83bafaedba81e747476820384b6b72350d4197bd4e4e42",
      "transactionIndex": "0x37",
      "blockHash": "0x305eaf03fb5b5583abb51acd96a4716032ebd045c2407a781b6a4cffd0262dd3",
      "blockNumber": "0x9b866f",
      "gasUsed": "0xd9b6",
      "effectiveGasPrice": "0x3f721015",
      "from": "0x89feeba43b294425c0d7b482770eefbcc1359f8d",
      "to": "0xe03a1074c86cfedd5c142c4f04f1a1536e203543",
      "contractAddress": null
    }
  ],
  "libraries": [],
  "pending": [],
  "returns": {},
  "timestamp": 1770244522394,
  "chain": 11155111,
  "commit": "a66604a"
}