{
  "transactions": [
    {
      "hash": "0xec4178efd2a684baba65c34f49470424dc0ebfcb457bad59553552e7a3d02177",
      "transactionType": "CALL",
      "contractName": null,
      "contractAddress": "0xe03a1074c86cfedd5c142c4f04f1a1536e203543",
      "function": "initialize((address,address,uint24,int24,address),uint160)",
      "arguments": [
        "(0x0000000000000000000000000000000000000000, 0x1c7D4B196Cb0C7B01d743Fbc6116a902379C7238, 3000, 60, 0x80155F48AeADFB2cf5B27577c48A61e04F66BFde)",
        "79228162514264337593543950336"
      ],
      "transaction": {
        "from": "0x89feeba43b294425c0d7b482770eefbcc1359f8d",
        "to": "0xe03a1074c86cfedd5c142c4f04f1a1536e203543",
        "gas": "0x13695",
        "value": "0x0",
        "input": "0x6276cbbe00000000000000000000000000000000000000000000000000000000000000000000000000000000000000001c7d4b196cb0c7b01d743fbc6116a902379c72380000000000000000000000000000000000000000000000000000000000000bb8000000000000000000000000000000000000000000000000000000000000003c00000000000000000000000080155f48aeadfb2cf5b27577c48a61e04f66bfde0000000000000000000000000000000000000001000000000000000000000000",
        "nonce": "0x8",
        "chainId": "0xaa36a7"
      },
      "additionalContracts": [],
      "isFixedGasLimit": false
    }
  ],
  "receipts": [
    {
      "status": "0x1",
      "cumulativeGasUsed": "0x74dbd6",
      "logs": [
        {
          "address": "0xe03a1074c86cfedd5c142c4f04f1a1536e203543",
          "topics": [
            "0xdd466e674ea557f56295e2d0218a125ea4b4f0f6f3307b95f85e6110838d6438",
            "0xa3a98e37389b335cfae8c16254b228434503588176d29cb73283421898329203",
            "0x0000000000000000000000000000000000000000000000000000000000000000",
            "0x0000000000000000000000001c7d4b196cb0c7b01d743fbc6116a902379c7238"
          ],
          "data": "0x0000000000000000000000000000000000000000000000000000000000000bb8000000000000000000000000000000000000000000000000000000000000003c00000000000000000000000080155f48aeadfb2cf5b27577c48a61e04f66bfde00000000000000000000000000000000000000010000000000000000000000000000000000000000000000000000000000000000000000000000000000000000",
          "blockHash": "0xd016566df56de64e34b4f07468922de41d03161124711692c3342db1da0bebb8",
          "blockNumber": "0x9b8095",
          "blockTimestamp": "0x69837ea0",
          "transactionHash": "0xec4178efd2a684baba65c34f49470424dc0ebfcb457bad59553552e7a3d02177",
          "transactionIndex": "0x3f",
          "logIndex": "0x65",
          "removed": false
        }
      ],
      "logsBloom": "0x00000000000000000000000000000000000000000000000000000000000000000000000000000000000000000000000000000100000004000000000000000000101000000000000000000000000000000000400000000000000000000000000000000000020000000000000000000800000000000000100000000000000000000000000000000008000000000000000000000001000000000000000000200000000000000000200000000000000000000000008000000000000000000000000000000000000000000000000000000000000000000000000000000000000020001000000000000000000000000000000000000000000000000000000000000000",
      "type": "0x2",
      "transactionHash": "0xec4178efd2a684baba65c34f49470424dc0ebfcb457bad59553552e7a3d02177",
      "transactionIndex": "0x3f",
      "blockHash": "0xd016566df56de64e34b4f07468922de41d03161124711692c3342db1da0bebb8",
      "blockNumber": "0x9b8095",
      "gasUsed": "0xe0dc",
      "effectiveGasPrice": "0x439c3134",
      "from": "0x89feeba43b294425c0d7b482770eefbcc1359f8d",
      "to": "0xe03a1074c86cfedd5c142c4f04f1a1536e203543",
      "contractAddress": null
    }
  ],
  "libraries": [],
  "pending": [],
  "returns": {},
  "timestamp": 1770225312544,
  "chain": 11155111,
  "commit": "503077f"
}