{
  "transactions": [
    {
      "hash": "0x26cfabbf92d8238215b87901807f810463a0de4c7f2623201bbaf371cb946ae6",
      "transactionType": "CALL",
      "contractName": null,
      "contractAddress": "0xe03a1074c86cfedd5c142c4f04f1a1536e203543",
      "function": "initialize((address,address,uint24,int24,address),uint160)",
      "arguments": [
        "(0x0000000000000000000000000000000000000000, 0x1c7D4B196Cb0C7B01d743Fbc6116a902379C7238, 3000, 60, 0x6782995B17fC8D42C08Cd0cf4070aD2C2216DDc3)",
        "79228162514264337593543950336"
      ],
      "transaction": {
        "from": "0x89feeba43b294425c0d7b482770eefbcc1359f8d",
        "to": "0xe03a1074c86cfedd5c142c4f04f1a1536e203543",
        "gas": "0x12d32",
        "value": "0x0",
        "input": "0x6276cbbe00000000000000000000000000000000000000000000000000000000000000000000000000000000000000001c7d4b196cb0c7b01d743fbc6116a902379c72380000000000000000000000000000000000000000000000000000000000000bb8000000000000000000000000000000000000000000000000000000000000003c0000000000000000000000006782995b17fc8d42c08cd0cf4070ad2c2216ddc30000000000000000000000000000000000000001000000000000000000000000",
        "nonce": "0x1c",
        "chainId": "0xaa36a7"
      },
      "additionalContracts": [],
      "isFixedGasLimit": false
    }
  ],
  "receipts": [
    {
      "status": "0x1",
      "cumulativeGasUsed": "0xae1aa5",
      "logs": [
        {
          "address": "0xe03a1074c86cfedd5c142c4f04f1a1536e203543",
          "topics": [
            "0xdd466e674ea557f56295e2d0218a125ea4b4f0f6f3307b95f85e6110838d6438",
            "0x8d1cbb101db6880b68c519711594d2cb094d89e4458ae2c0fa33fde5add06f41",
            "0x0000000000000000000000000000000000000000000000000000000000000000",
            "0x0000000000000000000000001c7d4b196cb0c7b01d743fbc6116a902379c7238"
          ],
          "data": "0x0000000000000000000000000000000000000000000000000000000000000bb8000000000000000000000000000000000000000000000000000000000000003c0000000000000000000000006782995b17fc8d42c08cd0cf4070ad2c2216ddc300000000000000000000000000000000000000010000000000000000000000000000000000000000000000000000000000000000000000000000000000000000",
          "blockHash": "0xa32d5282484ab6465328cf48dbb9461c7ff89e28c98ec0602cab3e9f31388309",
          "blockNumber": "0x9b8595",
          "blockTimestamp": "0x6983becc",
          "transactionHash": "0x26cfabbf92d8238215b87901807f810463a0de4c7f2623201bbaf371cb946ae6",
          "transactionIndex": "0x3e",
          "logIndex": "0x7b",
          "removed": false
        }
      ],
      "logsBloom": "0x00000000000000000008000000000000000000000000000000000000000000000000000000000000000000000000000000000120000004000000000000000000100000000000000000000000000000000000000000000000000000000000000000000000020000000000000000000800000000000000100000000000000000000100000000000008000000000000000000000001000000000000000000200000000000000000000000000000000000000000008000000000000000000000000000000000000000000000000000000000000000000000000000000000000020001000000000000000000000000000000000000000000000000000000000000000",
      "type": "0x2",
      "transactionHash": "0x26cfabbf92d8238215b87901807f810463a0de4c7f2623201bbaf371cb946ae6",
      "transactionIndex": "0x3e",
      "blockHash": "0xa32d5282484ab6465328cf48dbb9461c7ff89e28c98ec0602cab3e9f31388309",
      "blockNumber": "0x9b8595",
      "gasUsed": "0xda10",
      "effectiveGasPrice": "0x3e908284",
      "from": "0x89feeba43b294425c0d7b482770eefbcc1359f8d",
      "to": "0xe03a1074c86cfedd5c142c4f04f1a1536e203543",
      "contractAddress": null
    }
  ],
  "libraries": [],
  "pending": [],
  "returns": {},
  "timestamp": 1770241739674,
  "chain": 11155111,
  "commit": "a66604a"
}