{
  "transactions": [
    {
      "hash": "0x21b7e5926fb15627fcec61c2ddcef23f99132fa10f81d811bfaeea54d21a30bb",
      "transactionType": "CALL",
      "contractName": null,
      "contractAddress": "0xdc81d28a1721fcde86d79ce26ba3b0bef24c116c",
      "function": "commit(bytes32,bytes32)",
      "arguments": [
        "0x887b753d33b669d07e3e79e77fb6a3917fadff59f623a81d3ba46cea14bb788a",
        "0x3fccc22c621dd5b5cbc77dc8b5e5879be6e770489ae45cbc3d15f96d8639566d"
      ],
      "transaction": {
        "from": "0x89feeba43b294425c0d7b482770eefbcc1359f8d",
        "to": "0xdc81d28a1721fcde86d79ce26ba3b0bef24c116c",
        "gas": "0x23b9d",
        "value": "0x0",
        "input": "0xe3ce094d887b753d33b669d07e3e79e77fb6a3917fadff59f623a81d3ba46cea14bb788a3fccc22c621dd5b5cbc77dc8b5e5879be6e770489ae45cbc3d15f96d8639566d",
        "nonce": "0x131",
        "chainId": "0xaa36a7"
      },
      "additionalContracts": [],
      "isFixedGasLimit": false
    }
  ],
  "receipts": [
    {
      "status": "0x1",
      "cumulativeGasUsed": "0x52b155",
      "logs": [
        {
          "address": "0xdc81d28a1721fcde86d79ce26ba3b0bef24c116c",
          "topics": [
            "0xc9fb417ce9ee10a86bc8046a24ff15c2c00460856852864cf2bfae9e0b12185a",
            "0x887b753d33b669d07e3e79e77fb6a3917fadff59f623a81d3ba46cea14bb788a",
            "0x3fccc22c621dd5b5cbc77dc8b5e5879be6e770489ae45cbc3d15f96d8639566d",
            "0x00000000000000000000000089feeba43b294425c0d7b482770eefbcc1359f8d"
          ],
          "data": "0x0000000000000000000000000000000000000000000000000000000000000000000000000000000000000000000000000000000000000000000000000000000000000000000000000000000000000000000000000000000000000000009bbe19",
          "blockHash": "0x40c6dd53d2e51947a72146591298f92a02e987d300584a0a4f99e00d715b3b36",
          "blockNumber": "0x9bbe0f",
          "blockTimestamp": "0x69867b28",
          "transactionHash": "0x21b7e5926fb15627fcec61c2ddcef23f99132fa10f81d811bfaeea54d21a30bb",
          "transactionIndex": "0x3a",
          "logIndex": "0x52",
          "removed": false
        }
      ],
      "logsBloom": "0x00000000000000000000010010000000000000000000000000000000000000000000000000000000000000000000000000000000000000000000000000000000000000000000000100000000000040000000000000000000000040000000000000400000200000000000000010000000000000000000000000000000000000000000000000000000000000000000000000000000000000000000000800000000000000000000000000000000000000000000000000424000000000000000000000100000000000000000000000000000000000000000000000000000000000000000000000000000000000040001000000000000000000000000000000000000",
      "type": "0x2",
      "transactionHash": "0x21b7e5926fb15627fcec61c2ddcef23f99132fa10f81d811bfaeea54d21a30bb",
      "transactionIndex": "0x3a",
      "blockHash": "0x40c6dd53d2e51947a72146591298f92a02e987d300584a0a4f99e00d715b3b36",
      "blockNumber": "0x9bbe0f",
      "gasUsed": "0x186d9",
      "effectiveGasPrice": "0x3e8dcd3f",
      "from": "0x89feeba43b294425c0d7b482770eefbcc1359f8d",
      "to": "0xdc81d28a1721fcde86d79ce26ba3b0bef24c116c",
      "contractAddress": null
    }
  ],
  "libraries": [],
  "pending": [],
  "returns": {},
  "timestamp": 1770421043891,
  "chain": 11155111,
  "commit": "7d255af"
}