{
  "transactions": [
    {
      "hash": "0x0b09ca35866ecd478c597f3e2e92b631ef89a26129bd06d9c10506cce9e8b8d2",
      "transactionType": "CALL",
      "contractName": null,
      "contractAddress": "0xdc81d28a1721fcde86d79ce26ba3b0bef24c116c",
      "function": "commit(bytes32,bytes32)",
      "arguments": [
        "0x672caaf3cde9d836b59cb77297f70a54616ced8d33bfb15a3bfe1e38d2d13d96",
        "0x566381c431c62726cba8f85d0a8325dec6d9a532b089bbabdfd7d6e1ffedb7cf"
      ],
      "transaction": {
        "from": "0x89feeba43b294425c0d7b482770eefbcc1359f8d",
        "to": "0xdc81d28a1721fcde86d79ce26ba3b0bef24c116c",
        "gas": "0x23b9d",
        "value": "0x0",
        "input": "0xe3ce094d672caaf3cde9d836b59cb77297f70a54616ced8d33bfb15a3bfe1e38d2d13d96566381c431c62726cba8f85d0a8325dec6d9a532b089bbabdfd7d6e1ffedb7cf",
        "nonce": "0x12f",
        "chainId": "0xaa36a7"
      },
      "additionalContracts": [],
      "isFixedGasLimit": false
    }
  ],
  "receipts": [
    {
      "status": "0x1",
      "cumulativeGasUsed": "0x3912eda",
      "logs": [
        {
          "address": "0xdc81d28a1721fcde86d79ce26ba3b0bef24c116c",
          "topics": [
            "0xc9fb417ce9ee10a86bc8046a24ff15c2c00460856852864cf2bfae9e0b12185a",
            "0x672caaf3cde9d836b59cb77297f70a54616ced8d33bfb15a3bfe1e38d2d13d96",
            "0x566381c431c62726cba8f85d0a8325dec6d9a532b089bbabdfd7d6e1ffedb7cf",
            "0x00000000000000000000000089feeba43b294425c0d7b482770eefbcc1359f8d"
          ],
          "data": "0x0000000000000000000000000000000000000000000000000000000000000000000000000000000000000000000000000000000000000000000000000000000000000000000000000000000000000000000000000000000000000000009bbdf8",
          "blockHash": "0xb18d51f5257891a616193a864cb74a6df65e06127723e4c74d130d5852f50406",
          "blockNumber": "0x9bbdee",
          "blockTimestamp": "0x69867990",
          "transactionHash": "0x0b09ca35866ecd478c597f3e2e92b631ef89a26129bd06d9c10506cce9e8b8d2",
          "transactionIndex": "0x4b",
          "logIndex": "0x4e",
          "removed": false
        }
      ],
      "logsBloom": "0x00000000000000000000010000000000000000000000000000000000000000000000000000000000000000800000000000000000000000000000000000000000000000000000000000000000000040000000000000000082000000000000000000400000200000020000000010000000000000000000000000000000000000000000000000000000000000000000000000000000800000000800000800000000000000000000000000000000000000000000000000400000000000000000000000100000000000000000000000000000000000000000000000000000000000000000000000000000000000000001000000000000000000000000000000000000",
      "type": "0x2",
      "transactionHash": "0x0b09ca35866ecd478c597f3e2e92b631ef89a26129bd06d9c10506cce9e8b8d2",
      "transactionIndex": "0x4b",
      "blockHash": "0xb18d51f5257891a616193a864cb74a6df65e06127723e4c74d130d5852f50406",
      "blockNumber": "0x9bbdee",
      "gasUsed": "0x186d9",
      "effectiveGasPrice": "0x38c86247",
      "from": "0x89feeba43b294425c0d7b482770eefbcc1359f8d",
      "to": "0xdc81d28a1721fcde86d79ce26ba3b0bef24c116c",
      "contractAddress": null
    }
  ],
  "libraries": [],
  "pending": [],
  "returns": {},
  "timestamp": 1770420625006,
  "chain": 11155111,
  "commit": "7d255af"
}