{
  "transactions": [
    {
      "hash": "0x3d56083a9ae943ea4d3c8c08da267e57e318f3a7396e0a40470edb0d28a36c51",
      "transactionType": "CALL",
      "contractName": null,
      "contractAddress": "0xdc81d28a1721fcde86d79ce26ba3b0bef24c116c",
      "function": "commit(bytes32,bytes32)",
      "arguments": [
        "0x139c06828b31b487c3bc6d1d34a632ce43d623204cea8cdfe45e8fbc448a02e7",
        "0xa19de0ce9ad3941c919facb2f062a9ba22225ca33673464c6b6e6b0987d78ba3"
      ],
      "transaction": {
        "from": "0x89feeba43b294425c0d7b482770eefbcc1359f8d",
        "to": "0xdc81d28a1721fcde86d79ce26ba3b0bef24c116c",
        "gas": "0x23b9d",
        "value": "0x0",
        "input": "0xe3ce094d139c06828b31b487c3bc6d1d34a632ce43d623204cea8cdfe45e8fbc448a02e7a19de0ce9ad3941c919facb2f062a9ba22225ca33673464c6b6e6b0987d78ba3",
        "nonce": "0x130",
        "chainId": "0xaa36a7"
      },
      "additionalContracts": [],
      "isFixedGasLimit": false
    }
  ],
  "receipts": [
    {
      "status": "0x1",
      "cumulativeGasUsed": "0x60a467",
      "logs": [
        {
          "address": "0xdc81d28a1721fcde86d79ce26ba3b0bef24c116c",
          "topics": [
            "0xc9fb417ce9ee10a86bc8046a24ff15c2c00460856852864cf2bfae9e0b12185a",
            "0x139c06828b31b487c3bc6d1d34a632ce43d623204cea8cdfe45e8fbc448a02e7",
            "0xa19de0ce9ad3941c919facb2f062a9ba22225ca33673464c6b6e6b0987d78ba3",
            "0x00000000000000000000000089feeba43b294425c0d7b482770eefbcc1359f8d"
          ],
          "data": "0x0000000000000000000000000000000000000000000000000000000000000000000000000000000000000000000000000000000000000000000000000000000000000000000000000000000000000000000000000000000000000000009bbe08",
          "blockHash": "0xb86344b1c5a59e80023dc4e4490e0207de336e74cdc09047720e23468126c313",
          "blockNumber": "0x9bbdfe",
          "blockTimestamp": "0x69867a5c",
          "transactionHash": "0x3d56083a9ae943ea4d3c8c08da267e57e318f3a7396e0a40470edb0d28a36c51",
          "transactionIndex": "0x3a",
          "logIndex": "0x52",
          "removed": false
        }
      ],
      "logsBloom": "0x00000000000000000000010000100000000000000100000000000000000000000000000000000000000000000000000000000000000000000000000000000000000000000000000000000000000040000000000000000000000000000000000000400000200000000000000010080000000000000000000000000000000000000000000000000000000000000000000000000000000000000000000800000000000000000000000000000000000000000000000000600100000000000000000000100000000000000000000000000000000000000000000000000000000000000000000000000000000000000001000000000000000000000000000000020000",
      "type": "0x2",
      "transactionHash": "0x3d56083a9ae943ea4d3c8c08da267e57e318f3a7396e0a40470edb0d28a36c51",
      "transactionIndex": "0x3a",
      "blockHash": "0xb86344b1c5a59e80023dc4e4490e0207de336e74cdc09047720e23468126c313",
      "blockNumber": "0x9bbdfe",
      "gasUsed": "0x186d9",
      "effectiveGasPrice": "0x41419d2d",
      "from": "0x89feeba43b294425c0d7b482770eefbcc1359f8d",
      "to": "0xdc81d28a1721fcde86d79ce26ba3b0bef24c116c",
      "contractAddress": null
    }
  ],
  "libraries": [],
  "pending": [],
  "returns": {},
  "timestamp": 1770420822351,
  "chain": 11155111,
  "commit": "7d255af"
}