{
  "transactions": [
    {
      "hash": "0xf69262bccaae1c92a5ca249c3edee20dda33f4d69820a818caace9be7eedd5fc",
      "transactionType": "CALL",
      "contractName": null,
      "contractAddress": "0xfff9976782d46cc05630d1f6ebab18b2324d6b14",
      "function": "approve(address,uint256)",
      "arguments": [
        "0x36b42E07273CD8ECfF1125bF15771AE356F085B1",
        "500000000000000"
      ],
      "transaction": {
        "from": "0x89feeba43b294425c0d7b482770eefbcc1359f8d",
        "to": "0xfff9976782d46cc05630d1f6ebab18b2324d6b14",
        "value": "0x0",
        "input": "0x095ea7b300000000000000000000000036b42e07273cd8ecff1125bf15771ae356f085b10000000000000000000000000000000000000000000000000001c6bf52634000",
        "nonce": "0x103",
        "chainId": "0xaa36a7"
      },
      "additionalContracts": [],
      "isFixedGasLimit": false
    },
    {
      "hash": null,
      "transactionType": "CALL",
      "contractName": null,
      "contractAddress": "0x36b42e07273cd8ecff1125bf15771ae356f085b1",
      "function": "swap((address,address,uint24,int24,address),(bool,int256,uint160),bytes)",
      "arguments": [
        "(0x1c7D4B196Cb0C7B01d743Fbc6116a902379C7238, 0xfFf9976782d46CC05630D1f6eBAb18b2324d6B14, 3000, 60, 0x1846217Bae61BF26612BD8d9a64b970d525B4080)",
        "(false, 500000000000000, 0)",
        "0x9f47b8e973c4f5e129096408d455f6fe71e4b1e20a496b716c27d994c07c33eb0000000000000000000000000000000000000000000000056b9fda90a3750c710000000000000000000000000000000000000000000000000000000000000000"
      ],
      "transaction": {
        "from": "0x89feeba43b294425c0d7b482770eefbcc1359f8d",
        "to": "0x36b42e07273cd8ecff1125bf15771ae356f085b1",
        "value": "0x0",
        "input": "0xf3cd914c0000000000000000000000001c7d4b196cb0c7b01d743fbc6116a902379c7238000000000000000000000000fff9976782d46cc05630d1f6ebab18b2324d6b140000000000000000000000000000000000000000000000000000000000000bb8000000000000000000000000000000000000000000000000000000000000003c0000000000000000000000001846217bae61bf26612bd8d9a64b970d525b408000000000000000000000000000000000000000000000000000000000000000000000000000000000000000000000000000000000000000000001c6bf526340000000000000000000000000000000000000000000000000000000000000000000000000000000000000000000000000000000000000000000000000000000012000000000000000000000000000000000000000000000000000000000000000609f47b8e973c4f5e129096408d455f6fe71e4b1e20a496b716c27d994c07c33eb0000000000000000000000000000000000000000000000056b9fda90a3750c710000000000000000000000000000000000000000000000000000000000000000",
        "nonce": "0x104",
        "chainId": "0xaa36a7"
      },
      "additionalContracts": [],
      "isFixedGasLimit": false
    }
  ],
  "receipts": [
    {
      "status": "0x1",
      "cumulativeGasUsed": "0xaf26e3",
      "logs": [
        {
          "address": "0xfff9976782d46cc05630d1f6ebab18b2324d6b14",
          "topics": [
            "0x8c5be1e5ebec7d5bd14f71427d1e84f3dd0314c0f7b2291e5b200ac8c7c3b925",
            "0x00000000000000000000000089feeba43b294425c0d7b482770eefbcc1359f8d",
            "0x00000000000000000000000036b42e07273cd8ecff1125bf15771ae356f085b1"
          ],
          "data": "0x0000000000000000000000000000000000000000000000000001c6bf52634000",
          "blockHash": "0x6e3e917f9b7a666fa49aee52cdc748101f530b03355836204e9e5d37f7eb13eb",
          "blockNumber": "0x9bb6a0",
          "blockTimestamp": "0x69861f84",
          "transactionHash": "0xf69262bccaae1c92a5ca249c3edee20dda33f4d69820a818caace9be7eedd5fc",
          "transactionIndex": "0x44",
          "logIndex": "0x6a",
          "removed": false
        }
      ],
      "logsBloom": "0x00000000000000000000000000000000000004000000000000000000000000000000000000000000000000040000000000000000000000000000000000200000000000000000000000000000000040000000000000000000000000000000000000000000000000000000000010000000000000000000000000000000000000000040000000000000000000000000000000000000000000000000000000000000020020000000000000000000000000000000000000000000000000000000000000100008000000000002000000000000000000000000000000000000000000000010000000000000000000000000000000000000000000000000000000000000",
      "type": "0x2",
      "transactionHash": "0xf69262bccaae1c92a5ca249c3edee20dda33f4d69820a818caace9be7eedd5fc",
      "transactionIndex": "0x44",
      "blockHash": "0x6e3e917f9b7a666fa49aee52cdc748101f530b03355836204e9e5d37f7eb13eb",
      "blockNumber": "0x9bb6a0",
      "gasUsed": "0x6628",
      "effectiveGasPrice": "0x3f714a23",
      "from": "0x89feeba43b294425c0d7b482770eefbcc1359f8d",
      "to": "0xfff9976782d46cc05630d1f6ebab18b2324d6b14",
      "contractAddress": null
    }
  ],
  "libraries": [],
  "pending": [],
  "returns": {},
  "timestamp": 1770397582996,
  "chain": 11155111,
  "commit": "58e7602"
}