{
  "transactions": [
    {
      "hash": "0x0cff820fd6938ff921f25b50d6fd5ed9f32b332a8e88ca92b37baa62774331c8",
      "transactionType": "CALL",
      "contractName": null,
      "contractAddress": "0xdc81d28a1721fcde86d79ce26ba3b0bef24c116c",
      "function": "commit(bytes32,bytes32)",
      "arguments": [
        "0x9f47b8e973c4f5e129096408d455f6fe71e4b1e20a496b716c27d994c07c33eb",
        "0x519938f08ba827ceb040275f22e46d45f00f0bf63fd5bacefd0ada99513f13b5"
      ],
      "transaction": {
        "from": "0x89feeba43b294425c0d7b482770eefbcc1359f8d",
        "to": "0xdc81d28a1721fcde86d79ce26ba3b0bef24c116c",
        "value": "0x0",
        "input": "0xe3ce094d9f47b8e973c4f5e129096408d455f6fe71e4b1e20a496b716c27d994c07c33eb519938f08ba827ceb040275f22e46d45f00f0bf63fd5bacefd0ada99513f13b5",
        "nonce": "0x101",
        "chainId": "0xaa36a7"
      },
      "additionalContracts": [],
      "isFixedGasLimit": false
    }
  ],
  "receipts": [
    {
      "status": "0x1",
      "cumulativeGasUsed": "0x5fb906",
      "logs": [
        {
          "address": "0xdc81d28a1721fcde86d79ce26ba3b0bef24c116c",
          "topics": [
            "0xc9fb417ce9ee10a86bc8046a24ff15c2c00460856852864cf2bfae9e0b12185a",
            "0x9f47b8e973c4f5e129096408d455f6fe71e4b1e20a496b716c27d994c07c33eb",
            "0x519938f08ba827ceb040275f22e46d45f00f0bf63fd5bacefd0ada99513f13b5",
            "0x00000000000000000000000089feeba43b294425c0d7b482770eefbcc1359f8d"
          ],
          "data": "0x0000000000000000000000000000000000000000000000000000000000000000000000000000000000000000000000000000000000000000000000000000000000000000000000000000000000000000000000000000000000000000009bb698",
          "blockHash": "0x9301e95c606601bde0dc848cb6ecf1ca2dd9d5e076886edb01d34567ab73fdad",
          "blockNumber": "0x9bb68e",
          "blockTimestamp": "0x69861eac",
          "transactionHash": "0x0cff820fd6938ff921f25b50d6fd5ed9f32b332a8e88ca92b37baa62774331c8",
          "transactionIndex": "0x43",
          "logIndex": "0x70",
          "removed": false
        }
      ],
      "logsBloom": "0x00000000000000080000010000000000000000000000000000000000000000000000000000000000000000000000000000000000000000000000000000000000000010000000000000000000000040000000000000000000000000000000000000400000200000000000000010000000000000000000000000000000000000000000000000000000000000000000000000000000000000000000000800000002000000000000000000000000000000000000000000400000000000000000000000100000000000000000000000000000000000000000000000000000000000000000000080000000000000000001000000000000000000001000000000000010",
      "type": "0x2",
      "transactionHash": "0x0cff820fd6938ff921f25b50d6fd5ed9f32b332a8e88ca92b37baa62774331c8",
      "transactionIndex": "0x43",
      "blockHash": "0x9301e95c606601bde0dc848cb6ecf1ca2dd9d5e076886edb01d34567ab73fdad",
      "blockNumber": "0x9bb68e",
      "gasUsed": "0x186d9",
      "effectiveGasPrice": "0x3df8d27f",
      "from": "0x89feeba43b294425c0d7b482770eefbcc1359f8d",
      "to": "0xdc81d28a1721fcde86d79ce26ba3b0bef24c116c",
      "contractAddress": null
    }
  ],
  "libraries": [],
  "pending": [],
  "returns": {},
  "timestamp": 1770397356731,
  "chain": 11155111,
  "commit": "58e7602"
}