{
  "transactions": [
    {
      "hash": "0xabde8c8dbae61294f4f9e6d6e18e858a103d247f50218e1df9b5640ebf270191",
      "transactionType": "CALL",
      "contractName": "CommitStore",
      "contractAddress": "0xdc81d28a1721fcde86d79ce26ba3b0bef24c116c",
      "function": "commit(bytes32,bytes32)",
      "arguments": [
        "0x4f1cbde23167f340c464b92aac76480ebb6aa0b8df318d693f65dbe3311d141a",
        "0x3e09a595bf4d26a78955ae2554f12d54683724621d43aa3a827a127e911cd1ba"
      ],
      "transaction": {
        "from": "0x89feeba43b294425c0d7b482770eefbcc1359f8d",
        "to": "0xdc81d28a1721fcde86d79ce26ba3b0bef24c116c",
        "gas": "0x23b9d",
        "value": "0x0",
        "input": "0xe3ce094d4f1cbde23167f340c464b92aac76480ebb6aa0b8df318d693f65dbe3311d141a3e09a595bf4d26a78955ae2554f12d54683724621d43aa3a827a127e911cd1ba",
        "nonce": "0x1ab",
        "chainId": "0xaa36a7"
      },
      "additionalContracts": [],
      "isFixedGasLimit": false
    }
  ],
  "receipts": [
    {
      "status": "0x1",
      "cumulativeGasUsed": "0x402a94",
      "logs": [
        {
          "address": "0xdc81d28a1721fcde86d79ce26ba3b0bef24c116c",
          "topics": [
            "0xc9fb417ce9ee10a86bc8046a24ff15c2c00460856852864cf2bfae9e0b12185a",
            "0x4f1cbde23167f340c464b92aac76480ebb6aa0b8df318d693f65dbe3311d141a",
            "0x3e09a595bf4d26a78955ae2554f12d54683724621d43aa3a827a127e911cd1ba",
            "0x00000000000000000000000089feeba43b294425c0d7b482770eefbcc1359f8d"
          ],
          "data": "0x0000000000000000000000000000000000000000000000000000000000000000000000000000000000000000000000000000000000000000000000000000000000000000000000000000000000000000000000000000000000000000009bd48f",
          "blockHash": "0x5a6f558e9f5913d215fc3fd7c83e03b702173a929185621e85ba0d8570cf2ae8",
          "blockNumber": "0x9bd485",
          "blockTimestamp": "0x698790b4",
          "transactionHash": "0xabde8c8dbae61294f4f9e6d6e18e858a103d247f50218e1df9b5640ebf270191",
          "transactionIndex": "0x33",
          "logIndex": "0x68",
          "removed": false
        }
      ],
      "logsBloom": "0x00000000000000000000010000000000000000000000000000000000000000000000000000000000000000000000000000000000000000000000000000000000000000000000000000000000000044000000000000000000000000000200000000400000200000000000000010000100000000000000000000000000000040000000000000000000000000000000000000000000000000000000000800000000080000000000000000000000000000000040000000400000000000000000000000100000000000000000000000000000000000000000000000000000000000000000000000000000000000000001000000000000000000000000000000000000",
      "type": "0x2",
      "transactionHash": "0xabde8c8dbae61294f4f9e6d6e18e858a103d247f50218e1df9b5640ebf270191",
      "transactionIndex": "0x33",
      "blockHash": "0x5a6f558e9f5913d215fc3fd7c83e03b702173a929185621e85ba0d8570cf2ae8",
      "blockNumber": "0x9bd485",
      "gasUsed": "0x186d9",
      "effectiveGasPrice": "0x41cf3181",
      "from": "0x89feeba43b294425c0d7b482770eefbcc1359f8d",
      "to": "0xdc81d28a1721fcde86d79ce26ba3b0bef24c116c",
      "contractAddress": null
    }
  ],
  "libraries": [],
  "pending": [],
  "returns": {},
  "timestamp": 1770492080240,
  "chain": 11155111,
  "commit": "76b30e7"
}