{
  "transactions": [
    {
      "hash": "0xdebce5373482cac19a85f0486d39613ac73a6b705dbece61cd77e3565eee2789",
      "transactionType": "CALL",
      "contractName": "CommitStore",
      "contractAddress": "0xdc81d28a1721fcde86d79ce26ba3b0bef24c116c",
      "function": "commit(bytes32,bytes32)",
      "arguments": [
        "0x3acbd542a6cbad79cb5bd5a7013dceb5c38eb71e80cd25e537f8fef97a924449",
        "0xe546b0a52c2879744f6def0fb483d581dc6d205de83af8440456804dd8b62380"
      ],
      "transaction": {
        "from": "0x89feeba43b294425c0d7b482770eefbcc1359f8d",
        "to": "0xdc81d28a1721fcde86d79ce26ba3b0bef24c116c",
        "gas": "0x23b9d",
        "value": "0x0",
        "input": "0xe3ce094d3acbd542a6cbad79cb5bd5a7013dceb5c38eb71e80cd25e537f8fef97a924449e546b0a52c2879744f6def0fb483d581dc6d205de83af8440456804dd8b62380",
        "nonce": "0x1a7",
        "chainId": "0xaa36a7"
      },
      "additionalContracts": [],
      "isFixedGasLimit": false
    }
  ],
  "receipts": [
    {
      "status": "0x1",
      "cumulativeGasUsed": "0x37bf463",
      "logs": [
        {
          "address": "0xdc81d28a1721fcde86d79ce26ba3b0bef24c116c",
          "topics": [
            "0xc9fb417ce9ee10a86bc8046a24ff15c2c00460856852864cf2bfae9e0b12185a",
            "0x3acbd542a6cbad79cb5bd5a7013dceb5c38eb71e80cd25e537f8fef97a924449",
            "0xe546b0a52c2879744f6def0fb483d581dc6d205de83af8440456804dd8b62380",
            "0x00000000000000000000000089feeba43b294425c0d7b482770eefbcc1359f8d"
          ],
          "data": "0x0000000000000000000000000000000000000000000000000000000000000000000000000000000000000000000000000000000000000000000000000000000000000000000000000000000000000000000000000000000000000000009bd238",
          "blockHash": "0x3651478f08960f1b09a8c79908cb8c3403056ef134c28d1721589bbe02cc0b59",
          "blockNumber": "0x9bd22e",
          "blockTimestamp": "0x698773b0",
          "transactionHash": "0xdebce5373482cac19a85f0486d39613ac73a6b705dbece61cd77e3565eee2789",
          "transactionIndex": "0x76",
          "logIndex": "0xc8",
          "removed": false
        }
      ],
      "logsBloom": "0x00000000000000000000010000000000000000000000000000000000000000000000000000000000000000000000000000000200000000000000000000000000000000000000000000000000020040000000000000000000000000000100000000400000200000000000000010000000000000000000000000004000000000000000000000000000000000000000000000000000000000000000040800000000000000000000000000000000000000000000000000400000000000000000000000100000000000000000000000000000000000000000000000000000000000000000000000000000000000000401000000000000000000000000000000000000",
      "type": "0x2",
      "transactionHash": "0xdebce5373482cac19a85f0486d39613ac73a6b705dbece61cd77e3565eee2789",
      "transactionIndex": "0x76",
      "blockHash": "0x3651478f08960f1b09a8c79908cb8c3403056ef134c28d1721589bbe02cc0b59",
      "blockNumber": "0x9bd22e",
      "gasUsed": "0x186d9",
      "effectiveGasPrice": "0x3b922bb9",
      "from": "0x89feeba43b294425c0d7b482770eefbcc1359f8d",
      "to": "0xdc81d28a1721fcde86d79ce26ba3b0bef24c116c",
      "contractAddress": null
    }
  ],
  "libraries": [],
  "pending": [],
  "returns": {},
  "timestamp": 1770484656849,
  "chain": 11155111,
  "commit": "76b30e7"
}