{
  "transactions": [
    {
      "hash": "0x632e9a84793bd071a42ae57c639ff110b90bb53292e05ce8f0b1a531901710ca",
      "transactionType": "CALL",
      "contractName": "CommitStore",
      "contractAddress": "0xdc81d28a1721fcde86d79ce26ba3b0bef24c116c",
      "function": "commit(bytes32,bytes32)",
      "arguments": [
        "0x486d5a18ed404cc99e40c63cce812f89c47878cbf34924c668ebdcb9f6d358e3",
        "0x0ffd5232084ebd23462dd671adb79dab085267215c4290f49cffc8d92378bde6"
      ],
      "transaction": {
        "from": "0x89feeba43b294425c0d7b482770eefbcc1359f8d",
        "to": "0xdc81d28a1721fcde86d79ce26ba3b0bef24c116c",
        "gas": "0x23b9d",
        "value": "0x0",
        "input": "0xe3ce094d486d5a18ed404cc99e40c63cce812f89c47878cbf34924c668ebdcb9f6d358e30ffd5232084ebd23462dd671adb79dab085267215c4290f49cffc8d92378bde6",
        "nonce": "0x1aa",
        "chainId": "0xaa36a7"
      },
      "additionalContracts": [],
      "isFixedGasLimit": false
    }
  ],
  "receipts": [
    {
      "status": "0x1",
      "cumulativeGasUsed": "0xb674f7",
      "logs": [
        {
          "address": "0xdc81d28a1721fcde86d79ce26ba3b0bef24c116c",
          "topics": [
            "0xc9fb417ce9ee10a86bc8046a24ff15c2c00460856852864cf2bfae9e0b12185a",
            "0x486d5a18ed404cc99e40c63cce812f89c47878cbf34924c668ebdcb9f6d358e3",
            "0x0ffd5232084ebd23462dd671adb79dab085267215c4290f49cffc8d92378bde6",
            "0x00000000000000000000000089feeba43b294425c0d7b482770eefbcc1359f8d"
          ],
          "data": "0x0000000000000000000000000000000000000000000000000000000000000000000000000000000000000000000000000000000000000000000000000000000000000000000000000000000000000000000000000000000000000000009bd30d",
          "blockHash": "0x312a73d556275ed374fd5e2030e4138f4ccb262f24dc6975b06c57627b9a374c",
          "blockNumber": "0x9bd303",
          "blockTimestamp": "0x69877e3c",
          "transactionHash": "0x632e9a84793bd071a42ae57c639ff110b90bb53292e05ce8f0b1a531901710ca",
          "transactionIndex": "0x70",
          "logIndex": "0xd9",
          "removed": false
        }
      ],
      "logsBloom": "0x00000000000400000000010000000000000000000000000000000000000000000000000000000000000000000000000000000000000000000000000100000000000000000000000000000000000040000000000000000000000000000000000000480000200000000000000010000000000000000000000000000000000000000000000000000000000000000000000000000000000000000000000800000000000000000000000000000040000040002000000000400000000000000000000000100000000000000000000000000000000000000000000000000000000000000000000000000000000000000001000000000000000000000000000000000000",
      "type": "0x2",
      "transactionHash": "0x632e9a84793bd071a42ae57c639ff110b90bb53292e05ce8f0b1a531901710ca",
      "transactionIndex": "0x70",
      "blockHash": "0x312a73d556275ed374fd5e2030e4138f4ccb262f24dc6975b06c57627b9a374c",
      "blockNumber": "0x9bd303",
      "gasUsed": "0x186d9",
      "effectiveGasPrice": "0x3e3a0100",
      "from": "0x89feeba43b294425c0d7b482770eefbcc1359f8d",
      "to": "0xdc81d28a1721fcde86d79ce26ba3b0bef24c116c",
      "contractAddress": null
    }
  ],
  "libraries": [],
  "pending": [],
  "returns": {},
  "timestamp": 1770487355248,
  "chain": 11155111,
  "commit": "76b30e7"
}