{
  "transactions": [
    {
      "hash": "0x57c077189600f1be2e6265691f4b763d289b9dbd4f1b666646171b68dedbe6df",
      "transactionType": "CALL",
      "contractName": null,
      "contractAddress": "0xfff9976782d46cc05630d1f6ebab18b2324d6b14",
      "function": "approve(address,uint256)",
      "arguments": [
        "0x035c8980b8FdAcd324bEf3c17a67CCd6Eb32BaCC",
        "1000000000000000"
      ],
      "transaction": {
        "from": "0x89feeba43b294425c0d7b482770eefbcc1359f8d",
        "to": "0xfff9976782d46cc05630d1f6ebab18b2324d6b14",
        "gas": "0xf879",
        "value": "0x0",
        "input": "0x095ea7b3000000000000000000000000035c8980b8fdacd324bef3c17a67ccd6eb32bacc00000000000000000000000000000000000000000000000000038d7ea4c68000",
        "nonce": "0x1a8",
        "chainId": "0xaa36a7"
      },
      "additionalContracts": [],
      "isFixedGasLimit": false
    },
    {
      "hash": "0x522609b925dea8c1e99d68d85ed7517c02fdfcb48399569012bb6b756923c8d9",
      "transactionType": "CALL",
      "contractName": null,
      "contractAddress": "0x035c8980b8fdacd324bef3c17a67ccd6eb32bacc",
      "function": "swap((address,address,uint24,int24,address),(bool,int256,uint160),bytes)",
      "arguments": [
        "(0x1c7D4B196Cb0C7B01d743Fbc6116a902379C7238, 0xfFf9976782d46CC05630D1f6eBAb18b2324d6B14, 500, 10, 0x1846217Bae61BF26612BD8d9a64b970d525B4080)",
        "(false, -1000000000000000, 1461446703485210103287273052203988822378723970341)",
        "0x3acbd542a6cbad79cb5bd5a7013dceb5c38eb71e80cd25e537f8fef97a92444900000000000000000000000000000000000000000000000000000000000030390000000000000000000000000000000000000000000000000000000000000000"
      ],
      "transaction": {
        "from": "0x89feeba43b294425c0d7b482770eefbcc1359f8d",
        "to": "0x035c8980b8fdacd324bef3c17a67ccd6eb32bacc",
        "gas": "0x2c74b3",
        "value": "0x0",
        "input": "0xf3cd914c0000000000000000000000001c7d4b196cb0c7b01d743fbc6116a902379c7238000000000000000000000000fff9976782d46cc05630d1f6ebab18b2324d6b1400000000000000000000000000000000000000000000000000000000000001f4000000000000000000000000000000000000000000000000000000000000000a0000000000000000000000001846217bae61bf26612bd8d9a64b970d525b40800000000000000000000000000000000000000000000000000000000000000000fffffffffffffffffffffffffffffffffffffffffffffffffffc72815b398000000000000000000000000000fffd8963efd1fc6a506488495d951d5263988d25000000000000000000000000000000000000000000000000000000000000012000000000000000000000000000000000000000000000000000000000000000603acbd542a6cbad79cb5bd5a7013dceb5c38eb71e80cd25e537f8fef97a92444900000000000000000000000000000000000000000000000000000000000030390000000000000000000000000000000000000000000000000000000000000000",
        "nonce": "0x1a9",
        "chainId": "0xaa36a7"
      },
      "additionalContracts": [],
      "isFixedGasLimit": false
    }
  ],
  "receipts": [
    {
      "status": "0x1",
      "cumulativeGasUsed": "0x38e748f",
      "logs": [
        {
          "address": "0xfff9976782d46cc05630d1f6ebab18b2324d6b14",
          "topics": [
            "0x8c5be1e5ebec7d5bd14f71427d1e84f3dd0314c0f7b2291e5b200ac8c7c3b925",
            "0x00000000000000000000000089feeba43b294425c0d7b482770eefbcc1359f8d",
            "0x000000000000000000000000035c8980b8fdacd324bef3c17a67ccd6eb32bacc"
          ],
          "data": "0x00000000000000000000000000000000000000000000000000038d7ea4c68000",
          "blockHash": "0xbced4a8ca847fe099280d72f8d2bb64e9f41d672d903ea11fddab3583f3a84d9",
          "blockNumber": "0x9bd240",
          "blockTimestamp": "0x69877494",
          "transactionHash": "0x522609b925dea8c1e99d68d85ed7517c02fdfcb48399569012bb6b756923c8d9",
          "transactionIndex": "0x58",
          "logIndex": "0xa8",
          "removed": false
        }
      ],
      "logsBloom": "0x00000000000000000000000000000000000004000000000080000000000000000000000000000000000000000000000000000000000000000000000000200000000000000000000000000000000040000000000000000000000000000000000000000000000000400000000010000000000000000000000000000000000000000040000000000000000000000000000000000000000000000000000000000000020020000000000000000000000000000000000000000000000000000000000000100000000000000002000000000000000000000000000000000000000000000010000000000000000000000000000000000000000000000000000000000000",
      "type": "0x2",
      "transactionHash": "0x522609b925dea8c1e99d68d85ed7517c02fdfcb48399569012bb6b756923c8d9",
      "transactionIndex": "0x58",
      "blockHash": "0xbced4a8ca847fe099280d72f8d2bb64e9f41d672d903ea11fddab3583f3a84d9",
      "blockNumber": "0x9bd240",
      "gasUsed": "0xb3e4",
      "effectiveGasPrice": "0x39fec140",
      "from": "0x89feeba43b294425c0d7b482770eefbcc1359f8d",
      "to": "0xfff9976782d46cc05630d1f6ebab18b2324d6b14",
      "contractAddress": null
    },
    {
      "status": "0x1",
      "cumulativeGasUsed": "0xb7a60d",
      "logs": [
        {
          "address": "0xdc81d28a1721fcde86d79ce26ba3b0bef24c116c",
          "topics": [
            "0x7b385b5200328cf45dc066799088049ff05a3e927e69ae5bb7174fc03f2c3ea9",
            "0x3acbd542a6cbad79cb5bd5a7013dceb5c38eb71e80cd25e537f8fef97a924449",
            "0x0000000000000000000000000000000000000000000000000000000000000000"
          ],
          "data": "0x00000000000000000000000000000000000000000000000000038d7ea4c680000000000000000000000000000000000000000000000000000000000000000000",
          "blockHash": "0xb58f2acad129a4b61f0123386adcb783bf2b4fc1dfc551046e28c43f8f5d33ca",
          "blockNumber": "0x9bd241",
          "blockTimestamp": "0x698774a0",
          "transactionHash": "0x57c077189600f1be2e6265691f4b763d289b9dbd4f1b666646171b68dedbe6df",
          "transactionIndex": "0x41",
          "logIndex": "0x64",
          "removed": false
        },
        {
          "address": "0x1846217bae61bf26612bd8d9a64b970d525b4080",
          "topics": [
            "0x598946b72864d354c0c2446db5ce069b2e08419b77363d83941ca20ec62487d7",
            "0x3acbd542a6cbad79cb5bd5a7013dceb5c38eb71e80cd25e537f8fef97a924449"
          ],
          "data": "0x00000000000000000000000000000000000000000000000000038d7ea4c680000000000000000000000000000000000000000000000000000000000000000000",
          "blockHash": "0xb58f2acad129a4b61f0123386adcb783bf2b4fc1dfc551046e28c43f8f5d33ca",
          "blockNumber": "0x9bd241",
          "blockTimestamp": "0x698774a0",
          "transactionHash": "0x57c077189600f1be2e6265691f4b763d289b9dbd4f1b666646171b68dedbe6df",
          "transactionIndex": "0x41",
          "logIndex": "0x65",
          "removed": false
        },
        {
          "address": "0xe03a1074c86cfedd5c142c4f04f1a1536e203543",
          "topics": [
            "0x40e9cecb9f5f1f1c5b9c97dec2917b7ee92e57ba5563708daca94dd84ad7112f",
            "0xbbeeed419e1b5d489deb6e7342eb7289114a0da87907943c38d297de36e940e6",
            "0x000000000000000000000000035c8980b8fdacd324bef3c17a67ccd6eb32bacc"
          ],
          "data": "0x00000000000000000000000000000000000000000000000000000000000000000000000000000000000000000000000000000000000000000000000000000000000000000000000000000000fffd8963efd1fc6a506488495d951d5263988d25000000000000000000000000000000000000000000000000000000000000000000000000000000000000000000000000000000000000000000000000000d89e700000000000000000000000000000000000000000000000000000000000001f4",
          "blockHash": "0xb58f2acad129a4b61f0123386adcb783bf2b4fc1dfc551046e28c43f8f5d33ca",
          "blockNumber": "0x9bd241",
          "blockTimestamp": "0x698774a0",
          "transactionHash": "0x57c077189600f1be2e6265691f4b763d289b9dbd4f1b666646171b68dedbe6df",
          "transactionIndex": "0x41",
          "logIndex": "0x66",
          "removed": false
        },
        {
          "address": "0x035c8980b8fdacd324bef3c17a67ccd6eb32bacc",
          "topics": [
            "0x8107d3c00048e48dab2cb830fd6a855aa1933995a5cd6bebf6b7de2e9732d1e8",
            "0x00000000000000000000000089feeba43b294425c0d7b482770eefbcc1359f8d"
          ],
          "data": "0x00000000000000000000000000000000000000000000000000000000000000000000000000000000000000000000000000000000000000000000000000000000",
          "blockHash": "0xb58f2acad129a4b61f0123386adcb783bf2b4fc1dfc551046e28c43f8f5d33ca",
          "blockNumber": "0x9bd241",
          "blockTimestamp": "0x698774a0",
          "transactionHash": "0x57c077189600f1be2e6265691f4b763d289b9dbd4f1b666646171b68dedbe6df",
          "transactionIndex": "0x41",
          "logIndex": "0x67",
          "removed": false
        }
      ],
      "logsBloom": "0x00000000000000000100010000000000000006000000000080000000000000000000000000000000000000000008000000000300040000000000000000000000000000000000000000000000020040020000000000000030000000000000000000400000020000400000000010000800020000000000100000000000000000010000000040004000000000000001000000000000100000000000000000000000000000000000000000000000000000000000000000400000200000000000000000100000000000000000000000000000000000000000000000000000000028001000000000000000004000100400404000000004000000000000000000000000",
      "type": "0x2",
      "transactionHash": "0x57c077189600f1be2e6265691f4b763d289b9dbd4f1b666646171b68dedbe6df",
      "transactionIndex": "0x41",
      "blockHash": "0xb58f2acad129a4b61f0123386adcb783bf2b4fc1dfc551046e28c43f8f5d33ca",
      "blockNumber": "0x9bd241",
      "gasUsed": "0x202f6d",
      "effectiveGasPrice": "0x411f588a",
      "from": "0x89feeba43b294425c0d7b482770eefbcc1359f8d",
      "to": "0x035c8980b8fdacd324bef3c17a67ccd6eb32bacc",
      "contractAddress": null
    }
  ],
  "libraries": [],
  "pending": [],
  "returns": {},
  "timestamp": 1770484895782,
  "chain": 11155111,
  "commit": "76b30e7"
}