{
  "transactions": [
    {
      "hash": "0xb6a2347ce97b6f6a18a509e183ee0c60529acf36a8098b80ef431c09f6b22c35",
      "transactionType": "CALL",
      "contractName": null,
      "contractAddress": "0xdc81d28a1721fcde86d79ce26ba3b0bef24c116c",
      "function": "commit(bytes32,bytes32)",
      "arguments": [
        "0x7fcee8ebe16e7f711e37eb6a190301ffa60e0289cb1b3c7cd1cd7792f1e95ead",
        "0x65d51edd30b41d4edd5054e8d004e53206afbc264fa560c4ff308abbf08f96e0"
      ],
      "transaction": {
        "from": "0x89feeba43b294425c0d7b482770eefbcc1359f8d",
        "to": "0xdc81d28a1721fcde86d79ce26ba3b0bef24c116c",
        "gas": "0x23b9d",
        "value": "0x0",
        "input": "0xe3ce094d7fcee8ebe16e7f711e37eb6a190301ffa60e0289cb1b3c7cd1cd7792f1e95ead65d51edd30b41d4edd5054e8d004e53206afbc264fa560c4ff308abbf08f96e0",
        "nonce": "0x12d",
        "chainId": "0xaa36a7"
      },
      "additionalContracts": [],
      "isFixedGasLimit": false
    }
  ],
  "receipts": [
    {
      "status": "0x1",
      "cumulativeGasUsed": "0x77f8c5",
      "logs": [
        {
          "address": "0xdc81d28a1721fcde86d79ce26ba3b0bef24c116c",
          "topics": [
            "0xc9fb417ce9ee10a86bc8046a24ff15c2c00460856852864cf2bfae9e0b12185a",
            "0x7fcee8ebe16e7f711e37eb6a190301ffa60e0289cb1b3c7cd1cd7792f1e95ead",
            "0x65d51edd30b41d4edd5054e8d004e53206afbc264fa560c4ff308abbf08f96e0",
            "0x00000000000000000000000089feeba43b294425c0d7b482770eefbcc1359f8d"
          ],
          "data": "0x0000000000000000000000000000000000000000000000000000000000000000000000000000000000000000000000000000000000000000000000000000000000000000000000000000000000000000000000000000000000000000009bbdbc",
          "blockHash": "0xb5193246c52c9fab7fa15c609a1442d3fa7cae48e9b9d7c8fd4320a4250bb690",
          "blockNumber": "0x9bbdb2",
          "blockTimestamp": "0x698676b4",
          "transactionHash": "0xb6a2347ce97b6f6a18a509e183ee0c60529acf36a8098b80ef431c09f6b22c35",
          "transactionIndex": "0x2e",
          "logIndex": "0x42",
          "removed": false
        }
      ],
      "logsBloom": "0x00000000000000000000010000000000000000000400000000000000000000000000000000000000000000000000000000000000000000000000000000000000000000000000000000000000000040000000000000000400000000000000000000400000200000000000000010000000000000000000000000000000000000000000000000000000000000000000000000000000000000000000000800000100000000000000000000000000000000000000000000400000002000000000000000100100000000000000000000000000000000000000000000000000000000000000000000000000000000000001000000000002000000000000000000000000",
      "type": "0x2",
      "transactionHash": "0xb6a2347ce97b6f6a18a509e183ee0c60529acf36a8098b80ef431c09f6b22c35",
      "transactionIndex": "0x2e",
      "blockHash": "0xb5193246c52c9fab7fa15c609a1442d3fa7cae48e9b9d7c8fd4320a4250bb690",
      "blockNumber": "0x9bbdb2",
      "gasUsed": "0x186d9",
      "effectiveGasPrice": "0x3c31ce65",
      "from": "0x89feeba43b294425c0d7b482770eefbcc1359f8d",
      "to": "0xdc81d28a1721fcde86d79ce26ba3b0bef24c116c",
      "contractAddress": null
    }
  ],
  "libraries": [],
  "pending": [],
  "returns": {},
  "timestamp": 1770419888145,
  "chain": 11155111,
  "commit": "7d255af"
}