{
  "transactions": [
    {
      "hash": "0xcb938d46df40ffd25f08342e82623171d1c33b05c4cc2ed4f7f7e21551d2f61e",
      "transactionType": "CALL",
      "contractName": null,
      "contractAddress": "0xdc81d28a1721fcde86d79ce26ba3b0bef24c116c",
      "function": "commit(bytes32,bytes32)",
      "arguments": [
        "0x610452283ed109877c1d94f249081c51fe917e0065076aaed3f5aa3adfd48ac4",
        "0x5c7216b56b54fb178f4254b1f117c6678cef07c46731461d00fb41e30120ded9"
      ],
      "transaction": {
        "from": "0x89feeba43b294425c0d7b482770eefbcc1359f8d",
        "to": "0xdc81d28a1721fcde86d79ce26ba3b0bef24c116c",
        "gas": "0x23b7a",
        "value": "0x0",
        "input": "0xe3ce094d610452283ed109877c1d94f249081c51fe917e0065076aaed3f5aa3adfd48ac45c7216b56b54fb178f4254b1f117c6678cef07c46731461d00fb41e30120ded9",
        "nonce": "0x142",
        "chainId": "0xaa36a7"
      },
      "additionalContracts": [],
      "isFixedGasLimit": false
    }
  ],
  "receipts": [
    {
      "status": "0x1",
      "cumulativeGasUsed": "0x326eb0",
      "logs": [
        {
          "address": "0xdc81d28a1721fcde86d79ce26ba3b0bef24c116c",
          "topics": [
            "0xc9fb417ce9ee10a86bc8046a24ff15c2c00460856852864cf2bfae9e0b12185a",
            "0x610452283ed109877c1d94f249081c51fe917e0065076aaed3f5aa3adfd48ac4",
            "0x5c7216b56b54fb178f4254b1f117c6678cef07c46731461d00fb41e30120ded9",
            "0x00000000000000000000000089feeba43b294425c0d7b482770eefbcc1359f8d"
          ],
          "data": "0x0000000000000000000000000000000000000000000000000000000000000000000000000000000000000000000000000000000000000000000000000000000000000000000000000000000000000000000000000000000000000000009bbf21",
          "blockHash": "0x124417887ac8a0329c9f2fe6d7d2b025d0c2e471ae6262a4cdd173c55fc2ddd5",
          "blockNumber": "0x9bbf17",
          "blockTimestamp": "0x698687d0",
          "transactionHash": "0xcb938d46df40ffd25f08342e82623171d1c33b05c4cc2ed4f7f7e21551d2f61e",
          "transactionIndex": "0x2e",
          "logIndex": "0x23",
          "removed": false
        }
      ],
      "logsBloom": "0x00000000000000000000018000000000000000000000000000000000000000000000000000000000000000000000000000000000000000000000000000000000000000000000000000000001000040000000000000000000000000000000000000400000200000000000000010000000000000000000000000000000000000000000000000000000000000000000000000000000000000000000000800000000000000000000000000000000000000000000000000400000000000000000000001100000000000000000000000002000000000000000000000000000000000000000000000020000000000000001000000000000000000000000000000000000",
      "type": "0x2",
      "transactionHash": "0xcb938d46df40ffd25f08342e82623171d1c33b05c4cc2ed4f7f7e21551d2f61e",
      "transactionIndex": "0x2e",
      "blockHash": "0x124417887ac8a0329c9f2fe6d7d2b025d0c2e471ae6262a4cdd173c55fc2ddd5",
      "blockNumber": "0x9bbf17",
      "gasUsed": "0x186c1",
      "effectiveGasPrice": "0x3de51691",
      "from": "0x89feeba43b294425c0d7b482770eefbcc1359f8d",
      "to": "0xdc81d28a1721fcde86d79ce26ba3b0bef24c116c",
      "contractAddress": null
    }
  ],
  "libraries": [],
  "pending": [],
  "returns": {},
  "timestamp": 1770424271037,
  "chain": 11155111,
  "commit": "7d255af"
}