{
  "transactions": [
    {
      "hash": "0x80b559cec5e1f2e0b044c7680c7791d463838ec752decc39da9e4e55c7271190",
      "transactionType": "CALL",
      "contractName": null,
      "contractAddress": "0xdc81d28a1721fcde86d79ce26ba3b0bef24c116c",
      "function": "commit(bytes32,bytes32)",
      "arguments": [
        "0x9bda0204e70e8e20a9f1b62db7f7430863c03338e023942e2d46981b2bc8e3aa",
        "0x440d5d7754b0c6c509ef4b63ca7252f61fe13f0a3b0c4c9740ca850109ae4c10"
      ],
      "transaction": {
        "from": "0x89feeba43b294425c0d7b482770eefbcc1359f8d",
        "to": "0xdc81d28a1721fcde86d79ce26ba3b0bef24c116c",
        "gas": "0x23b9d",
        "value": "0x0",
        "input": "0xe3ce094d9bda0204e70e8e20a9f1b62db7f7430863c03338e023942e2d46981b2bc8e3aa440d5d7754b0c6c509ef4b63ca7252f61fe13f0a3b0c4c9740ca850109ae4c10",
        "nonce": "0x143",
        "chainId": "0xaa36a7"
      },
      "additionalContracts": [],
      "isFixedGasLimit": false
    }
  ],
  "receipts": [
    {
      "status": "0x1",
      "cumulativeGasUsed": "0xa2ab09",
      "logs": [
        {
          "address": "0xdc81d28a1721fcde86d79ce26ba3b0bef24c116c",
          "topics": [
            "0xc9fb417ce9ee10a86bc8046a24ff15c2c00460856852864cf2bfae9e0b12185a",
            "0x9bda0204e70e8e20a9f1b62db7f7430863c03338e023942e2d46981b2bc8e3aa",
            "0x440d5d7754b0c6c509ef4b63ca7252f61fe13f0a3b0c4c9740ca850109ae4c10",
            "0x00000000000000000000000089feeba43b294425c0d7b482770eefbcc1359f8d"
          ],
          "data": "0x0000000000000000000000000000000000000000000000000000000000000000000000000000000000000000000000000000000000000000000000000000000000000000000000000000000000000000000000000000000000000000009bbf2b",
          "blockHash": "0x5ed9043d1eab6a11aa61b48e24d061cb7c5aa07915828048304bf225fc41af7b",
          "blockNumber": "0x9bbf21",
          "blockTimestamp": "0x69868848",
          "transactionHash": "0x80b559cec5e1f2e0b044c7680c7791d463838ec752decc39da9e4e55c7271190",
          "transactionIndex": "0x40",
          "logIndex": "0xa9",
          "removed": false
        }
      ],
      "logsBloom": "0x00000000000500000000010000000000000000000000000000000000000000000000000000000000000000000000000000000000000000000000000000000000000000000000000000000000000040000000000000000000000000000000000000400000200000000000000050000000000000000000001000000000000000000000000000000000000000000000000000000000000000000000000800000000000200000000010000000000000000000000000000400000000000000000000000100000000000000000000000000000000000000000000000000000000000000000000000000000000000000001000000000000000000000000000000000000",
      "type": "0x2",
      "transactionHash": "0x80b559cec5e1f2e0b044c7680c7791d463838ec752decc39da9e4e55c7271190",
      "transactionIndex": "0x40",
      "blockHash": "0x5ed9043d1eab6a11aa61b48e24d061cb7c5aa07915828048304bf225fc41af7b",
      "blockNumber": "0x9bbf21",
      "gasUsed": "0x186d9",
      "effectiveGasPrice": "0x4123158d",
      "from": "0x89feeba43b294425c0d7b482770eefbcc1359f8d",
      "to": "0xdc81d28a1721fcde86d79ce26ba3b0bef24c116c",
      "contractAddress": null
    }
  ],
  "libraries": [],
  "pending": [],
  "returns": {},
  "timestamp": 1770424391356,
  "chain": 11155111,
  "commit": "7d255af"
}