{
  "transactions": [
    {
      "hash": "0xbe3fed3211ba5998b68754cebe51612a084ae697b868ed13210b0ad7b2f2c22f",
      "transactionType": "CALL",
      "contractName": null,
      "contractAddress": "0xdc81d28a1721fcde86d79ce26ba3b0bef24c116c",
      "function": "commit(bytes32,bytes32)",
      "arguments": [
        "0xc2d28138feca2bc5bbfa22560faf782bfffba4ee1512619f06f95e9f53fbaea0",
        "0x098e247af8b7e2720273b245aeb09132c52da490c578c89a69a667e56b4392cd"
      ],
      "transaction": {
        "from": "0x89feeba43b294425c0d7b482770eefbcc1359f8d",
        "to": "0xdc81d28a1721fcde86d79ce26ba3b0bef24c116c",
        "value": "0x0",
        "input": "0xe3ce094dc2d28138feca2bc5bbfa22560faf782bfffba4ee1512619f06f95e9f53fbaea0098e247af8b7e2720273b245aeb09132c52da490c578c89a69a667e56b4392cd",
        "nonce": "0xfa",
        "chainId": "0xaa36a7"
      },
      "additionalContracts": [],
      "isFixedGasLimit": false
    }
  ],
  "receipts": [
    {
      "status": "0x1",
      "cumulativeGasUsed": "0x69bfd9",
      "logs": [
        {
          "address": "0xdc81d28a1721fcde86d79ce26ba3b0bef24c116c",
          "topics": [
            "0xc9fb417ce9ee10a86bc8046a24ff15c2c00460856852864cf2bfae9e0b12185a",
            "0xc2d28138feca2bc5bbfa22560faf782bfffba4ee1512619f06f95e9f53fbaea0",
            "0x098e247af8b7e2720273b245aeb09132c52da490c578c89a69a667e56b4392cd",
            "0x00000000000000000000000089feeba43b294425c0d7b482770eefbcc1359f8d"
          ],
          "data": "0x0000000000000000000000000000000000000000000000000000000000000000000000000000000000000000000000000000000000000000000000000000000000000000000000000000000000000000000000000000000000000000009bb60c",
          "blockHash": "0x97286e4da8bd9bc25518e346bd12110c03036833eb58ab635c4e293ab81bc6ea",
          "blockNumber": "0x9bb602",
          "blockTimestamp": "0x698617e0",
          "transactionHash": "0xbe3fed3211ba5998b68754cebe51612a084ae697b868ed13210b0ad7b2f2c22f",
          "transactionIndex": "0x3b",
          "logIndex": "0x7c",
          "removed": false
        }
      ],
      "logsBloom": "0x00000000000400000000010040000000000000000000000000000000000000000000000000000000000000000000000000000000000000000000000000000000000000000000000000000000000040000000000000000000000000000000002000400000200000000000000030000000000000000000000000000000000000000000000000000000000000000000000000000000000000000000000800000000000000000000000000000000000000000000000000400000000000000000000000100000000000000000000000000000000200000000000000004000000000000000000000000000000000000001000000000000000000000000000000000000",
      "type": "0x2",
      "transactionHash": "0xbe3fed3211ba5998b68754cebe51612a084ae697b868ed13210b0ad7b2f2c22f",
      "transactionIndex": "0x3b",
      "blockHash": "0x97286e4da8bd9bc25518e346bd12110c03036833eb58ab635c4e293ab81bc6ea",
      "blockNumber": "0x9bb602",
      "gasUsed": "0x186d9",
      "effectiveGasPrice": "0x42b8d462",
      "from": "0x89feeba43b294425c0d7b482770eefbcc1359f8d",
      "to": "0xdc81d28a1721fcde86d79ce26ba3b0bef24c116c",
      "contractAddress": null
    }
  ],
  "libraries": [],
  "pending": [],
  "returns": {},
  "timestamp": 1770395617356,
  "chain": 11155111,
  "commit": "58e7602"
}