{
  "transactions": [
    {
      "hash": "0xf616a5076e939caa864bdf53a6fb4b967d9a66e83000dae82b1d0bd88e7b4905",
      "transactionType": "CALL",
      "contractName": null,
      "contractAddress": "0xdc81d28a1721fcde86d79ce26ba3b0bef24c116c",
      "function": "commit(bytes32,bytes32)",
      "arguments": [
        "0xc5969da488f043e1c101f4a2e70484b2ad9dfc0d82ce35d5a5d4b326e464913f",
        "0xc85ee654a2a6611e960204566db715c19d94c09ecfe26a19aac55277b0d8fc2b"
      ],
      "transaction": {
        "from": "0x89feeba43b294425c0d7b482770eefbcc1359f8d",
        "to": "0xdc81d28a1721fcde86d79ce26ba3b0bef24c116c",
        "value": "0x0",
        "input": "0xe3ce094dc5969da488f043e1c101f4a2e70484b2ad9dfc0d82ce35d5a5d4b326e464913fc85ee654a2a6611e960204566db715c19d94c09ecfe26a19aac55277b0d8fc2b",
        "nonce": "0x104",
        "chainId": "0xaa36a7"
      },
      "additionalContracts": [],
      "isFixedGasLimit": false
    }
  ],
  "receipts": [
    {
      "status": "0x1",
      "cumulativeGasUsed": "0x38bfff2",
      "logs": [
        {
          "address": "0xdc81d28a1721fcde86d79ce26ba3b0bef24c116c",
          "topics": [
            "0xc9fb417ce9ee10a86bc8046a24ff15c2c00460856852864cf2bfae9e0b12185a",
            "0xc5969da488f043e1c101f4a2e70484b2ad9dfc0d82ce35d5a5d4b326e464913f",
            "0xc85ee654a2a6611e960204566db715c19d94c09ecfe26a19aac55277b0d8fc2b",
            "0x00000000000000000000000089feeba43b294425c0d7b482770eefbcc1359f8d"
          ],
          "data": "0x0000000000000000000000000000000000000000000000000000000000000000000000000000000000000000000000000000000000000000000000000000000000000000000000000000000000000000000000000000000000000000009bb6b0",
          "blockHash": "0xb8e61a6b46498cc46d2efbe52afa5aa2b7851abd8d185cfefb11606b217639db",
          "blockNumber": "0x9bb6a6",
          "blockTimestamp": "0x69861fd8",
          "transactionHash": "0xf616a5076e939caa864bdf53a6fb4b967d9a66e83000dae82b1d0bd88e7b4905",
          "transactionIndex": "0x75",
          "logIndex": "0xb3",
          "removed": false
        }
      ],
      "logsBloom": "0x00000000000000000000010000000000000000000000040000000000000000000000080000000000000000000000000000000000000000000000000000000000000000000000000000000002000040000000000000000080000000000000000000400000200000000000000010000400000000000000000000000000000000000000000000000000000000000000002000000000000000000000000800000000000000000000000000000000000000000000000000400000000000000000000000100000000000000000000000000000000000000000000000000000000000000000000000000000000000000001000000000000000000000000000000000000",
      "type": "0x2",
      "transactionHash": "0xf616a5076e939caa864bdf53a6fb4b967d9a66e83000dae82b1d0bd88e7b4905",
      "transactionIndex": "0x75",
      "blockHash": "0xb8e61a6b46498cc46d2efbe52afa5aa2b7851abd8d185cfefb11606b217639db",
      "blockNumber": "0x9bb6a6",
      "gasUsed": "0x186d9",
      "effectiveGasPrice": "0x39b42132",
      "from": "0x89feeba43b294425c0d7b482770eefbcc1359f8d",
      "to": "0xdc81d28a1721fcde86d79ce26ba3b0bef24c116c",
      "contractAddress": null
    }
  ],
  "libraries": [],
  "pending": [],
  "returns": {},
  "timestamp": 1770397656732,
  "chain": 11155111,
  "commit": "58e7602"
}