{
  "transactions": [
    {
      "hash": "0x192ec557f6e7e397bda6e7582feebc989ba6668b0e25d76f861ad6f4c85ab09d",
      "transactionType": "CALL",
      "contractName": null,
      "contractAddress": "0x1c7d4b196cb0c7b01d743fbc6116a902379c7238",
      "function": "approve(address,uint256)",
      "arguments": [
        "0x36b42E07273CD8ECfF1125bF15771AE356F085B1",
        "1000000"
      ],
      "transaction": {
        "from": "0x89feeba43b294425c0d7b482770eefbcc1359f8d",
        "to": "0x1c7d4b196cb0c7b01d743fbc6116a902379c7238",
        "value": "0x0",
        "input": "0x095ea7b300000000000000000000000036b42e07273cd8ecff1125bf15771ae356f085b100000000000000000000000000000000000000000000000000000000000f4240",
        "nonce": "0x105",
        "chainId": "0xaa36a7"
      },
      "additionalContracts": [],
      "isFixedGasLimit": false
    },
    {
      "hash": "0x9b614310c85e42681495256551222f8787a42fa948186119b4ac3fb58eda0b69",
      "transactionType": "CALL",
      "contractName": null,
      "contractAddress": "0x36b42e07273cd8ecff1125bf15771ae356f085b1",
      "function": "swap((address,address,uint24,int24,address),(bool,int256,uint160),bytes)",
      "arguments": [
        "(0x1c7D4B196Cb0C7B01d743Fbc6116a902379C7238, 0xfFf9976782d46CC05630D1f6eBAb18b2324d6B14, 3000, 60, 0x1846217Bae61BF26612BD8d9a64b970d525B4080)",
        "(true, 1000000, 4295128740)",
        "0xc5969da488f043e1c101f4a2e70484b2ad9dfc0d82ce35d5a5d4b326e464913f000000000000000000000000000000000000000000000004d16d41e0edc89aaa0000000000000000000000000000000000000000000000000000000000000000"
      ],
      "transaction": {
        "from": "0x89feeba43b294425c0d7b482770eefbcc1359f8d",
        "to": "0x36b42e07273cd8ecff1125bf15771ae356f085b1",
        "value": "0x0",
        "input": "0xf3cd914c0000000000000000000000001c7d4b196cb0c7b01d743fbc6116a902379c7238000000000000000000000000fff9976782d46cc05630d1f6ebab18b2324d6b140000000000000000000000000000000000000000000000000000000000000bb8000000000000000000000000000000000000000000000000000000000000003c0000000000000000000000001846217bae61bf26612bd8d9a64b970d525b4080000000000000000000000000000000000000000000000000000000000000000100000000000000000000000000000000000000000000000000000000000f424000000000000000000000000000000000000000000000000000000001000276a400000000000000000000000000000000000000000000000000000000000001200000000000000000000000000000000000000000000000000000000000000060c5969da488f043e1c101f4a2e70484b2ad9dfc0d82ce35d5a5d4b326e464913f000000000000000000000000000000000000000000000004d16d41e0edc89aaa0000000000000000000000000000000000000000000000000000000000000000",
        "nonce": "0x106",
        "chainId": "0xaa36a7"
      },
      "additionalContracts": [],
      "isFixedGasLimit": false
    }
  ],
  "receipts": [
    {
      "status": "0x1",
      "cumulativeGasUsed": "0x38aac1f",
      "logs": [
        {
          "address": "0x1c7d4b196cb0c7b01d743fbc6116a902379c7238",
          "topics": [
            "0x8c5be1e5ebec7d5bd14f71427d1e84f3dd0314c0f7b2291e5b200ac8c7c3b925",
            "0x00000000000000000000000089feeba43b294425c0d7b482770eefbcc1359f8d",
            "0x00000000000000000000000036b42e07273cd8ecff1125bf15771ae356f085b1"
          ],
          "data": "0x00000000000000000000000000000000000000000000000000000000000f4240",
          "blockHash": "0x86c6f55ce88965318f27eec1f48184d99dee4b49526f6cb81c3a73a4bc48317f",
          "blockNumber": "0x9bb6b7",
          "blockTimestamp": "0x698620a4",
          "transactionHash": "0x192ec557f6e7e397bda6e7582feebc989ba6668b0e25d76f861ad6f4c85ab09d",
          "transactionIndex": "0x4d",
          "logIndex": "0xba",
          "removed": false
        }
      ],
      "logsBloom": "0x00000000000000000000000000000000000004000000000000000000000200000000000000000000000000040000000000000000000000000000000000200000000000000000000000000000000040000000000000000000000000000000000000000000000000000000000010000000000000000000000000000000000000000000000000100000000000000000000000000000000000000000000000000000020000000000000000000000000000000000000000000000000000000000000000100008000000000000000000000000000000000000000000000000000000000010000000000000000010000000000000000000000000000000000000000000",
      "type": "0x2",
      "transactionHash": "0x192ec557f6e7e397bda6e7582feebc989ba6668b0e25d76f861ad6f4c85ab09d",
      "transactionIndex": "0x4d",
      "blockHash": "0x86c6f55ce88965318f27eec1f48184d99dee4b49526f6cb81c3a73a4bc48317f",
      "blockNumber": "0x9bb6b7",
      "gasUsed": "0xd88d",
      "effectiveGasPrice": "0x398d84f3",
      "from": "0x89feeba43b294425c0d7b482770eefbcc1359f8d",
      "to": "0x1c7d4b196cb0c7b01d743fbc6116a902379c7238",
      "contractAddress": null
    },
    {
      "status": "0x1",
      "cumulativeGasUsed": "0xc936fb",
      "logs": [
        {
          "address": "0xdc81d28a1721fcde86d79ce26ba3b0bef24c116c",
          "topics": [
            "0x7b385b5200328cf45dc066799088049ff05a3e927e69ae5bb7174fc03f2c3ea9",
            "0xc5969da488f043e1c101f4a2e70484b2ad9dfc0d82ce35d5a5d4b326e464913f",
            "0x0000000000000000000000000000000000000000000000000000000000000000"
          ],
          "data": "0x00000000000000000000000000000000000000000000000000000000000f42400000000000000000000000000000000000000000000000000000000000000000",
          "blockHash": "0x262347e952648c33c8754e91bd16acc6a007bc646858d6b04c52c7a791637ea2",
          "blockNumber": "0x9bb6b8",
          "blockTimestamp": "0x698620b0",
          "transactionHash": "0x9b614310c85e42681495256551222f8787a42fa948186119b4ac3fb58eda0b69",
          "transactionIndex": "0x5c",
          "logIndex": "0xf9",
          "removed": false
        },
        {
          "address": "0x1846217bae61bf26612bd8d9a64b970d525b4080",
          "topics": [
            "0x598946b72864d354c0c2446db5ce069b2e08419b77363d83941ca20ec62487d7",
            "0xc5969da488f043e1c101f4a2e70484b2ad9dfc0d82ce35d5a5d4b326e464913f"
          ],
          "data": "0x00000000000000000000000000000000000000000000000000000000000f42400000000000000000000000000000000000000000000000000000000000000000",
          "blockHash": "0x262347e952648c33c8754e91bd16acc6a007bc646858d6b04c52c7a791637ea2",
          "blockNumber": "0x9bb6b8",
          "blockTimestamp": "0x698620b0",
          "transactionHash": "0x9b614310c85e42681495256551222f8787a42fa948186119b4ac3fb58eda0b69",
          "transactionIndex": "0x5c",
          "logIndex": "0xfa",
          "removed": false
        },
        {
          "address": "0xe03a1074c86cfedd5c142c4f04f1a1536e203543",
          "topics": [
            "0x40e9cecb9f5f1f1c5b9c97dec2917b7ee92e57ba5563708daca94dd84ad7112f",
            "0xad7c5db0b7c27da403980dfbd32bfa826fb086f590bdf6a49641f59a1eef8367",
            "0x00000000000000000000000036b42e07273cd8ecff1125bf15771ae356f085b1"
          ],
          "data": "0x0000000000000000000000000000000000000000000000000000000000000000000000000000000000000000000000000000000000000000000000000000000000000000000000000000000000000000000000000000000000000001000276a40000000000000000000000000000000000000000000000000000000000000000fffffffffffffffffffffffffffffffffffffffffffffffffffffffffff276180000000000000000000000000000000000000000000000000000000000000bb8",
          "blockHash": "0x262347e952648c33c8754e91bd16acc6a007bc646858d6b04c52c7a791637ea2",
          "blockNumber": "0x9bb6b8",
          "blockTimestamp": "0x698620b0",
          "transactionHash": "0x9b614310c85e42681495256551222f8787a42fa948186119b4ac3fb58eda0b69",
          "transactionIndex": "0x5c",
          "logIndex": "0xfb",
          "removed": false
        },
        {
          "address": "0x36b42e07273cd8ecff1125bf15771ae356f085b1",
          "topics": [
            "0x8107d3c00048e48dab2cb830fd6a855aa1933995a5cd6bebf6b7de2e9732d1e8",
            "0x00000000000000000000000089feeba43b294425c0d7b482770eefbcc1359f8d"
          ],
          "data": "0x00000000000000000000000000000000000000000000000000000000000000000000000000000000000000000000000000000000000000000000000000000000",
          "blockHash": "0x262347e952648c33c8754e91bd16acc6a007bc646858d6b04c52c7a791637ea2",
          "blockNumber": "0x9bb6b8",
          "blockTimestamp": "0x698620b0",
          "transactionHash": "0x9b614310c85e42681495256551222f8787a42fa948186119b4ac3fb58eda0b69",
          "transactionIndex": "0x5c",
          "logIndex": "0xfc",
          "removed": false
        }
      ],
      "logsBloom": "0x000000000000000001000100000000000000040000000400000000000000000000000000000000000000000480000000000001000400000000000000000000000000000000000000000000000020400000000000000400b0000000000000000000400000020000400000000010000800020000000000100200000000000000010000000000000000000000000001002000000000100000000000000000000000000000000000000000000000000000000000000000400000000000000000000000100008000000000000000000000020000000000000000000000000000028001000000000000000004000100000404000000004000000000000000000000000",
      "type": "0x2",
      "transactionHash": "0x9b614310c85e42681495256551222f8787a42fa948186119b4ac3fb58eda0b69",
      "transactionIndex": "0x5c",
      "blockHash": "0x262347e952648c33c8754e91bd16acc6a007bc646858d6b04c52c7a791637ea2",
      "blockNumber": "0x9bb6b8",
      "gasUsed": "0xb176b",
      "effectiveGasPrice": "0x40ae80f6",
      "from": "0x89feeba43b294425c0d7b482770eefbcc1359f8d",
      "to": "0x36b42e07273cd8ecff1125bf15771ae356f085b1",
      "contractAddress": null
    }
  ],
  "libraries": [],
  "pending": [],
  "returns": {},
  "timestamp": 1770397873677,
  "chain": 11155111,
  "commit": "58e7602"
}