{
  "transactions": [
    {
      "hash": "0xe2440b698dc1c5ed02f797e23a34c80ef99eaa6e3f7f1f98f4da4a0be9aba61d",
      "transactionType": "CALL",
      "contractName": null,
      "contractAddress": "0xe03a1074c86cfedd5c142c4f04f1a1536e203543",
      "function": "initialize((address,address,uint24,int24,address),uint160)",
      "arguments": [
        "(0x0000000000000000000000000000000000000000, 0x1c7D4B196Cb0C7B01d743Fbc6116a902379C7238, 3000, 60, 0xE06e50d4fdA51E43D042cAb33901dF92d481A080)",
        "1771573796002276971027735586023"
      ],
      "transaction": {
        "from": "0x89feeba43b294425c0d7b482770eefbcc1359f8d",
        "to": "0xe03a1074c86cfedd5c142c4f04f1a1536e203543",
        "gas": "0x1411d",
        "value": "0x0",
        "input": "0x6276cbbe00000000000000000000000000000000000000000000000000000000000000000000000000000000000000001c7d4b196cb0c7b01d743fbc6116a902379c72380000000000000000000000000000000000000000000000000000000000000bb8000000000000000000000000000000000000000000000000000000000000003c000000000000000000000000e06e50d4fda51e43d042cab33901df92d481a08000000000000000000000000000000000000000165c437f6d33f99590868924e7",
        "nonce": "0xa2",
        "chainId": "0xaa36a7"
      },
      "additionalContracts": [],
      "isFixedGasLimit": false
    }
  ],
  "receipts": [
    {
      "status": "0x1",
      "cumulativeGasUsed": "0x1250bab",
      "logs": [
        {
          "address": "0xe03a1074c86cfedd5c142c4f04f1a1536e203543",
          "topics": [
            "0xdd466e674ea557f56295e2d0218a125ea4b4f0f6f3307b95f85e6110838d6438",
            "0xe2b8330ab54200f6c44fd5fb8bc49735a3581c8f865d95b52daae49d3f40be3e",
            "0x0000000000000000000000000000000000000000000000000000000000000000",
            "0x0000000000000000000000001c7d4b196cb0c7b01d743fbc6116a902379c7238"
          ],
          "data": "0x0000000000000000000000000000000000000000000000000000000000000bb8000000000000000000000000000000000000000000000000000000000000003c000000000000000000000000e06e50d4fda51e43d042cab33901df92d481a08000000000000000000000000000000000000000165c437f6d33f99590868924e7000000000000000000000000000000000000000000000000000000000000f2c4",
          "blockHash": "0x86e9aefe0d5380ddfd03fd77e3550384989686bd840e85ad539bd0931c7d071a",
          "blockNumber": "0x9ba3f5",
          "blockTimestamp": "0x69853848",
          "transactionHash": "0xe2440b698dc1c5ed02f797e23a34c80ef99eaa6e3f7f1f98f4da4a0be9aba61d",
          "transactionIndex": "0x89",
          "logIndex": "0xcc",
          "removed": false
        }
      ],
      "logsBloom": "0x00000000000000080000000000000000000000000000000000000000000000000000000000000000000000000000000000000100000004000000000000001000100000000000000000000000000000000000000000000000000000000000400000000000020000000000000000000800000000000000100000000000000000000000000000000008000000000000000000000001000000000000000000200000000000000000000000000000000000000000008000000000000000000000000000000000000000000000000000000000000000000000000000000000000020001000000000000000000000000000000000000000000000000000000000000000",
      "type": "0x2",
      "transactionHash": "0xe2440b698dc1c5ed02f797e23a34c80ef99eaa6e3f7f1f98f4da4a0be9aba61d",
      "transactionIndex": "0x89",
      "blockHash": "0x86e9aefe0d5380ddfd03fd77e3550384989686bd840e85ad539bd0931c7d071a",
      "blockNumber": "0x9ba3f5",
      "gasUsed": "0xdb91",
      "effectiveGasPrice": "0x3df0394f",
      "from": "0x89feeba43b294425c0d7b482770eefbcc1359f8d",
      "to": "0xe03a1074c86cfedd5c142c4f04f1a1536e203543",
      "contractAddress": null
    }
  ],
  "libraries": [],
  "pending": [],
  "returns": {},
  "timestamp": 1770338372633,
  "chain": 11155111,
  "commit": "cdca4d8"
}