{
  "transactions": [
    {
      "hash": "0x476e9e49bb28ccdaba9b3072cede97aadeb56da237caa6ab686dce01405a3872",
      "transactionType": "CALL",
      "contractName": null,
      "contractAddress": "0xe03a1074c86cfedd5c142c4f04f1a1536e203543",
      "function": "initialize((address,address,uint24,int24,address),uint160)",
      "arguments": [
        "(0x0000000000000000000000000000000000000000, 0x1c7D4B196Cb0C7B01d743Fbc6116a902379C7238, 3000, 60, 0x67870c6e95C0c66F9D02ce73DD7850784AbDe080)",
        "1771573796002276971027735586023"
      ],
      "transaction": {
        "from": "0x89feeba43b294425c0d7b482770eefbcc1359f8d",
        "to": "0xe03a1074c86cfedd5c142c4f04f1a1536e203543",
        "gas": "0x1411d",
        "value": "0x0",
        "input": "0x6276cbbe00000000000000000000000000000000000000000000000000000000000000000000000000000000000000001c7d4b196cb0c7b01d743fbc6116a902379c72380000000000000000000000000000000000000000000000000000000000000bb8000000000000000000000000000000000000000000000000000000000000003c00000000000000000000000067870c6e95c0c66f9d02ce73dd7850784abde08000000000000000000000000000000000000000165c437f6d33f99590868924e7",
        "nonce": "0xb3",
        "chainId": "0xaa36a7"
      },
      "additionalContracts": [],
      "isFixedGasLimit": false
    }
  ],
  "receipts": [
    {
      "status": "0x1",
      "cumulativeGasUsed": "0x335895",
      "logs": [
        {
          "address": "0xe03a1074c86cfedd5c142c4f04f1a1536e203543",
          "topics": [
            "0xdd466e674ea557f56295e2d0218a125ea4b4f0f6f3307b95f85e6110838d6438",
            "0x19fc06831962f003f45d52b333baba33f40629c72df6e0cd3d833983c602e296",
            "0x0000000000000000000000000000000000000000000000000000000000000000",
            "0x0000000000000000000000001c7d4b196cb0c7b01d743fbc6116a902379c7238"
          ],
          "data": "0x0000000000000000000000000000000000000000000000000000000000000bb8000000000000000000000000000000000000000000000000000000000000003c00000000000000000000000067870c6e95c0c66f9d02ce73dd7850784abde08000000000000000000000000000000000000000165c437f6d33f99590868924e7000000000000000000000000000000000000000000000000000000000000f2c4",
          "blockHash": "0x1f8a6e118c804c8d6e09a35bf293de0698116c1105d0b5d084fe961217a5ae9b",
          "blockNumber": "0x9ba4ff",
          "blockTimestamp": "0x69854508",
          "transactionHash": "0x476e9e49bb28ccdaba9b3072cede97aadeb56da237caa6ab686dce01405a3872",
          "transactionIndex": "0x46",
          "logIndex": "0x1f",
          "removed": false
        }
      ],
      "logsBloom": "0x00000000000000000000000000000000000000000000000020000000040000000000000000000000000000000000000000000100000004000000000000000000100000000000000000000000000000000000000000000000100000000000000000000000020000000000000000000800000000000000100000000000000000000000000000000008000000000000000000000001000000000000000000200000000000000000000000000000000000000000008000000000000000000000000000000000000000000000000000000000000000000000000000000000000020001000000000000000000000000000000000000000000000000000000000000000",
      "type": "0x2",
      "transactionHash": "0x476e9e49bb28ccdaba9b3072cede97aadeb56da237caa6ab686dce01405a3872",
      "transactionIndex": "0x46",
      "blockHash": "0x1f8a6e118c804c8d6e09a35bf293de0698116c1105d0b5d084fe961217a5ae9b",
      "blockNumber": "0x9ba4ff",
      "gasUsed": "0xdb91",
      "effectiveGasPrice": "0x3e97cf78",
      "from": "0x89feeba43b294425c0d7b482770eefbcc1359f8d",
      "to": "0xe03a1074c86cfedd5c142c4f04f1a1536e203543",
      "contractAddress": null
    }
  ],
  "libraries": [],
  "pending": [],
  "returns": {},
  "timestamp": 1770341636817,
  "chain": 11155111,
  "commit": "cdca4d8"
}