{
  "transactions": [
    {
      "hash": "0x0005337c7e8c23657c40774fb81948a44748ef71dd6f6254d6844e97a63536c4",
      "transactionType": "CALL",
      "contractName": null,
      "contractAddress": "0xe03a1074c86cfedd5c142c4f04f1a1536e203543",
      "function": "initialize((address,address,uint24,int24,address),uint160)",
      "arguments": [
        "(0x0000000000000000000000000000000000000000, 0x1c7D4B196Cb0C7B01d743Fbc6116a902379C7238, 3000, 60, 0xD2528A51f7589c11490f3DeA7Fe1a21F9739e080)",
        "1771573796002276971027735586023"
      ],
      "transaction": {
        "from": "0x89feeba43b294425c0d7b482770eefbcc1359f8d",
        "to": "0xe03a1074c86cfedd5c142c4f04f1a1536e203543",
        "gas": "0x1411d",
        "value": "0x0",
        "input": "0x6276cbbe00000000000000000000000000000000000000000000000000000000000000000000000000000000000000001c7d4b196cb0c7b01d743fbc6116a902379c72380000000000000000000000000000000000000000000000000000000000000bb8000000000000000000000000000000000000000000000000000000000000003c000000000000000000000000d2528a51f7589c11490f3dea7fe1a21f9739e08000000000000000000000000000000000000000165c437f6d33f99590868924e7",
        "nonce": "0x9b",
        "chainId": "0xaa36a7"
      },
      "additionalContracts": [],
      "isFixedGasLimit": false
    }
  ],
  "receipts": [
    {
      "status": "0x1",
      "cumulativeGasUsed": "0x545d02",
      "logs": [
        {
          "address": "0xe03a1074c86cfedd5c142c4f04f1a1536e203543",
          "topics": [
            "0xdd466e674ea557f56295e2d0218a125ea4b4f0f6f3307b95f85e6110838d6438",
            "0x48e73843bf2cb2241fd76c96f9b868ec8f1c677218e20b719e85ef4d60032062",
            "0x0000000000000000000000000000000000000000000000000000000000000000",
            "0x0000000000000000000000001c7d4b196cb0c7b01d743fbc6116a902379c7238"
          ],
          "data": "0x0000000000000000000000000000000000000000000000000000000000000bb8000000000000000000000000000000000000000000000000000000000000003c000000000000000000000000d2528a51f7589c11490f3dea7fe1a21f9739e08000000000000000000000000000000000000000165c437f6d33f99590868924e7000000000000000000000000000000000000000000000000000000000000f2c4",
          "blockHash": "0x8b1c7927ab36d8a27a29fb98427899ae8c64816f8ffcbdf353e8969549af484d",
          "blockNumber": "0x9ba3c8",
          "blockTimestamp": "0x69853608",
          "transactionHash": "0x0005337c7e8c23657c40774fb81948a44748ef71dd6f6254d6844e97a63536c4",
          "transactionIndex": "0x50",
          "logIndex": "0x76",
          "removed": false
        }
      ],
      "logsBloom": "0x00000000000000000000000000000000000000000000000000800000000000000000000000000000000000000000000000000100000004000000000000000000100000000000000000000000000000000000000000000000010000000000000000000000020000000000000000000800000000000000100000000000000000000000000000000008000000000000000000000001000000000000000000200000000000000000000000000000000000000000008000000000000000000000000000000000000000000000000000000000000000000000000000000000000020001000000000000000000000000000000000000000000000000002000000000000",
      "type": "0x2",
      "transactionHash": "0x0005337c7e8c23657c40774fb81948a44748ef71dd6f6254d6844e97a63536c4",
      "transactionIndex": "0x50",
      "blockHash": "0x8b1c7927ab36d8a27a29fb98427899ae8c64816f8ffcbdf353e8969549af484d",
      "blockNumber": "0x9ba3c8",
      "gasUsed": "0xdb91",
      "effectiveGasPrice": "0x4146341e",
      "from": "0x89feeba43b294425c0d7b482770eefbcc1359f8d",
      "to": "0xe03a1074c86cfedd5c142c4f04f1a1536e203543",
      "contractAddress": null
    }
  ],
  "libraries": [],
  "pending": [],
  "returns": {},
  "timestamp": 1770337795273,
  "chain": 11155111,
  "commit": "3d35e9d"
}