{
  "transactions": [
    {
      "hash": "0x5ce4121a8a561c66c04b404a919827af43532edd319f7b5907f58d8e7942457b",
      "transactionType": "CALL",
      "contractName": null,
      "contractAddress": "0xe03a1074c86cfedd5c142c4f04f1a1536e203543",
      "function": "initialize((address,address,uint24,int24,address),uint160)",
      "arguments": [
        "(0x0000000000000000000000000000000000000000, 0x1c7D4B196Cb0C7B01d743Fbc6116a902379C7238, 3000, 60, 0xC6E8D7648B5CBD512E38a35010E791C27987e080)",
        "1771573796002276971027735586023"
      ],
      "transaction": {
        "from": "0x89feeba43b294425c0d7b482770eefbcc1359f8d",
        "to": "0xe03a1074c86cfedd5c142c4f04f1a1536e203543",
        "gas": "0x1411d",
        "value": "0x0",
        "input": "0x6276cbbe00000000000000000000000000000000000000000000000000000000000000000000000000000000000000001c7d4b196cb0c7b01d743fbc6116a902379c72380000000000000000000000000000000000000000000000000000000000000bb8000000000000000000000000000000000000000000000000000000000000003c000000000000000000000000c6e8d7648b5cbd512e38a35010e791c27987e08000000000000000000000000000000000000000165c437f6d33f99590868924e7",
        "nonce": "0xaa",
        "chainId": "0xaa36a7"
      },
      "additionalContracts": [],
      "isFixedGasLimit": false
    }
  ],
  "receipts": [
    {
      "status": "0x1",
      "cumulativeGasUsed": "0x5bb22c",
      "logs": [
        {
          "address": "0xe03a1074c86cfedd5c142c4f04f1a1536e203543",
          "topics": [
            "0xdd466e674ea557f56295e2d0218a125ea4b4f0f6f3307b95f85e6110838d6438",
            "0x3da6e5e46a14c8af7660050311aea7e6bb8d3602905b177ea687563a47a208cf",
            "0x0000000000000000000000000000000000000000000000000000000000000000",
            "0x0000000000000000000000001c7d4b196cb0c7b01d743fbc6116a902379c7238"
          ],
          "data": "0x0000000000000000000000000000000000000000000000000000000000000bb8000000000000000000000000000000000000000000000000000000000000003c000000000000000000000000c6e8d7648b5cbd512e38a35010e791c27987e08000000000000000000000000000000000000000165c437f6d33f99590868924e7000000000000000000000000000000000000000000000000000000000000f2c4",
          "blockHash": "0x9f1a61c8c963aaf4bd8723905d2a8a707df13008a06a8f69d1f26f34c21abe64",
          "blockNumber": "0x9ba487",
          "blockTimestamp": "0x69853f5c",
          "transactionHash": "0x5ce4121a8a561c66c04b404a919827af43532edd319f7b5907f58d8e7942457b",
          "transactionIndex": "0x54",
          "logIndex": "0x48",
          "removed": false
        }
      ],
      "logsBloom": "0x00000000000000000000000000000000000000000000000000000000000000000000000000000000000000000000000000000100000004000000000000000000100000000000000000000000000000000000000000000000000000000000000000000000020000000000000000000800000000000000100000000000001000000000000000000008000000000000000000000001000000000000000000200000000000000000000000000000000000000000008000000000000000000000000200000000000000000000004000000000000000000000000000000000000020001000000000000000000000000000000000000000000000000000000000000000",
      "type": "0x2",
      "transactionHash": "0x5ce4121a8a561c66c04b404a919827af43532edd319f7b5907f58d8e7942457b",
      "transactionIndex": "0x54",
      "blockHash": "0x9f1a61c8c963aaf4bd8723905d2a8a707df13008a06a8f69d1f26f34c21abe64",
      "blockNumber": "0x9ba487",
      "gasUsed": "0xdb91",
      "effectiveGasPrice": "0x41711ebd",
      "from": "0x89feeba43b294425c0d7b482770eefbcc1359f8d",
      "to": "0xe03a1074c86cfedd5c142c4f04f1a1536e203543",
      "contractAddress": null
    }
  ],
  "libraries": [],
  "pending": [],
  "returns": {},
  "timestamp": 1770340185314,
  "chain": 11155111,
  "commit": "cdca4d8"
}