{
  "transactions": [
    {
      "hash": "0x699204ba636b41db8f76d5ce228bc756be85e9e74f86267f04826e67e1bd4373",
      "transactionType": "CALL",
      "contractName": null,
      "contractAddress": "0xe03a1074c86cfedd5c142c4f04f1a1536e203543",
      "function": "initialize((address,address,uint24,int24,address),uint160)",
      "arguments": [
        "(0x0000000000000000000000000000000000000000, 0x1c7D4B196Cb0C7B01d743Fbc6116a902379C7238, 3000, 60, 0x5D39BEA27003bDa62B9EF3428cE22D62e9D26080)",
        "1771573796002276971027735586023"
      ],
      "transaction": {
        "from": "0x89feeba43b294425c0d7b482770eefbcc1359f8d",
        "to": "0xe03a1074c86cfedd5c142c4f04f1a1536e203543",
        "gas": "0x1411d",
        "value": "0x0",
        "input": "0x6276cbbe00000000000000000000000000000000000000000000000000000000000000000000000000000000000000001c7d4b196cb0c7b01d743fbc6116a902379c72380000000000000000000000000000000000000000000000000000000000000bb8000000000000000000000000000000000000000000000000000000000000003c0000000000000000000000005d39bea27003bda62b9ef3428ce22d62e9d2608000000000000000000000000000000000000000165c437f6d33f99590868924e7",
        "nonce": "0xbc",
        "chainId": "0xaa36a7"
      },
      "additionalContracts": [],
      "isFixedGasLimit": false
    }
  ],
  "receipts": [
    {
      "status": "0x1",
      "cumulativeGasUsed": "0x1f26098",
      "logs": [
        {
          "address": "0xe03a1074c86cfedd5c142c4f04f1a1536e203543",
          "topics": [
            "0xdd466e674ea557f56295e2d0218a125ea4b4f0f6f3307b95f85e6110838d6438",
            "0xd9663759573f69031c6f88d08c883110172408ab1cac01f825ec42489f90824a",
            "0x0000000000000000000000000000000000000000000000000000000000000000",
            "0x0000000000000000000000001c7d4b196cb0c7b01d743fbc6116a902379c7238"
          ],
          "data": "0x0000000000000000000000000000000000000000000000000000000000000bb8000000000000000000000000000000000000000000000000000000000000003c0000000000000000000000005d39bea27003bda62b9ef3428ce22d62e9d2608000000000000000000000000000000000000000165c437f6d33f99590868924e7000000000000000000000000000000000000000000000000000000000000f2c4",
          "blockHash": "0x4f8039d42558188f56d93fda75c24da9ec5c2af8ae576b84350a4f2885b01ce1",
          "blockNumber": "0x9bb00a",
          "blockTimestamp": "0x6985cdf4",
          "transactionHash": "0x699204ba636b41db8f76d5ce228bc756be85e9e74f86267f04826e67e1bd4373",
          "transactionIndex": "0xfd",
          "logIndex": "0x389",
          "removed": false
        }
      ],
      "logsBloom": "0x00000000000000000000000000000001000000000000000000000000000000000000000000000000000000000000000000000100000004000000000000000000100000000000000000000000000000000000000000000000000000000000000000000000020000000000000000000800000000000000100000000000000000000000000000000008000000000000000000000001200000000000000000200000000000000000000400000000000000000000008000000000000000000000000000000000000000000000000000000000000000000000000000000000000020001000000000000000000000000000000000000000000000000000000000000000",
      "type": "0x2",
      "transactionHash": "0x699204ba636b41db8f76d5ce228bc756be85e9e74f86267f04826e67e1bd4373",
      "transactionIndex": "0xfd",
      "blockHash": "0x4f8039d42558188f56d93fda75c24da9ec5c2af8ae576b84350a4f2885b01ce1",
      "blockNumber": "0x9bb00a",
      "gasUsed": "0xdb91",
      "effectiveGasPrice": "0x3c4c4911",
      "from": "0x89feeba43b294425c0d7b482770eefbcc1359f8d",
      "to": "0xe03a1074c86cfedd5c142c4f04f1a1536e203543",
      "contractAddress": null
    }
  ],
  "libraries": [],
  "pending": [],
  "returns": {},
  "timestamp": 1770376692844,
  "chain": 11155111,
  "commit": "cdca4d8"
}