{
  "transactions": [
    {
      "hash": "0xdc1ed3bfb18ef8eaf6e649e89fb5f8a69231021a8c41c6ca17d87a81eb01198b",
      "transactionType": "CALL",
      "contractName": null,
      "contractAddress": "0xdc81d28a1721fcde86d79ce26ba3b0bef24c116c",
      "function": "commit(bytes32,bytes32)",
      "arguments": [
        "0x4937e456c0e5cb921edc9a693854faf0317d51aa607c160136e2bdd7cbfa2d6b",
        "0x805b884365ed9400662a6d8c674a9c9b1284ee12f2238fd65cf806176326cc86"
      ],
      "transaction": {
        "from": "0x89feeba43b294425c0d7b482770eefbcc1359f8d",
        "to": "0xdc81d28a1721fcde86d79ce26ba3b0bef24c116c",
        "gas": "0x21bca",
        "value": "0x0",
        "input": "0xe3ce094d4937e456c0e5cb921edc9a693854faf0317d51aa607c160136e2bdd7cbfa2d6b805b884365ed9400662a6d8c674a9c9b1284ee12f2238fd65cf806176326cc86",
        "nonce": "0x12c",
        "chainId": "0xaa36a7"
      },
      "additionalContracts": [],
      "isFixedGasLimit": false
    }
  ],
  "receipts": [
    {
      "status": "0x1",
      "cumulativeGasUsed": "0xc610f1",
      "logs": [
        {
          "address": "0xdc81d28a1721fcde86d79ce26ba3b0bef24c116c",
          "topics": [
            "0xc9fb417ce9ee10a86bc8046a24ff15c2c00460856852864cf2bfae9e0b12185a",
            "0x4937e456c0e5cb921edc9a693854faf0317d51aa607c160136e2bdd7cbfa2d6b",
            "0x805b884365ed9400662a6d8c674a9c9b1284ee12f2238fd65cf806176326cc86",
            "0x00000000000000000000000089feeba43b294425c0d7b482770eefbcc1359f8d"
          ],
          "data": "0x0000000000000000000000000000000000000000000000000000000000000000000000000000000000000000000000000000000000000000000000000000000000000000000000000000000000000000000000000000000000000000009bbdab",
          "blockHash": "0xfc0f1d8fe06fc55cf2dfd510318d2db0a05a4a73d3740e8ef47a2a3ed762156c",
          "blockNumber": "0x9bbda1",
          "blockTimestamp": "0x698675e8",
          "transactionHash": "0xdc1ed3bfb18ef8eaf6e649e89fb5f8a69231021a8c41c6ca17d87a81eb01198b",
          "transactionIndex": "0x2f",
          "logIndex": "0x2d",
          "removed": false
        }
      ],
      "logsBloom": "0x00000000000000000000010000000000000000000000000000000000000000000000000000000000000000000000000000000000000000000000000000000000000000000000000000000000104040000000000000000000000000000000010000400000200000000000000010000000000000000000000000000000000000000000000000000000000000000000000000000000000000000000000800000000000000000010000000000000000000000000000000400800000000000000000000100000000000000000000000000000800000000000000000000000000000000000000000000000000000000001000000000000000000000000000000000000",
      "type": "0x2",
      "transactionHash": "0xdc1ed3bfb18ef8eaf6e649e89fb5f8a69231021a8c41c6ca17d87a81eb01198b",
      "transactionIndex": "0x2f",
      "blockHash": "0xfc0f1d8fe06fc55cf2dfd510318d2db0a05a4a73d3740e8ef47a2a3ed762156c",
      "blockNumber": "0x9bbda1",
      "gasUsed": "0x186cd",
      "effectiveGasPrice": "0x3bbd0b39",
      "from": "0x89feeba43b294425c0d7b482770eefbcc1359f8d",
      "to": "0xdc81d28a1721fcde86d79ce26ba3b0bef24c116c",
      "contractAddress": null
    }
  ],
  "libraries": [],
  "pending": [],
  "returns": {},
  "timestamp": 1770419682759,
  "chain": 11155111,
  "commit": "7d255af"
}