{
  "transactions": [
    {
      "hash": "0xd596b51fa001ecb2ba58852bfa46c439ac22c6b91ad3c6e9a295f01c928986bf",
      "transactionType": "CALL",
      "contractName": null,
      "contractAddress": "0xfff9976782d46cc05630d1f6ebab18b2324d6b14",
      "function": "approve(address,uint256)",
      "arguments": [
        "0x36b42E07273CD8ECfF1125bF15771AE356F085B1",
        "1000000000000000"
      ],
      "transaction": {
        "from": "0x89feeba43b294425c0d7b482770eefbcc1359f8d",
        "to": "0xfff9976782d46cc05630d1f6ebab18b2324d6b14",
        "gas": "0x9c35",
        "value": "0x0",
        "input": "0x095ea7b300000000000000000000000036b42e07273cd8ecff1125bf15771ae356f085b100000000000000000000000000000000000000000000000000038d7ea4c68000",
        "nonce": "0xde",
        "chainId": "0xaa36a7"
      },
      "additionalContracts": [],
      "isFixedGasLimit": false
    },
    {
      "hash": "0xab3fa399ca29c4ec056c4c847aad6c55a037e22800d42d82044cd8805d4319f6",
      "transactionType": "CALL",
      "contractName": null,
      "contractAddress": "0x36b42e07273cd8ecff1125bf15771ae356f085b1",
      "function": "swap((address,address,uint24,int24,address),(bool,int256,uint160),bytes)",
      "arguments": [
        "(0x1c7D4B196Cb0C7B01d743Fbc6116a902379C7238, 0xfFf9976782d46CC05630D1f6eBAb18b2324d6B14, 3000, 60, 0x1846217Bae61BF26612BD8d9a64b970d525B4080)",
        "(false, 1000000000000000, 1461446703485210103287273052203988822378723970341)",
        "0xfba0ee31c01f12969c4632a44d1329e362a8c051f49f0a24523ca943375cd300000000000000000000000000000000000000000000000000000000006986094c00000000000000000000000000000000000000000000000000000000000f4240"
      ],
      "transaction": {
        "from": "0x89feeba43b294425c0d7b482770eefbcc1359f8d",
        "to": "0x36b42e07273cd8ecff1125bf15771ae356f085b1",
        "gas": "0x70e31",
        "value": "0x0",
        "input": "0xf3cd914c0000000000000000000000001c7d4b196cb0c7b01d743fbc6116a902379c7238000000000000000000000000fff9976782d46cc05630d1f6ebab18b2324d6b140000000000000000000000000000000000000000000000000000000000000bb8000000000000000000000000000000000000000000000000000000000000003c0000000000000000000000001846217bae61bf26612bd8d9a64b970d525b4080000000000000000000000000000000000000000000000000000000000000000000000000000000000000000000000000000000000000000000038d7ea4c68000000000000000000000000000fffd8963efd1fc6a506488495d951d5263988d2500000000000000000000000000000000000000000000000000000000000001200000000000000000000000000000000000000000000000000000000000000060fba0ee31c01f12969c4632a44d1329e362a8c051f49f0a24523ca943375cd300000000000000000000000000000000000000000000000000000000006986094c00000000000000000000000000000000000000000000000000000000000f4240",
        "nonce": "0xdf",
        "chainId": "0xaa36a7"
      },
      "additionalContracts": [],
      "isFixedGasLimit": false
    }
  ],
  "receipts": [
    {
      "status": "0x1",
      "cumulativeGasUsed": "0x45954d",
      "logs": [
        {
          "address": "0xfff9976782d46cc05630d1f6ebab18b2324d6b14",
          "topics": [
            "0x8c5be1e5ebec7d5bd14f71427d1e84f3dd0314c0f7b2291e5b200ac8c7c3b925",
            "0x00000000000000000000000089feeba43b294425c0d7b482770eefbcc1359f8d",
            "0x00000000000000000000000036b42e07273cd8ecff1125bf15771ae356f085b1"
          ],
          "data": "0x00000000000000000000000000000000000000000000000000038d7ea4c68000",
          "blockHash": "0x0d855540ae05f44804be821f10f8779df5fd2af8e0859e90e440db11f84831fa",
          "blockNumber": "0x9bb510",
          "blockTimestamp": "0x69860c1c",
          "transactionHash": "0xab3fa399ca29c4ec056c4c847aad6c55a037e22800d42d82044cd8805d4319f6",
          "transactionIndex": "0x38",
          "logIndex": "0x4d",
          "removed": false
        }
      ],
      "logsBloom": "0x00000000000000000000000000000000000004000000000000000000000000000000000000000000000000040000000000000000000000000000000000200000000000000000000000000000000040000000000000000000000000000000000000000000000000000000000010000000000000000000000000000000000000000040000000000000000000000000000000000000000000000000000000000000020020000000000000000000000000000000000000000000000000000000000000100008000000000002000000000000000000000000000000000000000000000010000000000000000000000000000000000000000000000000000000000000",
      "type": "0x2",
      "transactionHash": "0xab3fa399ca29c4ec056c4c847aad6c55a037e22800d42d82044cd8805d4319f6",
      "transactionIndex": "0x38",
      "blockHash": "0x0d855540ae05f44804be821f10f8779df5fd2af8e0859e90e440db11f84831fa",
      "blockNumber": "0x9bb510",
      "gasUsed": "0x7118",
      "effectiveGasPrice": "0x3e9659e6",
      "from": "0x89feeba43b294425c0d7b482770eefbcc1359f8d",
      "to": "0xfff9976782d46cc05630d1f6ebab18b2324d6b14",
      "contractAddress": null
    },
    {
      "status": "0x1",
      "cumulativeGasUsed": "0x4a684e",
      "logs": [
        {
          "address": "0xdc81d28a1721fcde86d79ce26ba3b0bef24c116c",
          "topics": [
            "0x7b385b5200328cf45dc066799088049ff05a3e927e69ae5bb7174fc03f2c3ea9",
            "0xfba0ee31c01f12969c4632a44d1329e362a8c051f49f0a24523ca943375cd300",
            "0x0000000000000000000000000000000000000000000000000000000000000000"
          ],
          "data": "0x00000000000000000000000000000000000000000000000000038d7ea4c6800000000000000000000000000000000000000000000000000000000000000f4240",
          "blockHash": "0x0d855540ae05f44804be821f10f8779df5fd2af8e0859e90e440db11f84831fa",
          "blockNumber": "0x9bb510",
          "blockTimestamp": "0x69860c1c",
          "transactionHash": "0xd596b51fa001ecb2ba58852bfa46c439ac22c6b91ad3c6e9a295f01c928986bf",
          "transactionIndex": "0x39",
          "logIndex": "0x4e",
          "removed": false
        },
        {
          "address": "0x1846217bae61bf26612bd8d9a64b970d525b4080",
          "topics": [
            "0x598946b72864d354c0c2446db5ce069b2e08419b77363d83941ca20ec62487d7",
            "0xfba0ee31c01f12969c4632a44d1329e362a8c051f49f0a24523ca943375cd300"
          ],
          "data": "0x00000000000000000000000000000000000000000000000000038d7ea4c6800000000000000000000000000000000000000000000000000000000000000f4240",
          "blockHash": "0x0d855540ae05f44804be821f10f8779df5fd2af8e0859e90e440db11f84831fa",
          "blockNumber": "0x9bb510",
          "blockTimestamp": "0x69860c1c",
          "transactionHash": "0xd596b51fa001ecb2ba58852bfa46c439ac22c6b91ad3c6e9a295f01c928986bf",
          "transactionIndex": "0x39",
          "logIndex": "0x4f",
          "removed": false
        },
        {
          "address": "0xe03a1074c86cfedd5c142c4f04f1a1536e203543",
          "topics": [
            "0x40e9cecb9f5f1f1c5b9c97dec2917b7ee92e57ba5563708daca94dd84ad7112f",
            "0xad7c5db0b7c27da403980dfbd32bfa826fb086f590bdf6a49641f59a1eef8367",
            "0x00000000000000000000000036b42e07273cd8ecff1125bf15771ae356f085b1"
          ],
          "data": "0x00000000000000000000000000000000000000000000000000000000000000000000000000000000000000000000000000000000000000000000000000000000000000000000000000000000fffd8963efd1fc6a506488495d951d5263988d25000000000000000000000000000000000000000000000000000000000000000000000000000000000000000000000000000000000000000000000000000d89e70000000000000000000000000000000000000000000000000000000000000bb8",
          "blockHash": "0x0d855540ae05f44804be821f10f8779df5fd2af8e0859e90e440db11f84831fa",
          "blockNumber": "0x9bb510",
          "blockTimestamp": "0x69860c1c",
          "transactionHash": "0xd596b51fa001ecb2ba58852bfa46c439ac22c6b91ad3c6e9a295f01c928986bf",
          "transactionIndex": "0x39",
          "logIndex": "0x50",
          "removed": false
        },
        {
          "address": "0x36b42e07273cd8ecff1125bf15771ae356f085b1",
          "topics": [
            "0x8107d3c00048e48dab2cb830fd6a855aa1933995a5cd6bebf6b7de2e9732d1e8",
            "0x00000000000000000000000089feeba43b294425c0d7b482770eefbcc1359f8d"
          ],
          "data": "0x00000000000000000000000000000000000000000000000000000000000000000000000000000000000000000000000000000000000000000000000000000000",
          "blockHash": "0x0d855540ae05f44804be821f10f8779df5fd2af8e0859e90e440db11f84831fa",
          "blockNumber": "0x9bb510",
          "blockTimestamp": "0x69860c1c",
          "transactionHash": "0xd596b51fa001ecb2ba58852bfa46c439ac22c6b91ad3c6e9a295f01c928986bf",
          "transactionIndex": "0x39",
          "logIndex": "0x51",
          "removed": false
        }
      ],
      "logsBloom": "0x00000000000000000100010000000000000004000000000200000000000000000000000000000000000000048000000000000100040000000000000000000000000000000000000000000000002040000000000000040030000000000000000000400000020000400000000010000800020000000000100200000000000000010000000000000000000000000001000000000000100000000000000000000000000000000000000000000000000000000000040000400000000000000000000000100008000000000000000000000020000000000000000000000000000028001000000000004000004000100000404000000004000000000000000000000000",
      "type": "0x2",
      "transactionHash": "0xd596b51fa001ecb2ba58852bfa46c439ac22c6b91ad3c6e9a295f01c928986bf",
      "transactionIndex": "0x39",
      "blockHash": "0x0d855540ae05f44804be821f10f8779df5fd2af8e0859e90e440db11f84831fa",
      "blockNumber": "0x9bb510",
      "gasUsed": "0x4d301",
      "effectiveGasPrice": "0x3e9659e6",
      "from": "0x89feeba43b294425c0d7b482770eefbcc1359f8d",
      "to": "0x36b42e07273cd8ecff1125bf15771ae356f085b1",
      "contractAddress": null
    }
  ],
  "libraries": [],
  "pending": [],
  "returns": {},
  "timestamp": 1770392604172,
  "chain": 11155111,
  "commit": "58e7602"
}