{
  "transactions": [
    {
      "hash": "0x17b7dfb68a6f9714fd0ac6b74b14d09c123a67f395ec95339c5b05d7ea3a11de",
      "transactionType": "CALL",
      "contractName": null,
      "contractAddress": "0xe03a1074c86cfedd5c142c4f04f1a1536e203543",
      "function": "initialize((address,address,uint24,int24,address),uint160)",
      "arguments": [
        "(0x0000000000000000000000000000000000000000, 0x1c7D4B196Cb0C7B01d743Fbc6116a902379C7238, 3000, 60, 0xCab0Dc0c50C3015EE87D12C8d6B4D89e0e5D40C0)",
        "79228162514264337593543950336"
      ],
      "transaction": {
        "from": "0x89feeba43b294425c0d7b482770eefbcc1359f8d",
        "to": "0xe03a1074c86cfedd5c142c4f04f1a1536e203543",
        "gas": "0x115d5",
        "value": "0x0",
        "input": "0x6276cbbe00000000000000000000000000000000000000000000000000000000000000000000000000000000000000001c7d4b196cb0c7b01d743fbc6116a902379c72380000000000000000000000000000000000000000000000000000000000000bb8000000000000000000000000000000000000000000000000000000000000003c000000000000000000000000cab0dc0c50c3015ee87d12c8d6b4d89e0e5d40c00000000000000000000000000000000000000001000000000000000000000000",
        "nonce": "0x93",
        "chainId": "0xaa36a7"
      },
      "additionalContracts": [],
      "isFixedGasLimit": false
    },
    {
      "hash": "0x4e5c10b44f2340bbf472beb7bb22222d06482a07c3108587987a8c898093eda5",
      "transactionType": "CALL",
      "contractName": null,
      "contractAddress": "0x1c7d4b196cb0c7b01d743fbc6116a902379c7238",
      "function": "approve(address,uint256)",
      "arguments": [
        "0x000000000022D473030F116dDEE9F6B43aC78BA3",
        "115792089237316195423570985008687907853269984665640564039457584007913129639935"
      ],
      "transaction": {
        "from": "0x89feeba43b294425c0d7b482770eefbcc1359f8d",
        "to": "0x1c7d4b196cb0c7b01d743fbc6116a902379c7238",
        "gas": "0xdca8",
        "value": "0x0",
        "input": "0x095ea7b3000000000000000000000000000000000022d473030f116ddee9f6b43ac78ba3ffffffffffffffffffffffffffffffffffffffffffffffffffffffffffffffff",
        "nonce": "0x94",
        "chainId": "0xaa36a7"
      },
      "additionalContracts": [],
      "isFixedGasLimit": false
    },
    {
      "hash": "0xe6eccac31a947310f49d51ccd8d7426a5c37be5a98c7dc309ad2d4dc69f4fafa",
      "transactionType": "CALL",
      "contractName": null,
      "contractAddress": "0x000000000022d473030f116ddee9f6b43ac78ba3",
      "function": "approve(address,address,uint160,uint48)",
      "arguments": [
        "0x1c7D4B196Cb0C7B01d743Fbc6116a902379C7238",
        "0x429ba70129df741B2Ca2a85BC3A2a3328e5c09b4",
        "1461501637330902918203684832716283019655932542975",
        "1770417768"
      ],
      "transaction": {
        "from": "0x89feeba43b294425c0d7b482770eefbcc1359f8d",
        "to": "0x000000000022d473030f116ddee9f6b43ac78ba3",
        "gas": "0xa59b",
        "value": "0x0",
        "input": "0x87517c450000000000000000000000001c7d4b196cb0c7b01d743fbc6116a902379c7238000000000000000000000000429ba70129df741b2ca2a85bc3a2a3328e5c09b4000000000000000000000000ffffffffffffffffffffffffffffffffffffffff0000000000000000000000000000000000000000000000000000000069866e68",
        "nonce": "0x95",
        "chainId": "0xaa36a7"
      },
      "additionalContracts": [],
      "isFixedGasLimit": false
    },
    {
      "hash": "0x38e21641080c67603f7361081561faae5de57dc9ed0f6e98b3ccae62921fb6f7",
      "transactionType": "CALL",
      "contractName": null,
      "contractAddress": "0x429ba70129df741b2ca2a85bc3a2a3328e5c09b4",
      "function": "modifyLiquidities(bytes,uint256)",
      "arguments": [
        "0x000000000000000000000000000000000000000000000000000000000000004000000000000000000000000000000000000000000000000000000000000000800000000000000000000000000000000000000000000000000000000000000002020d00000000000000000000000000000000000000000000000000000000000000000000000000000000000000000000000000000000000000000000000000020000000000000000000000000000000000000000000000000000000000000040000000000000000000000000000000000000000000000000000000000000020000000000000000000000000000000000000000000000000000000000000001a000000000000000000000000000000000000000000000000000000000000000000000000000000000000000001c7d4b196cb0c7b01d743fbc6116a902379c72380000000000000000000000000000000000000000000000000000000000000bb8000000000000000000000000000000000000000000000000000000000000003c000000000000000000000000cab0dc0c50c3015ee87d12c8d6b4d89e0e5d40c0fffffffffffffffffffffffffffffffffffffffffffffffffffffffffff2764c00000000000000000000000000000000000000000000000000000000000d89b400000000000000000000000000000000000000000000000000000000000027100000000000000000000000000000000000000000000000000000000000002710000000000000000000000000000000000000000000000000002386f26fc1000000000000000000000000000089feeba43b294425c0d7b482770eefbcc1359f8d00000000000000000000000000000000000000000000000000000000000001800000000000000000000000000000000000000000000000000000000000000000000000000000000000000000000000000000000000000000000000000000004000000000000000000000000000000000000000000000000000000000000000000000000000000000000000001c7d4b196cb0c7b01d743fbc6116a902379c7238",
        "1770331968"
      ],
      "transaction": {
        "from": "0x89feeba43b294425c0d7b482770eefbcc1359f8d",
        "to": "0x429ba70129df741b2ca2a85bc3a2a3328e5c09b4",
        "gas": "0x84038",
        "value": "0x2386f26fc10000",
        "input": "0xdd46508f00000000000000000000000000000000000000000000000000000000000000400000000000000000000000000000000000000000000000000000000069851f400000000000000000000000000000000000000000000000000000000000000300000000000000000000000000000000000000000000000000000000000000004000000000000000000000000000000000000000000000000000000000000000800000000000000000000000000000000000000000000000000000000000000002020d00000000000000000000000000000000000000000000000000000000000000000000000000000000000000000000000000000000000000000000000000020000000000000000000000000000000000000000000000000000000000000040000000000000000000000000000000000000000000000000000000000000020000000000000000000000000000000000000000000000000000000000000001a000000000000000000000000000000000000000000000000000000000000000000000000000000000000000001c7d4b196cb0c7b01d743fbc6116a902379c72380000000000000000000000000000000000000000000000000000000000000bb8000000000000000000000000000000000000000000000000000000000000003c000000000000000000000000cab0dc0c50c3015ee87d12c8d6b4d89e0e5d40c0fffffffffffffffffffffffffffffffffffffffffffffffffffffffffff2764c00000000000000000000000000000000000000000000000000000000000d89b400000000000000000000000000000000000000000000000000000000000027100000000000000000000000000000000000000000000000000000000000002710000000000000000000000000000000000000000000000000002386f26fc1000000000000000000000000000089feeba43b294425c0d7b482770eefbcc1359f8d00000000000000000000000000000000000000000000000000000000000001800000000000000000000000000000000000000000000000000000000000000000000000000000000000000000000000000000000000000000000000000000004000000000000000000000000000000000000000000000000000000000000000000000000000000000000000001c7d4b196cb0c7b01d743fbc6116a902379c7238",
        "nonce": "0x96",
        "chainId": "0xaa36a7"
      },
      "additionalContracts": [],
      "isFixedGasLimit": false
    }
  ],
  "receipts": [
    {
      "status": "0x1",
      "cumulativeGasUsed": "0x64203a",
      "logs": [
        {
          "address": "0xe03a1074c86cfedd5c142c4f04f1a1536e203543",
          "topics": [
            "0xdd466e674ea557f56295e2d0218a125ea4b4f0f6f3307b95f85e6110838d6438",
            "0x950dbd5e6048cbc617b372a9efd5a852947c963593c82f676216d48a445fd6e7",
            "0x0000000000000000000000000000000000000000000000000000000000000000",
            "0x0000000000000000000000001c7d4b196cb0c7b01d743fbc6116a902379c7238"
          ],
          "data": "0x0000000000000000000000000000000000000000000000000000000000000bb8000000000000000000000000000000000000000000000000000000000000003c000000000000000000000000cab0dc0c50c3015ee87d12c8d6b4d89e0e5d40c000000000000000000000000000000000000000010000000000000000000000000000000000000000000000000000000000000000000000000000000000000000",
          "blockHash": "0x5e01382d6bd94f3e8e98cd48e13af124fc75e394b476e95882641c6417e32712",
          "blockNumber": "0x9ba1cd",
          "blockTimestamp": "0x69851d3c",
          "transactionHash": "0xe6eccac31a947310f49d51ccd8d7426a5c37be5a98c7dc309ad2d4dc69f4fafa",
          "transactionIndex": "0x49",
          "logIndex": "0x4b",
          "removed": false
        }
      ],
      "logsBloom": "0x00000000000000000000400000000000000000000000000000000080000000000000000000000000000000000000000000000100000004000000000000000000100000000000000000000000000000000000000000000000000000000000000000000000020000000000000000000800000000000000100000000000000000000000000000000008000000000000000000000001000000000000000000200000000000000000000000000000000000000000008000000000000000000000000000000000000000000000000000000004000000000000000000000000000020001000000000000000000000000000000000000000000000000000000000000000",
      "type": "0x2",
      "transactionHash": "0xe6eccac31a947310f49d51ccd8d7426a5c37be5a98c7dc309ad2d4dc69f4fafa",
      "transactionIndex": "0x49",
      "blockHash": "0x5e01382d6bd94f3e8e98cd48e13af124fc75e394b476e95882641c6417e32712",
      "blockNumber": "0x9ba1cd",
      "gasUsed": "0xc926",
      "effectiveGasPrice": "0x40723fae",
      "from": "0x89feeba43b294425c0d7b482770eefbcc1359f8d",
      "to": "0xe03a1074c86cfedd5c142c4f04f1a1536e203543",
      "contractAddress": null
    },
    {
      "status": "0x1",
      "cumulativeGasUsed": "0x64b71b",
      "logs": [
        {
          "address": "0x1c7d4b196cb0c7b01d743fbc6116a902379c7238",
          "topics": [
            "0x8c5be1e5ebec7d5bd14f71427d1e84f3dd0314c0f7b2291e5b200ac8c7c3b925",
            "0x00000000000000000000000089feeba43b294425c0d7b482770eefbcc1359f8d",
            "0x000000000000000000000000000000000022d473030f116ddee9f6b43ac78ba3"
          ],
          "data": "0xffffffffffffffffffffffffffffffffffffffffffffffffffffffffffffffff",
          "blockHash": "0x5e01382d6bd94f3e8e98cd48e13af124fc75e394b476e95882641c6417e32712",
          "blockNumber": "0x9ba1cd",
          "blockTimestamp": "0x69851d3c",
          "transactionHash": "0x17b7dfb68a6f9714fd0ac6b74b14d09c123a67f395ec95339c5b05d7ea3a11de",
          "transactionIndex": "0x4a",
          "logIndex": "0x4c",
          "removed": false
        }
      ],
      "logsBloom": "0x00000000000000000000000000000000000000000000000000000000000200000000000000000000000000000000000000000000800000000000000000200000000000000000000000004000000040000000000000000800000000000000000000000000000000000000000010000000000000000000000000000000000000000000000000100000000000000000000000000000000000000000000000000000020000000000000000000000000000000000000000000000000000000000000000100000000000000000000000000000000000000000000000000000000000000010000000000000000010000000000000000000000000000000000000000000",
      "type": "0x2",
      "transactionHash": "0x17b7dfb68a6f9714fd0ac6b74b14d09c123a67f395ec95339c5b05d7ea3a11de",
      "transactionIndex": "0x4a",
      "blockHash": "0x5e01382d6bd94f3e8e98cd48e13af124fc75e394b476e95882641c6417e32712",
      "blockNumber": "0x9ba1cd",
      "gasUsed": "0x96e1",
      "effectiveGasPrice": "0x40723fae",
      "from": "0x89feeba43b294425c0d7b482770eefbcc1359f8d",
      "to": "0x1c7d4b196cb0c7b01d743fbc6116a902379c7238",
      "contractAddress": null
    },
    {
      "status": "0x1",
      "cumulativeGasUsed": "0x652f01",
      "logs": [
        {
          "address": "0x000000000022d473030f116ddee9f6b43ac78ba3",
          "topics": [
            "0xda9fa7c1b00402c17d0161b249b1ab8bbec047c5a52207b9c112deffd817036b",
            "0x00000000000000000000000089feeba43b294425c0d7b482770eefbcc1359f8d",
            "0x0000000000000000000000001c7d4b196cb0c7b01d743fbc6116a902379c7238",
            "0x000000000000000000000000429ba70129df741b2ca2a85bc3a2a3328e5c09b4"
          ],
          "data": "0x000000000000000000000000ffffffffffffffffffffffffffffffffffffffff0000000000000000000000000000000000000000000000000000000069866e68",
          "blockHash": "0x5e01382d6bd94f3e8e98cd48e13af124fc75e394b476e95882641c6417e32712",
          "blockNumber": "0x9ba1cd",
          "blockTimestamp": "0x69851d3c",
          "transactionHash": "0x4e5c10b44f2340bbf472beb7bb22222d06482a07c3108587987a8c898093eda5",
          "transactionIndex": "0x4b",
          "logIndex": "0x4d",
          "removed": false
        }
      ],
      "logsBloom": "0x00010000000000000000000000000000000000000000000000000000000000000000000000000040080000000000000000000000000004000000000000080000100000000000000000000000000040000000000000000000000000000000000000000000000000000000000010000000000000000000000000000800000000000020000000000000000000000000000000000000000000000000000000000000000000000000000000000000000000000000008000000000000000080000000000100000000000000000000000000000000000000000000040000000000000000000000000000000000000000000000000000000000000000000000000000400",
      "type": "0x2",
      "transactionHash": "0x4e5c10b44f2340bbf472beb7bb22222d06482a07c3108587987a8c898093eda5",
      "transactionIndex": "0x4b",
      "blockHash": "0x5e01382d6bd94f3e8e98cd48e13af124fc75e394b476e95882641c6417e32712",
      "blockNumber": "0x9ba1cd",
      "gasUsed": "0x77e6",
      "effectiveGasPrice": "0x40723fae",
      "from": "0x89feeba43b294425c0d7b482770eefbcc1359f8d",
      "to": "0x000000000022d473030f116ddee9f6b43ac78ba3",
      "contractAddress": null
    },
    {
      "status": "0x1",
      "cumulativeGasUsed": "0x6ad342",
      "logs": [
        {
          "address": "0x429ba70129df741b2ca2a85bc3a2a3328e5c09b4",
          "topics": [
            "0xddf252ad1be2c89b69c2b068fc378daa952ba7f163c4a11628f55a4df523b3ef",
            "0x0000000000000000000000000000000000000000000000000000000000000000",
            "0x00000000000000000000000089feeba43b294425c0d7b482770eefbcc1359f8d",
            "0x00000000000000000000000000000000000000000000000000000000000059f2"
          ],
          "data": "0x",
          "blockHash": "0x5e01382d6bd94f3e8e98cd48e13af124fc75e394b476e95882641c6417e32712",
          "blockNumber": "0x9ba1cd",
          "blockTimestamp": "0x69851d3c",
          "transactionHash": "0x38e21641080c67603f7361081561faae5de57dc9ed0f6e98b3ccae62921fb6f7",
          "transactionIndex": "0x4c",
          "logIndex": "0x4e",
          "removed": false
        },
        {
          "address": "0xe03a1074c86cfedd5c142c4f04f1a1536e203543",
          "topics": [
            "0xf208f4912782fd25c7f114ca3723a2d5dd6f3bcc3ac8db5af63baa85f711d5ec",
            "0x950dbd5e6048cbc617b372a9efd5a852947c963593c82f676216d48a445fd6e7",
            "0x000000000000000000000000429ba70129df741b2ca2a85bc3a2a3328e5c09b4"
          ],
          "data": "0xfffffffffffffffffffffffffffffffffffffffffffffffffffffffffff2764c00000000000000000000000000000000000000000000000000000000000d89b4000000000000000000000000000000000000000000000000000000000000271000000000000000000000000000000000000000000000000000000000000059f2",
          "blockHash": "0x5e01382d6bd94f3e8e98cd48e13af124fc75e394b476e95882641c6417e32712",
          "blockNumber": "0x9ba1cd",
          "blockTimestamp": "0x69851d3c",
          "transactionHash": "0x38e21641080c67603f7361081561faae5de57dc9ed0f6e98b3ccae62921fb6f7",
          "transactionIndex": "0x4c",
          "logIndex": "0x4f",
          "removed": false
        },
        {
          "address": "0x1c7d4b196cb0c7b01d743fbc6116a902379c7238",
          "topics": [
            "0xddf252ad1be2c89b69c2b068fc378daa952ba7f163c4a11628f55a4df523b3ef",
            "0x00000000000000000000000089feeba43b294425c0d7b482770eefbcc1359f8d",
            "0x000000000000000000000000e03a1074c86cfedd5c142c4f04f1a1536e203543"
          ],
          "data": "0x0000000000000000000000000000000000000000000000000000000000002710",
          "blockHash": "0x5e01382d6bd94f3e8e98cd48e13af124fc75e394b476e95882641c6417e32712",
          "blockNumber": "0x9ba1cd",
          "blockTimestamp": "0x69851d3c",
          "transactionHash": "0x38e21641080c67603f7361081561faae5de57dc9ed0f6e98b3ccae62921fb6f7",
          "transactionIndex": "0x4c",
          "logIndex": "0x50",
          "removed": false
        }
      ],
      "logsBloom": "0x00000000000000000000401000000000000000000000000000000080080200000000000000000040080000000000000000000100000000000000000000000000000000000000000000000008000040000000000000000000000000000000100000000000020000000000000090000800000000000000100004000810000000000000000001100000000010000000000000000000000000000000000000000000000004000000000000000000000000000000000000400000000000000000000000100002000000000000000000000004000000000000000000001080000020001000000000000000000010000000000004000000000000000000000000000000",
      "type": "0x2",
      "transactionHash": "0x38e21641080c67603f7361081561faae5de57dc9ed0f6e98b3ccae62921fb6f7",
      "transactionIndex": "0x4c",
      "blockHash": "0x5e01382d6bd94f3e8e98cd48e13af124fc75e394b476e95882641c6417e32712",
      "blockNumber": "0x9ba1cd",
      "gasUsed": "0x5a441",
      "effectiveGasPrice": "0x40723fae",
      "from": "0x89feeba43b294425c0d7b482770eefbcc1359f8d",
      "to": "0x429ba70129df741b2ca2a85bc3a2a3328e5c09b4",
      "contractAddress": null
    }
  ],
  "libraries": [],
  "pending": [],
  "returns": {},
  "timestamp": 1770331449714,
  "chain": 11155111,
  "commit": "3d35e9d"
}