{
  "transactions": [
    {
      "hash": "0xee0eed5ed74f7df3eb6f7079607d5631ff94f1bfdcc7cf9f2c4972bdb2fc2a8f",
      "transactionType": "CALL",
      "contractName": null,
      "contractAddress": "0xe03a1074c86cfedd5c142c4f04f1a1536e203543",
      "function": "initialize((address,address,uint24,int24,address),uint160)",
      "arguments": [
        "(0x0000000000000000000000000000000000000000, 0x1c7D4B196Cb0C7B01d743Fbc6116a902379C7238, 3000, 60, 0xcaab137cd72E00e9146590949FF3Ade19038FFFD)",
        "79228162514264337593543950336"
      ],
      "transaction": {
        "from": "0x89feeba43b294425c0d7b482770eefbcc1359f8d",
        "to": "0xe03a1074c86cfedd5c142c4f04f1a1536e203543",
        "gas": "0x1492a",
        "value": "0x0",
        "input": "0x6276cbbe00000000000000000000000000000000000000000000000000000000000000000000000000000000000000001c7d4b196cb0c7b01d743fbc6116a902379c72380000000000000000000000000000000000000000000000000000000000000bb8000000000000000000000000000000000000000000000000000000000000003c000000000000000000000000caab137cd72e00e9146590949ff3ade19038fffd0000000000000000000000000000000000000001000000000000000000000000",
        "nonce": "0x8c",
        "chainId": "0xaa36a7"
      },
      "additionalContracts": [],
      "isFixedGasLimit": false
    },
    {
      "hash": "0xedf35d1c3a0b069c75a4a7a56a3e8a482b7d3c9468f194d4cec6a971b2896ebe",
      "transactionType": "CALL",
      "contractName": null,
      "contractAddress": "0x1c7d4b196cb0c7b01d743fbc6116a902379c7238",
      "function": "approve(address,uint256)",
      "arguments": [
        "0x000000000022D473030F116dDEE9F6B43aC78BA3",
        "115792089237316195423570985008687907853269984665640564039457584007913129639935"
      ],
      "transaction": {
        "from": "0x89feeba43b294425c0d7b482770eefbcc1359f8d",
        "to": "0x1c7d4b196cb0c7b01d743fbc6116a902379c7238",
        "gas": "0xdca8",
        "value": "0x0",
        "input": "0x095ea7b3000000000000000000000000000000000022d473030f116ddee9f6b43ac78ba3ffffffffffffffffffffffffffffffffffffffffffffffffffffffffffffffff",
        "nonce": "0x8d",
        "chainId": "0xaa36a7"
      },
      "additionalContracts": [],
      "isFixedGasLimit": false
    },
    {
      "hash": "0x88209e60461f312613321c9def6ec17c08571fedf4c5d96c6d19bbcbfc0e885c",
      "transactionType": "CALL",
      "contractName": null,
      "contractAddress": "0x000000000022d473030f116ddee9f6b43ac78ba3",
      "function": "approve(address,address,uint160,uint48)",
      "arguments": [
        "0x1c7D4B196Cb0C7B01d743Fbc6116a902379C7238",
        "0x429ba70129df741B2Ca2a85BC3A2a3328e5c09b4",
        "1461501637330902918203684832716283019655932542975",
        "1770416328"
      ],
      "transaction": {
        "from": "0x89feeba43b294425c0d7b482770eefbcc1359f8d",
        "to": "0x000000000022d473030f116ddee9f6b43ac78ba3",
        "gas": "0xa59b",
        "value": "0x0",
        "input": "0x87517c450000000000000000000000001c7d4b196cb0c7b01d743fbc6116a902379c7238000000000000000000000000429ba70129df741b2ca2a85bc3a2a3328e5c09b4000000000000000000000000ffffffffffffffffffffffffffffffffffffffff00000000000000000000000000000000000000000000000000000000698668c8",
        "nonce": "0x8e",
        "chainId": "0xaa36a7"
      },
      "additionalContracts": [],
      "isFixedGasLimit": false
    },
    {
      "hash": "0x391504ec2755be88af97795a2953149c5cd3c3598bf55d9296f9eeb6c391d1bd",
      "transactionType": "CALL",
      "contractName": null,
      "contractAddress": "0x429ba70129df741b2ca2a85bc3a2a3328e5c09b4",
      "function": "modifyLiquidities(bytes,uint256)",
      "arguments": [
        "0x000000000000000000000000000000000000000000000000000000000000004000000000000000000000000000000000000000000000000000000000000000800000000000000000000000000000000000000000000000000000000000000002020d00000000000000000000000000000000000000000000000000000000000000000000000000000000000000000000000000000000000000000000000000020000000000000000000000000000000000000000000000000000000000000040000000000000000000000000000000000000000000000000000000000000020000000000000000000000000000000000000000000000000000000000000001a000000000000000000000000000000000000000000000000000000000000000000000000000000000000000001c7d4b196cb0c7b01d743fbc6116a902379c72380000000000000000000000000000000000000000000000000000000000000bb8000000000000000000000000000000000000000000000000000000000000003c000000000000000000000000caab137cd72e00e9146590949ff3ade19038fffdfffffffffffffffffffffffffffffffffffffffffffffffffffffffffff2764c00000000000000000000000000000000000000000000000000000000000d89b400000000000000000000000000000000000000000000000000000000000027100000000000000000000000000000000000000000000000000000000000002710000000000000000000000000000000000000000000000000002386f26fc1000000000000000000000000000089feeba43b294425c0d7b482770eefbcc1359f8d00000000000000000000000000000000000000000000000000000000000001800000000000000000000000000000000000000000000000000000000000000000000000000000000000000000000000000000000000000000000000000000004000000000000000000000000000000000000000000000000000000000000000000000000000000000000000001c7d4b196cb0c7b01d743fbc6116a902379c7238",
        "1770330528"
      ],
      "transaction": {
        "from": "0x89feeba43b294425c0d7b482770eefbcc1359f8d",
        "to": "0x429ba70129df741b2ca2a85bc3a2a3328e5c09b4",
        "gas": "0x7f561",
        "value": "0x2386f26fc10000",
        "input": "0xdd46508f000000000000000000000000000000000000000000000000000000000000004000000000000000000000000000000000000000000000000000000000698519a00000000000000000000000000000000000000000000000000000000000000300000000000000000000000000000000000000000000000000000000000000004000000000000000000000000000000000000000000000000000000000000000800000000000000000000000000000000000000000000000000000000000000002020d00000000000000000000000000000000000000000000000000000000000000000000000000000000000000000000000000000000000000000000000000020000000000000000000000000000000000000000000000000000000000000040000000000000000000000000000000000000000000000000000000000000020000000000000000000000000000000000000000000000000000000000000001a000000000000000000000000000000000000000000000000000000000000000000000000000000000000000001c7d4b196cb0c7b01d743fbc6116a902379c72380000000000000000000000000000000000000000000000000000000000000bb8000000000000000000000000000000000000000000000000000000000000003c000000000000000000000000caab137cd72e00e9146590949ff3ade19038fffdfffffffffffffffffffffffffffffffffffffffffffffffffffffffffff2764c00000000000000000000000000000000000000000000000000000000000d89b400000000000000000000000000000000000000000000000000000000000027100000000000000000000000000000000000000000000000000000000000002710000000000000000000000000000000000000000000000000002386f26fc1000000000000000000000000000089feeba43b294425c0d7b482770eefbcc1359f8d00000000000000000000000000000000000000000000000000000000000001800000000000000000000000000000000000000000000000000000000000000000000000000000000000000000000000000000000000000000000000000000004000000000000000000000000000000000000000000000000000000000000000000000000000000000000000001c7d4b196cb0c7b01d743fbc6116a902379c7238",
        "nonce": "0x8f",
        "chainId": "0xaa36a7"
      },
      "additionalContracts": [],
      "isFixedGasLimit": false
    }
  ],
  "receipts": [
    {
      "status": "0x1",
      "cumulativeGasUsed": "0x7e4490",
      "logs": [
        {
          "address": "0xe03a1074c86cfedd5c142c4f04f1a1536e203543",
          "topics": [
            "0xdd466e674ea557f56295e2d0218a125ea4b4f0f6f3307b95f85e6110838d6438",
            "0xef17551e538005540b6541c5060500f5cccddea52a2ef8b40f31742d64d044e4",
            "0x0000000000000000000000000000000000000000000000000000000000000000",
            "0x0000000000000000000000001c7d4b196cb0c7b01d743fbc6116a902379c7238"
          ],
          "data": "0x0000000000000000000000000000000000000000000000000000000000000bb8000000000000000000000000000000000000000000000000000000000000003c000000000000000000000000caab137cd72e00e9146590949ff3ade19038fffd00000000000000000000000000000000000000010000000000000000000000000000000000000000000000000000000000000000000000000000000000000000",
          "blockHash": "0x263496a1f267534ab55fabca136a06da5980051ae20384f8fda6ac9daeba7029",
          "blockNumber": "0x9ba158",
          "blockTimestamp": "0x69851778",
          "transactionHash": "0xee0eed5ed74f7df3eb6f7079607d5631ff94f1bfdcc7cf9f2c4972bdb2fc2a8f",
          "transactionIndex": "0x53",
          "logIndex": "0x6a",
          "removed": false
        }
      ],
      "logsBloom": "0x00000000000000000000000000000000000000000000020000000000000000000000000000000000000000000000000000000100000004000000000000000000100000000000000000000000000000000000000000000000000000000000000000000000020000000000000000000800000000000000100000000000000000000000000000000008000000000000000000000001000000000000000000200000000000000000000000000000000000000000008000000000000000000000000000000000000000000000000000000000000020000000000000000000000020001000000000040000000000000000000000000000000000000000000000000000",
      "type": "0x2",
      "transactionHash": "0xee0eed5ed74f7df3eb6f7079607d5631ff94f1bfdcc7cf9f2c4972bdb2fc2a8f",
      "transactionIndex": "0x53",
      "blockHash": "0x263496a1f267534ab55fabca136a06da5980051ae20384f8fda6ac9daeba7029",
      "blockNumber": "0x9ba158",
      "gasUsed": "0xe112",
      "effectiveGasPrice": "0x3ef80b4e",
      "from": "0x89feeba43b294425c0d7b482770eefbcc1359f8d",
      "to": "0xe03a1074c86cfedd5c142c4f04f1a1536e203543",
      "contractAddress": null
    },
    {
      "status": "0x1",
      "cumulativeGasUsed": "0x7edb71",
      "logs": [
        {
          "address": "0x1c7d4b196cb0c7b01d743fbc6116a902379c7238",
          "topics": [
            "0x8c5be1e5ebec7d5bd14f71427d1e84f3dd0314c0f7b2291e5b200ac8c7c3b925",
            "0x00000000000000000000000089feeba43b294425c0d7b482770eefbcc1359f8d",
            "0x000000000000000000000000000000000022d473030f116ddee9f6b43ac78ba3"
          ],
          "data": "0xffffffffffffffffffffffffffffffffffffffffffffffffffffffffffffffff",
          "blockHash": "0x263496a1f267534ab55fabca136a06da5980051ae20384f8fda6ac9daeba7029",
          "blockNumber": "0x9ba158",
          "blockTimestamp": "0x69851778",
          "transactionHash": "0xedf35d1c3a0b069c75a4a7a56a3e8a482b7d3c9468f194d4cec6a971b2896ebe",
          "transactionIndex": "0x54",
          "logIndex": "0x6b",
          "removed": false
        }
      ],
      "logsBloom": "0x00000000000000000000000000000000000000000000000000000000000200000000000000000000000000000000000000000000800000000000000000200000000000000000000000004000000040000000000000000800000000000000000000000000000000000000000010000000000000000000000000000000000000000000000000100000000000000000000000000000000000000000000000000000020000000000000000000000000000000000000000000000000000000000000000100000000000000000000000000000000000000000000000000000000000000010000000000000000010000000000000000000000000000000000000000000",
      "type": "0x2",
      "transactionHash": "0xedf35d1c3a0b069c75a4a7a56a3e8a482b7d3c9468f194d4cec6a971b2896ebe",
      "transactionIndex": "0x54",
      "blockHash": "0x263496a1f267534ab55fabca136a06da5980051ae20384f8fda6ac9daeba7029",
      "blockNumber": "0x9ba158",
      "gasUsed": "0x96e1",
      "effectiveGasPrice": "0x3ef80b4e",
      "from": "0x89feeba43b294425c0d7b482770eefbcc1359f8d",
      "to": "0x1c7d4b196cb0c7b01d743fbc6116a902379c7238",
      "contractAddress": null
    },
    {
      "status": "0x1",
      "cumulativeGasUsed": "0x7f5357",
      "logs": [
        {
          "address": "0x000000000022d473030f116ddee9f6b43ac78ba3",
          "topics": [
            "0xda9fa7c1b00402c17d0161b249b1ab8bbec047c5a52207b9c112deffd817036b",
            "0x00000000000000000000000089feeba43b294425c0d7b482770eefbcc1359f8d",
            "0x0000000000000000000000001c7d4b196cb0c7b01d743fbc6116a902379c7238",
            "0x000000000000000000000000429ba70129df741b2ca2a85bc3a2a3328e5c09b4"
          ],
          "data": "0x000000000000000000000000ffffffffffffffffffffffffffffffffffffffff00000000000000000000000000000000000000000000000000000000698668c8",
          "blockHash": "0x263496a1f267534ab55fabca136a06da5980051ae20384f8fda6ac9daeba7029",
          "blockNumber": "0x9ba158",
          "blockTimestamp": "0x69851778",
          "transactionHash": "0x88209e60461f312613321c9def6ec17c08571fedf4c5d96c6d19bbcbfc0e885c",
          "transactionIndex": "0x55",
          "logIndex": "0x6c",
          "removed": false
        }
      ],
      "logsBloom": "0x00010000000000000000000000000000000000000000000000000000000000000000000000000040080000000000000000000000000004000000000000080000100000000000000000000000000040000000000000000000000000000000000000000000000000000000000010000000000000000000000000000800000000000020000000000000000000000000000000000000000000000000000000000000000000000000000000000000000000000000008000000000000000080000000000100000000000000000000000000000000000000000000040000000000000000000000000000000000000000000000000000000000000000000000000000400",
      "type": "0x2",
      "transactionHash": "0x88209e60461f312613321c9def6ec17c08571fedf4c5d96c6d19bbcbfc0e885c",
      "transactionIndex": "0x55",
      "blockHash": "0x263496a1f267534ab55fabca136a06da5980051ae20384f8fda6ac9daeba7029",
      "blockNumber": "0x9ba158",
      "gasUsed": "0x77e6",
      "effectiveGasPrice": "0x3ef80b4e",
      "from": "0x89feeba43b294425c0d7b482770eefbcc1359f8d",
      "to": "0x000000000022d473030f116ddee9f6b43ac78ba3",
      "contractAddress": null
    },
    {
      "status": "0x1",
      "cumulativeGasUsed": "0x85165e",
      "logs": [
        {
          "address": "0x429ba70129df741b2ca2a85bc3a2a3328e5c09b4",
          "topics": [
            "0xddf252ad1be2c89b69c2b068fc378daa952ba7f163c4a11628f55a4df523b3ef",
            "0x0000000000000000000000000000000000000000000000000000000000000000",
            "0x00000000000000000000000089feeba43b294425c0d7b482770eefbcc1359f8d",
            "0x00000000000000000000000000000000000000000000000000000000000059f1"
          ],
          "data": "0x",
          "blockHash": "0x263496a1f267534ab55fabca136a06da5980051ae20384f8fda6ac9daeba7029",
          "blockNumber": "0x9ba158",
          "blockTimestamp": "0x69851778",
          "transactionHash": "0x391504ec2755be88af97795a2953149c5cd3c3598bf55d9296f9eeb6c391d1bd",
          "transactionIndex": "0x56",
          "logIndex": "0x6d",
          "removed": false
        },
        {
          "address": "0xe03a1074c86cfedd5c142c4f04f1a1536e203543",
          "topics": [
            "0xf208f4912782fd25c7f114ca3723a2d5dd6f3bcc3ac8db5af63baa85f711d5ec",
            "0xef17551e538005540b6541c5060500f5cccddea52a2ef8b40f31742d64d044e4",
            "0x000000000000000000000000429ba70129df741b2ca2a85bc3a2a3328e5c09b4"
          ],
          "data": "0xfffffffffffffffffffffffffffffffffffffffffffffffffffffffffff2764c00000000000000000000000000000000000000000000000000000000000d89b4000000000000000000000000000000000000000000000000000000000000271000000000000000000000000000000000000000000000000000000000000059f1",
          "blockHash": "0x263496a1f267534ab55fabca136a06da5980051ae20384f8fda6ac9daeba7029",
          "blockNumber": "0x9ba158",
          "blockTimestamp": "0x69851778",
          "transactionHash": "0x391504ec2755be88af97795a2953149c5cd3c3598bf55d9296f9eeb6c391d1bd",
          "transactionIndex": "0x56",
          "logIndex": "0x6e",
          "removed": false
        },
        {
          "address": "0x1c7d4b196cb0c7b01d743fbc6116a902379c7238",
          "topics": [
            "0xddf252ad1be2c89b69c2b068fc378daa952ba7f163c4a11628f55a4df523b3ef",
            "0x00000000000000000000000089feeba43b294425c0d7b482770eefbcc1359f8d",
            "0x000000000000000000000000e03a1074c86cfedd5c142c4f04f1a1536e203543"
          ],
          "data": "0x0000000000000000000000000000000000000000000000000000000000002710",
          "blockHash": "0x263496a1f267534ab55fabca136a06da5980051ae20384f8fda6ac9daeba7029",
          "blockNumber": "0x9ba158",
          "blockTimestamp": "0x69851778",
          "transactionHash": "0x391504ec2755be88af97795a2953149c5cd3c3598bf55d9296f9eeb6c391d1bd",
          "transactionIndex": "0x56",
          "logIndex": "0x6f",
          "removed": false
        }
      ],
      "logsBloom": "0x00000000000000000000001000000000000000000000020000000000080200000000000000000040080000000000000000000100000000000000000000000000000000000000000000000008000040000400000000000000000000000000000080000000020000000000000090000800000000000000100000000810000000000000000001100000000010000000000000000000000000000000000000000000000004000000000000000000000000000000000000400000000000000000000000100002000000000000000000000000000020000000000000001000000020001000000000140000000010000000000004000000000000000000000000000000",
      "type": "0x2",
      "transactionHash": "0x391504ec2755be88af97795a2953149c5cd3c3598bf55d9296f9eeb6c391d1bd",
      "transactionIndex": "0x56",
      "blockHash": "0x263496a1f267534ab55fabca136a06da5980051ae20384f8fda6ac9daeba7029",
      "blockNumber": "0x9ba158",
      "gasUsed": "0x5c307",
      "effectiveGasPrice": "0x3ef80b4e",
      "from": "0x89feeba43b294425c0d7b482770eefbcc1359f8d",
      "to": "0x429ba70129df741b2ca2a85bc3a2a3328e5c09b4",
      "contractAddress": null
    }
  ],
  "libraries": [],
  "pending": [],
  "returns": {},
  "timestamp": 1770329973424,
  "chain": 11155111,
  "commit": "3d35e9d"
}